:020000040800F2
:10000000B8040020ED010008F316000817160008D8
:10001000F1160008250300088D23000800000000E9
:10002000000000000000000000000000251700088C
:100030002703000800000000F51600082717000835
:10004000070200080702000807020008070200086C
:10005000070200080702000807020008070200085C
:10006000070200080702000807020008070200084C
:10007000070200080702000807020008070200083C
:10008000070200080000000007020008070200083D
:10009000070200080702000807020008070200081C
:1000A000070200080702000807020008070200080C
:1000B00007020008070200080702000807020008FC
:1000C00007020008070200080702000807020008EC
:1000D0000702000881230008070200080702000841
:1000E00007020008070200080702000807020008CC
:1000F00007020008070200080702000800000000CD
:1001000000000000070200080000000007020008CD
:1001100007020008000000000702000807020008AC
:10012000070200080702000807020008070200088B
:10013000070200080000000000000000070200089D
:10014000070200080702000800000000000000008D
:10015000000000000000000000000000000000009F
:10016000000000000000000000000000070200087E
:10017000070200080000000000000000000000006E
:10018000000000000702000800000000000000005E
:10019000000000000000000000000000000000005F
:1001A000000000000000000007020008070200082D
:1001B000070200080702000807020008000000000C
:1001C000000000000702000800000000000000001E
:1001D0000702000807020008DFF80CD000F090F8D2
:1001E000004800475D250008B80400200648804705
:1001F00006480047FEE7FEE7FEE7FEE7FEE7FEE70C
:10020000FEE7FEE7FEE7FEE795170008D9010008C4
:100210002DE9F05F0546002092469B46884606463B
:10022000814640241BE0284641464746224600F0CE
:1002300057F853465A46C01A914110D311461846F2
:10024000224600F03EF82D1A67EB01084F46224681
:100250000120002100F035F817EB00094E41201E67
:10026000A4F10104DFDC484631462A464346BDE896
:10027000F09FD2B201E000F8012B491EFBD270477B
:100280000022F6E710B513460A4604461946FFF762
:10029000F0FF204610BD30B50B460146002020225D
:1002A000012409E021FA02F59D4205D303FA02F583
:1002B000491B04FA02F52844151EA2F10102F1DCE3
:1002C00030BD202A04DB203A00FA02F100207047FA
:1002D0009140C2F1200320FA03F319439040704784
:1002E000202A04DB203A21FA02F00021704721FA8B
:1002F00002F3D040C2F120029140084319467047F2
:10030000064C074D06E0E06840F0010394E8070062
:1003100098471034AC42F6D3FFF762FFDC250008A3
:10032000FC250008FEE7704772B6FEE770B590F84E
:100330002520002401212346022A07D00422C2637B
:1003400080F8251080F82430012429E0026815681F
:1003500025F00E0515600268156825F00105156089
:10036000826C156825F48075156090F84420056C42
:1003700002F01F0201FA02F26A60D0E9132555600B
:10038000426D32B1156825F480751560D0E91625E7
:10039000556080F8251080F82430816B01B18847C2
:1003A000204670BD2DE9FC4FDFF8A0A100230125F8
:1003B0000AF1040B03244FF00F0C0BF1040EBDE007
:1003C00005FA03F632406FD04F68012F05D0022F97
:1003D00003D0112F01D0122F17D1D0F808905F0051
:1003E00004FA07F829EA08090097D1F80C8008FAFE
:1003F00007F848EA0908C0F808804768B7430E794B
:10040000C6F300169E403E434660C6684FEA430866
:1004100004FA08F7BE4301978F6807FA08F73743D5
:10042000C7604E68022E01D0122E13D1DE0800EBF9
:1004300086060096366A5F07FF0E0CFA07F926EA71
:100440000906D1F8109009FA07F949EA0609009E51
:10045000C6F820900668019FBE430F7907F0030796
:1004600007FA08F7374307604E68F60065D5384E3F
:10047000376E47F001073766366E23F0030706F044
:1004800001060096334E3E44B146B6689F074FEAD8
:1004900017780CFA08F7BE43B0F1904F05D02E4FF5
:1004A000B84204D1012717E047E0002714E02B4FA2
:1004B000B84201D102270FE0294FB84201D10327EA
:1004C0000AE0284FB84201D1042705E0264FB84280
:1004D00001D1052700E0062707FA08F73743C9F8D6
:1004E0000870DAF800605746D1F8048096435FEA56
:1004F000C83800D516433E60DBF800605F46D1F88F
:10050000048096435FEA883800D516433E60DEF8E3
:1005100000607746D1F8048096435FEAC82800D58A
:1005200016433E60094F0C373E68D1F8048096436D
:100530005FEA882800D516433E605B1C0A6832FAE1
:1005400003F67FF43DAFBDE8FC8F000000040140DE
:10055000001002400000014000040048000800486C
:10056000000C004800100048001400480AB18161E6
:100570007047816270470000014880687047000042
:100580000800002002488168426811448160704779
:100590000800002010B50024032000F071F80F209F
:1005A00000F008F808B1012401E000F025F8204629
:1005B00010BD000070B50E4E05460024706898B15D
:1005C0004FF47A71B1FBF0F00A490968B1FBF0F021
:1005D00000F058FD40B9102D06D200222946501EC9
:1005E00000F02EF8356000E00124204670BD0000C8
:1005F0000800002014000020094808B5016E41F0F1
:1006000001010166016E01F001010091816D41F06F
:1006100080518165806D00F08050009008BD000021
:1006200000100240002809DB00F01F020121914068
:100630004009800000F1E020C0F800117047000080
:10064000F0B40E4B1B680C46C3F30223C3F107053D
:10065000042D00D90425191D072901D2002300E02B
:10066000DB1E012606FA05F1491E214099409E40F5
:10067000761E16403143F0BC01F09ABE0CED00E04E
:10068000064900F0070208684FF6FF03184040EAE9
:100690000220034A10430860704700000CED00E0A0
:1006A0000000FA052B492C4B0A6832214A432B499A
:1006B00040B1B0F5007F086829D020F4C06040F454
:1006C00080602CE00868C0F34120022804D051F873
:1006D000800F20F4807022E0D1F8800020F4807038
:1006E000C1F88000086820F4C06040F40070086021
:1006F000B2FBF3F0401C00E0401E4A69520501D5F0
:100700000028F9D1486940050AD503207047C0F395
:100710004120022806D051F8800F40F48070086014
:1007200000207047D1F8800040F48070C1F880004C
:10073000086820F4C06040F400700860B2FBF3F079
:10074000401C00E0401E4A695205DBD50028F9D163
:10075000D8E700001400002040420F000070004065
:100760002DE9F8430446006800269D4D00035ED540
:10077000A86D0027C00008D4A86D40F08050A8657F
:10078000A86D012700F080500090DFF85892D9F84A
:10079000001041F48071C9F80010FFF7EDFE8046AB
:1007A00006E000BFFFF7E8FEA0EB080002282BD808
:1007B000D9F80000C005F5D5D5F8900010F44070C8
:1007C00014D0216C814211D0D5F89000D5F890104A
:1007D00020F4407041F48031C5F89010D5F89010A5
:1007E00021F48031C5F89010C5F89000C00711D0F1
:1007F000FFF7C2FE804641F2883907E0FFF7BCFEF2
:10080000A0EB0801494501D903260BE0D5F890007B
:100810008007F3D5D5F89000216C20F44070084390
:10082000C5F890001FB1A86D20F08050A865207811
:10083000C00707D0D5F88800616820F0030008439E
:10084000C5F888002078800707D5D5F88800A1680A
:1008500020F00C000843C5F888002078400707D531
:10086000D5F88800E16820F030000843C5F888001A
:100870002078000707D5D5F88800216920F0C0004E
:100880000843C5F888002078800607D5D5F8880089
:10089000616920F440600843C5F88800207840066C
:1008A00007D5D5F88800A16920F440500843C5F861
:1008B00088002078000607D5D5F88800E16920F483
:1008C00040400843C5F888002088C00507D5D5F802
:1008D0008800216A20F440300843C5F88800208849
:1008E000800507D5D5F88800616A20F440200843C8
:1008F000C5F88800208840050FD5D5F88800A16A82
:1009000020F440100843C5F88800A06AB0F5801FA5
:1009100003D1E86840F48010E860208800050FD516
:10092000D5F88800E16A20F440000843C5F8880043
:10093000E06AB0F5800F03D1E86840F48010E86009
:100940002088C0040FD5D5F88800216B20F04070B6
:100950000843C5F88800206BB0F1807F03D1E868B8
:1009600040F48010E86020884FF0006180040ED5CC
:10097000D5F88800626B20F040601043C5F888000D
:10098000606B884203D1E86840F48010E8602088FA
:1009900040040ED5D5F88800A26B20F040601043CB
:1009A000C5F88800A06B884203D1E86840F4801045
:1009B000E860208800040FD5D5F88800E16B20F0AE
:1009C00040500843C5F88800E06BB0F1805F03D168
:1009D000E86840F48030E8603046BDE8F883000005
:1009E00000100240007000402DE9F0470E4605005F
:1009F0004FF0000725D0DFF8AC81D8F8000000F0F8
:100A00000F00B0420CD2D8F8001021F00F01314392
:100A1000C8F80010D8F8000000F00F00B04210D164
:100A20002968614CC80741F2883A5AD06868DFF8F3
:100A30007C91032808D0022820682DD0400500288A
:100A40002CDB0120BDE8F08720688001F9D5E06843
:100A500000F00302E068C0F30310401C032A19D021
:100A6000534A00BFB2FBF0F0E268C2F306225043E3
:100A7000E268C2F34162521C5200B0FBF2F04845FA
:100A800017D9A06810F0F00F0CD0880711D5A8680E
:100A900040B10EE0474AE5E78003D0E700F0B6F842
:100AA000484506D9A06820F0F00040F08000A06022
:100AB0008027A068696820F003000843A060FFF762
:100AC0005BFD814606E000BFFFF756FDA0EB090184
:100AD00051453AD8A068696800F00C00B0EB810F6E
:100AE000F2D12868810714D5400703D5A06840F4E7
:100AF000E060A0602878000705D5A06820F4605069
:100B000040F4E060A060A068A96820F0F00008430D
:100B100004E0802F03D1A06820F0F000A060D8F896
:100B20000010404601F00F01B14216D9016821F0D2
:100B30000F0131430160FFF71FFD074607E000BFCB
:100B4000FFF71AFDC11B514501D903207AE7D8F8F8
:100B5000000000F00F00B042F2D12878400705D520
:100B6000A068E96820F4E0600843A06028780007E6
:100B700006D5A068296920F4605040EAC100A06051
:100B800000F044F8A1680C4AC1F30311515C01F074
:100B90001F01C8400949086009480068BDE8F047DE
:100BA000FFF708BD002002400010024000B4C4045A
:100BB0000024F40000127A00C4250008140000206C
:100BC000080000200548064900688968054AC1F305
:100BD0000221515C01F01F01C84070471400002041
:100BE00000100240D42500080548064900688968BD
:100BF000054AC1F3C221515C01F01F01C840704792
:100C00001400002000100240D4250008184910B537
:100C10008868C0F381021748012A0BD08A68431004
:100C2000C2F38102022A06D08A68C2F38102032A33
:100C300003D0002010BD184610BDCA6802F003049E
:100C4000CA68C2F30312521C032C02D0B0FBF2F0AC
:100C500001E0B3FBF2F0CA68C968C2F30622504350
:100C6000C1F34161491C4900B0FBF1F010BD000027
:100C7000001002400024F4002DE9F84304007AD06B
:100C80002078FA4DC00747D0A868E96800F00C004A
:100C900001F003010C2802D0082817D001E0032935
:100CA00014D06068B0F5803F17D0B0F5A02F286849
:100CB00017D020F480302860286820F48020286035
:100CC0006068E0B1FFF758FC064614E0286880032E
:100CD00022D560680028D2D01EE0286840F4803019
:100CE000EDE740F480202860F7E700BFFFF744FC01
:100CF000801B642870D828688003F7D50CE0FFF7C4
:100D00003BFC064605E000BFFFF736FC801B64286D
:100D1000F0D828688003F7D4207880074CD5A868DD
:100D2000E96800F00C0001F003010C2802D004284F
:100D30000DD001E002290AD0E068002828682BD0F5
:100D400040F480702860FFF717FC064619E0286819
:100D5000400502D5E068002891D06868217C20F029
:100D6000FE4040EA01606860C1480068FFF722FC6D
:100D7000002800D120E076E1FFF7FEFB801B02286F
:100D8000B8D828684005F7D56868217C20F0FE4077
:100D900040EA016068600FE020F480702860FFF78F
:100DA000EBFB064605E000BFFFF7E6FB801B0228D1
:100DB000A0D828684005F7D42078000729D56069B5
:100DC0000028D5F8940013D040F00100C5F8940035
:100DD000FFF7D2FB064606E090E000BFFFF7CCFB32
:100DE000801B022886D8D5F894008007F6D510E03D
:100DF00020F00100C5F89400FFF7BEFB064604E0B2
:100E0000FFF7BAFB801B022878D8D5F8940080073A
:100E1000F6D42078400761D5A86D0026C00008D41C
:100E2000A86D40F08050A865A86D012600F08050A4
:100E3000009090480168C90511D40168804641F4CA
:100E400080710160FFF798FB074604E0FFF794FB11
:100E5000C01B022852D8D8F80000C005F6D5A068FB
:100E6000012815D00528D5F8900016D020F00100F3
:100E7000C5F89000D5F8900020F00400C5F8900067
:100E8000A06841F28838B8B1FFF776FB07460EE05C
:100E9000D5F8900040F00100F0E740F00400C5F8FC
:100EA0009000F5E7FFF768FBC11B414526D8D5F850
:100EB00090008007F6D50CE0FFF75EFB074604E0E4
:100EC000FFF75AFBC11B414518D8D5F890008007A1
:100ED000F6D41EB1A86D20F08050A8652078800659
:100EE00029D5A0690028D5F8980013D040F001005A
:100EF000C5F89800FFF740FB064606E077E000BF24
:100F0000FFF73AFB801B022877D8D5F898008007B6
:100F1000F6D510E020F00100C5F89800FFF72CFB93
:100F2000064604E0FFF728FB801B022865D8D5F8A9
:100F300098008007F6D4E069F0B3A968C1F3810195
:100F4000032961D00228286820F0807028600BD027
:100F5000E86820F00300E860E86847490840E86076
:100F6000FFF70AFB04464BE0FFF706FB064604E0EA
:100F7000FFF702FB801B02283FD828688001F7D4C6
:100F8000F4E908016FF00F0202EB01110843218A16
:100F90005204490802EB4151A26841EA0221084388
:100FA000217D4FF07E42490802EB41610843217BDD
:100FB00040EAC160E96800E062E0304A114008435D
:100FC000E860286840F080702860E86840F0807031
:100FD000E860FFF7D1FA044605E000BFFFF7CCFA5E
:100FE000001B022809D828688001F7D548E004E0F2
:100FF000FFF7C2FA001B022802D90320BDE8F883DC
:1010000028688001F4D43BE00128F7D0E868226A20
:1010100000F00301914226D1616A00F0F00209015B
:10102000103991421FD1A26A00F4FE41B1EB022FA8
:1010300019D194F82C2000F07841B1EBC26F12D195
:10104000218E00F4C00249084905A1F50011914222
:1010500009D194F8341000F0C06049084906A1F1A4
:10106000007181420CD00120C8E70000001002404E
:101070000800002000700040FFFFEEFE0C809F0182
:101080000020BBE710B5401EB0F1807F01D30120E6
:1010900010BD4FF0E02460610F21601701F088F966
:1010A0000020A06107202061002010BD90F87C1076
:1010B000012918D0012180F87C102421C0F880106B
:1010C00050F8601B0A680B6823F001030B6022F0E4
:1010D00000510022426050F8603C196020210162FA
:1010E00002771046704702207047704770B504467B
:1010F00090F87C0001281DD0012084F87C00242079
:10110000C4F8800020680568026822F001020260CD
:101110002068826822F060620A438260204600F004
:1011200047FB206805602020C4F88000002084F878
:101130007C0070BD022070BD70B5044690F87C0044
:1011400001281DD0012084F87C002420C4F88000F0
:1011500020680568026822F0010202602068826847
:1011600022F060420A438260204600F021FB2068A2
:1011700005602020C4F88000002084F87C0070BD49
:10118000022070BD70477047704700002DE9F041A4
:1011900003680446D8691A68996810F00F0F4FF079
:1011A000000569D05E4E02F490770E4037437DD043
:1011B000C70709D0D70507D501271F62D4F88830A3
:1011C00043F00103C4F8883083070AD5CB0708D061
:1011D000276802233B62D4F8883043F00403C4F844
:1011E000883043070AD5CB0708D0276804233B6221
:1011F000D4F8883043F00203C4F8883003070CD5D4
:1012000002F02003334308D0266808233362D4F861
:10121000883043F00803C4F88830D4F88830002BB5
:101220003CD0800609D502F0200001F0805108432F
:1012300003D0E16E09B120468847D4F888002168C0
:101240008968490601D400072AD5204600F080FBB2
:101250002068816849061ED5816821F040018160BF
:10126000A06FC0B12F498163A06FFFF75FF800281E
:1012700014D0A06F816B0AE0860617D502F0200615
:1012800001F080573E4311D0E16E24E02046BDE8D6
:10129000F04108470AE02046FFF776FFBDE8F081FD
:1012A0002046FFF771FFC4F88850F7E7C60209D55A
:1012B0004E0207D54FF4801018622046BDE8F04179
:1012C000FFF761BF060609D502F0800601F40001B0
:1012D0000E4303D0216F0029D8D1DFE741060DD599
:1012E00051060BD51968204621F0400119602021D4
:1012F000C4F88010256700F08DF9CFE7010206D50C
:10130000510004D52046BDE8F041FFF73BBFC001C6
:10131000C4D5002AC2DA2046BDE8F041FFF7E5BE99
:10132000010000103B19000810B5040003D0D4F8E8
:10133000800010B107E0012010BD002084F87C007F
:10134000204600F027F82420C4F8800020680168B7
:1013500021F001010160204600F00CFC0128EBD0D7
:10136000A06A10B1204600F055FA2068416821F4C7
:10137000904141602068816821F02A0181602068E5
:10138000016841F0010101602046BDE8104000F015
:10139000A5BA000010B598B00446142111A8FEF7B4
:1013A0006FFF44216846FEF76BFF1B4920688842A7
:1013B00030D101200024CDE900046846FFF7D0F9C0
:1013C00008B1FEF7B1FF1548016E41F48041016696
:1013D000016E01F480411691C16C41F00101C164BC
:1013E000C06C11A900F0010016904FF4C06011907C
:1013F0000220CDE912040720CDE914404FF09040BF
:10140000FEF7D0FF002211462520FFF719F925200D
:10141000FFF708F918B010BD003801400010024075
:1014200070B5D0F88430202B6DD1B9B1B2B190F83D
:101430007C30012B67D0012380F87C308165A0F8D7
:101440005C20A0F85E200021C16683684FF48056BE
:10145000FF24B34207D1036913B11CE0012070BD22
:1014600040F2FF131DE07F259BB1B3F1805F15D0E3
:10147000A0F86010C0F888102223C0F884300368F8
:101480009C6844F001049C60436EB3F1005F0ED091
:1014900027E0036943B9A0F86040EBE703691BB19B
:1014A0003F23A0F86030E5E7A0F86050E2E7B0F82D
:1014B0006830934215D88268B24201D1026972B194
:1014C000124AC26680F87C1001680A6842F4807291
:1014D0000A600068816841F0805181600FE00C4A29
:1014E000EFE78268B24201D1026952B1094AC2668D
:1014F00080F87C100068016841F490710160002060
:1015000070BD054AF3E7022070BD0000D51A00083F
:10151000D5190008751A0008751900080A480168ED
:101520000A484160411C0A4B0A7801785A54491C08
:1015300001700A2A01D10021017004490122491CCD
:101540000448FFF76DBF00001000002000000020DD
:101550001C000020280000202DE9F8430446D0F8A4
:1015600080001F4616460D46202851D1DDB1D6B168
:1015700094F87C0001284BD0012084F87C004FF0C7
:101580000008C4F888802120C4F880001834FEF7D1
:10159000F3FFA6878146E68754F8100C183CB0F597
:1015A000805F03D004E00120BDE8F883206910B11A
:1015B0002E46002510E000260EE08021204600F097
:1015C000ACFEB8B9C6B116F8010B21688862B4F850
:1015D0005600401EA4F85600B4F856004B464FF093
:1015E000000200970028E8D14FF04001204600F0AB
:1015F00094FE30B10320D7E735F8020BC0F30800A2
:10160000E3E72020C4F8800084F87C800020CBE74A
:101610000220C9E77047FEE710B586B0142168467E
:10162000FEF72EFE1548C16C41F02001C164C16C6B
:1016300001F020010591C16C41F00101C164C16C50
:1016400001F001010591C16C41F00801C164C06C59
:101650000B4C00F008000590002204212046FEF704
:1016600085FF0420009001200021CDE901010391B4
:1016700069462046FEF796FE06B010BD00100240F7
:10168000000C0048194810B5174901604FF4165175
:101690004160002181600C22C160C0E904128161B7
:1016A000C161016241628162FFF73EFE08B1FEF74F
:1016B0003BFE4FF000510D48FFF73EFD08B1FEF72D
:1016C00033FE4FF000710948FFF710FD08B1FEF737
:1016D0002BFE0648FFF7EAFC002803D0BDE81040C7
:1016E000FEF722BE10BD0000003801402800002097
:1016F000FEE7FEE77047000007490A6807484368AD
:10170000D21A322A07D309684160002101700448C7
:10171000016041600181704710000020000000203E
:101720001C0000207047FEF72DBF00B593B0382194
:101730006846FEF7A5FD14210EA8FEF7A1FD4FF4A3
:101740000070FEF7AFFF0220C10103914021049118
:101750000090079008901421CDE909010B900C909E
:101760000D906846FFF788FA08B172B6FEE70F20C1
:101770000E9003200F9000201090119012900221E3
:101780000EA8FFF731F9002801D072B6FEE713B0BA
:1017900000BD00000548016841F470010160034983
:1017A0004FF00060803908607047000088ED00E06D
:1017B0003FB514A1D1E90021CDE9002113A2D2E95E
:1017C0000012CDE90212416EB9B1026891689268C7
:1017D000C1F34261520F1DF80240E50002ACA25C69
:1017E000B5FBF2F2A0F86A201DF80120615CD2007E
:1017F000B2FBF1F1A0F868103FBD0121A0F86A101A
:10180000F8E70000010101030701000008040204D9
:101810000801010190F82810C90706D001684A683C
:10182000C36A22F400321A434A6090F828108907EC
:1018300006D501684A68036B22F480321A434A6075
:1018400090F82810490706D501684A68436B22F4CE
:1018500080221A434A6090F82810090706D50168CB
:101860004A68836B22F400421A434A6090F82810B9
:10187000C90606D501688A68C36B22F480521A43F0
:101880008A6090F82810890606D501688A68036C7A
:1018900022F400521A438A6090F82810490611D5A4
:1018A00001684A68436C22F480121A434A60416C12
:1018B000B1F5801F06D101684A68836C22F4C0022A
:1018C0001A434A6090F82810090606D501684A684C
:1018D000C06C22F4002202434A607047F8B500262B
:1018E0000446C0F88860FEF747FE05462068006899
:1018F0006FF07E47000708D52B4600224FF40011F9
:101900002046009700F009FD60B920680068400794
:101910000AD52B4600224FF480012046009700F0A4
:10192000FCFC08B10320F8BD2020C4F88000C4F8F6
:10193000840084F87C600020F8BD10B5806A002126
:10194000A0F85E10A0F85610FFF71EFC10BD0000B6
:1019500001680A6822F490720A6001688A68044B80
:101960001A408A602021C0F884100021C1667047A7
:10197000FEFFFFEF10B5B0F86020D0F884300168AA
:10198000222B04D0886940F00800886110BD496AA4
:10199000836D11401980816D891C8165B0F85E10DE
:1019A000491EA0F85E10B0F85E100029EED1016863
:1019B0000A6822F490720A6001688A6822F00102C3
:1019C0008A602021C0F884100021C166FFF7A6FDBF
:1019D00010BD000070B50446B0F86060D0F8840017
:1019E000222805D02068816941F00801816170BD1D
:1019F000B4F8685023E02068406AA16D3040088048
:101A0000A06D801CA065B4F85E00401EA4F85E00C6
:101A1000B4F85E0088B92068016821F48071016023
:101A200020688168114A114081602020C4F8840038
:101A30000020E0662046FFF771FD6D1EADB2002D5F
:101A4000D9D1B4F85E000028D1D0B4F86810814232
:101A5000CDD92068816821F0805181600448E0661A
:101A60002068016841F02001016070BDFEFFFFEFBA
:101A70007519000810B5B0F86020D0F884300168FE
:101A8000222B04D0886940F00800886110BD496AA3
:101A90001140826D1170816D491C8165B0F85E1036
:101AA000491EA0F85E10B0F85E100029EED1016862
:101AB0000A6822F490720A6001688A6822F00102C2
:101AC0008A602021C0F884100021C166FFF726FD3E
:101AD00010BD000070B50446B0F86060D0F8840016
:101AE000222805D02068816941F00801816170BD1C
:101AF000B4F8685023E02068406AA16D3040087057
:101B0000A06D401CA065B4F85E00401EA4F85E0005
:101B1000B4F85E0088B92068016821F48071016022
:101B200020688168114A114081602020C4F8840037
:101B30000020E0662046FFF7F1FC6D1EADB2002DDF
:101B4000D9D1B4F85E000028D1D0B4F86810814231
:101B5000CDD92068816821F0805181600448E06619
:101B60002068016841F02001016070BDFEFFFFEFB9
:101B7000751A00082DE9F05F044601688068236942
:101B8000E5691843636900272B431843636EFA4ADB
:101B900003430868F94D28401843086020684168ED
:101BA000E36821F44051194341602168A0699142E2
:101BB00001D0236A18438B68F14D2B4003438B609F
:101BC0002068C16A636A21F00F011943C162ED4BBD
:101BD0002068ED4998420DD1D1F8881011F0030129
:101BE00006D001295AD0022956D003293FD157E007
:101BF00001253DE0E54B98420BD1D1F8881011F05A
:101C00000C0147D0042949D0082945D00C292ED1F0
:101C100046E0DF4B98420BD1D1F8881011F030012B
:101C200038D010293AD0202936D030291FD137E0BA
:101C3000D84B98420BD1D1F8881011F0C00129D0AF
:101C400040292BD0802927D0C02910D128E09042EC
:101C50000DD1D1F8881011F440611BD0B1F5806F1F
:101C60001CD0B1F5006F17D0B1F5406F18D010251A
:101C7000DFF824A34FF480764FF000094FF4004BB7
:101C800090426ED175B1022D29D0042D59D0082D66
:101C900068D176E00025EBE70225E9E70425E7E7D0
:101CA0000825E5E7FEF78EFF4DE0012851D0022818
:101CB00051D0032851D0042851D0052853D00628EC
:101CC00053D0072853D0082853D0092853D00A28C6
:101CD00053D00B2853D03AE0B1FBF0F06CE0606ACF
:101CE000A8B1012817D0022817D0032817D004283C
:101CF00017D0052817D0062817D0072817D008288E
:101D000017D0092817D00A2817D00B2817D0012080
:101D1000BAFBF0F050E00220FAE70420F8E70620D2
:101D2000F6E70820F4E70A20F2E70C20F0E710209D
:101D3000EEE72020ECE74020EAE78020E8E73046A5
:101D4000E6E7FEF763FF0146606A0028ADD1012097
:101D5000C2E70220C0E70420BEE70620BCE7082057
:101D6000BAE761E14AE00A20B6E70C20B4E71020A8
:101D7000B2E72020B0E74020AEE78020ACE7304655
:101D8000AAE7606AA8B1012822D0022822D003283D
:101D900022D0042822D0052822D0062822D00728C5
:101DA00022D0082822D0092822D00A2822D00B28A5
:101DB00022D00120BBFBF0F0002820D061688846CB
:101DC00001EB4101814219D8B0EB083F16D817E06A
:101DD0000220EFE70420EDE70620EBE70820E9E723
:101DE0000A20E7E70C20E5E71020E3E72020E1E701
:101DF0004020DFE78020DDE73046DBE7012739E2DE
:101E00007DB3022D61D0042D7DD0082DF6D1606AFE
:101E1000A8B1012878D0022877D0032876D00428EA
:101E200075D0052874D0062873D0072872D00828EA
:101E300071D0092870D00A286FD00B2800D0012655
:101E400032464D46002358460021FEF7E1F90902CB
:101E500041EA106102024FEA5800101869414246F7
:101E600070E0FFE7FEF7AEFE0146606AA8B1012808
:101E700017D0022817D0032817D0042817D0052818
:101E800017D0062817D0072817D0082817D00928F8
:101E900017D00A2817D00B2800D0012632464D460D
:101EA0008CE00226FAE70426F8E70626F6E708267D
:101EB000F4E70A26F2E70C26F0E71026EEE72026E4
:101EC000ECE74026EAE78026E8E7606AA8B1012847
:101ED00024D0022824D0032824D0042824D0052884
:101EE00024D0062824D0072824D0082824D0092864
:101EF00024D00A2824D00B2800D0012632464D4693
:101F000000235046A0E726E07AE07BE07CE07DE01D
:101F10007EE07FE080E081E082E083E00226EDE782
:101F20000426EBE70626E9E70826E7E70A26E5E7C1
:101F30000C26E3E71026E1E72026DFE74026DDE771
:101F40008026DBE70023FEF763F9144AA0F5407111
:101F5000914271D952E7FEF759FE0146606A50B3CB
:101F6000012839D0022839D0032839D0042839D0A3
:101F7000052839D0062813E000800040F369FFCF20
:101F8000FFF4FF11003801400010024000440040FF
:101F900000480040004C00400024F400FFFC0F000B
:101FA00024D0072824D0082824D0092824D00A289F
:101FB00024D00B2800D001264D4632460023084687
:101FC0001946FEF725F90902626841EA1061030229
:101FD000500818186941B5E70226EDE70426EBE73B
:101FE0000626E9E70826E7E70A26E5E70C26E3E701
:101FF0001026E1E72026DFE74026DDE78026DBE745
:1020000002261DE704261BE7062619E7082617E720
:102010000A2615E70C2613E7102611E720260FE7FE
:1020200040260DE780260BE7E0694FF6EF7858452C
:1020300070D1092D8ED200E01AE1DFE805F0060923
:102040003C05800505058300D8E6FEF7BBFD01E0F1
:10205000FEF7CAFD0146606AA8B1012815D0022822
:1020600015D0032815D0042815D0052815D006282A
:1020700015D0072815D0082815D0092815D00A280A
:1020800015D00B2814D0012612E0022610E00426F9
:102090000EE006260CE008260AE00A2608E00C26D8
:1020A00006E0102604E0202602E0402600E080261C
:1020B000B1FBF6F01AE0606AA8B101282BD0022823
:1020C0002BD003282BD004282BD005282BD0062872
:1020D0002BD007282BD008282BD009282BD00A2852
:1020E0002BD00B2800D00126BAFBF6F04100606827
:1020F00001EB5001B1FBF0F080B2A0F110014145BD
:10210000A2D84FF6F0710140C0F3420001432068AD
:10211000C160AFE046E00226E6E70426E4E70626D3
:10212000E2E70826E0E70A26DEE70C26DCE71026D1
:10213000DAE72026D8E74026D6E78026D4E7FEF760
:1021400065FD87E7606AA8B1012817D0022817D07B
:10215000032817D0042817D0052817D0062817D031
:10216000072817D0082817D0092817D00A2817D011
:102170000B2800D00126BBFBF6F0B7E70226FAE7F2
:102180000426F8E70626F6E70826F4E70A26F2E72B
:102190000C26F0E71026EEE72026ECE74026EAE7DB
:1021A0008026E8E7092DBFF4D5AEDFE805F0060983
:1021B0003C0583050505860020E6FEF703FD01E0EA
:1021C000FEF712FD0146606AA8B1012815D0022869
:1021D00015D0032815D0042815D0052815D00628B9
:1021E00015D0072815D0082815D0092815D00A2899
:1021F00015D00B2814D0012612E0022610E0042688
:102200000EE006260CE008260AE00A2608E00C2666
:1022100006E0102604E0202602E0402600E08026AA
:10222000B1FBF6F11AE0606AA8B101282ED00228AD
:102230002ED003282ED004282ED005282ED00628F4
:102240002ED007282ED008282ED009282ED00A28D4
:102250002ED00B2800D00126BAFBF6F1606801EB06
:102260005001B1FBF0F080B2A0F110014145A3D8BC
:102270002168C8600120A4F86A0024F8680F384675
:10228000C4F80490C4F80890BDE8F09F0226E3E784
:102290000426E1E70626DFE70826DDE70A26DBE776
:1022A0000C26D9E71026D7E72026D5E74026D3E726
:1022B0008026D1E7FEF7AAFC84E7606AA8B101286E
:1022C00017D0022817D0032817D0042817D00528C4
:1022D00017D0062817D0072817D0082817D00928A4
:1022E00017D00A2817D00B2800D00126BBFBF6F127
:1022F000B4E70226FAE70426F8E70626F6E70826FA
:10230000F4E70A26F2E70C26F0E71026EEE720268F
:10231000ECE74026EAE78026E8E72DE9F041984619
:1023200017460E460446069D08E0681C06D0FEF7D8
:1023300023F9A0EB0800A8420BD855B12068C0696A
:1023400036EA000019D00020B842EED00020BDE8E7
:10235000F0812068016821F4D071016020688168F3
:1023600021F0010181602020C4F88000C4F88400BD
:10237000002084F87C000320E9E70120E4E7000066
:102380000148FEF703BF000028000020FEE7000020
:102390000FB4054B10B503A9044A029800F028F8C1
:1023A00010BC5DF814FB0000452500081800002053
:1023B0000907090E002804DB00F1E02080F8001472
:1023C000704700F00F0000F1E02080F8141D704706
:1023D00002E008C8121F08C1002AFAD170477047EE
:1023E000002001E001C1121F002AFBD1704700004C
:1023F0002DE9FF4F89B09B460446002506E02528BD
:102400000BD05A460B999047641C6D1C207800280D
:10241000F5D10DB02846BDE8F08F0027B84601225F
:10242000474900E0074314F8013F203B02FA03F05C
:102430000842F7D120782E2819D114F8010F47F05F
:1024400004072A280ED06FF02F022078A0F1300167
:1024500009290CD808EB880102EB410100EB0108C7
:10246000641CF2E70A98641C50F8048B0A902078E8
:102470000028CED0642808D0692806D075281ED040
:102480005A460B9990476D1C58E00A994FF00A097B
:1024900001C90A91002802DA40422D2102E03905E3
:1024A00004D52B218DF82010012103E0F90704D079
:1024B0002021F7E78A4608AE0DE00021FAE70A99E5
:1024C0004FF00A0901C90A91F7E74946FDF7E3FE13
:1024D000303106F8011D0028F7D1ADEB060000F100
:1024E0002009780701D44FF00108C84502DDA8EBA8
:1024F000090000E000208046002706E008A85A46B0
:10250000C05D0B9990476D1C7F1C5745F6DB04E0BE
:1025100030205A460B9990476D1CB8F10001A8F184
:102520000108F5DC05E016F8010B5A460B999047B7
:102530006D1CB9F10001A9F10109F4DC641C65E727
:102540000928010013B53223012269460248FFF72A
:1025500003F800981CBD000028000020FEF71AF8C0
:10256000FFF7E3F8FFF758F8FFF78CF832230C2257
:1025700009A10D48FEF7F0FF0CA0FFF709FF0321AA
:102580000CA0FFF705FF01220D490748FEF748FFA1
:10259000FFF7B2F8FCE7000068656C6C6F20776F9E
:1025A00072640D0A000000002800002068656C6C51
:1025B0006F0D0A00646174613A2564220000000016
:1025C00001000020000000000000000001020304E0
:1025D000060708090000000001020304FC250008AA
:1025E000000000201C000000D0230008182600086E
:1025F0001C0000209C040000E023000800000000F4
:1026000000000000100000000100000000000000B9
:082610000024F40000000000AA
:04000005080001D915
:00000001FF
