:020000040800F2
:1000000078060020790200080B100008350E000861
:10001000091000087F0300083D11000800000000DF
:10002000000000000000000000000000B110000807
:1000300081030008000000000D100008B310000844
:10004000930200089302000893020008930200083C
:10005000930200089302000893020008930200082C
:10006000930200089302000893020008930200081C
:10007000930200089302000893020008930200080C
:100080009302000800000000930200089302000899
:1000900093020008930200089302000893020008EC
:1000A00093020008930200089302000893020008DC
:1000B00093020008930200089302000893020008CC
:1000C00093020008930200089302000893020008BC
:1000D00093020008930200089302000893020008AC
:1000E000930200089302000893020008930200089C
:1000F0009302000893020008930200080000000029
:1001000000000000930200080000000093020008B5
:100110009302000800000000930200089302000808
:10012000930200089302000893020008930200085B
:100130009302000800000000000000009302000885
:100140009302000893020008000000000000000075
:10015000000000000000000000000000000000009F
:1001600000000000000000000000000093020008F2
:1001700093020008000000000000000000000000E2
:1001800000000000930200080000000000000000D2
:10019000000000000000000000000000000000005F
:1001A0000000000000000000930200089302000815
:1001B0009302000893020008930200080000000068
:1001C0000000000093020008000000000000000092
:1001D000930200089302000800F002F800F03CF8D7
:1001E0000AA090E8000C82448344AAF10107DA4592
:1001F00001D100F031F8AFF2090EBAE80F0013F0A8
:10020000010F18BFFB1A43F001031847AC0F0000A1
:10021000CC0F0000103A24BF78C878C1FAD8520732
:1002200024BF30C830C144BF04680C607047000070
:100230000023002400250026103A28BF78C1FBD8EF
:10024000520728BF30C148BF0B6070471FB500F090
:10025000A5FF1FBD10B510BD00F058F81146FFF7FF
:10026000F5FF00F083FF00F076F803B4FFF7F2FF2C
:1002700003BC00F07DF800000948804709480047AA
:10028000FEE7FEE7FEE7FEE7FEE7FEE7FEE7FEE746
:10029000FEE7FEE704480549054A064B70470000A3
:1002A00021110008D90100087800002078060020FC
:1002B00078020020780200204FF0000200B51346BB
:1002C00094469646203922BFA0E80C50A0E80C5076
:1002D000B1F12001BFF4F7AF090728BFA0E80C5027
:1002E00048BF0CC05DF804EB890028BF40F8042B20
:1002F00008BF704748BF20F8022B11F0804F18BF8D
:1003000000F8012B7047704770477047754600F042
:100310002BF8AE4605006946534620F00700854697
:1003200018B020B5FFF7B6FFBDE820404FF000063B
:100330004FF000074FF000084FF0000B21F00701CD
:10034000AC46ACE8C009ACE8C009ACE8C009ACE810
:10035000C0098D46704710B50446AFF300802046B3
:10036000BDE81040FFF781BF00487047140000202F
:1003700001491820ABBEFEE7260002007047FEE7E9
:10038000704710B5044600F0D3FDA02000F091FDA9
:1003900000F004FE204600F08CFD00F0FFFD00F0B0
:1003A000C7FDA12000F085FD00F0F8FD00F05AFD2A
:1003B000044600F0A5FD00F0D6FD204610BD70B546
:1003C0000D46044600F0B4FDA02000F072FD00F0E0
:1003D000E5FD204600F06DFD00F0E0FD284600F050
:1003E00068FD00F0DBFD00F0BEFDBDE870400520BB
:1003F000AFF3008070B5044600F0F8F80546601CC5
:1004000002D004484068044400F0F0F8401BA042C9
:10041000FAD370BD040000202DE9FC4FDFF8A0A145
:10042000002301250AF1040B03244FF00F0C0BF1FC
:10043000040EBDE005FA03F632406FD04F68012F7D
:1004400005D0022F03D0112F01D0122F17D1D0F8D1
:1004500008905F0004FA07F829EA08090097D1F824
:100460000C8008FA07F848EA0908C0F808804768CD
:10047000B7430E79C6F300169E403E434660C668F9
:100480004FEA430804FA08F7BE4301978F6807FA5A
:1004900008F73743C7604E68022E01D0122E13D1E1
:1004A000DE0800EB86060096366A5F07FF0E0CFA40
:1004B00007F926EA0906D1F8109009FA07F949EA7E
:1004C0000609009EC6F820900668019FBE430F797A
:1004D00007F0030707FA08F7374307604E68F6008E
:1004E00065D5384E376E47F001073766366E23F014
:1004F000030706F001060096334E3E44B146B66847
:100500009F074FEA17780CFA08F7BE43B0F1904FF7
:1005100005D02E4FB84204D1012717E047E000274D
:1005200014E02B4FB84201D102270FE0294FB84207
:1005300001D103270AE0284FB84201D1042705E082
:10054000264FB84201D1052700E0062707FA08F731
:100550003743C9F80870DAF800605746D1F80480CC
:1005600096435FEAC83800D516433E60DBF800606A
:100570005F46D1F8048096435FEA883800D5164379
:100580003E60DEF800607746D1F8048096435FEA6B
:10059000C82800D516433E60094F0C373E68D1F895
:1005A000048096435FEA882800D516433E605B1CB2
:1005B0000A6832FA03F67FF43DAFBDE8FC8F000015
:1005C0000004014000100240000001400004004807
:1005D00000080048000C00480010004800140048C3
:1005E0000069084000D00120704700000148806881
:1005F00070470000040000200248816842681144EE
:10060000816070470400002010B50024032000F032
:1006100063F80F2000F008F808B1012401E000F0B1
:1006200025F8204610BD000070B50E4E054600248A
:10063000706898B14FF47A71B1FBF0F00A4909681B
:10064000B1FBF0F000F0E2FB40B9102D06D2002221
:100650002946501E00F020F8356000E001242046B5
:1006600070BD00000400002010000020094808B5FB
:10067000016E41F001010166016E01F0010100917E
:10068000816D41F080518165806D00F08050009057
:1006900008BD000000100240F0B40E4B1B680C4671
:1006A000C3F30223C3F10705042D00D90425191D46
:1006B000072901D2002300E0DB1E012606FA05F11E
:1006C000491E214099409E40761E16403143F0BCA1
:1006D00000F035BD0CED00E0064900F007020868A7
:1006E0004FF6FF03184040EA0220034A1043086017
:1006F000704700000CED00E00000FA052B492C4B80
:100700000A6832214A432B4940B1B0F5007F08689E
:1007100029D020F4C06040F480602CE00868C0F369
:100720004120022804D051F8800F20F4807022E08C
:10073000D1F8800020F48070C1F88000086820F4AF
:10074000C06040F400700860B2FBF3F0401C00E0B1
:10075000401E4A69520501D50028F9D14869400573
:100760000AD503207047C0F34120022806D051F873
:10077000800F40F48070086000207047D1F880003E
:1007800040F48070C1F88000086820F4C06040F434
:1007900000700860B2FBF3F0401C00E0401E4A69A4
:1007A0005205DBD50028F9D1D8E700001000002061
:1007B00040420F00007000402DE9F0470E46050052
:1007C0004FF0000725D0DFF8AC81D8F8000000F02A
:1007D0000F00B0420CD2D8F8001021F00F013143C5
:1007E000C8F80010D8F8000000F00F00B04210D197
:1007F0002968614CC80741F2883A5AD06868DFF826
:100800007C91032808D0022820682DD040050028BC
:100810002CDB0120BDE8F08720688001F9D5E06875
:1008200000F00302E068C0F30310401C032A19D053
:10083000534A00BFB2FBF0F0E268C2F30622504315
:10084000E268C2F34162521C5200B0FBF2F048452C
:1008500017D9A06810F0F00F0CD0880711D5A86840
:1008600040B10EE0474AE5E78003D0E700F092F898
:10087000484506D9A06820F0F00040F08000A06054
:100880008027A068696820F003000843A060FFF794
:10089000ADFE814606E000BFFFF7A8FEA0EB090110
:1008A00051453AD8A068696800F00C00B0EB810FA0
:1008B000F2D12868810714D5400703D5A06840F419
:1008C000E060A0602878000705D5A06820F460509B
:1008D00040F4E060A060A068A96820F0F000084340
:1008E00004E0802F03D1A06820F0F000A060D8F8C9
:1008F0000010404601F00F01B14216D9016821F005
:100900000F0131430160FFF771FE074607E000BFAA
:10091000FFF76CFEC11B514501D903207AE7D8F8D7
:10092000000000F00F00B042F2D12878400705D552
:10093000A068E96820F4E0600843A0602878000718
:1009400006D5A068296920F4605040EAC100A06083
:1009500000F020F8A1680C4AC1F30311515C01F0CA
:100960001F01C8400949086009480068BDE8F04710
:10097000FFF75ABE002002400010024000B4C40439
:100980000024F40000127A00A611000810000020D4
:1009900004000020184910B58868C0F38102174888
:1009A000012A0BD08A684310C2F38102022A06D0C2
:1009B0008A68C2F38102032A03D0002010BD1846C2
:1009C00010BDCA6802F00304CA68C2F30312521CC5
:1009D000032C02D0B0FBF2F001E0B3FBF2F0CA68E6
:1009E000C968C2F306225043C1F34161491C490062
:1009F000B0FBF1F010BD0000001002400024F40034
:100A00002DE9F84304007AD02078FA4DC00747D08A
:100A1000A868E96800F00C0001F003010C2802D07E
:100A2000082817D001E0032914D06068B0F5803F92
:100A300017D0B0F5A02F286817D020F48030286098
:100A4000286820F4802028606068E0B1FFF7CEFDC0
:100A5000064614E02868800322D560680028D2D0BA
:100A60001EE0286840F48030EDE740F480202860E4
:100A7000F7E700BFFFF7BAFD801B642870D828682D
:100A80008003F7D50CE0FFF7B1FD064605E000BF97
:100A9000FFF7ACFD801B6428F0D828688003F7D4EA
:100AA000207880074CD5A868E96800F00C0001F0B8
:100AB00003010C2802D004280DD001E002290AD03D
:100AC000E068002828682BD040F480702860FFF789
:100AD0008DFD064619E02868400502D5E06800282B
:100AE00091D06868217C20F0FE4040EA0160686097
:100AF000C1480068FFF798FD002800D120E076E1AA
:100B0000FFF774FD801B0228B8D828684005F7D588
:100B10006868217C20F0FE4040EA016068600FE0D8
:100B200020F480702860FFF761FD064605E000BFF5
:100B3000FFF75CFD801B0228A0D828684005F7D489
:100B40002078000729D560690028D5F8940013D0D3
:100B500040F00100C5F89400FFF748FD064606E0A6
:100B600090E000BFFFF742FD801B022886D8D5F831
:100B700094008007F6D510E020F00100C5F894003D
:100B8000FFF734FD064604E0FFF730FD801B022826
:100B900078D8D5F894008007F6D42078400761D53E
:100BA000A86D0026C00008D4A86D40F08050A8654C
:100BB000A86D012600F08050009090480168C9059A
:100BC00011D40168804641F480710160FFF70EFD89
:100BD000074604E0FFF70AFDC01B022852D8D8F8E8
:100BE0000000C005F6D5A068012815D00528D5F865
:100BF000900016D020F00100C5F89000D5F89000C4
:100C000020F00400C5F89000A06841F28838B8B11F
:100C1000FFF7ECFC07460EE0D5F8900040F001002D
:100C2000F0E740F00400C5F89000F5E7FFF7DEFCC0
:100C3000C11B414526D8D5F890008007F6D50CE0B9
:100C4000FFF7D4FC074604E0FFF7D0FCC11B414589
:100C500018D8D5F890008007F6D41EB1A86D20F002
:100C60008050A8652078800629D5A0690028D5F88D
:100C7000980013D040F00100C5F89800FFF7B6FCCB
:100C8000064606E077E000BFFFF7B0FC801B0228B5
:100C900077D8D5F898008007F6D510E020F001004D
:100CA000C5F89800FFF7A2FC064604E0FFF79EFC9B
:100CB000801B022865D8D5F898008007F6D4E06933
:100CC000F0B3A968C1F38101032961D00228286823
:100CD00020F0807028600BD0E86820F00300E86006
:100CE000E86847490840E860FFF780FC04464BE0AD
:100CF000FFF77CFC064604E0FFF778FC801B022827
:100D00003FD828688001F7D4F4E908016FF00F029A
:100D100002EB01110843218A5204490802EB4151B8
:100D2000A26841EA02210843217D4FF07E42490832
:100D300002EB41610843217B40EAC160E96800E0C1
:100D400062E0304A11400843E860286840F0807053
:100D50002860E86840F08070E860FFF747FC0446D0
:100D600005E000BFFFF742FC001B022809D82868F5
:100D70008001F7D548E004E0FFF738FC001B0228AB
:100D800002D90320BDE8F88328688001F4D43BE051
:100D90000128F7D0E868226A00F00301914226D1C9
:100DA000616A00F0F0020901103991421FD1A26A74
:100DB00000F4FE41B1EB022F19D194F82C2000F081
:100DC0007841B1EBC26F12D1218E00F4C002490804
:100DD0004905A1F50011914209D194F8341000F0B1
:100DE000C06049084906A1F1007181420CD0012080
:100DF000C8E700000010024004000020007000401E
:100E0000FFFFEEFE0C809F010020BBE710B5401EE7
:100E1000B0F1807F01D3012010BD4FF0E02460616C
:100E20000F21601700F08BF90020A06107202061DE
:100E3000002010BDFEE7000000B585B01421684613
:100E4000FFF73AFAC02000900120019002900220A2
:100E5000039069460248FFF7DFFA05B000BD0000C5
:100E60000004004870B50824002500F0E9F813E0FC
:100E70006806050E002000F0CBF8142000F06FF992
:100E8000142000F06CF9012000F0C2F8142000F0EA
:100E900066F900F0C9F80543641EE4B2E8D2002008
:100EA00000F0B6F8142000F05AF900F0EBF82846EC
:100EB00070BD70B50446082516E000F0A9F81420AE
:100EC00000F04DF904F0800000F0D0F8142000F09C
:100ED00046F96006040E142000F041F9012000F0EC
:100EE00097F8142000F03BF96D1EEDB24FF00000B2
:100EF000E3D200F08DF8BDE87040142000F02FB967
:100F000010B5012000F0B2F8142000F028F91420E8
:100F100000F025F9012000F07BF8142000F01FF903
:100F2000002000F075F8BDE81040142000F017B95B
:100F300010B5012000F09AF8142000F010F90120FB
:100F400000F066F8142000F00AF9002000F08EF896
:100F5000142000F004F9002000F05AF8BDE8104019
:100F6000142000F0FCB810B5002000F051F8142057
:100F700000F0F5F8002000F079F8142000F0EFF808
:100F8000012000F045F8142000F0E9F8012000F0FD
:100F90006DF8BDE81040142000F0E1B810B505244C
:100FA00000F04EF8142000F0DAF8012000F030F8DC
:100FB000142000F0D4F805E0641EA4B2142000F060
:100FC000CEF86CB100F030F80028F5D100F05AF8F6
:100FD000002000F01DF8142000F0C1F8002010BD22
:100FE00000F050F8FFF7BFFF012010BD054808B51D
:100FF000C16C41F02001C164C06C00F02000009081
:1010000008BD000000100240FEE7FEE77047000048
:1010100008B1044801E003481030016841F0400184
:10102000016070471804004810B580210348FFF79D
:10103000D7FA012800D0002010BD000000040048AD
:1010400000B585B014216846FFF736F9802000907E
:10105000002001900120029002200390694602487E
:10106000FFF7DAF905B000BD0004004808B10448F4
:1010700001E003481030016841F0800101607047D1
:101080001804004800B585B014216846FFF714F92C
:1010900080200090112001900020029002200390F7
:1010A00069460248FFF7B8F905B000BD00040048E2
:1010B0007047FFF7A1BA00B593B038216846FFF733
:1010C000FBF814210EA8FFF7F7F84FF40070FFF7B4
:1010D00015FB0220C101039140210491009007906B
:1010E00008901421CDE909010B900C900D906846F1
:1010F000FFF786FC08B172B6FEE70F200E900320C2
:101100000F90002010901190129002210EA8FFF76E
:1011100053FB002801D072B6FEE713B000BD0000FB
:101120000548016841F47001016003494FF0006017
:10113000803908607047000088ED00E0FEE709078D
:10114000090E002804DB00F1E02080F8001470474D
:1011500000F00F0000F1E02080F8141D704700211E
:1011600000E0491C8142FCD370470000FFF74CFAB5
:10117000FFF7A1FFFFF73AFFFFF75EFE55212020A2
:10118000FFF71DF90120FFF735F92020FFF7F9F8E7
:1011900001490870FEE70000000000204FF0407099
:1011A000E1EE100A7047000000000000000001029C
:1011B0000304060708090000D811000800000020F9
:1011C0001400000014020008EC11000814000020B4
:1011D000640600003002000800000000100000005B
:0C11E00001000000000000000024F400EA
:04000005080001D915
:00000001FF
