:020000040800F2
:1000000008050020ED0100082F230008011D00084D
:100010002D230008590200082D27000800000000C9
:100020000000000000000000000000009926000809
:100030005B02000800000000312300089B26000836
:10004000070200080702000807020008070200086C
:10005000070200080702000807020008070200085C
:10006000070200080702000807020008070200084C
:10007000070200080702000807020008070200083C
:10008000070200080000000007020008070200083D
:10009000070200080702000807020008070200081C
:1000A000070200080702000807020008070200080C
:1000B00007020008070200080702000807020008FC
:1000C00007020008070200080702000807020008EC
:1000D00007020008070200080702000807020008DC
:1000E00007020008070200080702000807020008CC
:1000F00007020008070200080702000800000000CD
:1001000000000000070200080000000007020008CD
:1001100007020008000000000702000807020008AC
:10012000070200080702000807020008070200088B
:10013000070200080000000000000000070200089D
:10014000070200080702000800000000000000008D
:10015000000000000000000000000000000000009F
:10016000000000000000000000000000070200087E
:10017000070200080000000000000000000000006E
:10018000000000000702000800000000000000005E
:10019000000000000000000000000000000000005F
:1001A000000000000000000007020008070200082D
:1001B000070200080702000807020008000000000C
:1001C000000000000702000800000000000000001E
:1001D0000702000807020008DFF80CD000F02AF838
:1001E000004800474D2700080805002006488047C2
:1001F00006480047FEE7FEE7FEE7FEE7FEE7FEE70C
:10020000FEE7FEE7FEE7FEE711270008D901000838
:10021000D2B201E000F8012B491EFBD27047002248
:10022000F6E710B513460A4604461946FFF7F0FFF5
:10023000204610BD064C074D06E0E06840F0010383
:1002400094E8070098471034AC42F6D3FFF7C8FF94
:100250001C3A00083C3A0008FEE77047002240F6CE
:10026000B83306E00021491C89B29942FBD3521CE5
:1002700092B28242F6D3704770470000F0B49BB050
:10028000002390F85820012A19D0012280F8582024
:100290000268394C0025B2F1A04F14D00095DDF86A
:1002A00000C0BCF1000F10D0DDF800C0DCF808C0C1
:1002B000CCF3800C9268C2F3800282B112E01BB0D2
:1002C0000220F0BC70470094E9E7C16D41F02001C5
:1002D000C16580F858501BB00120F0BC7047BCF1DC
:1002E000000F0AD0C16D41F02001C165012380F8E3
:1002F00058501BB01846F0BC7047204A0E684FF0AB
:10030000A04C16B3966890F8387026F4604646EA1A
:1003100047364F683E439660DCF808C00CF0010C8D
:10032000A46804F001045CEA040CE0D1D1F800C038
:1003300089684CEA0101D2F808C02CF01F0C2CF49B
:10034000706C41EA0C019160D1E7916821F4604141
:100350009160DCF8081001F00101D4F808C00CF03D
:10036000010C51EA0C01C2D1916821F01F0121F466
:1003700070619160BBE70000000100500003005075
:100380002DE9F80700239C46CDF800C0FE4E90F8FA
:100390005820012A12D0012480F85840026895683C
:1003A000C5F3800575B1C16D41F02001C165012320
:1003B00080F858C01846BDE8F8077047BDE8F80750
:1003C000022070478D880F6805F4407802EB981280
:1003D000D2F8308005F01F054FF01F0909FA05F922
:1003E000C7F3846728EA090807FA05F548EA05050E
:1003F000156302689568C5F380059768C7F3C00761
:100400002F434FF0070540F0FF80D1F80880B8F186
:10041000004F53D00F6807F0007902EBD952D2F8A1
:100420001490C7F3045705FA07FA29EA0A0908FAEB
:1004300007F749EA070757610268576927F000473D
:10044000576102684F69D2F80C80C8F3C1084FEABF
:10045000480807FA08F80F69042F4CD0D1F800902B
:1004600002EB8702176EDFF824A309F0F84907EAC8
:100470000A0749EA080847EA080747F000471766ED
:100480000268D1F810808F6902EB8802D2F8608090
:1004900028F0807848EA070717660F7F0268D1F8CE
:1004A0001080012F24D0002702EB8802D2F8608050
:1004B00028F0007848EA07071766A5E00F684FF0B4
:1004C000000807F0007902EBD952D2F81490C7F374
:1004D000045705FA07FA29EA0A0908FA07F749EA68
:1004E000070757610268576947F000475761A8E757
:1004F0004FF00077D8E702F160073F6800277F03DD
:100500007F0B7CD002F160073F6807F0F84797FA4D
:10051000A7F7B7FA87F80F68C7F31209B9F1000F08
:100520006ED097FAA7F7B7FA87F7B84503D1176ED9
:1005300027F0004717660268121D02F160073F6846
:1005400000277F037F0B71D002F160073F6807F03F
:10055000F84797FAA7F7B7FA87F80F68C7F31209B1
:10056000B9F1000F6AD097FAA7F7B7FA87F7B8453D
:1005700003D1176E27F0004717660268083202F1B0
:1005800060073F6800277F037F0B5AD002F16007A6
:100590003F6807F0F84797FAA7F7B7FA87F80F68A8
:1005A000C7F31209B9F1000F53D097FAA7F7B7FABA
:1005B00087F7B84503D1176E27F000471766026822
:1005C0000C3202F160073F6800277F037F0B43D0A6
:1005D00002F160073F6807F0F84797FAA7F7B7FA04
:1005E00087F80F68C7F31209B9F1000F3CD097FAEA
:1005F000A7F7B7FA87F7B84506D1176E01E009E00B
:1006000010E027F0004717660268976807F00107B7
:100610006FB3D1E002F160073F6807F0F8474FEA97
:10062000976878E7C7F384677FE7FFE702F1600721
:100630003F6807F0F8474FEA97688EE7C7F384678B
:1006400095E702F160073F6807F0F8474FEA9768BF
:10065000A5E7C7F38467ACE702F160073F6807F0DE
:10066000F8474FEA9768BCE7C7F38467C3E791F898
:100670000C800F68D2F8B090C7F3120A29EA0A0971
:10068000DFF80CA108F018082AFA08F808EA0707AA
:1006900049EA0707C2F8B070CA68B2427AD10A685C
:1006A000076812EA0A061AD092FAA2F6B6FA86F695
:1006B000761C06F01F06092E32D8C2F31206002E51
:1006C00010D092FAA2F6B6FA86F606F1010606F006
:1006D0001F0604FA06F608D1C2F3846409E0C2F3E7
:1006E0008466E5E7C2F38466EFE792FAA2F4B4FA0F
:1006F00084F404F1010404F01F0446EA846402D186
:10070000C2F3846203E092FAA2F2B2FA82F202F138
:10071000010202F01F0202EB420244EA025432E0FC
:10072000C2F31206002E0DD092FAA2F6B6FA86F6A1
:1007300006F1010606F01F0604FA06F605D1C2F31B
:10074000846406E0C2F38466F2E792FAA2F4B4FA93
:1007500084F404F1010404F01F0446EA846402D125
:10076000C2F3846203E092FAA2F2B2FA82F202F1D8
:10077000010202F01F02A2F10A0202EB420244EA65
:10078000025242F0007406E000007F4000F0FF03D8
:10079000FFFF070010E08E6804F0007207EBD252F2
:1007A0005769C4F3045405FA04F527EA050506FA67
:1007B00004F445EA040454610A682F490A423FF4EC
:1007C000F7AD2E4CA16801F0E07102F1705515F5FE
:1007D0005F0502D02A4DAA4202D111F4000F1ED0AB
:1007E000284D02F1605616F52E0602D111F0807FD9
:1007F00035D002F1505616F5F8067FF4D9AD11F454
:10080000800F7FF4D5AD0268AA423FF4D1AD41F428
:100810008001A26822F0E0721143A160C8E502687D
:10082000B2F1A04F7FF4C4AD41F40001A26822F000
:10083000E0721143A1601449144A0968B1FBF2F156
:1008400001EB410189000091009900293FF4B0AD0E
:100850000099491E009100990029F9D1A8E5026884
:10086000AA423FF4A5AD41F08071A26822F0E07287
:100870001143A1609CE500000000088000030050C7
:100880001000C090000100500C000020400D03003B
:10089000F8B50446002500260096002C02D0E06D35
:1008A00010B107E00120F8BD204600F0F7F82666F9
:1008B00084F8586020688168C1F3407129B181686B
:1008C00021F03F0121F02041816020688168C1F35F
:1008D0000071A9B9816821F03F0121F0004141F088
:1008E00080518160684869490068B0FBF1F0009070
:1008F000009828B10098401E009000980028F9D177
:1009000020688168C1F3007141B9E16D41F01001C7
:10091000E165216E41F00101216601258168C1F385
:100920008001E26D12F0100F00D131B1E06D40F0A6
:100930001000E06501252846F8BDE16D21F48071C5
:1009400041F00201E165806800F0010088B94FF0D4
:10095000A040806800F001004D49896801F0010164
:10096000084306D160684B498A6822F47C12104320
:100970008860E168E06B627F0843A16841EA423128
:10098000084394F8241040EA0140012903D1218D45
:10099000491E40EA4140E16A21B101F47871226BBD
:1009A000084310432168CA683B4B1A401043C86093
:1009B00020680169626B21F0406111430161206888
:1009C0008168C1F380018268C2F3C002114332D151
:1009D000217F94F83820890341EA4201C26822F05D
:1009E000020222F480421143C160206970B1206884
:1009F000016941F4803101612068D0F8C01022699A
:100A00006FF30D011143C0F8C0100BE020680169BD
:100A100021F4803101612068D0F8C0106FF30D011E
:100A2000C0F8C01094F84000012813D02068016974
:100A300021F001010161606901281CD02068016B6F
:100A400021F00F010163E06D20F0020040F0010091
:100A5000E06570E7A16C606C226D0843E16C1143A6
:100A600040EA0102206801696FF38A01114341F0F5
:100A700001010161DFE72068016B226A21F00F01AB
:100A8000521E11430163DEE70C000020400D0300FD
:100A900000010050000300500740F0FFF0B587B0A0
:100AA000044614216846FFF7BAFB214B2668002450
:100AB0001A6803251F482049521CB6F1A04F06D0E2
:100AC0001E4FBE4231D11A60012A16D01DE01A60B5
:100AD000012A07D1CA6C42F40052CA64CA6C02F4FB
:100AE00000520592CA6C42F00202CA64C96C01F05D
:100AF000020105914FF4805111E0CA6C42F400529A
:100B0000CA64CA6C02F400520592CA6C42F0020236
:100B1000CA64C96C01F0020105914FF40041CDE9AE
:100B200000150294694600F05BF907B0F0BD0000C3
:100B3000080000200004004800100240000100509E
:100B40002DE9F04704460D460027607901280BD0B7
:100B50004FF0010884F8058002202071A86802F097
:100B60001006042803D058E00220BDE8F0874FF0BB
:100B7000030992B12068406B10F0004F34D000F0B0
:100B800055FAC01B01282AD9206940F008002061CD
:100B900084F804900320BDE8F08700F047FA074688
:100BA0002068406B10F4004F12D000F03FFAC01BD9
:100BB000012808D9206940F00800206184F80490D9
:100BC0000320BDE8F0872068406B10F4004FECD1A3
:100BD000012000F0F1F82168686A08640AE02068E2
:100BE000406B10F0004FCAD1012000F0E5F82168F9
:100BF000686A48642068816C40F2FF32B2409143D9
:100C0000AA6AB240114381642068C16CFF22B240DD
:100C10009143EA6AB2401143C164E869012808D1EE
:100C20002068816B1F22B24091432A6AB24011436F
:100C300081632068C06B0721B14020EA0101A869E7
:100C400010F0010F01D0002008E010F0020F01D0D9
:100C5000012003E06869002850D000206B69AA6871
:100C60001A4302434FF48070B04081432879012831
:100C700046D0002002434FF40070B04081436879B1
:100C8000012840D0002040EA020921F440472868AA
:100C900002283BD0074309FA06F038432168C863AD
:100CA000206801684FF48042B2409143016020689F
:100CB000016840F6FE72B2409143EA68B2401143C7
:100CC000016020680168C022B24091430160287B26
:100CD000C0F38300297C01F03C0140EA81112068C7
:100CE000026E40F60F73B3409A43B1401143016660
:100CF00084F8048000206071BDE8F0870120ADE732
:100D00004FF48070B6E74FF40070BCE700F010FDC0
:100D10000549884202D947F40047BCE703498842A5
:100D2000B9D947F48047B6E70068890900B4C4041C
:100D300070B50446002C03D02079002510B105E0E1
:100D4000012070BD6571204600F008F80220207176
:100D5000256101202071002070BD000010B586B013
:100D6000044614216846FFF75AFA11492068884260
:100D70001BD11048C16C41F48031C164C16C01F4D5
:100D800080310591C16C41F00101C164C06C6946BC
:100D900000F0010005903020009003200190002019
:100DA00002904FF0904000F01BF806B010BD00001C
:100DB000000800500010024070B5044600F036F9FB
:100DC0000546B4F1FF3F02D004484068044400F0F7
:100DD0002DF9401BA042FAD370BD00001000002086
:100DE0002DE9F84F00220B68002B7CD00324874E9E
:100DF000874F0F250123D1F800C003FA02F80CEA4F
:100E00000803002B70D0D1F804C0BCF1010F08D04A
:100E1000BCF1020F05D0BCF1110F02D0BCF1120FD2
:100E20001DD1D0F808904FEA420C04FA0CFA29EAD6
:100E30000A09D1F80CA00AFA0CFC4CEA090CC0F81B
:100E400008C0D0F804C02CEA080C91F80480C8F35C
:100E5000001808FA02F848EA0C0CC0F804C0D0F8F0
:100E60000C804FEA420C04FA0CFA28EA0A08D1F87E
:100E7000089009FA0CF949EA0808C0F80C80D1F882
:100E80000480B8F1020F02D0B8F1120F15D14FEA69
:100E9000D20800EB8808D8F820B04FEA42794FEA30
:100EA000D96905FA09FE2BEA0E0BD1F810E00EFA0B
:100EB00009F949EA0B09C8F82090D0F8008028EA1F
:100EC0000A0891F8049009F0030909FA0CFC4CEAAD
:100ED000080CC0F800C0D1F804C01CF0805F7CD0C2
:100EE000D6F860C001E07DE077E04CF0010CC6F878
:100EF00060C0D6F860C00CF0010CCDF800C022F044
:100F0000030C0CF1804909F58039D9F808C04FEA83
:100F100082784FEA187805FA08FA2CEA0A0AB0F142
:100F2000904F64D0A0F1904CBCF5806C5CD0A0F1E7
:100F3000904CBCF5006C5DD0A0F1904CBCF5406CC1
:100F40005BD0A0F1904CBCF5805C59D0A0F1904CE6
:100F5000BCF5A05C57D04FF0060C0CFA08FC4CEA2C
:100F60000A0CC9F808C0D7F800C02CEA030CD1F865
:100F7000048018F4803F01D04CEA030CC7F800C08D
:100F8000DFF89080D8F800C02CEA030CD1F8049068
:100F900019F4003F01D04CEA030CC8F800C0DFF898
:100FA0007880D8F800C02CEA030CD1F8049019F42A
:100FB000801F01D04CEA030CC8F800C0DFF85C8049
:100FC000D8F800C02CEA030CD1F8049019F4001FE3
:100FD00001D04CEA030CC8F800C0521C0B68D34087
:100FE0007FF408AFBDE8F88F4FF0010CB5E74FF084
:100FF000000CB2E74FF0020CAFE74FF0030CACE788
:101000004FF0040CA9E74FF0050CA6E700100240D2
:101010000004014004040140080401400C040140A4
:10102000002A01D081617047816270470148806861
:101030007047000010000020024881684268114497
:10104000816070471000002010B50024032000F0DC
:1010500081F8002000F008F808B1012401E000F058
:1010600029F8204610BD000070B5054600240F4E3B
:101070007068002817D04FF47A71B1FBF0F00C497A
:101080000968B1FBF0F000F027FE08B101240BE085
:10109000102D06D200222946501E00F027F8356098
:1010A00002E0012400E00124204670BD1000002071
:1010B0000C0000200B4808B5016E41F001010166EB
:1010C000016E01F001010091816D41F08051816557
:1010D000806D00F0805000900348816841F48041A9
:1010E000816008BD001002400070004010B4184B31
:1010F0001B68C3F30223C3F1070CBCF1040F01D931
:101100004FF0040C1C1D072C01D2002300E0DB1E55
:10111000012404FA0CFCACF1010C0CEA0101994029
:1011200004FA03F35B1E1A401143002806DB00F1AA
:10113000E020090180F8001410BC704700F00F0097
:1011400000F1E020090180F8141D10BC7047000078
:101150000CED00E000F00700064A11684FF6FF03AF
:10116000194041EA002040F0FD7040F080601060BE
:10117000704700000CED00E033493222334B096820
:101180004A43334900280AD0B0F5007F31D00868BF
:1011900020F4C06040F48060086000207047086858
:1011A00000F4C060B0F5806F06D0D1F8800020F464
:1011B0008070C1F88000F0E7D1F8800020F48070E2
:1011C000C1F88000086820F4C06040F40070086036
:1011D000B2FBF3F0401C00E0401E4A6912F4806F3D
:1011E00001D00028F8D1486910F4806FD5D00320D1
:1011F0007047086800F4C060B0F5806F06D0D1F881
:10120000800040F48070C1F88000C6E7D1F880000B
:1012100040F48070C1F88000086820F4C06040F499
:1012200000700860B2FBF3F0401C00E0401E4A6909
:1012300012F4806F01D00028F8D1486910F4806F53
:10124000ABD00320704700000C00002040420F008C
:10125000007000402DE9F84F044600250027206863
:10126000B04E10F4002F76D0A846B06D10F0805F1D
:1012700009D1B06D40F08050B065B06D00F0805085
:1012800000904FF00108DFF8A0A2DAF8000040F467
:101290008070CAF80000FFF7C9FE8146DAF8000046
:1012A00010F4807F0CD1FFF7C1FEA0EB09000228EB
:1012B00001D9032504E0DAF8000010F4807FF2D0B1
:1012C00025B12F46B8F1010F41D044E0D6F8900087
:1012D00000F44070A0B1216C814211D0D6F890008A
:1012E00020F44070D6F8901041F48031C6F8901088
:1012F000D6F8901021F48031C6F89010C6F890000E
:1013000010F0010F16D0FFF791FE8146D6F890003D
:1013100010F0020F0ED141F2883AFFF787FEA0EBE2
:101320000900504501D9032504E0D6F8900010F0DB
:10133000020FF2D00DB12F46C4E7D6F89000216C11
:1013400020F440700843C6F89000BBE703E0B06D9E
:1013500020F08050B065207810F0010F07D0D6F84B
:101360008800616820F003000843C6F888002078F0
:1013700010F0020F07D0D6F88800A16820F00C000A
:101380000843C6F88800207810F0040F07D0D6F87C
:101390008800E16820F030000843C6F88800207813
:1013A00010F0080F07D0D6F88800216920F0C0009F
:1013B0000843C6F88800207810F0200F07D0D6F830
:1013C0008800616920F440600843C6F888002078EE
:1013D00010F0400F07D0D6F88800A16920F44050E3
:1013E0000843C6F88800207810F0800F07D0D6F8A0
:1013F0008800E16920F440400843C6F8880020884E
:1014000010F4807F07D0D6F88800216A20F440309D
:101410000843C6F88800208810F4007F07D0D6F86B
:101420008800616A20F440200843C6F888002088BC
:1014300010F4806F0FD0D6F88800A16A20F4401015
:101440000843C6F88800A06AB0F5801F03D1F06891
:1014500040F48010F060208810F4006F0FD0D6F8B0
:101460008800E16A20F440000843C6F88800E06A7A
:10147000B0F5800F03D1F06840F48010F060208850
:1014800010F4805F0FD0D6F88800216B20F04070F8
:101490000843C6F88800206BB0F1807F03D1F06864
:1014A00040F48010F060208810F4005F0FD0D6F870
:1014B0008800616B20F040600843C6F88800606BCC
:1014C000B0F1006F03D1F06840F48010F060208824
:1014D00010F4804F0FD0D6F88800A16B20F0406048
:1014E0000843C6F88800A06BB0F1006F03D1F06824
:1014F00040F48010F060208810F4004F0FD0D6F830
:101500008800E16B20F040500843C6F88800E06B8B
:10151000B0F1805F03D1F06840F48030F06038466D
:10152000BDE8F88F00100240007000402DE9F04740
:1015300004460D460027002C17D0DFF8DC91D9F8BF
:10154000000000F00F00A84212D2D9F8000020F0ED
:101550000F002843C9F80000D9F8000000F00F0080
:10156000A84205D00120BDE8F0870120BDE8F08742
:1015700020786A4E10F0010F41F2883A5ED0606820
:10158000DFF89C81032806D0022822D0306810F4AE
:10159000806F49D021E0306810F0007F0ED000F05D
:1015A000C9FE404524D9B06810F0F00F09D020786A
:1015B00010F0020F1CD0A06818B119E00120BDE89E
:1015C000F087B06820F0F00040F08000B060802725
:1015D0000EE0306810F4003F23D000F0AFF8404533
:1015E00006D9B06820F0F00040F08000B06080279D
:1015F000B068616820F003000843B060FFF716FD93
:101600008046B068616800F00C00B0EB810F15D027
:10161000FFF70CFDA0EB0800504508D90320BDE8FA
:10162000F0870120BDE8F0870120BDE8F087B068B1
:10163000616800F00C00B0EB810FE9D1206810F078
:10164000020F17D010F0040F03D0B06840F4E06030
:10165000B060207810F0080F05D0B06820F460501A
:1016600040F4E060B060B068A16820F0F00008438A
:10167000B06005E0802F03D1B06820F0F000B060CA
:10168000D9F8000000F00F00A8421DD9D9F80000D9
:1016900020F00F002843C9F80000FFF7C7FC0746F9
:1016A000D9F8000000F00F00A8420DD0FFF7BEFCF3
:1016B000C01B504502D90320BDE8F087D9F80000CF
:1016C00000F00F00A842F1D1207810F0040F05D0EF
:1016D000B068E16820F4E0600843B060207810F062
:1016E000080F06D0B068216920F4605040EAC100BC
:1016F000B06000F023F8B1680A4AC1F30311515CED
:1017000001F01F01C8400849086008480068BDE8AA
:10171000F047FFF7A9BC0000002002400010024083
:1017200000B4C4040C3A00080C0000201000002093
:1017300001480068704700000C0000201A4A9068B9
:10174000DFF868C000F00C0004280CD0906800F0AE
:101750000C011748082905D091680C2333EA0101D0
:1017600003D00020704760467047D16801F0030342
:10177000D168C1F30311491C032B0DD0BCFBF1F060
:10178000D168C1F306214843D168C1F34161491CC6
:101790004900B0FBF1F07047B0FBF1F0D168C1F344
:1017A00006214843F0E70000001002400024F40046
:1017B00000366E012DE9F8430446002C0ED0207847
:1017C000FD4F10F0010F60D0B8683D4600F00C00EE
:1017D000E96801F003010C2803D004E00120BDE812
:1017E000F88303291AD0082818D06068B0F5803F24
:1017F0001DD0B0F5A02F1FD0286820F480302860BD
:10180000286820F480202860606858B3FFF70EFC39
:101810000646286810F4003F17D036E0286810F418
:10182000003F32D0606880BB0120BDE8F8832868A3
:1018300040F480302860E7E7286840F48020286082
:10184000286840F480302860DEE7FFF7EFFB801B5C
:10185000642802D90320BDE8F883286810F4003F0B
:10186000F3D012E0FFF7E2FB0646286810F4003FD1
:101870000BD0FFF7DBFB801B642802D90320BDE8F7
:10188000F883286810F4003FF3D1207810F0020F9D
:101890005ED0B8683D4600F00C00E96801F0030135
:1018A0000C2801D102290FD004280DD0E068B8B36C
:1018B000286840F480702860FFF7B8FB0646286867
:1018C00010F4806F18D023E0286810F4806F01D0E6
:1018D000E06870B16868217C20F0FE4040EA016059
:1018E0006860B6480068FFF7BFFB88B30120BDE819
:1018F000F8830120BDE8F883FFF798FB801B0228DE
:1019000002D90320BDE8F883286810F4806FF3D073
:101910006868217C20F0FE4040EA0160686017E0C2
:10192000FFE7286820F480702860FFF77FFB0646F9
:10193000286810F4806F0BD0FFF778FB801B02281B
:1019400002D90320BDE8F883286810F4806FF3D132
:10195000207810F0080F3AD06069E0B1D7F8940011
:101960003D4640F00100C7F89400FFF75FFB0646D4
:10197000D5F8940010F0020F29D1FFF757FB801B18
:10198000022802D90320BDE8F883D5F8940010F0AE
:10199000020FF2D01BE0D7F894003D4620F0010082
:1019A000C7F89400FFF742FB0646D5F8940010F004
:1019B000020F0CD0FFF73AFB801B022802D903204C
:1019C000BDE8F883D5F8940010F0020FF2D120782A
:1019D00010F0040F7BD04FF00008B86D10F0805F5E
:1019E00009D1B86D40F08050B865B86D00F08050F6
:1019F00000904FF00108724D286810F4807F16D1D6
:101A0000286840F480702860FFF710FB06462868BD
:101A100010F4807F0BD1FFF709FB801B022802D94D
:101A20000320BDE8F883286810F4807FF3D0A06815
:101A300001281AD005281FD0D7F8900020F0010007
:101A4000C7F89000D7F8900020F00400C7F8900085
:101A5000A06841F2883650B3FFF7E8FA0546D7F898
:101A6000900010F0020F14D037E0D7F8900040F04B
:101A70000100C7F89000EBE7D7F8900040F00400B1
:101A8000C7F89000D7F8900040F00100C7F8900028
:101A9000DEE7FFF7CBFA401BB04202D90320BDE8D6
:101AA000F883D7F8900010F0020FF2D015E0FFF79E
:101AB000BDFA0546D7F8900010F0020F0DD0FFF7E1
:101AC000B5FA401BB04203D90320BDE8F8830BE010
:101AD000D7F8900010F0020FF1D1B8F1010F03D147
:101AE000B86D20F08050B865207810F0200F3AD003
:101AF000A069E0B1D7F898003D4640F00100C7F872
:101B00009800FFF793FA0646D5F8980010F0020FF8
:101B100029D1FFF78BFA801B022802D90320BDE8E8
:101B2000F883D5F8980010F0020FF2D01BE0D7F838
:101B300098003D4620F00100C7F89800FFF776FABC
:101B40000646D5F8980010F0020F0CD0FFF76EFA99
:101B5000801B022802D90320BDE8F883D5F898003D
:101B600010F0020FF2D1E06960B3B9683D460C2273
:101B700032EA01014FF0FF3878D0022823D02868DC
:101B800020F080702860E86820F00300E860E868D2
:101B900020F4881020F08070E860FFF747FA0446D0
:101BA000286810F0007F0DD0FFF740FA001B0228D4
:101BB00057D90320BDE8F883001002401000002030
:101BC0000070004083E0286820F080702860FFF7F4
:101BD0002DFA0646286810F0007F0AD0FFF726FA93
:101BE000801B022801D90320E4E7286810F0007F59
:101BF000F4D1616A206A491E40EA0110A16A228E6E
:101C0000090208EB520241EA4251084394F83410A9
:101C100008EB510140EA416094F82C1040EAC160A1
:101C2000E9682C4A11400843E860286840F0807059
:101C30002860E86840F08070E860FFF7F7F9044634
:101C4000286810F0007F42D1FFF7F0F9001B02284E
:101C500001D90320AEE7286810F0007FF4D036E009
:101C600004E0286810F0007F9ED130E001282CD0DD
:101C7000E868226A00F00301914224D1626A00F010
:101C8000F001521EB1EB021F1DD1A26A00F4FE4109
:101C9000B1EB022F17D194F82C1000F07842B2EB80
:101CA000C16F10D1228E00F4C00108EB5202B1EBDB
:101CB000425F08D194F8341000F0C06008EB510185
:101CC000B0EB416F03D0012074E7012072E70020E0
:101CD00070E700000C809F01401EB0F1807F01D3AF
:101CE000012070474FF0E0214861044AF020107055
:101CF00000208861072008610020704723ED00E084
:101D0000FEE7000000B585B014216846FEF787FAAB
:101D10004FF6FF70009000200321CDE902010190F1
:101D200069460248FFF75CF805B000BD00080048AE
:101D300000B585B014216846FEF771FA4FF6FF70C2
:101D4000009001200190032003900020029069463A
:101D50000248FFF745F805B000BD00000008004844
:101D600070B5002406462146204600F003F900F035
:101D700041F94FF49635304600F010F9641CAC423E
:101D8000F9D370BD30B587B014216846FEF747FA25
:101D90001E48C16C41F00401C164C16C01F0040132
:101DA0000591C16C41F00101C164C16C01F00101F8
:101DB0000591C16C41F00201C164C06C012500F0C5
:101DC000020005904FF44870CDE90005002403940B
:101DD000694602940E48FFF703F828020394009026
:101DE000CDE901544FF0904469462046FEF7F8FFD4
:101DF000FFF79EFFA06940F48070A061044818308E
:101E0000016841F40871016007B030BD0010024064
:101E100000040048203AD2B2034B02EB420203EB2B
:101E2000021200F019B800003C280008F0B50E4678
:101E30000746002540F23F1407E021463846FFF7E9
:101E4000E9FF103C6D1CA4B2761C3278002A01D048
:101E5000142DF2D3F0BD00002DE9F04791468A46DB
:101E60000026044600F086F8DFF84080012700BF16
:101E700000F0C0F85FF0000539F8160007FA05F128
:101E80000842404601D1408800E0008800F086F812
:101E90006D1C102DF0D3641CE4B25146204600F0B6
:101EA00069F8761C182EE3D3BDE8F0870000002007
:101EB00010B5FFF767FF002000F014F8084CA08071
:101EC000A088A0F50241303906D000F0E4FA0020E5
:101ED00000F008F8A08010BD00F054FAF7E7000009
:101EE0000000002070B51D490A6842F400720A60C3
:101EF0000A6842F480720A60184C103C226842F072
:101F000020022260164A1060086840F02000086035
:101F100000BF00BF00BF206840F0200020602068A4
:101F200040F480702060FFF7EDFE4FF09041886A2A
:101F300040F48070886200BF00BF00BF0848001FE7
:101F4000006885B2886940F480708861FFF7F0FE10
:101F5000206840F400702060284670BD28040048C6
:101F60001408004801B5BDF800000149488008BDCB
:101F70000000002010B50C460146202000F068F853
:101F80002146BDE81040212000F062B801B5BDF83F
:101F900000000149088008BD00000020134A1168B4
:101FA00041F400711160114910390B6843F48073DA
:101FB0000B600B6843F020030B600D4B186010683A
:101FC00040F02000106000BF00BF00BF086840F074
:101FD00020000860086840F48070086000BF00BFFF
:101FE00000BF086840F4007008607047280400488B
:101FF000140800481449086840F400700860086834
:1020000040F48070086010481038026842F02002E6
:1020100002600E4B22221A600A6842F020020A6017
:1020200000BF00BF00BF016841F0200101600168EE
:1020300041F48071016000BF00BF00BF016841F43E
:10204000007101607047000028040048140800482F
:10205000184B10B51A6842F400721A601A6842F4FC
:1020600080721A60134A103A146844F02004146015
:10207000114C2060186840F02000186000BF00BFBD
:1020800000BF106840F020001060106840F48070BD
:1020900010602160186840F02000186000BF00BF89
:1020A00000BF106840F020001060106840F480709D
:1020B000106010BD280400481408004830B58BB0EB
:1020C000002408940994202168460A94FEF7A7F892
:1020D0001B484FF0A0410425C0E900148460C4608F
:1020E0000461C0E90545047744770121016280F865
:1020F0002440C462046380F83840C46380F84040E0
:10210000FEF7C6FB08B1FEF7B7F808A90C4808941B
:10211000FEF7B4F808B1FEF7AFF80A4800900620C1
:10212000CDE901047F200594CDE903056946044803
:10213000FEF726F9002801D0FEF79EF80BB030BD5F
:102140001C0000200008302E30B589B020216846E0
:10215000FEF765F8184817490024C0E900148460A8
:10216000C46004250461C0E9054504774477012172
:10217000016280F82440C462046380F83840C4637C
:1021800080F84040FEF784FB08B1FEF775F80B4875
:1021900000900620CDE901047F200594CDE90305D8
:1021A00069460548FEF7ECF8002801D0FEF764F810
:1021B00009B030BD00010050880000200080F03ED2
:1021C00010B58CB030216846FEF729F8164915483D
:1021D00008600846FEF7ACFD08B1FEF74DF8022096
:1021E000009000208DF804008DF805000290039007
:1021F00001240490CDE905040246079069460A4887
:10220000FEF79EFC08B1FEF737F810226946064833
:102210000694FEF795FC002801D0FEF72DF80CB0CF
:1022200010BD000000080050F40000202DE9F04F20
:1022300087B014216846FDF7F2FF3848C16C41F0C1
:102240000401C164C16C01F004010591C16C41F04D
:102250002001C164C16C01F020010591C16C41F005
:102260000101C164C16C01F001010591C16C41F033
:102270000201C164C16C01F002010591C16C41F021
:102280000801C164C06CDFF8988000F008004FF6C8
:10229000FF740590002221464046FEF7C1FE4FF430
:1022A00080764FF09049002231464846FEF7B8FE4E
:1022B000DFF870A0002204215046FEF7B1FEDFF8DF
:1022C00068B04FF44877002239465846FEF7A8FE1A
:1022D0000125CDE900450024029469464046039457
:1022E000FEF77EFD0096CDE9015469464846039409
:1022F000FEF776FD04200090CDE901546946504672
:102300000394FEF76DFD0097CDE9015469465846E8
:102310000394FEF765FD07B0BDE8F08F00100240A2
:1023200000080048000C004800040048FEE7704721
:10233000704700001049C86800F00302C868C0F385
:102340000310401C032A0ED00C4AB2FBF0F0CA68FE
:10235000C2F306225043C968C1F34161491C4900D8
:10236000B0FBF1F07047064AB2FBF0F0CA68C2F366
:1023700006225043EFE70000001002400024F40062
:1023800000366E0130B501210020FFF761FE4FF4E9
:102390007A70FDF763FF00210120FFF759FE41F23B
:1023A00090711020FFF754FE4FF41C516020FFF78E
:1023B0004FFE01216120FFF74BFE02214620FFF76F
:1023C00047FE48F210011320FFF742FE48F2FE01DB
:1023D0001220FFF73DFE4FF4A0610220FFF738FE08
:1023E00041F230010320FFF733FE40F2033421466F
:1023F0003020FFF72DFE21463120FFF729FE214630
:102400003220FFF725FEE51E29463320FFF720FE88
:1024100003213420FFF71CFE21463520FFF718FE6C
:1024200014213620FFF714FE21463720FFF710FE57
:1024300021463820FFF70CFE21463920FFF708FE21
:1024400029463A20FFF704FE03213B20FFF700FE58
:1024500021463C20FFF7FCFD4FF4A0513D20FFF743
:10246000F7FD4FF400719220FFF7F2FD2146932013
:10247000FFF7EEFD40F60D019020FFF7E9FD41F278
:1024800018010320FFF7E4FDBDE8304040F273116E
:102490000720FFF7DDBD10B543F20801E320FFF789
:1024A000D7FD1221E720FFF7D3FD41F23121EF20C4
:1024B000FFF7CEFD00210120FFF7CAFD4FF4E061D8
:1024C0000220FFF7C5FD41F230010320FFF7C0FDF8
:1024D00000210420FFF7BCFD40F207210820FFF790
:1024E000B7FD00210920FFF7B3FD00210A20FFF707
:1024F000AFFD00210C20FFF7ABFD00210D20FFF701
:10250000A7FD00210F20FFF7A3FD00211020FFF7FA
:102510009FFD07211120FFF79BFD00211220FFF7EF
:1025200097FD00211320FFF793FDC820FEF744FC20
:1025300041F290611020FFF78BFD40F2272111201E
:10254000FFF786FD3220FEF737FC1D211220FFF732
:102550007FFD3220FEF730FC4FF400611320FFF7BF
:1025600077FD14212920FFF773FD0B212B20FFF7A6
:102570006FFD3220FEF720FC00212020FFF768FDD0
:1025800000212120FFF764FD07213020FFF760FDC7
:1025900040F207713120FFF75BFD06213220FFF783
:1025A00057FD40F204713520FFF752FD41F60471EA
:1025B0003620FFF74DFD04213720FFF749FD0021AC
:1025C0003820FFF745FD40F206713920FFF740FD46
:1025D00040F201713C20FFF73BFD0F213D20FFF74A
:1025E00037FD00215020FFF733FDEF215120FFF789
:1025F0002FFD00215220FFF72BFD40F23F11532009
:10260000FFF726FD4FF41C516020FFF721FD01214B
:102610006120FFF71DFD00216A20FFF719FD002151
:102620008020FFF715FD00218120FFF711FD00211B
:102630008220FFF70DFD00218320FFF709FD002117
:102640008420FFF705FD00218520FFF701FD102103
:102650009020FFF7FDFC00219220FFF7F9FC0321F9
:102660009320FFF7F5FC4FF488719520FFF7F0FCFD
:1026700000219720FFF7ECFC00219820FFF7E8FCF1
:1026800041F218010320FFF7E3FCBDE8104040F2DF
:1026900073110720FFF7DCBC7047FEF7CDBC00B517
:1026A000A5B038216846FDF7BAFD14211FA8FDF733
:1026B000B6FD44210EA8FDF7B2FD4FF40070FEF701
:1026C0005BFD0220C101039140210491009007901D
:1026D00008901421CDE909010B900C900D906846EB
:1026E000FFF768F80F201F90032020900020219012
:1026F0002290239003211FA8FEF718FF4FF40040FB
:102700000E9080031D900EA8FEF7A4FD25B000BD1D
:102710000548016841F47001016003494FF0006011
:10272000803908607047000088ED00E0FEE702E0B5
:1027300008C8121F08C1002AFAD17047704700204C
:1027400001E001C1121F002AFBD17047FEF77CFC9B
:10275000FFF7A5FFFFF76AFDFFF7B0FCFFF7F4FCFA
:10276000FFF72EFDFFF7A4FB1F20FFF7F9FA1F204C
:10277000FFF7F8FB4FF6FF742046FFF707FC17A1A1
:102780000020FFF753FB15A11820FFF74FFB19A1FD
:102790003020FFF74BFB11A14820FFF747FB0FA1AB
:1027A0006020FFF743FB2046FFF7DCFB1F20FFF70D
:1027B000EDFB0AA17820FFF739FB14A19020FFF769
:1027C00035FB06A1A820FFF731FB16A1C020FFF7BB
:1027D0002DFB02A1D820FFF729FBFEE720202020B7
:1027E00020202020202020202020202020202020E9
:1027F000000000002020202020204C43442054656D
:1028000073742020202020200000000020202020A1
:1028100020202048414C204C4942202020202020CC
:1028200000000000202020202020202020403830E0
:102830002020202020202020000000000000000098
:102840000000000000000000000000000000000088
:102850000000000000000000000000000000000078
:1028600000000000000000000000000000008001E7
:102870008001800180018001800180018001800150
:102880008001800180018001000000008001800142
:102890000000000000000000000000000000000038
:1028A000CC00CC00CC00CC00CC00CC000000000060
:1028B0000000000000000000000000000000000018
:1028C0000000000000000000000000000000000008
:1028D0000000000000000000600C600C600C30067E
:1028E0003006FE1FFE1F300638071803FE1FFE1FAE
:1028F000180318038C018C018C010000000080007B
:10290000E003F80F9C0E8C1C8C188C009800F801CA
:10291000E007800E801C8C188C189C18B80CF00FE7
:10292000E0038000800000000000000000000000C4
:1029300000000E181B0C110C1106110611031103D7
:102940009B018E01C038C06C604460443044304408
:102950001844186C0C380000000000000000E00172
:10296000F0033807180618063003F001F000F800ED
:102970009C310E33061E061C061C063FFC73F0211C
:102980000000000000000000000000000000000047
:102990000C000C000C000C000C000C0000000000EF
:1029A0000000000000000000000000000000000027
:1029B0000000000000000000000000000000000215
:1029C00000038001C000C0006000600030003000E3
:1029D0003000300030003000300030006000600017
:1029E000C000C000800100030002000000002000C1
:1029F0006000C000800180010003000300060006A3
:102A0000000600060006000600060006000300039C
:102A100080018001C0006000200000000000000074
:102A20000000000000000000C000C000D806F80749
:102A3000E001300338070000000000000000000043
:102A40000000000000000000000000000000000086
:102A50000000000000000000800180018001800172
:102A60008001FC3FFC3F80018001800180018001EA
:102A70000000000000000000000000000000000056
:102A80000000000000000000000000000000000046
:102A900000000000000000000000000000008001B5
:102AA0008001000100018000000000000000000023
:102AB0000000000000000000000000000000000016
:102AC00000000000E007E007000000000000000038
:102AD00000000000000000000000000000000000F6
:102AE00000000000000000000000000000000000E6
:102AF0000000000000000000000000000000C00016
:102B0000C000000000000000000000000000000CF9
:102B1000000C00060006000600030003000380030B
:102B2000800180018001C000C000C0006000600022
:102B30000000000000000000000000000000E003B2
:102B4000F007380E180C0C180C180C180C180C1870
:102B50000C180C180C180C18180C380EF007E003A1
:102B60000000000000000000000000000000000164
:102B70008001C001F001980188018001800180017D
:102B8000800180018001800180018001800180013D
:102B90000000000000000000000000000000E00352
:102BA000F80F180C0C180C1800180018000C000670
:102BB00000038001C000600030001800FC1FFC1FF3
:102BC0000000000000000000000000000000E00124
:102BD000F807180E0C0C0C0C000C0006C003C00704
:102BE000000C001800180C180C18180CF807E0035B
:102BF0000000000000000000000000000000000CC9
:102C0000000E000F000F800DC00C600C600C300C2B
:102C1000180C0C0CFC3FFC3F000C000C000C000CD2
:102C20000000000000000000000000000000F80F9D
:102C3000F80F180018000C00EC03FC071C0E001C19
:102C40000018001800180C181C0C180EF807E003E8
:102C50000000000000000000000000000000C007AD
:102C6000F00F381C181818000C00CC03EC0F3C0EA9
:102C70001C1C0C180C180C18181C380EF007E0035C
:102C80000000000000000000000000000000FC1F29
:102C9000FC1F000C00060006000380038001C00139
:102CA000C000E000600060007000300030003000C4
:102CB0000000000000000000000000000000E00331
:102CC000F007380E180C180C180C3806F007F0072F
:102CD000180C0C180C180C180C18380CF80FE00312
:102CE0000000000000000000000000000000E00301
:102CF000F007380E1C0C0C180C180C181C1C381E75
:102D0000F81BE0190018000C000C1C0EF807F0016D
:102D100000000000000000000000000000000000B3
:102D200000000000000000008001800100000000A1
:102D30000000000000000000000000008001800191
:102D40000000000000000000000000000000000083
:102D50000000000000000000800180010000000071
:102D60000000000000000000000000008001800161
:102D700000010001800000000000000000000000D1
:102D80000000000000000000000000000010001C17
:102D9000800FE003F8001800F800E003800F001C2B
:102DA0000010000000000000000000000000000013
:102DB000000000000000000000000000F81F0000FC
:102DC00000000000F81F00000000000000000000EC
:102DD00000000000000000000000000000000000F3
:102DE00000000000000000000000000008003800A3
:102DF000F001C007001F0018001FC007F0013800D5
:102E00000800000000000000000000000000E003D7
:102E1000F80F180C0C180C180018000C0006000312
:102E20008001C000C000C00000000000C000C00061
:102E30000000000000000000000000000000000092
:102E4000E00718180420C229224A11440944094401
:102E5000094409221113E20C024004201818E0076B
:102E600000000000000000000000000000008003DF
:102E70008003C006C006C006600C600C3018301815
:102E80003018F83FF83F1C700C600C6006C006C09C
:102E90000000000000000000000000000000FC0333
:102EA000FC0F0C0C0C180C180C180C0CFC07FC0F6D
:102EB0000C180C300C300C300C300C18FC1FFC07BC
:102EC0000000000000000000000000000000C0073B
:102ED000F01F38381C300C70066006000600060033
:102EE00006000600060006600C701C30F01FE007AC
:102EF0000000000000000000000000000000FE03D1
:102F0000FE0F060E0618061806300630063006308C
:102F100006300630063006180618060EFE0FFE03B1
:102F20000000000000000000000000000000FC3F66
:102F3000FC3F0C000C000C000C000C00FC1FFC1FE4
:102F40000C000C000C000C000C000C00FC3FFC3FC3
:102F50000000000000000000000000000000F83F3A
:102F6000F83F18001800180018001800F81FF81F84
:102F70001800180018001800180018001800180091
:102F80000000000000000000000000000000E00F52
:102F9000F83F3C780E6006E007C00300030003FE24
:102FA00003FE03C007C006C00EC03CF0F83FE00FB0
:102FB00000000000000000000000000000000C30D5
:102FC0000C300C300C300C300C300C30FC3FFC3F23
:102FD0000C300C300C300C300C300C300C300C3011
:102FE0000000000000000000000000000000800160
:102FF00080018001800180018001800180018001C9
:1030000080018001800180018001800180018001B8
:1030100000000000000000000000000000000006AA
:103020000006000600060006000600060006000670
:10303000000600060006180618063807F003E0012F
:10304000000000000000000000000000000006304A
:103050000618060C060606038601C6006600760002
:10306000DE008E0106030606060C06180630066012
:103070000000000000000000000000000000180038
:103080001800180018001800180018001800180080
:10309000180018001800180018001800F81FF81F72
:1030A00000000000000000000000000000000EE032
:1030B0001EF01EF01EF036D836D836D836D866CC7C
:1030C00066CC66CCC6C6C6C6C6C6C6C686C386C3DA
:1030D00000000000000000000000000000000C30B4
:1030E0001C303C303C306C306C30CC30CC308C31CF
:1030F0000C330C330C360C360C3C0C3C0C380C30BE
:103100000000000000000000000000000000E007D8
:10311000F81F1C380E70066003C003C003C003C054
:1031200003C003C003C006600E701C38F81FE00720
:103130000000000000000000000000000000FC0F84
:10314000FC1F0C380C300C300C300C300C18FC1FF1
:10315000FC070C000C000C000C000C000C000C0018
:103160000000000000000000000000000000E00778
:10317000F81F1C380E70066003E003C003C003C0D4
:1031800003C003C007E006630E3F1C3CF83FE0F7B6
:1031900000C0000000000000000000000000FE0F62
:1031A000FE1F06380630063006300638FE1FFE07C2
:1031B00006030606060C06180618063006300660DA
:1031C0000000000000000000000000000000E0031C
:1031D000F80F1C0C0C180C180C001C00F803E00F66
:1031E000001E0038063006300E301C1CF80FE007B9
:1031F0000000000000000000000000000000FE7F52
:10320000FE7F8001800180018001800180018001BA
:1032100080018001800180018001800180018001A6
:1032200000000000000000000000000000000C3062
:103230000C300C300C300C300C300C300C300C30AE
:103240000C300C300C300C300C301818F81FE00724
:10325000000000000000000000000000000003600B
:103260000630063006300C180C180C18180C180C08
:10327000380E30063006700760036003C001C001DD
:1032800000000000000000000000000000000360DB
:10329000C361C361C36166336633663366336633C5
:1032A00066336C1B6C1B6C1B2C1A3C1E380E380EC4
:1032B00000000000000000000000000000000FE01F
:1032C0000C7018303018700C600EC007800380033B
:1032D000C003E006700C301C18180C300E6007E0BC
:1032E000000000000000000000000000000003C01B
:1032F00006600C301C383818300C6006E007C0033C
:1033000080018001800180018001800180018001B5
:103310000000000000000000000000000000FC7F32
:10332000FC7F006000300018000C000600038001E4
:10333000C0006000300018000C000600FE7FFE7F19
:103340000000000000000000000000000000E0039A
:10335000E0036000600060006000600060006000EA
:10336000600060006000600060006000600060005D
:10337000600060006000E003E00300000000300037
:103380003000600060006000C000C000C000C001EC
:103390008001800180010003000300030006000695
:1033A0000000000000000000000000000000E0033A
:1033B000E003000300030003000300030003000315
:1033C00000030003000300030003000300030003E5
:1033D000000300030003E003E0030000000000001E
:1033E000C001C00160036003600330063006180CA2
:1033F000180C0000000000000000000000000000A9
:1034000000000000000000000000000000000000BC
:1034100000000000000000000000000000000000AC
:103420000000000000000000000000000000FFFF9E
:10343000FFFF0000000000000000000000000C0082
:103440000C000C000C000C000C0000000000000040
:10345000000000000000000000000000000000006C
:10346000000000000000000000000000000000005C
:103470000000000000000000F003F8071C0C0C0C1A
:10348000000FF00FF80C0C0C0C0C1C0FF80FF018C0
:103490000000000000000000000000000000180014
:1034A0001800180018001800D803F80F380C181866
:1034B00018181818181818181818380CF80FD803F6
:1034C00000000000000000000000000000000000FC
:1034D0000000000000000000C003F007300E180CD0
:1034E0001800180018001800180C300EF007C00360
:1034F00000000000000000000000000000000018B4
:103500000018001800180018C01BF01F301C1818F5
:1035100018181818181818181818301CF01FC01B85
:10352000000000000000000000000000000000009B
:103530000000000000000000C003F00F300C18185D
:10354000F81FF81F180018003818301CF00FC007BB
:103550000000000000000000000000000000800FDC
:10356000C00FC000C000C000F007F007C000C000DE
:10357000C000C000C000C000C000C000C000C0004B
:10358000000000000000000000000000000000003B
:103590000000000000000000E00DF80F180E0C0CF9
:1035A0000C0C0C0C0C0C0C0C0C0C180EF80FE00D89
:1035B000000C0C0C1C06F807F001000000001800BD
:1035C0001800180018001800D807F80F381C181831
:1035D000181818181818181818181818181818186B
:1035E0000000000000000000000000000000C0001B
:1035F000C000000000000000C000C000C000C0000B
:10360000C000C000C000C000C000C000C000C000BA
:103610000000000000000000000000000000C000EA
:10362000C000000000000000C000C000C000C000DA
:10363000C000C000C000C000C000C000C000C0008A
:10364000C000C000C000F8007800000000000C00BE
:103650000C000C000C000C000C0C0C060C038C0174
:10366000CC006C00FC009C018C030C030C060C0CC1
:103670000000000000000000000000000000C0008A
:10368000C000C000C000C000C000C000C000C0003A
:10369000C000C000C000C000C000C000C000C0002A
:1036A000000000000000000000000000000000001A
:1036B00000000000000000007C3CFF7EC7E383C1E7
:1036C00083C183C183C183C183C183C183C183C1DA
:1036D00000000000000000000000000000000000EA
:1036E00000000000000000009807F80F381C1818B0
:1036F000181818181818181818181818181818184A
:1037000000000000000000000000000000000000B9
:103710000000000000000000C003F00F300C18187B
:1037200018181818181818181818300CF00FC003AB
:103730000000000000000000000000000000000089
:103740000000000000000000D803F80F380C181823
:1037500018181818181818181818380CF80FD80353
:1037600018001800180018001800000000000000E1
:103770000000000000000000C01BF01F301C1818E3
:1037800018181818181818181818301CF01FC01B13
:1037900000180018001800180018000000000000B1
:1037A0000000000000000000B007F00370003000CF
:1037B0003000300030003000300030003000300089
:1037C00000000000000000000000000000000000F9
:1037D0000000000000000000E003F003380E180CA9
:1037E0003800F003C007000C180C380EF007E00397
:1037F00000000000000000000000000000000000C9
:103800008000C000C000C000F007F007C000C0008A
:10381000C000C000C000C000C000C000C0078007DA
:103820000000000000000000000000000000000098
:1038300000000000000000001818181818181818C8
:1038400018181818181818181818381CF01FE0192C
:103850000000000000000000000000000000000068
:1038600000000000000000000C18180C180C180CC8
:10387000300630063006600360036003C001C001FB
:103880000000000000000000000000000000000038
:103890000000000000000000C141C141C36163633A
:1038A000636363633636363636361C1C1C1C1C1CA0
:1038B0000000000000000000000000000000000008
:1038C00000000000000000001C38381C300C6006AE
:1038D00060036003600360036006300C381C1C3812
:1038E00000000000000000000000000000000000D8
:1038F0000000000000000000183030183018701868
:10390000600C600CE00CC006C006800380038003DE
:1039100080018001C001F000700000000000000084
:103920000000000000000000FC1FFC1F000C00064F
:1039300000038001C000600030001800FC1FFC1F65
:103940000000000000000000000000000000000374
:103950008001C000C000C000C000C000C000600006
:103960006000300060004000C000C000C000C00027
:10397000C000C000800100030000000000008001C2
:10398000800180018001800180018001800180012F
:10399000800180018001800180018001800180011F
:1039A0008001800180018001800100000000600032
:1039B000C000C001800180018001800180010003FE
:1039C00000030006000300018001800180018001E6
:1039D00080018001C00060000000000000000000C5
:1039E000000000000000000000000000F010F81FC0
:1039F000080F0000000000000000000000000000B0
:103A000000000000000000000000000000000000B6
:103A10000000000001020304060708093C3A000800
:103A2000000000201C0000002E270008583A000863
:103A30001C000020EC0400003E2700080000FFFFEF
:103A400000000000000000000024F400100000004E
:083A500001000000000000006D
:04000005080001D915
:00000001FF
