:020000040800F2
:1000000028040020ED01000857140008ED0E000838
:1000100055140008590200083D18000800000000AF
:10002000000000000000000000000000C1170008F0
:100030005B0200080000000059140008C317000804
:10004000070200080702000807020008070200086C
:10005000070200080702000807020008070200085C
:10006000070200080702000807020008070200084C
:10007000070200080702000807020008070200083C
:10008000070200080000000007020008070200083D
:10009000070200080702000807020008070200081C
:1000A000070200080702000807020008070200080C
:1000B00007020008070200080702000807020008FC
:1000C00007020008070200080702000807020008EC
:1000D00007020008070200080702000807020008DC
:1000E00007020008070200080702000807020008CC
:1000F00007020008070200080702000800000000CD
:1001000000000000070200080000000007020008CD
:1001100007020008000000000702000807020008AC
:10012000070200080702000807020008070200088B
:10013000070200080000000000000000070200089D
:10014000070200080702000800000000000000008D
:10015000000000000000000000000000000000009F
:10016000000000000000000000000000070200087E
:10017000070200080000000000000000000000006E
:10018000000000000702000800000000000000005E
:10019000000000000000000000000000000000005F
:1001A000000000000000000007020008070200082D
:1001B000070200080702000807020008000000000C
:1001C000000000000702000800000000000000001E
:1001D0000702000807020008DFF80CD000F02AF838
:1001E00000480047AD180008280400200648804752
:1001F00006480047FEE7FEE7FEE7FEE7FEE7FEE70C
:10020000FEE7FEE7FEE7FEE721180008D901000837
:10021000D2B201E000F8012B491EFBD27047002248
:10022000F6E710B513460A4604461946FFF7F0FFF5
:10023000204610BD064C074D06E0E06840F0010383
:1002400094E8070098471034AC42F6D3FFF7C8FF94
:10025000782B0008982B0008FEE77047002240F634
:10026000B83306E00021491C89B29942FBD3521CE5
:1002700092B28242F6D3704770B5044600F03EF960
:100280000546B4F1FF3F02D004484068044400F042
:1002900035F9401BA042FAD370BD00001C000020BD
:1002A0002DE9F84F00220B68002B7CD00324874EE9
:1002B000874F0F250123D1F800C003FA02F80CEA9A
:1002C0000803002B70D0D1F804C0BCF1010F08D096
:1002D000BCF1020F05D0BCF1110F02D0BCF1120F1E
:1002E0001DD1D0F808904FEA420C04FA0CFA29EA22
:1002F0000A09D1F80CA00AFA0CFC4CEA090CC0F867
:1003000008C0D0F804C02CEA080C91F80480C8F3A7
:10031000001808FA02F848EA0C0CC0F804C0D0F83B
:100320000C804FEA420C04FA0CFA28EA0A08D1F8C9
:10033000089009FA0CF949EA0808C0F80C80D1F8CD
:100340000480B8F1020F02D0B8F1120F15D14FEAB4
:10035000D20800EB8808D8F820B04FEA42794FEA7B
:10036000D96905FA09FE2BEA0E0BD1F810E00EFA56
:1003700009F949EA0B09C8F82090D0F8008028EA6A
:100380000A0891F8049009F0030909FA0CFC4CEAF8
:10039000080CC0F800C0D1F804C01CF0805F7CD00D
:1003A000D6F860C001E07DE077E04CF0010CC6F8C3
:1003B00060C0D6F860C00CF0010CCDF800C022F08F
:1003C000030C0CF1804909F58039D9F808C04FEACF
:1003D00082784FEA187805FA08FA2CEA0A0AB0F18E
:1003E000904F64D0A0F1904CBCF5806C5CD0A0F133
:1003F000904CBCF5006C5DD0A0F1904CBCF5406C0D
:100400005BD0A0F1904CBCF5805C59D0A0F1904C31
:10041000BCF5A05C57D04FF0060C0CFA08FC4CEA77
:100420000A0CC9F808C0D7F800C02CEA030CD1F8B0
:10043000048018F4803F01D04CEA030CC7F800C0D8
:10044000DFF89080D8F800C02CEA030CD1F80490B3
:1004500019F4003F01D04CEA030CC8F800C0DFF8E3
:100460007880D8F800C02CEA030CD1F8049019F475
:10047000801F01D04CEA030CC8F800C0DFF85C8094
:10048000D8F800C02CEA030CD1F8049019F4001F2E
:1004900001D04CEA030CC8F800C0521C0B68D340D2
:1004A0007FF408AFBDE8F88F4FF0010CB5E74FF0CF
:1004B000000CB2E74FF0020CAFE74FF0030CACE7D3
:1004C0004FF0040CA9E74FF0050CA6E7001002401E
:1004D0000004014004040140080401400C040140F0
:1004E0000069084201D00120704700207047002AAF
:1004F00001D08161704781627047000001488068C7
:10050000704700001C0000200248816842681144C6
:10051000816070471C00002010B50024032000F00B
:1005200081F8002000F008F808B1012401E000F093
:1005300029F8204610BD000070B5054600240F4E76
:100540007068002817D04FF47A71B1FBF0F00C49B5
:100550000968B1FBF0F000F0B5FC08B101240BE034
:10056000102D06D200222946501E00F027F83560D3
:1005700002E0012400E00124204670BD1C000020A0
:10058000180000200B4808B5016E41F0010101661A
:10059000016E01F001010091816D41F08051816592
:1005A000806D00F0805000900348816841F48041E4
:1005B000816008BD001002400070004010B4184B6C
:1005C0001B68C3F30223C3F1070CBCF1040F01D96C
:1005D0004FF0040C1C1D072C01D2002300E0DB1E91
:1005E000012404FA0CFCACF1010C0CEA0101994065
:1005F00004FA03F35B1E1A401143002806DB00F1E6
:10060000E020090180F8001410BC704700F00F00D2
:1006100000F1E020090180F8141D10BC70470000B3
:100620000CED00E000F00700064A11684FF6FF03EA
:10063000194041EA002040F0FD7040F080601060F9
:10064000704700000CED00E033493222334B09685B
:100650004A43334900280AD0B0F5007F31D00868FA
:1006600020F4C06040F48060086000207047086893
:1006700000F4C060B0F5806F06D0D1F8800020F49F
:100680008070C1F88000F0E7D1F8800020F480701D
:10069000C1F88000086820F4C06040F40070086071
:1006A000B2FBF3F0401C00E0401E4A6912F4806F78
:1006B00001D00028F8D1486910F4806FD5D003200C
:1006C0007047086800F4C060B0F5806F06D0D1F8BC
:1006D000800040F48070C1F88000C6E7D1F8800047
:1006E00040F48070C1F88000086820F4C06040F4D5
:1006F00000700860B2FBF3F0401C00E0401E4A6945
:1007000012F4806F01D00028F8D1486910F4806F8E
:10071000ABD00320704700001800002040420F00BB
:10072000007000402DE9F04704460D460027002CDC
:1007300017D0DFF8DC91D9F8000000F00F00A842D4
:1007400012D2D9F8000020F00F002843C9F80000A9
:10075000D9F8000000F00F00A84205D00120BDE844
:10076000F0870120BDE8F08720786A4E10F0010F75
:1007700041F2883A5ED06068DFF89C81032806D099
:10078000022822D0306810F4806F49D021E0306810
:1007900010F0007F0ED000F061FE404524D9B06813
:1007A00010F0F00F09D0207810F0020F1CD0A068D4
:1007B00018B119E00120BDE8F087B06820F0F00022
:1007C00040F08000B06080270EE0306810F4003FF9
:1007D00023D000F0A9F8404506D9B06820F0F00019
:1007E00040F08000B0608027B068616820F00300AE
:1007F0000843B060FFF782FE8046B068616800F091
:100800000C00B0EB810F15D0FFF778FEA0EB0800CD
:10081000504508D90320BDE8F0870120BDE8F087E6
:100820000120BDE8F087B068616800F00C00B0EB13
:10083000810FE9D1206810F0020F17D010F0040FDB
:1008400003D0B06840F4E060B060207810F0080F8A
:1008500005D0B06820F4605040F4E060B060B0684B
:10086000A16820F0F0000843B06005E0802F03D1BC
:10087000B06820F0F000B060D9F8000000F00F0080
:10088000A8421DD9D9F8000020F00F002843C9F86C
:100890000000FFF733FE0746D9F8000000F00F0014
:1008A000A8420DD0FFF72AFEC01B504502D90320F5
:1008B000BDE8F087D9F8000000F00F00A842F1D1A0
:1008C000207810F0040F05D0B068E16820F4E060F3
:1008D0000843B060207810F0080F06D0B068216996
:1008E00020F4605040EAC100B06000F01DF8B1682B
:1008F0000A4AC1F30311515C01F01F01C8400849C5
:10090000086008480068BDE8F047FFF715BE000022
:10091000002002400010024000B4C404682B00080C
:10092000180000201C0000201A4A9068DFF868C0F8
:1009300000F00C0004280CD0906800F00C0117485F
:10094000082905D091680C2333EA010103D0002067
:10095000704760467047D16801F00303D168C1F366
:100960000311491C032B0DD0BCFBF1F0D168C1F37E
:1009700006214843D168C1F34161491C4900B0FBDD
:10098000F1F07047B0FBF1F0D168C1F306214843A4
:10099000F0E70000001002400024F40000366E0171
:1009A0002DE9F8430446002C0ED02078FD4F10F0BE
:1009B000010F60D0B8683D4600F00C00E96801F016
:1009C00003010C2803D004E00120BDE8F8830329CB
:1009D0001AD0082818D06068B0F5803F1DD0B0F557
:1009E000A02F1FD0286820F480302860286820F4C9
:1009F00080202860606858B3FFF780FD06462868AD
:100A000010F4003F17D036E0286810F4003F32D0D1
:100A1000606880BB0120BDE8F883286840F480301E
:100A20002860E7E7286840F480202860286840F4C0
:100A300080302860DEE7FFF761FD801B642802D963
:100A40000320BDE8F883286810F4003FF3D012E0DB
:100A5000FFF754FD0646286810F4003F0BD0FFF75F
:100A60004DFD801B642802D90320BDE8F883286867
:100A700010F4003FF3D1207810F0020F5ED0B86878
:100A80003D4600F00C00E96801F003010C2801D19B
:100A900002290FD004280DD0E068B8B3286840F4CC
:100AA00080702860FFF72AFD0646286810F4806FE2
:100AB00018D023E0286810F4806F01D0E06870B18E
:100AC0006868217C20F0FE4040EA01606860B6481A
:100AD0000068FFF731FD88B30120BDE8F8830120ED
:100AE000BDE8F883FFF70AFD801B022802D9032026
:100AF000BDE8F883286810F4806FF3D06868217C23
:100B000020F0FE4040EA0160686017E0FFE72868D7
:100B100020F480702860FFF7F1FC0646286810F486
:100B2000806F0BD0FFF7EAFC801B022802D903205C
:100B3000BDE8F883286810F4806FF3D1207810F0B6
:100B4000080F3AD06069E0B1D7F894003D4640F014
:100B50000100C7F89400FFF7D1FC0646D5F89400D1
:100B600010F0020F29D1FFF7C9FC801B022802D91F
:100B70000320BDE8F883D5F8940010F0020FF2D0FE
:100B80001BE0D7F894003D4620F00100C7F8940020
:100B9000FFF7B4FC0646D5F8940010F0020F0CD015
:100BA000FFF7ACFC801B022802D90320BDE8F883C4
:100BB000D5F8940010F0020FF2D1207810F0040F55
:100BC0007BD04FF00008B86D10F0805F09D1B86D90
:100BD00040F08050B865B86D00F0805000904FF044
:100BE0000108724D286810F4807F16D1286840F4FF
:100BF00080702860FFF782FC0646286810F4807F2A
:100C00000BD1FFF77BFC801B022802D90320BDE833
:100C1000F883286810F4807FF3D0A06801281AD0E8
:100C200005281FD0D7F8900020F00100C7F89000E9
:100C3000D7F8900020F00400C7F89000A06841F2B7
:100C4000883650B3FFF75AFC0546D7F8900010F0ED
:100C5000020F14D037E0D7F8900040F00100C7F839
:100C60009000EBE7D7F8900040F00400C7F8900040
:100C7000D7F8900040F00100C7F89000DEE7FFF7DA
:100C80003DFC401BB04202D90320BDE8F883D7F8F1
:100C9000900010F0020FF2D015E0FFF72FFC054690
:100CA000D7F8900010F0020F0DD0FFF727FC401B83
:100CB000B04203D90320BDE8F8830BE0D7F89000D9
:100CC00010F0020FF1D1B8F1010F03D1B86D20F08F
:100CD0008050B865207810F0200F3AD0A069E0B1BC
:100CE000D7F898003D4640F00100C7F89800FFF79C
:100CF00005FC0646D5F8980010F0020F29D1FFF741
:100D0000FDFB801B022802D90320BDE8F883D5F83B
:100D1000980010F0020FF2D01BE0D7F898003D4683
:100D200020F00100C7F89800FFF7E8FB0646D5F869
:100D3000980010F0020F0CD0FFF7E0FB801B022898
:100D400002D90320BDE8F883D5F8980010F0020F0F
:100D5000F2D1E06960B3B9683D460C2232EA010184
:100D60004FF0FF3878D0022823D0286820F0807018
:100D70002860E86820F00300E860E86820F4881044
:100D800020F08070E860FFF7B9FB0446286810F097
:100D9000007F0DD0FFF7B2FB001B022857D90320BC
:100DA000BDE8F883001002401C00002000700040E5
:100DB00083E0286820F080702860FFF79FFB0646DC
:100DC000286810F0007F0AD0FFF798FB801B0228EC
:100DD00001D90320E4E7286810F0007FF4D1616AAC
:100DE000206A491E40EA0110A16A228E090208EB1E
:100DF000520241EA4251084394F8341008EB510181
:100E000040EA416094F82C1040EAC160E9682C4A3D
:100E100011400843E860286840F080702860E86866
:100E200040F08070E860FFF769FB0446286810F026
:100E3000007F42D1FFF762FB001B022801D903208B
:100E4000AEE7286810F0007FF4D036E004E02868B0
:100E500010F0007F9ED130E001282CD0E868226A93
:100E600000F00301914224D1626A00F0F001521EA9
:100E7000B1EB021F1DD1A26A00F4FE41B1EB022FBB
:100E800017D194F82C1000F07842B2EBC16F10D15A
:100E9000228E00F4C00108EB5202B1EB425F08D190
:100EA00094F8341000F0C06008EB5101B0EB416FD2
:100EB00003D0012074E7012072E7002070E70000F2
:100EC0000C809F01401EB0F1807F01D3012070474C
:100ED0004FF0E0214861044AF02010700020886142
:100EE000072008610020704723ED00E0FEE70000C6
:100EF0000A4810B502680A498B68D21A0A2A0BD32D
:100F00000068886000F0AAFC06480078002803D03A
:100F1000BDE8104000F0E4B910BD0000240000203E
:100F2000080000201400002000B585B01421684698
:100F3000FFF775F94FF6FF70009000200321CDE90F
:100F40000201019069460248FFF7AAF905B000BD09
:100F50000008004800B585B014216846FFF75FF926
:100F60004FF6FF70009001200190032003900020B5
:100F7000029069460248FFF793F905B000BD0000F2
:100F80000008004870B5002406462146204600F0BF
:100F900003F900F041F94FF49635304600F010F9AE
:100FA000641CAC42F9D370BD30B587B014216846DB
:100FB000FFF735F91E48C16C41F00401C164C16CF2
:100FC00001F004010591C16C41F00101C164C16CE3
:100FD00001F001010591C16C41F00201C164C06CD6
:100FE000012500F0020005904FF44870CDE900059E
:100FF00000240394694602940E48FFF751F9280231
:1010000003940090CDE901544FF090446946204686
:10101000FFF746F9FFF79EFFA06940F48070A061DA
:1010200004481830016841F40871016007B030BD10
:101030000010024000040048203AD2B2034B02EBF9
:10104000420203EB021200F019B8000098190008E0
:10105000F0B50E460746002540F23F1407E0214652
:101060003846FFF7E9FF103C6D1CA4B2761C3278BD
:10107000002A01D0142DF2D3F0BD00002DE9F04775
:1010800091468A460026044600F086F8DFF8408044
:10109000012700BF00F0C0F85FF0000539F8160026
:1010A00007FA05F10842404601D1408800E0008877
:1010B00000F086F86D1C102DF0D3641CE4B251468C
:1010C000204600F069F8761C182EE3D3BDE8F087BF
:1010D0000000002010B5FFF767FF002000F014F8B3
:1010E000084CA080A088A0F50241303906D000F05D
:1010F00066FA002000F008F8A08010BD00F0D6F9D4
:10110000F7E700000000002070B51D490A6842F4AE
:1011100000720A600A6842F480720A60184C103C3F
:10112000226842F020022260164A1060086840F0EF
:101130002000086000BF00BF00BF206840F0200012
:101140002060206840F480702060FFF7EDFE4FF0D3
:101150009041886A40F48070886200BF00BF00BF81
:101160000848001F006885B2886940F48070886173
:10117000FFF7F0FE206840F400702060284670BD44
:10118000280400481408004801B5BDF800000149D2
:10119000488008BD0000002010B50C460146202004
:1011A00000F068F82146BDE81040212000F062B848
:1011B00001B5BDF800000149088008BD000000200D
:1011C000134A116841F400711160114910390B681C
:1011D00043F480730B600B6843F020030B600D4BEE
:1011E0001860106840F02000106000BF00BF00BF12
:1011F000086840F020000860086840F480700860CB
:1012000000BF00BF00BF086840F40070086070476E
:1012100028040048140800481449086840F4007085
:101220000860086840F48070086010481038026850
:1012300042F0200202600E4B22221A600A6842F03D
:1012400020020A6000BF00BF00BF016841F020011A
:101250000160016841F48071016000BF00BF00BF00
:10126000016841F4007101607047000028040048E3
:1012700014080048184B10B51A6842F400721A603E
:101280001A6842F480721A60134A103A146844F0E3
:1012900020041460114C2060186840F02000186091
:1012A00000BF00BF00BF106840F020001060106851
:1012B00040F4807010602160186840F020001860D1
:1012C00000BF00BF00BF106840F020001060106831
:1012D00040F48070106010BD2804004814080048D5
:1012E00070B5124D044601224FF47F412846FFF7A6
:1012F000FEF80F4E012204213046FFF7F8F80022D5
:1013000004213046FFF7F3F8210200222846FFF7B8
:10131000EEF8012204213046FFF7E9F83046BDE837
:10132000704000220421FFF7E2B8000000080048E6
:10133000000C00482DE9F04F87B014216846FEF7F5
:101340006EFF4048C16C41F00401C164C16C01F002
:1013500004010591C16C41F02001C164C16C01F030
:1013600020010591C16C41F00101C164C16C01F023
:1013700001010591C16C41F00201C164C16C01F031
:1013800002010591C16C41F00801C164C06CDFF835
:10139000B88000F008004FF6FF7405900022214647
:1013A0004046FFF7A4F84FF480764FF090490022B2
:1013B00031464846FFF79BF8DFF890A00022042151
:1013C0005046FFF794F8DFF888B04FF448770022D2
:1013D00039465846FFF78BF80125CDE90045002432
:1013E0000294694640460394FEF75AFFCDE9005443
:1013F000694648460294FEF753FF0720CDE90004F2
:10140000694658460294FEF74BFF0096CDE9015419
:10141000694648460394FEF743FF04200090CDE957
:101420000154694650460394FEF73AFF0097CDE910
:101430000154694658460394FEF732FF07B0BDE8F1
:10144000F08F00000010024000080048000C004827
:1014500000040048FEE77047704700001049C86864
:1014600000F00302C868C0F30310401C032A0ED02A
:101470000C4AB2FBF0F0CA68C2F306225043C968B6
:10148000C1F34161491C4900B0FBF1F07047064AC5
:10149000B2FBF0F0CA68C2F306225043EFE7000047
:1014A000001002400024F40000366E0130B5012126
:1014B0000020FFF7DFFE4FF47A70FEF7CFFE002129
:1014C0000120FFF7D7FE41F290711020FFF7D2FE06
:1014D0004FF41C516020FFF7CDFE01216120FFF782
:1014E000C9FE02214620FFF7C5FE48F21001132075
:1014F000FFF7C0FE48F2FE011220FFF7BBFE4FF4DB
:10150000A0610220FFF7B6FE41F230010320FFF791
:10151000B1FE40F2033421463020FFF7ABFE2146F6
:101520003120FFF7A7FE21463220FFF7A3FEE51E7C
:1015300029463320FFF79EFE03213420FFF79AFE51
:1015400021463520FFF796FE14213620FFF792FE44
:1015500021463720FFF78EFE21463820FFF78AFE0E
:1015600021463920FFF786FE29463A20FFF782FE02
:1015700003213B20FFF77EFE21463C20FFF77AFE49
:101580004FF4A0513D20FFF775FE4FF400719220FB
:10159000FFF770FE21469320FFF76CFE40F60D0129
:1015A0009020FFF767FE41F218010320FFF762FE6B
:1015B000BDE8304040F273110720FFF75BBE10B565
:1015C00043F20801E320FFF755FE1221E720FFF761
:1015D00051FE41F23121EF20FFF74CFE00210120A6
:1015E000FFF748FE4FF4E0610220FFF743FE41F2AF
:1015F00030010320FFF73EFE00210420FFF73AFEF2
:1016000040F207210820FFF735FE00210920FFF7EF
:1016100031FE00210A20FFF72DFE00210C20FFF7EC
:1016200029FE00210D20FFF725FE00210F20FFF7E6
:1016300021FE00211020FFF71DFE07211120FFF7DA
:1016400019FE00211220FFF715FE00211320FFF7DD
:1016500011FEC820FEF710FE41F290611020FFF746
:1016600009FE40F227211120FFF704FE3220FEF789
:1016700003FE1D211220FFF7FDFD3220FEF7FCFDC9
:101680004FF400611320FFF7F5FD14212920FFF727
:10169000F1FD0B212B20FFF7EDFD3220FEF7ECFDD5
:1016A00000212020FFF7E6FD00212120FFF7E2FDC9
:1016B00007213020FFF7DEFD40F207713120FFF7F0
:1016C000D9FD06213220FFF7D5FD40F20471352007
:1016D000FFF7D0FD41F604713620FFF7CBFD042162
:1016E0003720FFF7C7FD00213820FFF7C3FD40F288
:1016F00006713920FFF7BEFD40F201713C20FFF773
:10170000B9FD0F213D20FFF7B5FD00215020FFF767
:10171000B1FDEF215120FFF7ADFD00215220FFF771
:10172000A9FD40F23F115320FFF7A4FD4FF41C51D7
:101730006020FFF79FFD01216120FFF79BFD002145
:101740006A20FFF797FD00218020FFF793FD00211D
:101750008120FFF78FFD00218220FFF78BFD002104
:101760008320FFF787FD00218420FFF783FD002100
:101770008520FFF77FFD10219020FFF77BFD0021E2
:101780009220FFF777FD03219320FFF773FD4FF4BD
:1017900088719520FFF76EFD00219720FFF76AFD05
:1017A00000219820FFF766FD41F218010320FFF7A2
:1017B00061FDBDE8104040F273110720FFF75ABDEC
:1017C0007047FEF7A1BE00B593B038216846FEF71A
:1017D00026FD14210EA8FEF722FD4FF40070FEF73F
:1017E00033FF0220C1010391402104910090079032
:1017F00008901421CDE909010B900C900D906846DA
:10180000FFF7CEF80F200E9003200F9000201090CD
:101810001190129003210EA8FEF784FF13B000BDB3
:101820000548016841F47001016003494FF0006010
:10183000803908607047000088ED00E0FEE702E0B4
:1018400008C8121F08C1002AFAD17047704700204B
:1018500001E001C1121F002AFBD1704770B5114C85
:1018600001212046FEF73CFE054602212046FEF7F8
:1018700037FE45EA400504212046FEF731FE45EAE1
:10188000800401214FF09040FEF72AFE064944EA09
:10189000C00040F0F0004A78C04320EA02020A701B
:1018A000487070BD0004004814000020FEF734FEAC
:1018B000FFF789FFFFF73EFDFFF70CFC1F20FFF746
:1018C00061FB1F20FFF760FC4FF6FF742046FFF717
:1018D0006FFC19A10020FFF7BBFB17A11820FFF731
:1018E000B7FB1BA13020FFF7B3FB13A14820FFF784
:1018F000AFFB11A16020FFF7ABFB2046FFF744FCD4
:101900001F20FFF755FC0CA17820FFF7A1FB16A1C3
:101910009020FFF79DFB08A1A820FFF799FB18A1D5
:10192000C020FFF795FB04A1D820FFF791FB00BF73
:10193000FFF7DEFAFCE700002020202020202020F6
:101940002020202020202020202020200000000017
:101950002020202020204C434420546573743120E3
:1019600020202020200000002020202020202048AF
:10197000414C204C49422020202020200000000023
:10198000202020202020202020403830202020200F
:1019900020202020000000000000000000000000C7
:1019A0000000000000000000000000000000000037
:1019B0000000000000000000000000000000000027
:1019C0000000000000000000000080018001800194
:1019D00080018001800180018001800180018001FF
:1019E00080018001000000008001800100000000F3
:1019F000000000000000000000000000CC00CC004F
:101A0000CC00CC00CC00CC000000000000000000A6
:101A100000000000000000000000000000000000C6
:101A200000000000000000000000000000000000B6
:101A300000000000600C600C600C30063006FE1FD9
:101A4000FE1F300638071803FE1FFE1F1803180379
:101A50008C018C018C01000000008000E003F80F75
:101A60009C0E8C1C8C188C009800F801E007800EEE
:101A7000801C8C188C189C18B80CF00FE0038000A8
:101A800080000000000000000000000000000E18B0
:101A90001B0C110C11061106110311039B018E0181
:101AA000C038C06C60446044304430441844186C02
:101AB0000C380000000000000000E001F0033807CF
:101AC000180618063003F001F000F8009C310E33C0
:101AD000061E061C061C063FFC73F02100000000D9
:101AE0000000000000000000000000000C000C00DE
:101AF0000C000C000C000C000000000000000000B6
:101B000000000000000000000000000000000000D5
:101B1000000000000000000000000002000380013F
:101B2000C000C000600060003000300030003000B5
:101B3000300030003000300060006000C000C000A5
:101B40008001000300020000000020006000C000CF
:101B50008001800100030003000600060006000665
:101B60000006000600060006000300038001800155
:101B7000C000600020000000000000000000000025
:101B800000000000C000C000D806F807E0013003E4
:101B90003807000000000000000000000000000006
:101BA0000000000000000000000000000000000035
:101BB0000000000080018001800180018001FC3F65
:101BC000FC3F800180018001800180010000000055
:101BD0000000000000000000000000000000000005
:101BE00000000000000000000000000000000000F5
:101BF00000000000000000000000800180010001E2
:101C00000001800000000000000000000000000053
:101C100000000000000000000000000000000000C4
:101C2000E007E007000000000000000000000000E6
:101C300000000000000000000000000000000000A4
:101C40000000000000000000000000000000000094
:101C500000000000000000000000C000C000000004
:101C600000000000000000000000000C000C000656
:101C700000060006000300030003800380018001CA
:101C80008001C000C000C0006000600000000000D3
:101C900000000000000000000000E003F007380E24
:101CA000180C0C180C180C180C180C180C180C1814
:101CB0000C180C18180C380EF007E0030000000098
:101CC0000000000000000000000000018001C001D1
:101CD000F00198018801800180018001800180016C
:101CE00080018001800180018001800100000000EE
:101CF00000000000000000000000E003F80F180CD6
:101D00000C180C1800180018000C000600038001C5
:101D1000C000600030001800FC1FFC1F0000000025
:101D200000000000000000000000E001F807180EAD
:101D30000C0C0C0C000C0006C003C007000C0018B3
:101D400000180C180C18180CF807E003000000002D
:101D500000000000000000000000000C000E000F5A
:101D6000000F800DC00C600C600C300C180C0C0CBB
:101D7000FC3FFC3F000C000C000C000C00000000BD
:101D800000000000000000000000F80FF80F18002D
:101D900018000C00EC03FC071C0E001C00180018B7
:101DA00000180C181C0C180EF807E00300000000C7
:101DB00000000000000000000000C007F00F381C09
:101DC000181818000C00CC03EC0F3C0E1C1C0C184F
:101DD0000C180C18181C380EF007E0030000000067
:101DE00000000000000000000000FC1FFC1F000CB1
:101DF00000060006000380038001C001C000E0006F
:101E00006000600070003000300030000000000012
:101E100000000000000000000000E003F007380EA2
:101E2000180C180C180C3806F007F007180C0C18D2
:101E30000C180C180C18380CF80FE0030000000008
:101E400000000000000000000000E003F007380E72
:101E50001C0C0C180C180C181C1C381EF81BE01954
:101E60000018000C000C1C0EF807F0010000000028
:101E70000000000000000000000000000000000062
:101E80000000000080018001000000000000000050
:101E90000000000000000000800180010000000040
:101EA0000000000000000000000000000000000032
:101EB0000000000080018001000000000000000020
:101EC000000000000000000080018001000100010E
:101ED0008000000000000000000000000000000082
:101EE00000000000000000000010001C800FE00354
:101EF000F8001800F800E003800F001C001000003C
:101F000000000000000000000000000000000000D1
:101F10000000000000000000F81F000000000000AA
:101F2000F81F00000000000000000000000000009A
:101F300000000000000000000000000000000000A1
:101F4000000000000000000008003800F001C00799
:101F5000001F0018001FC007F00138000800000033
:101F600000000000000000000000E003F80F180C63
:101F70000C180C180018000C000600038001C000AB
:101F8000C000C00000000000C000C0000000000051
:101F9000000000000000000000000000E00718182A
:101FA0000420C229224A114409440944094409224F
:101FB0001113E20C024004201818E0070000000092
:101FC0000000000000000000000080038003C00645
:101FD000C006C006600C600C301830183018F83F8E
:101FE000F83F1C700C600C6006C006C000000000CA
:101FF00000000000000000000000FC03FC0F0C0CBF
:102000000C180C180C180C0CFC07FC0F0C180C30DE
:102010000C300C300C300C18FC1FFC0700000000CA
:1020200000000000000000000000C007F01F38386A
:102030001C300C7006600600060006000600060054
:10204000060006600C701C30F01FE0070000000066
:1020500000000000000000000000FE03FE0F060E5E
:1020600006180618063006300630063006300630F0
:10207000063006180618060EFE0FFE0300000000CC
:1020800000000000000000000000FC3FFC3F0C00CE
:102090000C000C000C000C00FC1FFC1F0C000C00C2
:1020A0000C000C000C000C00FC3FFC3F000000008A
:1020B00000000000000000000000F83FF83F18009A
:1020C0001800180018001800F81FF81F1800180052
:1020D0001800180018001800180018000000000070
:1020E00000000000000000000000E00FF83F3C7816
:1020F0000E6006E007C00300030003FE03FE03C0FA
:1021000007C006C00EC03CF0F83FE00F0000000022
:10211000000000000000000000000C300C300C300B
:102120000C300C300C300C30FC3FFC3F0C300C30D1
:102130000C300C300C300C300C300C300000000037
:10214000000000000000000000008001800180010C
:102150008001800180018001800180018001800177
:102160008001800180018001800180010000000069
:10217000000000000000000000000006000600064D
:10218000000600060006000600060006000600061F
:102190000006180618063807F003E00100000000EA
:1021A0000000000000000000000006300618060CC9
:1021B000060606038601C60066007600DE008E0174
:1021C00006030606060C061806300660000000002E
:1021D00000000000000000000000180018001800B7
:1021E000180018001800180018001800180018002F
:1021F0001800180018001800F81FF81F0000000051
:10220000000000000000000000000EE01EF01EF0C4
:102210001EF036D836D836D836D866CC66CC66CCE2
:10222000C6C6C6C6C6C6C6C686C386C300000000EC
:10223000000000000000000000000C301C303C30AA
:102240003C306C306C30CC30CC308C310C330C33B7
:102250000C360C360C3C0C3C0C380C3000000000EA
:1022600000000000000000000000E007F81F1C381C
:102270000E70066003C003C003C003C003C003C0E8
:1022800003C006600E701C38F81FE0070000000055
:1022900000000000000000000000FC0FFC1F0C38D4
:1022A0000C300C300C300C300C18FC1FFC070C00F0
:1022B0000C000C000C000C000C000C0000000000D6
:1022C00000000000000000000000E007F81F1C38BC
:1022D0000E70066003E003C003C003C003C003C068
:1022E00007E006630E3F1C3CF83FE0F700C000002B
:1022F00000000000000000000000FE0FFE1F063876
:102300000630063006300638FE1FFE0706030606B6
:10231000060C06180618063006300660000000009D
:1023200000000000000000000000E003F80F1C0C9B
:102330000C180C180C001C00F803E00F001E0038ED
:10234000063006300E301C1CF80FE00700000000BD
:1023500000000000000000000000FE7FFE7F800102
:102360008001800180018001800180018001800165
:102370008001800180018001800180010000000057
:10238000000000000000000000000C300C300C3099
:102390000C300C300C300C300C300C300C300C305D
:1023A0000C300C300C301818F81FE007000000004B
:1023B000000000000000000000000360063006304E
:1023C00006300C180C180C18180C180C380E3006A7
:1023D0003006700760036003C001C0010000000008
:1023E000000000000000000000000360C361C36142
:1023F000C3616633663366336633663366336C1B9C
:102400006C1B6C1B2C1A3C1E380E380E0000000092
:10241000000000000000000000000FE00C70183009
:102420003018700C600EC00780038003C003E00604
:10243000700C301C18180C300E6007E00000000013
:102440000000000000000000000003C006600C3027
:102450001C383818300C6006E007C003800180018A
:102460008001800180018001800180010000000066
:1024700000000000000000000000FC7FFC7F006006
:1024800000300018000C000600038001C00060004E
:10249000300018000C000600FE7FFE7F00000000E8
:1024A00000000000000000000000E003E003600006
:1024B000600060006000600060006000600060001C
:1024C000600060006000600060006000600060000C
:1024D0006000E003E0030000000030003000600016
:1024E00060006000C000C000C000C0018001800129
:1024F0008001000300030003000600060000000046
:1025000000000000000000000000E003E003000302
:1025100000030003000300030003000300030003A3
:102520000003000300030003000300030003000393
:102530000003E003E003000000000000C001C00150
:1025400060036003600330063006180C180C0000AE
:10255000000000000000000000000000000000007B
:10256000000000000000000000000000000000006B
:10257000000000000000000000000000000000005B
:1025800000000000000000000000FFFFFFFF00004F
:10259000000000000000000000000C000C000C0017
:1025A0000C000C000C000000000000000000000007
:1025B000000000000000000000000000000000001B
:1025C000000000000000000000000000000000000B
:1025D00000000000F003F8071C0C0C0C000FF00FBB
:1025E000F80C0C0C0C0C1C0FF80FF018000000007D
:1025F0000000000000000000000018001800180093
:1026000018001800D803F80F380C181818181818E4
:10261000181818181818380CF80FD8030000000004
:1026200000000000000000000000000000000000AA
:1026300000000000C003F007300E180C180018004E
:1026400018001800180C300EF007C003000000003E
:102650000000000000000000000000180018001832
:1026600000180018C01BF01F301C18181818181874
:10267000181818181818301CF01FC01B0000000094
:10268000000000000000000000000000000000004A
:1026900000000000C003F00F300C1818F81FF81FDE
:1026A000180018003818301CF00FC0070000000098
:1026B00000000000000000000000800FC00FC000FC
:1026C000C000C000F007F007C000C000C000C0009C
:1026D000C000C000C000C000C000C000000000007A
:1026E00000000000000000000000000000000000EA
:1026F00000000000E00DF80F180E0C0C0C0C0C0C78
:102700000C0C0C0C0C0C180EF80FE00D000C0C0C43
:102710001C06F807F001000000001800180018005F
:1027200018001800D807F80F381C181818181818AF
:102730001818181818181818181818180000000079
:1027400000000000000000000000C000C000000009
:1027500000000000C000C000C000C000C000C000F9
:10276000C000C000C000C000C000C00000000000E9
:1027700000000000000000000000C000C0000000D9
:1027800000000000C000C000C000C000C000C000C9
:10279000C000C000C000C000C000C000C000C00039
:1027A000C000F8007800000000000C000C000C00D5
:1027B0000C000C000C0C0C060C038C01CC006C0003
:1027C000FC009C018C030C030C060C0C00000000A8
:1027D00000000000000000000000C000C000C000B9
:1027E000C000C000C000C000C000C000C000C000E9
:1027F000C000C000C000C000C000C0000000000059
:1028000000000000000000000000000000000000C8
:10281000000000007C3CFF7EC7E383C183C183C10D
:1028200083C183C183C183C183C183C10000000010
:102830000000000000000000000000000000000098
:10284000000000009807F80F381C181818181818FE
:102850001818181818181818181818180000000058
:102860000000000000000000000000000000000068
:1028700000000000C003F00F300C181818181818CA
:10288000181818181818300CF00FC00300000000BA
:102890000000000000000000000000000000000038
:1028A00000000000D803F80F380C18181818181872
:1028B000181818181818380CF80FD8031800180032
:1028C00018001800180000000000000000000000C0
:1028D00000000000C01BF01F301C18181818181832
:1028E000181818181818301CF01FC01B00180018F2
:1028F0000018001800180000000000000000000090
:1029000000000000B007F00370003000300030001D
:102910003000300030003000300030000000000097
:1029200000000000000000000000000000000000A7
:1029300000000000E003F003380E180C3800F0032C
:10294000C007000C180C380EF007E0030000000070
:102950000000000000000000000000008000C00037
:10296000C000C000F007F007C000C000C000C000F9
:10297000C000C000C000C000C00780070000000009
:102980000000000000000000000000000000000047
:102990000000000018181818181818181818181817
:1029A000181818181818381CF01FE019000000003B
:1029B0000000000000000000000000000000000017
:1029C000000000000C18180C180C180C300630060B
:1029D0003006600360036003C001C0010000000016
:1029E00000000000000000000000000000000000E7
:1029F00000000000C141C141C3616363636363635D
:102A00003636363636361C1C1C1C1C1C00000000DA
:102A100000000000000000000000000000000000B6
:102A2000000000001C38381C300C60066003600396
:102A3000600360036006300C381C1C380000000086
:102A40000000000000000000000000000000000086
:102A5000000000001830301830187018600C600C3E
:102A6000E00CC006C0068003800380038001800163
:102A7000C001F00070000000000000000000000035
:102A800000000000FC1FFC1F000C0006000380017A
:102A9000C000600030001800FC1FFC1F0000000098
:102AA0000000000000000000000000038001C000E2
:102AB000C000C000C000C000C00060006000300066
:102AC00060004000C000C000C000C000C000C000E6
:102AD00080010003000000000000800180018001EF
:102AE00080018001800180018001800180018001DE
:102AF00080018001800180018001800180018001CE
:102B0000800180018001000000006000C000C00161
:102B10008001800180018001800100030003000624
:102B2000000300018001800180018001800180019B
:102B3000C000600000000000000000000000000075
:102B40000000000000000000F010F81F080F000057
:102B50000000000000000000000000000000000075
:102B60000000000000000000000000000000000065
:102B70000102030406070809982B00080000002042
:102B8000280000003E180008C02B00082800002084
:102B9000000400004E1800080000FFFF00000000C5
:102BA000FF00000000000000000000000000000026
:102BB0000024F400100000000100000000000000EC
:04000005080001D915
:00000001FF
