:020000040800F2
:10000000E0050020ED010008EB2A00087F2200082F
:10001000E92A000885090008953C00080000000056
:100020000000000000000000000000002D3000086B
:100030008709000800000000ED2A00082F300008A2
:10004000070200080702000807020008070200086C
:10005000070200080702000807020008070200085C
:10006000070200080702000807020008070200084C
:10007000070200080702000807020008070200083C
:10008000070200080000000007020008070200083D
:10009000070200080702000807020008070200081C
:1000A000070200080702000807020008070200080C
:1000B00007020008070200080702000807020008FC
:1000C00007020008070200080702000807020008EC
:1000D00007020008893C0008070200080702000820
:1000E00007020008070200080702000807020008CC
:1000F00007020008070200080702000800000000CD
:1001000000000000070200080000000007020008CD
:1001100007020008000000000702000807020008AC
:10012000070200080702000807020008070200088B
:10013000070200080000000000000000070200089D
:10014000070200080702000800000000000000008D
:10015000000000000000000000000000000000009F
:10016000000000000000000000000000070200087E
:10017000070200080000000000000000000000006E
:10018000000000000702000800000000000000005E
:10019000000000000000000000000000000000005F
:1001A000000000000000000007020008070200082D
:1001B000070200080702000807020008000000000C
:1001C000000000000702000800000000000000001E
:1001D0000702000807020008DFF80CD000F05CFA04
:1001E0000048004751460008E005002006488047C7
:1001F00006480047FEE7FEE7FEE7FEE7FEE7FEE70C
:10020000FEE7FEE7FEE7FEE735300008D90100080B
:100210002DE9F05F0546002092469B46884606463B
:10022000814640241BE0284641464746224600F0CE
:100230006AF853465A46C01A914110D311461846DF
:10024000224600F051F82D1A67EB01084F4622466E
:100250000120002100F048F817EB00094E41201E54
:10026000A4F10104DFDC484631462A464346BDE896
:10027000F09FD2B201E000F8012B491EFBD270477B
:100280000022F6E710B513460A4604461946FFF762
:10029000F0FF204610BD00F0004230F000400AD0D0
:1002A000C10D01F56071C0F3160042EA0151C208A8
:1002B00040071143704700200146704730B50B4698
:1002C000014600202022012409E021FA02F59D4286
:1002D00005D303FA02F5491B04FA02F52844151E5A
:1002E000A2F10102F1DC30BD202A04DB203A00FA41
:1002F00002F1002070479140C2F1200320FA03F37D
:10030000194390407047202A04DB203A21FA02F07A
:100310000021704721FA02F3D040C2F1200291403F
:100320000843194670472DE9FE4F804681EA0300D5
:10033000C00F0C46009021F0004123F00045B8EBBF
:100340000200A94105D24046214690461C460B4674
:10035000024623F00040104347D0270DC7F30A00A0
:10036000C3F30A510290401A019040286BDAC3F39C
:10037000130040F4801B0098924620B10023D2EB7A
:10038000030A63EB0B0B01985946C0F1400250463B
:10039000FFF7AAFF06460D4650465946019A00F05F
:1003A0008DF910EB08006141002487EA115284EABC
:1003B000E7731A4340D0009A62B3019A012A4FEAC8
:1003C000075215DC001B61EB02014FF0004202EA0C
:1003D0000752CDE90042001C41F5801132462B4600
:1003E00000F08DF903B0BDE8F08F40462146F9E7F3
:1003F000001B61EB0201001C41F5801300185B41FA
:100400002018A2F5001747EB030140EAD570B61992
:100410006D4111E06D084FEA360645EAC0754FEAB6
:100420000752001B61EB0201001C41F580114908D5
:100430004FEA30000019514132462B4603B0BDE867
:10044000F04F00F04DB90098012240000023D0EB9E
:10045000020263EBE073009821464FEAE074B8EBC8
:10046000000061EB0401E9E783F000435BE781F002
:10047000004158E72DE9FE4F81EA030404F00044EF
:1004800021F0004100944FF0000B23F0004350EAAC
:1004900001045ED052EA03045BD0C3F30A54C1F3F3
:1004A0000A552C44A4F2F3340194A0FB0254C1F386
:1004B000130141F48011C3F3130343F4801301FBD0
:1004C000024400FB034E840A970A44EA815447EA37
:1004D0008357A4FB076802958D0A05FB07854FEA41
:1004E000932C04FB0C542705029D4FEA065847EA5B
:1004F0001637B5EB08056EEB070C870E920E47EA30
:10050000811742EA8312A7FB0201B6EB0B0164EBF1
:1005100000042B0D43EA0C335E1844EB1C50DA4602
:100520005146E7FB0201C5F313044FEA0B3343EADC
:1005300014534FEA0432019C43EA0603A4F10C046D
:100540000294009CCDE900B400F0D9F803B0BDE8F6
:10055000F08F00200146F9E72DE9F04D81EA030410
:1005600004F0004B21F0004514464FF0000A23F040
:10057000004150EA050220D054EA01021DD0C5F323
:100580000A570246C5F31303C1F31300C1F30A5619
:1005900040F4801543F48013A7EB0608101BD646E1
:1005A00008F2FD3873EB050002D308F1010801E001
:1005B00092185B41B8F1000F03DA00200146BDE854
:1005C000F08D00204FF48011064684460EE0171B84
:1005D00073EB050705D3121B63EB050306434CEAD7
:1005E000010C49084FEA300092185B4150EA0107BC
:1005F000EDD152EA030012D082EA040083EA050139
:10060000084305D0101BAB4106D20122002306E0AF
:1006100000224FF0004302E06FF0010253101AEB8A
:1006200006004CEB085110EB0A0041EB0B01BDE852
:10063000F04D00F055B8C1F30A52C1F3130140F276
:10064000FF3341F480119A4202DA002001467047DC
:1006500040F233439A42A2F2334202DC5242FFF7A5
:1006600052BEFFF741BE000030B5041E71F1000418
:1006700004DB4FF00044404264EB0101141E73F1AF
:10068000000405DB1C464FF00043524263EB0403B9
:10069000994208BF904230BD064C074D06E0E06825
:1006A00040F0010394E8070098471034AC42F6D3B9
:1006B000FFF796FDC8580008E8580008202A06DB16
:1006C000CB17203A41FA02F043EAE07306E041FA20
:1006D00002F3D040C2F1200291400843194670470E
:1006E00010B5141E73F1000408DA401C41F100013A
:1006F00092185B411A4301D120F0010010BD2DE991
:10070000F04D92469B4611B1B1FA81F202E0B0FA87
:1007100080F220329046FFF7E7FD04460F4640EA9C
:100720000A0041EA0B0153465A46084313D01146CA
:1007300053EA010019D0C8F140025046FFF7E3FD2B
:1007400005460E46504659464246FFF7CDFD084342
:1007500005D0012004E020463946BDE8F08D002098
:10076000054346EAE0762C4337430A986305E40ADA
:10077000A0EB08000022FD0A44EA47540A3002D5E3
:1007800000200146E9E7010510196941DDE9084546
:1007900000196941BDE8F04DA2E7000030B58BB00B
:1007A000002408940994202168460A94FFF768FD04
:1007B0001C484FF0A041042501604FF48021C0E99E
:1007C0000114C4600461C0E9054504774477012140
:1007D000016280F82440C462046380F83840C46336
:1007E00080F8404000F098FB08B100F014F908A927
:1007F0000C48089400F012F908B100F00CF90A480E
:1008000000900620CDE901047F200594CDE9030581
:100810006946044800F06CF9002801D000F0FBF8AC
:100820000BB030BDCC0000200008302E30B589B0B0
:1008300020216846FFF724FD19481849002401606B
:100840008902C0E90114C46004250461C0E90545BA
:10085000047744770121016280F82440C462046374
:1008600080F83840C46380F8404000F055FB08B180
:1008700000F0D1F80B4800900620CDE901047F205C
:100880000594CDE903056946054800F031F90028D3
:1008900001D000F0C0F809B030BD000000010050E8
:1008A000380100200080F03E70B504460068816881
:1008B00011F0010F28D18168144A114215D18168C5
:1008C000D5432940491C816000F04AFE064616E0E7
:1008D000816811F0010F03D181682940491C8160B2
:1008E00000F03EFE801B022809D9E06D40F01000A8
:1008F000E065206E40F001002066012070BD206898
:100900000168C943C907E3D1002070BD3F000080E2
:1009100010B517482DED028B00F06CFC144800F068
:10092000F7FA80B200EE100A9FED138ADFED138A0A
:10093000B8EE400A0F4C20EE080AA080104820EEC6
:10094000280A84ED060A00F055FC0D4800F0E0FA94
:1009500080B200EE100AE080B8EE400A20EE080AED
:1009600020EE280A84ED050ABDEC028B10BD0000C4
:10097000CC0000200C0000200000803933335340AD
:1009800038010020FEE77047002240F6B83306E049
:100990000021491C89B29942FBD3521C92B2824277
:1009A000F6D3704710B5044601F0E6FCA02001F034
:1009B000A4FC01F017FD204601F09FFC01F012FDA0
:1009C00001F0DAFCA12001F098FC01F00BFD01F030
:1009D0006DFC044601F0B8FC01F0E9FC204610BDB6
:1009E00070B50D46044601F0C7FCA02001F085FC5F
:1009F00001F0F8FC204601F080FC01F0F3FC2846F1
:100A000001F07BFC01F0EEFC01F0D1FCBDE8704090
:100A1000052000F0A5BC72B6FEE700002DE9F04706
:100A2000044690F858009CB00D464FF0000801288D
:100A300014D0012084F8580020684FF0A0474FF0F0
:100A40000009B8420ED1284E0096304602F022F836
:100A50008246206802F01EF860B10EE002201CB051
:100A6000BDE8F087E16D41F02001E16584F8589020
:100A70000120F4E7BAF1000F0AD0E06D40F0200049
:100A8000E0654FF0010800BF84F858904046E6E763
:100A900016482A6840F61F71002A826822F46042D4
:100AA00015D094F8383042EA43326B681A438260BA
:100AB000BA68B36802F0010203F001031A43E3D1FC
:100AC000AB682A681A4383688B431A430AE0826042
:100AD000BA68B36802F0010203F001031A43D3D1EC
:100AE00082688A438260CFE7000100500003005013
:100AF0002DE9F84F00270446009790F85800DFF8DA
:100B0000DC930D46B846012811D0012684F85860C0
:100B1000206801F0BBFF60B1E06D40F02000E065AF
:100B20005FF0010784F858803846BDE8F88F02204E
:100B3000FBE7D5E900210C23206803EA9113184450
:100B4000036B01F01F014FF01F0C0CFA01FCC2F304
:100B5000846223EA0C038A4013430363206801F094
:100B600095FF8246206801F08DFF5AEA00003CD1D3
:100B7000AA6829682068B2F1004F37D001F08EFFD3
:100B80002068416921F00041416120686969C268BB
:100B9000C2F3C102520091402A69042A31D000EB0D
:100BA00082002B68026EDFF838C303F0F84302EAD4
:100BB0000C020B431A4342F0004101662268286987
:100BC000A96902EB8000026E22F080720A4302667D
:100BD000297F20682A69012910D0002100EB8200BA
:100BE000026E22F000720A4302667DE0002201F0EC
:100BF00055FF2068416941F00041C5E74FF00071A1
:100C0000ECE7002101F038FF400320684FF00001BD
:100C100072D001F031FF90FAA0F0B0FA80F12868AC
:100C200042036ED090FAA0F0B0FA80F0814204D175
:100C300000221146206801F040FF0121206801F0E8
:100C40001BFF400320684FF001015DD001F014FF4D
:100C500090FAA0F0B0FA80F12868420359D090FAD7
:100C6000A0F0B0FA80F0814204D100220121206876
:100C700001F023FF0221206801F0FEFE40032068FE
:100C80004FF0020148D001F0F7FE90FAA0F0B0FA60
:100C900080F12868420344D090FAA0F0B0FA80F0C6
:100CA000814204D100220221206801F006FF0321C5
:100CB000206801F0E1FE400320684FF0030133D0CB
:100CC00001F0DAFE90FAA0F0B0FA80F12868420351
:100CD0002FD090FAA0F0B0FA80F0814204D1002227
:100CE0000321206801F0E9FE2068816811F0010FFE
:100CF00022D0ACE000E004E001F0BEFEC0F384616D
:100D00008DE7C0F3846091E701F0B6FEC0F3846123
:100D1000A2E7C0F38460A6E701F0AEFEC0F38461F1
:100D2000B7E7C0F38460BBE701F0A6FEC0F38461BF
:100D3000CCE7C0F38460D0E72A7B296850F8B03F45
:100D4000C1F3120C23EA0C0302F0180C654A22FAD4
:100D50000CF20A4013430360E968494577D12868DB
:100D600041031CD090FAA0F1B1FA81F1491C01F0C5
:100D70001F0109294FEA403132D8002912D000BFA3
:100D800090FAA0F1B1FA81F101F1010101F01F0126
:100D900006FA01F609D100BFC0F3846109E0C0F38F
:100DA0008461E3E7C0F38461EEE790FAA0F1B1FA61
:100DB00081F101F1010101F01F0146EA816102D1D7
:100DC000C0F3846003E090FAA0F0B0FA80F000F184
:100DD000010000F01F0000EB400041EA005132E04A
:100DE00000290ED090FAA0F1B1FA81F101F10101D0
:100DF00001F01F0106FA01F606D100BFC0F38461BD
:100E000006E0C0F38461F1E790FAA0F1B1FA81F154
:100E100001F1010101F01F0146EA816102D1C0F335
:100E2000846003E090FAA0F0B0FA80F000F10100D5
:100E300000F01F002C4A00EB400002EB005041EA9A
:100E4000000141F00071AA68206801F027FE2748E0
:100E50002A6802423FF466AE25488168254B01F0BE
:100E6000E0719A4202D0244B9A421BD10B0219D452
:100E70002268B2F1A04F7FF455AE826841F40001C0
:100E800022F0E0720A4382601C481D490068B0FBF2
:100E9000F1F000EB4000800000E0401E00900028D0
:100EA000FBD13FE6174D184BAA4207D1CD0105D41F
:100EB00022689A42F5D041F0807109E0134DAA42B0
:100EC000EFD14A02EDD422689A42EAD041F480017F
:100ED000826822F0E0720A43826023E600007F40CD
:100EE00000F0FF03FFFF0700000020FE0000088065
:100EF00000030050000021C31000C0903800002003
:100F0000400D0300000052C700010050000084CBD8
:100F10000068006C70470000F8B54FF00005040051
:100F20002E46009502D0E06D10B107E00120F8BD1B
:100F3000204600F0EDF8266684F858602068816845
:100F4000C1F3407119B18168694A1140816020681C
:100F50008168C1F3007179B98168664A114041F036
:100F600080518160644865490068B0FBF1F000E0A1
:100F7000401E00900028FBD120688168C1F30071F9
:100F800041B9E16D41F01001E165216E41F00101CF
:100F90002166012501F07AFDE16DC90600D430B16A
:100FA000E06D40F01000E06501252846F8BDE06DD9
:100FB00020F4807040F00200E0652068806810F046
:100FC000010F11D14FF0A04080684D4900F00100A1
:100FD000896801F00101084306D14A4861688268C6
:100FE00022F47C120A438260E168E06B627F08436E
:100FF000A16841EA4231084394F8241040EA0140D4
:10100000012904D1218D404A02EB41410843E16AA4
:1010100029B101F47871226B014342EA0100216891
:10102000CA683A4B1A400243CA6020680169626B81
:1010300021F0406111430161206801F027FD06465F
:10104000206801F01FFD30432ED1207F94F8381026
:10105000800340EA41022068C16844F202039943D8
:101060001143C16020690028206801690AD041F459
:1010700080310161206850F8C01F22696FF30D01B3
:10108000114307E021F480310161206850F8C01F4E
:101090006FF30D01016094F8400001280CD0206826
:1010A000016921F001010161606901282068016B7B
:1010B00021F00F0111D013E0D4E911010843D4E964
:1010C00013121143084321680A6940F2FC739A43E2
:1010D000104340F001000861E6E7226A521E114306
:1010E0000163E06D20F0020040F00100E0655CE784
:1010F000C0FFFF5FC0FFFF7F38000020400D0300EE
:1011000000010050000300500000FEFF0740F0FF08
:101110002DE9F04397B00446142111A8FFF7B0F869
:1011200044216846FFF7ACF84FF0005021682D4D80
:101130000327DFF8B49086132C4C4FF00008B1F170
:10114000A04F10D02A4A914248D100960F9068468D
:1011500000F09CFA08B1FFF75EFC2868401C28608C
:10116000012824D02BE000960F90684600F08EFAFC
:1011700008B1FFF750FC2868401C2860012807D1FF
:10118000E06C40F40050E064E06C00F40050169015
:10119000E06C40F00200E064E06C11A900F0020095
:1011A00016904FF4805081E88101484614E0E06CCD
:1011B00040F40050E064E06C00F400501690E06CE5
:1011C00040F00200E064E06C11AA00F0020016900A
:1011D00082E8C00111A9484600F0D4F817B0BDE874
:1011E000F0830000080000200004004800100240C6
:1011F000000100502DE9F04104463848806800F0B5
:101200001F05206801F042FC18B102210846BDE824
:10121000F08194F8580001280CD0012084F858007F
:101220002046FFF741FB01004FF0000304D084F893
:101230005830EBE70220EAE7E06D40F601629043A8
:1012400040F48070E065264A20684FF0A046904246
:1012500001D1374600E00746874200D01DB9E76D4F
:1012600027F48017E765E76DFF0404D5276E27F0A4
:101270000607276600E023661C27076084F85830BD
:101280002068904201D1334600E00346834215D0E6
:10129000A5B1052D12D0092D10D0E36D43F48013B4
:1012A000E365904200D13046C0688001AED5E06D64
:1012B00020F4005040F48050E065A7E7C268920136
:1012C00005D5E26D22F4005242F48052E265826854
:1012D000044B1A40121D826098E700000003005082
:1012E00000010050C0FFFF7F70B590F8252000245A
:1012F00001212346022A07D00422C26380F8251068
:1013000080F82430012429E00268156825F00E05D4
:1013100015600268156825F001051560826C156876
:1013200025F48075156090F84420056C02F01F02CA
:1013300001FA02F26A60D0E913255560426D32B1BC
:10134000156825F480751560D0E91625556080F87C
:10135000251080F82430816B01B18847204670BD8C
:1013600070B5044600F0FCF80546601C02D0044845
:101370004068044400F0F4F8401BA042FAD370BD6A
:101380002C0000202DE9FC4FDFF8A0A1002301254F
:101390000AF1040B03244FF00F0C0BF1040EBDE017
:1013A00005FA03F632406FD04F68012F05D0022FA7
:1013B00003D0112F01D0122F17D1D0F808905F0061
:1013C00004FA07F829EA08090097D1F80C8008FA0E
:1013D00007F848EA0908C0F808804768B7430E795B
:1013E000C6F300169E403E434660C6684FEA430877
:1013F00004FA08F7BE4301978F6807FA08F73743E6
:10140000C7604E68022E01D0122E13D1DE0800EB09
:1014100086060096366A5F07FF0E0CFA07F926EA81
:101420000906D1F8109009FA07F949EA0609009E61
:10143000C6F820900668019FBE430F7907F00307A6
:1014400007FA08F7374307604E68F60065D5384E4F
:10145000376E47F001073766366E23F0030706F054
:1014600001060096334E3E44B146B6689F074FEAE8
:1014700017780CFA08F7BE43B0F1904F05D02E4F05
:10148000B84204D1012717E047E0002714E02B4FB2
:10149000B84201D102270FE0294FB84201D10327FA
:1014A0000AE0284FB84201D1042705E0264FB84290
:1014B00001D1052700E0062707FA08F73743C9F8E6
:1014C0000870DAF800605746D1F8048096435FEA66
:1014D000C83800D516433E60DBF800605F46D1F89F
:1014E000048096435FEA883800D516433E60DEF8F4
:1014F00000607746D1F8048096435FEAC82800D59B
:1015000016433E60094F0C373E68D1F8048096437D
:101510005FEA882800D516433E605B1C0A6832FAF1
:1015200003F67FF43DAFBDE8FC8F000000040140EE
:10153000001002400000014000040048000800487C
:10154000000C0048001000480014004800690840E2
:1015500000D0012070470AB18161704781627047F5
:1015600001488068704700002C0000200248816814
:1015700042681144816070472C00002010B500249F
:10158000032000F071F80F2000F008F808B10124E2
:1015900001E000F025F8204610BD000070B50E4EA9
:1015A00005460024706898B14FF47A71B1FBF0F0F1
:1015B0000A490968B1FBF0F000F0A6FB40B9102D14
:1015C00006D200222946501E00F02EF8356000E0B9
:1015D0000124204670BD00002C00002038000020AF
:1015E000094808B5016E41F001010166016E01F084
:1015F00001010091816D41F080518165806D00F0A5
:101600008050009008BD000000100240002809DB57
:1016100000F01F02012191404009800000F1E0200C
:10162000C0F8001170470000F0B40E4B1B680C4668
:10163000C3F30223C3F10705042D00D90425191DA6
:10164000072901D2002300E0DB1E012606FA05F17E
:10165000491E214099409E40761E16403143F0BC01
:1016600002F03EBB0CED00E0064900F007020868FE
:101670004FF6FF03184040EA0220034A1043086077
:10168000704700000CED00E00000FA052DE9F8437A
:101690000446006800269D4D00035ED5A86D002716
:1016A000C00008D4A86D40F08050A865A86D01273F
:1016B00000F080500090DFF85892D9F8001041F403
:1016C0008071C9F80010FFF74BFF804606E000BFAD
:1016D000FFF746FFA0EB080002282BD8D9F800003E
:1016E000C005F5D5D5F8900010F4407014D0216CE9
:1016F000814211D0D5F89000D5F8901020F44070B8
:1017000041F48031C5F89010D5F8901021F4803163
:10171000C5F89010C5F89000C00711D0FFF720FF62
:10172000804641F2883907E0FFF71AFFA0EB080175
:10173000494501D903260BE0D5F890008007F3D581
:10174000D5F89000216C20F440700843C5F8900053
:101750001FB1A86D20F08050A8652078C00707D081
:10176000D5F88800616820F003000843C5F88800B8
:101770002078800707D5D5F88800A16820F00C00F4
:101780000843C5F888002078400707D5D5F88800B9
:10179000E16820F030000843C5F888002078000791
:1017A00007D5D5F88800216920F0C0000843C5F8A6
:1017B00088002078800607D5D5F88800616920F474
:1017C00040600843C5F888002078400607D5D5F862
:1017D0008800A16920F440500843C5F888002078AB
:1017E000000607D5D5F88800E16920F44040084399
:1017F000C5F888002088C00507D5D5F88800216A7B
:1018000020F440300843C5F888002088800507D5BB
:10181000D5F88800616A20F440200843C5F88800A4
:10182000208840050FD5D5F88800A16A20F4401023
:101830000843C5F88800A06AB0F5801F03D1E868A6
:1018400040F48010E860208800050FD5D5F88800A6
:10185000E16A20F440000843C5F88800E06AB0F56A
:10186000800F03D1E86840F48010E8602088C0044D
:101870000FD5D5F88800216B20F040700843C5F8DB
:101880008800206BB0F1807F03D1E86840F48010BD
:10189000E86020884FF0006180040ED5D5F88800FC
:1018A000626B20F040601043C5F88800606B88428E
:1018B00003D1E86840F48010E860208840040ED529
:1018C000D5F88800A26B20F040601043C5F888006E
:1018D000A06B884203D1E86840F48010E86020885B
:1018E00000040FD5D5F88800E16B20F04050084384
:1018F000C5F88800E06BB0F1805F03D1E86840F480
:101900008030E8603046BDE8F883000000100240F7
:10191000007000400548064900688968054AC1F31F
:101920000221515C01F01F01C840704738000020BF
:1019300000100240C0580008054806490068896840
:10194000054AC1F3C221515C01F01F01C840704734
:101950003800002000100240C0580008184910B597
:101960008868C0F381021748012A0BD08A68164B99
:10197000C2F38102022A06D08A68C2F38102032AD6
:1019800003D0002010BD184610BDCA6802F0030441
:10199000CA68C2F30312521C032C02D0B0FBF2F04F
:1019A00001E0B3FBF2F0CA68C968C2F306225043F3
:1019B000C1F34161491C4900B0FBF1F010BD0000CA
:1019C000001002400024F40000366E010F4810B5EC
:1019D0000B4601680E480140080CD870C1F304247E
:1019E0005C7001F03F049C70C1F34231197052B930
:1019F00001F007FAD870587801F003FA5870987817
:101A000001F0FFF99870002010BD0000042800408C
:101A10003FFFFF00144810B500680B4648601248AD
:101A200008300068C0F30E0088600F48083801686D
:101A30000E480140C1F305401870C1F306245C70E4
:101A400001F07F049C70890DD97052B901F0D9F969
:101A50001870587801F0D5F95870987801F0D1F9DC
:101A60009870002010BD0000082800407F7F7F0094
:101A700070B504004FF001003ED094F8250028B95D
:101A8000002084F82400204600F03CF8022084F86E
:101A900025001A4ECA20306053203060204601F0E5
:101AA000C5F910BB154D0C3D286815490840286044
:101AB00028686168A26908432169114308432860C6
:101AC0002189E06840EA01400C4914390860204649
:101AD00001F0D2F948B9D4E90721114362692B68B2
:101AE00023F060431A4311432960FF21316000282D
:101AF00002D1012184F8251070BD00002428004087
:101B0000BFFF8FFB10B592B0044644216846FEF734
:101B1000B7FB10492068884219D14FF4002000908B
:101B2000801210906846FFF7B1FD08B1FEF773FF11
:101B3000094850F8901F41F4004140F838190168F5
:101B400041F480610160006800F48060119012B07F
:101B500010BD000000280040001002402DE9F041B7
:101B6000044690F824000B4601281AD0012684F878
:101B70002460022084F82500B2B19878D97840EA30
:101B8000014558781978000240EA413005431B4F5F
:101B9000CA20386053203860204601F047F9D8B198
:101BA00022E00220BDE8F0815878C10603D500F09C
:101BB000EF000A305870D87801F02CF905045878F5
:101BC00001F028F945EA0025987801F023F905434A
:101BD000187845EA4035DAE70948054007482038D3
:101BE0000560204601F048F9FF21396008B984F802
:101BF0002560002184F82410D4E700002428004048
:101C00003FFFFF002DE9F047054690F824001746F6
:101C10000C46012814D04FF0010985F824900220C9
:101C200085F82500DFF8A480CA21C8F800105321E8
:101C3000C8F80010284601F0F9F8002618B127E08E
:101C40000220BDE8F087214B0C3B18684FEA40604A
:101C50001FB3002800DBE670A0782178E27840EA24
:101C600001406178090241EA82510843184908405D
:101C7000164924390860186820F480201860D4E9D7
:101C800003010843196808431860284601F0F4F876
:101C9000FF22C8F80020A0B115E0002800DBE670A4
:101CA000207801F0B7F80704607801F0B3F847EA4C
:101CB0000027A07801F0AEF80743E07847EA8050AB
:101CC000D4E785F8259085F82460BAE724280040F9
:101CD0007F7F7F0070B50B4D286860F0A000286002
:101CE000FFF73EFC04464FF47A7606E0FFF738FC37
:101CF000001BB04201D9032070BD28688006F5D5CD
:101D0000002070BD0C28004010B5401EB0F1807F4F
:101D100001D3012010BD4FF0E02460610F21601756
:101D200001F0DEFF0020A06107202061002010BD2F
:101D300090F87C10012918D0012180F87C10242112
:101D4000C0F8801050F8601B0A680B6823F001038C
:101D50000B6022F000510022426050F8603C196094
:101D600020210162027710467047022070477047B9
:101D700070B5044690F87C0001281DD0012084F83D
:101D80007C002420C4F8800020680568026822F0E6
:101D9000010202602068826822F060620A43826069
:101DA000204601F089F9206805602020C4F88000F1
:101DB000002084F87C0070BD022070BD70B5044620
:101DC00090F87C0001281DD0012084F87C0024209C
:101DD000C4F8800020680568026822F001020260F1
:101DE0002068826822F060420A438260204601F047
:101DF00063F9206805602020C4F88000002084F882
:101E00007C0070BD022070BD7047704770470000B5
:101E10002DE9F04103680446D8691A68996810F002
:101E20000F0F4FF0000569D05E4E02F490770E4020
:101E300037437DD0C70709D0D70507D501271F62D3
:101E4000D4F8883043F00103C4F8883083070AD5FA
:101E5000CB0708D0276802233B62D4F8883043F0D0
:101E60000403C4F8883043070AD5CB0708D0276895
:101E700004233B62D4F8883043F00203C4F888306E
:101E800003070CD502F02003334308D0266808234B
:101E90003362D4F8883043F00803C4F88830D4F8AB
:101EA0008830002B3CD0800609D502F0200001F0DC
:101EB0008051084303D0E16E09B120468847D4F829
:101EC000880021688968490601D400072AD5204680
:101ED00001F0C2F92068816849061ED5816821F0A9
:101EE00040018160A06FC0B12F498163A06FFFF7EF
:101EF000FBF9002814D0A06F816B0AE0860617D585
:101F000002F0200601F080573E4311D0E16E24E03C
:101F10002046BDE8F04108470AE02046FFF776FF7B
:101F2000BDE8F0812046FFF771FFC4F88850F7E75D
:101F3000C60209D54E0207D54FF48010186220461C
:101F4000BDE8F041FFF761BF060609D502F0800643
:101F500001F400010E4303D0216F0029D8D1DFE73F
:101F600041060DD551060BD51968204621F04001D8
:101F700019602021C4F88010256700F07FF9CFE7B1
:101F8000010206D5510004D52046BDE8F041FFF717
:101F90003BBFC001C4D5002AC2DA2046BDE8F041EB
:101FA000FFF7E5BE010000104332000810B5040041
:101FB00003D0D4F8800010B107E0012010BD00204C
:101FC00084F87C00204600F027F82420C4F8800024
:101FD0002068016821F001010160204601F04EFAFD
:101FE0000128EBD0A06A10B1204601F097F82068D4
:101FF000416821F4904141602068816821F02A0104
:1020000081602068016841F0010101602046BDE85F
:10201000104001F0E7B8000010B598B00446142154
:1020200011A8FEF72DF944216846FEF729F91B494E
:102030002068884230D101200024CDE900046846A0
:10204000FFF724FB08B1FEF7E6FC1548016E41F4EA
:1020500080410166016E01F480411691C16C41F02E
:102060000101C164C06C11A900F0010016904FF489
:10207000C06011900220CDE912040720CDE9144080
:102080004FF09040FFF77EF9002211462520FFF720
:10209000CBFA2520FFF7BAFA18B010BD003801407E
:1020A0000010024070B5D0F88430202B6DD1B9B14A
:1020B000B2B190F87C30012B67D0012380F87C30DE
:1020C0008165A0F85C20A0F85E200021C1668368CD
:1020D0004FF48056FF24B34207D1036913B11CE0CB
:1020E000012070BD40F2FF131DE07F259BB1B3F1CD
:1020F000805F15D0A0F86010C0F888102223C0F8C7
:10210000843003689C6844F001049C60436EB3F122
:10211000005F0ED027E0036943B9A0F86040EBE709
:1021200003691BB13F23A0F86030E5E7A0F86050D9
:10213000E2E7B0F86830934215D88268B24201D124
:10214000026972B1124AC26680F87C1001680A689E
:1021500042F480720A600068816841F080518160B9
:102160000FE00C4AEFE78268B24201D1026952B136
:10217000094AC26680F87C100068016841F49071D9
:102180000160002070BD054AF3E7022070BD000029
:10219000DD330008DD3200087D3300087D320008A1
:1021A000054810B5007800F03DFCBDE81040012264
:1021B00001490248FFF776BF1400002040000020CC
:1021C0002DE9F8430446D0F880001F4616460D4618
:1021D000202851D1DDB1D6B194F87C0001284BD034
:1021E000012084F87C004FF00008C4F8888021208A
:1021F000C4F880001834FFF7B3F9A6878146E68754
:1022000054F8100C183CB0F5805F03D004E00120B6
:10221000BDE8F883206910B12E46002510E00026A5
:102220000EE08021204601F0FCFCB8B9C6B116F8DA
:10223000010B21688862B4F85600401EA4F85600CD
:10224000B4F856004B464FF0000200970028E8D142
:102250004FF04001204601F0E4FC30B10320D7E705
:1022600035F8020BC0F30800E3E72020C4F8800033
:1022700084F87C800020CBE70220C9E77047FEE7A6
:1022800000B585B014216846FDF7FAFFC020009024
:102290000120019002900220039069460248FFF756
:1022A00071F805B000BD00000004004870B50824B6
:1022B000002500F083FE13E06806050E002000F004
:1022C00065FE142002F08AF9142002F087F901203B
:1022D00000F05CFE142002F081F900F063FE05437B
:1022E000641EE4B2E8D2002000F050FE142002F098
:1022F00075F900F085FE284670BD70B504460825C6
:1023000016E000F043FE142002F068F904F08000AB
:1023100000F06AFE142002F061F96006040E142039
:1023200002F05CF9012000F031FE142002F056F9B1
:102330006D1EEDB24FF00000E3D200F027FEBDE8C5
:102340007040142002F04AB910B5012000F04CFE94
:10235000142002F043F9142002F040F9012000F0AB
:1023600015FE142002F03AF9002000F00FFEBDE83F
:102370001040142002F032B910B5012000F034FEF4
:10238000142002F02BF9012000F000FE142002F0CE
:1023900025F9002000F028FE142002F01FF900208B
:1023A00000F0F4FDBDE81040142002F017B910B59C
:1023B000002000F0EBFD142002F010F9002000F0E6
:1023C00013FE142002F00AF9012000F0DFFD1420B2
:1023D00002F004F9012000F007FEBDE810401420CF
:1023E00002F0FCB810B5052400F0E8FD142002F05E
:1023F000F5F8012000F0CAFD142002F0EFF805E026
:10240000641EA4B2142002F0E9F86CB100F0CAFD19
:102410000028F5D100F0F4FD002000F0B7FD1420F5
:1024200002F0DCF8002010BD00F0EAFDFFF7BFFF6E
:10243000012010BDF0B587B014216846FDF720FFDC
:102440002D48C16C41F00401C164C16C01F004016C
:102450000591C16C41F02001C164C16C01F0200103
:102460000591C16C41F00101C164C16C01F0010131
:102470000591C16C41F00201C164C16C01F002011F
:102480000591C16C41F00801C164C06C1B4E00F0A5
:1024900008004FF47F440590012221463046FFF7A3
:1024A0005AF8174F002204213846FFF754F8012547
:1024B000CDE9004500240294694630460394FEF7B6
:1024C00061FFCDE9005469464FF090400294FEF759
:1024D00059FF0720CDE9000469460A480294FEF737
:1024E00051FF04200090CDE9015469463846039419
:1024F000FEF748FF07B0F0BD00100240000800489A
:10250000000C0048000400480A4810B501680A4C55
:102510002269891A0A290CD30068206102F070F838
:1025200006480078800704D56078002801D1012092
:10253000607010BD340000200C000020000000205E
:1025400000B585B014216846FDF79AFE4FF6FF707E
:10255000009000200321CDE9020101906946024864
:10256000FEF710FF05B000BD0008004800B585B0BB
:1025700014216846FDF784FE4FF6FF70009001209D
:102580000190032003900020029069460248FEF764
:10259000F9FE05B000BD00000008004870B5002439
:1025A00006462146204600F089F900F0C7F94FF4AD
:1025B0009635304600F096F9641CAC42F9D370BDF4
:1025C00030B587B014216846FDF75AFE1E48C16C2D
:1025D00041F00401C164C16C01F004010591C16CBA
:1025E00041F00101C164C16C01F001010591C16CB0
:1025F00041F00201C164C06C012500F002000590A9
:102600004FF44870CDE90005002403946946029414
:102610000E48FEF7B7FE280203940090CDE901545E
:102620004FF0904469462046FEF7ACFEFFF79EFF50
:10263000A06940F48070A06104481830016841F43A
:102640000871016007B030BD00100240000400486E
:10265000203AD2B2034B02EB420203EB021200F02B
:1026600019B80000F0460008F0B50E4607460025F0
:1026700040F23F1407E021463846FFF7E9FF103CDF
:102680006D1CA4B2761C3278002A01D0142DF2D32E
:10269000F0BD00002DE9F04791468A460026044629
:1026A00000F00CF9DFF84080012700BF00F046F988
:1026B0005FF0000539F8160007FA05F108424046B8
:1026C00001D1408800E0008800F00CF96D1C102D4D
:1026D000F0D3641CE4B25146204600F0EFF8761CBB
:1026E000182EE3D3BDE8F0870200002010B5FFF7F5
:1026F00067FF002000F09AF8084CA080A088A0F5A1
:102700000241303906D000F07BFA002000F08EF84C
:10271000A08010BD00F0EBF9F7E7000002000020F8
:1027200030B5294C294D87B06078C8B1012815D142
:10273000002227A101A801F0BFFA01A93020FFF76C
:1027400093FFA87800906B782A7825A101A801F062
:10275000B3FA01A95FF04800FFF786FF07B030BD6C
:102760006069FDF798FD41EC100B22A153EC102B92
:1027700001A801F0A1FA01A93020FFF775FFA278A6
:102780001FA101A801F098FA01A94820FFF76CFFEA
:10279000E078012801D018B10BE000221AA101E075
:1027A00000221BA101A801F087FA01A96020FFF710
:1027B0005BFFA87800906B782A7817A101A801F038
:1027C0007BFA01A97820C7E70C000020CC0100208B
:1027D00020202020202053657474696E670000005B
:1027E00020202020253032642D253032642D2530E4
:1027F0003264000056313A25352E32660000000062
:102800006B3A2564000000004C45443A4F464600B0
:102810004C45443A4F4E0000543A20253032642D46
:10282000253032642D2530326400000070B51D491A
:102830000A6842F400720A600A6842F480720A6010
:10284000184C103C226842F020022260164A1060A8
:10285000086840F02000086000BF00BF00BF20688B
:1028600040F020002060206840F480702060FFF776
:1028700067FE4FF09041886A40F48070886200BF24
:1028800000BF00BF0848001F006885B2886940F497
:1028900080708861FFF76AFE206840F40070206055
:1028A000284670BD280400481408004801B5BDF84A
:1028B00000000149488008BD0200002010B50C4608
:1028C0000146202000F068F82146BDE81040212094
:1028D00000F062B801B5BDF800000149088008BDEC
:1028E00002000020134A116841F40071116011497F
:1028F00010390B6843F480730B600B6843F02003BE
:102900000B600D4B1860106840F02000106000BF95
:1029100000BF00BF086840F020000860086840F46D
:102920008070086000BF00BF00BF086840F40070FE
:1029300008607047280400481408004814490868D3
:1029400040F400700860086840F480700860104827
:102950001038026842F0200202600E4B22221A60F8
:102960000A6842F020020A6000BF00BF00BF016891
:1029700041F020010160016841F48071016000BFF5
:1029800000BF00BF016841F40071016070470000A2
:102990002804004814080048184B10B51A6842F47F
:1029A00000721A601A6842F480721A60134A103A70
:1029B000146844F020041460114C2060186840F042
:1029C0002000186000BF00BF00BF106840F020006A
:1029D0001060106840F4807010602160186840F04A
:1029E0002000186000BF00BF00BF106840F020004A
:1029F0001060106840F48070106010BD280400481A
:102A000014080048054802680549CB68D21AB2F597
:102A1000FA7F01D30068C8607047000034000020CE
:102A20000C00002070B5124D044601224FF47F4186
:102A30002846FEF790FD0F4E012204213046FEF796
:102A40008AFD002204213046FEF785FD2102002286
:102A50002846FEF780FD012204213046FEF77BFD6B
:102A60003046BDE8704000220421FEF774BD00002E
:102A700000080048000C004800EB8100006E00F0E8
:102A8000F84070478068C0F3C00070478068C0F3AA
:102A9000800070478068C0F380007047042303EA19
:102AA000D15310B518444369C1F3045107248C4035
:102AB000A3438A401343436110BD00EB8100016EC4
:102AC00021F000411143016670470000054808B538
:102AD000C16C41F02001C164C06C00F02000009086
:102AE00008BD000000100240FEE7FEE7704730B569
:102AF00001210020FFF750FF4FF47A70FDF744FFEB
:102B000000210120FFF748FF41F290711020FFF7EC
:102B100043FF4FF41C516020FFF73EFF012161206D
:102B2000FFF73AFF02214620FFF736FF48F2100177
:102B30001320FFF731FF48F2FE011220FFF72CFFB0
:102B40004FF4A0610220FFF727FF41F2300103207C
:102B5000FFF722FF40F2033421463020FFF71CFF2D
:102B600021463120FFF718FF21463220FFF714FFDE
:102B7000E51E29463320FFF70FFF03213420FFF71E
:102B80000BFF21463520FFF707FF14213620FFF702
:102B900003FF21463720FFF7FFFE21463820FFF7CD
:102BA000FBFE21463920FFF7F7FE29463A20FFF7C2
:102BB000F3FE03213B20FFF7EFFE21463C20FFF709
:102BC000EBFE4FF4A0513D20FFF7E6FE4FF40071FD
:102BD0009220FFF7E1FE21469320FFF7DDFE40F64D
:102BE0000D019020FFF7D8FE41F218010320FFF7F6
:102BF000D3FEBDE8304040F273110720FFF7CCBE92
:102C000010B543F20801E320FFF7C6FE1221E720CA
:102C1000FFF7C2FE41F23121EF20FFF7BDFE002198
:102C20000120FFF7B9FE4FF4E0610220FFF7B4FE88
:102C300041F230010320FFF7AFFE00210420FFF72F
:102C4000ABFE40F207210820FFF7A6FE0021092075
:102C5000FFF7A2FE00210A20FFF79EFE00210C20B4
:102C6000FFF79AFE00210D20FFF796FE00210F20AE
:102C7000FFF792FE00211020FFF78EFE07211120A2
:102C8000FFF78AFE00211220FFF786FE00211320A5
:102C9000FFF782FEC820FEF763FB41F2906110202F
:102CA000FFF77AFE40F227211120FFF775FE322050
:102CB000FEF756FB1D211220FFF76EFE3220FEF7B5
:102CC0004FFB4FF400611320FFF766FE142129200B
:102CD000FFF762FE0B212B20FFF75EFE3220FEF78E
:102CE0003FFB00212020FFF757FE00212120FFF7A6
:102CF00053FE07213020FFF74FFE40F207713120CD
:102D0000FFF74AFE06213220FFF746FE40F204712B
:102D10003520FFF741FE41F604713620FFF73CFEF7
:102D200004213720FFF738FE00213820FFF734FE5A
:102D300040F206713920FFF72FFE40F201713C206E
:102D4000FFF72AFE0F213D20FFF726FE002150202D
:102D5000FFF722FEEF215120FFF71EFE0021522037
:102D6000FFF71AFE40F23F115320FFF715FE4FF414
:102D70001C516020FFF710FE01216120FFF70CFEBF
:102D800000216A20FFF708FE00218020FFF704FEE3
:102D900000218120FFF700FE00218220FFF7FCFDCB
:102DA00000218320FFF7F8FD00218420FFF7F4FDC8
:102DB00000218520FFF7F0FD10219020FFF7ECFDAA
:102DC00000219220FFF7E8FD03219320FFF7E4FDA7
:102DD0004FF488719520FFF7DFFD00219720FFF762
:102DE000DBFD00219820FFF7D7FD41F218010320F9
:102DF000FFF7D2FDBDE8104040F273110720FFF746
:102E0000CBBD010901EB810100F00F0000EB410097
:102E1000C0B270470022014602E00A39C9B2521C12
:102E20000A29FAD2100741EA106070472DE9F047ED
:102E3000104C814600252068400618D4206840F0D8
:102E400080002060FEF78CFB06464FF47A7803275B
:102E500008E000BFFEF784FB801B404502D9032534
:102E600089F825702068400601D4032DF2D1284648
:102E7000BDE8F0870C2800402DE9F04106461348D4
:102E80000025016821F080010160104C0C3420689D
:102E90004FF00307800607D43046FEF71BFF90B1C2
:102EA00086F8257003250EE0206820F020002060C1
:102EB0003046FEF70FFF10B186F825700325206815
:102EC00040F0200020602846BDE8F0810C2800403A
:102ED00010B586B014216846FDF7D2F920480024C9
:102EE0001E490594C0E900141F21816040F2E731BA
:102EF000C0E903144FF080414461C0E90641046217
:102F0000FEF7B6FD08B1FDF786FD23208DF8000021
:102F100059208DF8010055208DF80200019403948A
:102F2000012269460E480494FEF76CFE08B1FDF7D5
:102F300072FD01208DF814008DF815008DF8160033
:102F400002468DF8174005A90548FEF707FE002840
:102F500001D0FDF760FD06B010BD00000028004064
:102F6000A401002010B5002205490648FEF752FDD5
:102F7000BDE81040002204490248FEF727BD0000CA
:102F8000CC010020A40100202800002008B1044842
:102F900001E003481030016841F0400101607047D2
:102FA0001804004810B580210348FEF7CFFA012825
:102FB00000D0002010BD00000004004800B585B01E
:102FC00014216846FDF75CF98020009000200190F4
:102FD000012002900220039069460248FEF7D2F9D0
:102FE00005B000BD0004004808B1044801E00348F2
:102FF0001030016841F080010160704718040048FA
:1030000000B585B014216846FDF73AF9802000909C
:10301000112001900020029002200390694602488E
:10302000FEF7B0F905B000BD000400487047FEF798
:103030009DBA00000548016841F470010160034930
:103040004FF00060803908607047000088ED00E0B4
:10305000184810B5164901604FF41651416000211F
:1030600081600C22C160C0E904128161C16101620A
:1030700041628162FEF79AFF08B1FDF7CCFC0021A6
:103080000C48FEF79BFE08B1FDF7C5FC002109487E
:10309000FEF76EFE08B1FDF7BEFC0648FEF748FEDF
:1030A000002803D0BDE81040FDF7B5BC10BD0000FE
:1030B00000380140400000203FB514A1D1E90021B3
:1030C000CDE9002113A2D2E90012CDE90212416E2E
:1030D000B9B1026891689268C1F34261520F1DF85C
:1030E0000240E50002ACA25CB5FBF2F2A0F86A2057
:1030F0001DF80120615CD200B2FBF1F1A0F868106C
:103100003FBD0121A0F86A10F8E7000001010103AA
:1031100007010000080402040801010190F82810CA
:10312000C90706D001684A68C36A22F400321A430C
:103130004A6090F82810890706D501684A68036B31
:1031400022F480321A434A6090F82810490706D5C5
:1031500001684A68436B22F480221A434A6090F85F
:103160002810090706D501684A68836B22F40042DB
:103170001A434A6090F82810C90606D501688A6883
:10318000C36B22F480521A438A6090F82810890693
:1031900006D501688A68036C22F400521A438A60DB
:1031A00090F82810490611D501684A68436C22F44A
:1031B00080121A434A60416CB1F5801F06D1016844
:1031C0004A68836C22F4C0021A434A6090F82810BF
:1031D000090606D501684A68C06C22F40022024341
:1031E0004A607047F8B500260446C0F88860FEF7CC
:1031F000B7F90546206800686FF07E47000708D5DC
:103200002B4600224FF400112046009700F009FDE4
:1032100060B92068006840070AD52B4600224FF4A9
:1032200080012046009700F0FCFC08B10320F8BDA7
:103230002020C4F88000C4F8840084F87C6000205A
:10324000F8BD10B5806A0021A0F85E10A0F85610F5
:10325000FEF7DCFD10BD000001680A6822F49072E0
:103260000A6001688A68044B1A408A602021C0F80D
:1032700084100021C1667047FEFFFFEF10B5B0F863
:103280006020D0F884300168222B04D0886940F097
:103290000800886110BD496A836D11401980816DF5
:1032A000891C8165B0F85E10491EA0F85E10B0F868
:1032B0005E100029EED101680A6822F490720A605B
:1032C00001688A6822F001028A602021C0F8841017
:1032D0000021C166FEF764FF10BD000070B5044612
:1032E000B0F86060D0F88400222805D02068816999
:1032F00041F00801816170BDB4F8685023E0206896
:10330000406AA16D30400880A06D801CA065B4F8B3
:103310005E00401EA4F85E00B4F85E0088B9206824
:10332000016821F48071016020688168114A1140B0
:1033300081602020C4F884000020E0662046FEF76B
:103340002FFF6D1EADB2002DD9D1B4F85E0000285C
:10335000D1D0B4F868108142CDD92068816821F0BD
:10336000805181600448E0662068016841F02001D6
:10337000016070BDFEFFFFEF7D32000810B5B0F8B0
:103380006020D0F884300168222B04D0886940F096
:103390000800886110BD496A1140826D1170816D0D
:1033A000491C8165B0F85E10491EA0F85E10B0F8A7
:1033B0005E100029EED101680A6822F490720A605A
:1033C00001688A6822F001028A602021C0F8841016
:1033D0000021C166FEF7E4FE10BD000070B5044692
:1033E000B0F86060D0F88400222805D02068816998
:1033F00041F00801816170BDB4F8685023E0206895
:10340000406AA16D30400870A06D401CA065B4F802
:103410005E00401EA4F85E00B4F85E0088B9206823
:10342000016821F48071016020688168114A1140AF
:1034300081602020C4F884000020E0662046FEF76A
:10344000AFFE6D1EADB2002DD9D1B4F85E000028DC
:10345000D1D0B4F868108142CDD92068816821F0BC
:10346000805181600448E0662068016841F02001D5
:10347000016070BDFEFFFFEF7D3300082DE9F05FB6
:103480000446016880682369E56918436369002779
:103490002B431843636EFA4A03430868F94D2840EA
:1034A0001843086020684168E36821F440511943DB
:1034B00041602168A069914201D0236A18438B685A
:1034C000F14D2B4003438B602068C16A636A21F091
:1034D0000F011943C162ED4B2068ED4998420DD1AF
:1034E000D1F8881011F0030106D001295AD0022921
:1034F00056D003293FD157E001253DE0E54B9842E6
:103500000BD1D1F8881011F00C0147D0042949D013
:10351000082945D00C292ED146E0DF4B98420BD12B
:10352000D1F8881011F0300138D010293AD0202974
:1035300036D030291FD137E0D84B98420BD1D1F883
:10354000881011F0C00129D040292BD0802927D024
:10355000C02910D128E090420DD1D1F8881011F483
:1035600040611BD0B1F5806F1CD0B1F5006F17D052
:10357000B1F5406F18D01025DFF824A34FF4807602
:103580004FF000094FF4004B90426ED175B1022DFF
:1035900029D0042D59D0082D68D176E00025EBE71D
:1035A0000225E9E70425E7E70825E5E7FEF7B2F994
:1035B0004DE0012851D0022851D0032851D00428D1
:1035C00051D0052853D0062853D0072853D00828B7
:1035D00053D0092853D00A2853D00B2853D03AE0AF
:1035E000B1FBF0F06CE0606AA8B1012817D00228A6
:1035F00017D0032817D0042817D0052817D006287D
:1036000017D0072817D0082817D0092817D00A285C
:1036100017D00B2817D00120BAFBF0F050E00220A1
:10362000FAE70420F8E70620F6E70820F4E70A2086
:10363000F2E70C20F0E71020EEE72020ECE7402036
:10364000EAE78020E8E73046E6E7FEF787F901463B
:10365000606A0028ADD10120C2E70220C0E7042043
:10366000BEE70620BCE70820BAE761E14AE00A208D
:10367000B6E70C20B4E71020B2E72020B0E74020E6
:10368000AEE78020ACE73046AAE7606AA8B101281F
:1036900022D0022822D0032822D0042822D00528B4
:1036A00022D0062822D0072822D0082822D0092894
:1036B00022D00A2822D00B2822D00120BBFBF0F018
:1036C000002820D06168884601EB4101814219D869
:1036D000B0EB083F16D817E00220EFE70420EDE733
:1036E0000620EBE70820E9E70A20E7E70C20E5E7FA
:1036F0001020E3E72020E1E74020DFE78020DDE73E
:103700003046DBE7012739E27DB3022D61D0042D7D
:103710007DD0082DF6D1606AA8B1012878D00228A2
:1037200077D0032876D0042875D0052874D00628D1
:1037300073D0072872D0082871D0092870D00A28C1
:103740006FD00B2800D0012632464D460023584644
:103750000021FCF75DFD090241EA106102024FEA17
:10376000580010186941424670E0FFE7FEF7D2F8B2
:103770000146606AA8B1012817D0022817D0032893
:1037800017D0042817D0052817D0062817D00728E7
:1037900017D0082817D0092817D00A2817D00B28C7
:1037A00000D0012632464D468CE00226FAE7042678
:1037B000F8E70626F6E70826F4E70A26F2E70C26DD
:1037C000F0E71026EEE72026ECE74026EAE7802621
:1037D000E8E7606AA8B1012824D0022824D0032891
:1037E00024D0042824D0052824D0062824D0072853
:1037F00024D0082824D0092824D00A2824D00B2833
:1038000000D0012632464D4600235046A0E726E070
:103810007AE07BE07CE07DE07EE07FE080E081E0BC
:1038200082E083E00226EDE70426EBE70626E9E7DF
:103830000826E7E70A26E5E70C26E3E71026E1E796
:103840002026DFE74026DDE78026DBE70023FCF7C4
:10385000DFFC144AA0F54071914271D952E7FEF79E
:103860007DF80146606A50B3012839D0022839D06A
:10387000032839D0042839D0052839D0062813E088
:1038800000800040F369FFCFFFF4FF1100380140D2
:10389000001002400044004000480040004C00403E
:1038A0000024F400FFFC0F0024D0072824D00828AF
:1038B00024D0092824D00A2824D00B2800D001269F
:1038C0004D463246002308461946FCF7A1FC090282
:1038D000626841EA10610302500818186941B5E7AF
:1038E0000226EDE70426EBE70626E9E70826E7E7E8
:1038F0000A26E5E70C26E3E71026E1E72026DFE7C6
:103900004026DDE78026DBE702261DE704261BE7CD
:10391000062619E7082617E70A2615E70C2613E7F7
:10392000102611E720260FE740260DE780260BE73B
:10393000E0694FF6EF78584570D1092D8ED200E03E
:103940001AE1DFE805F006093C058005050583005E
:10395000D8E6FDF7DFFF01E0FDF7EEFF0146606A04
:10396000A8B1012815D0022815D0032815D00428A5
:1039700015D0052815D0062815D0072815D00828F9
:1039800015D0092815D00A2815D00B2814D00126E7
:1039900012E0022610E004260EE006260CE00826BF
:1039A0000AE00A2608E00C2606E0102604E020269D
:1039B00002E0402600E08026B1FBF6F01AE0606AE3
:1039C000A8B101282BD002282BD003282BD0042803
:1039D0002BD005282BD006282BD007282BD0082841
:1039E0002BD009282BD00A282BD00B2800D0012659
:1039F000BAFBF6F04100606801EB5001B1FBF0F05A
:103A000080B2A0F110014145A2D84FF6F0710140FB
:103A1000C0F3420001432068C160AFE046E00226E7
:103A2000E6E70426E4E70626E2E70826E0E70A26BA
:103A3000DEE70C26DCE71026DAE72026D8E740266A
:103A4000D6E78026D4E7FDF789FF87E7606AA8B14B
:103A5000012817D0022817D0032817D0042817D020
:103A6000052817D0062817D0072817D0082817D000
:103A7000092817D00A2817D00B2800D00126BBFB35
:103A8000F6F0B7E70226FAE70426F8E70626F6E797
:103A90000826F4E70A26F2E70C26F0E71026EEE700
:103AA0002026ECE74026EAE78026E8E7092DBFF468
:103AB000D5AEDFE805F006093C058305050586005F
:103AC00020E6FDF727FF01E0FDF736FF0146606ABB
:103AD000A8B1012815D0022815D0032815D0042834
:103AE00015D0052815D0062815D0072815D0082888
:103AF00015D0092815D00A2815D00B2814D0012676
:103B000012E0022610E004260EE006260CE008264D
:103B10000AE00A2608E00C2606E0102604E020262B
:103B200002E0402600E08026B1FBF6F11AE0606A70
:103B3000A8B101282ED002282ED003282ED0042888
:103B40002ED005282ED006282ED007282ED00828C3
:103B50002ED009282ED00A282ED00B2800D00126DE
:103B6000BAFBF6F1606801EB5001B1FBF0F080B2F6
:103B7000A0F110014145A3D82168C8600120A4F834
:103B80006A0024F8680F3846C4F80490C4F8089016
:103B9000BDE8F09F0226E3E70426E1E70626DFE71B
:103BA0000826DDE70A26DBE70C26D9E71026D7E74B
:103BB0002026D5E74026D3E78026D1E7FDF7CEFEC5
:103BC00084E7606AA8B1012817D0022817D003281B
:103BD00017D0042817D0052817D0062817D0072893
:103BE00017D0082817D0092817D00A2817D00B2873
:103BF00000D00126BBFBF6F1B4E70226FAE7042663
:103C0000F8E70626F6E70826F4E70A26F2E70C2688
:103C1000F0E71026EEE72026ECE74026EAE78026CC
:103C2000E8E72DE9F041984617460E460446069D02
:103C300008E0681C06D0FDF793FCA0EB0800A84242
:103C40000BD855B12068C06936EA000019D00020B1
:103C5000B842EED00020BDE8F0812068016821F470
:103C6000D07101602068816821F00101816020200D
:103C7000C4F88000C4F88400002084F87C0003208D
:103C8000E9E70120E4E700000148FEF7C1B80000C1
:103C900040000020FEE700000FB4054B10B503A95B
:103CA000044A029800F0FEF810BC5DF814FB000016
:103CB000E94500083C0000200FB4084B10B504A9EA
:103CC00002AA039800F0EEF8044602A9002000F0D2
:103CD00080FC204610BC5DF814FB0000D3450008B2
:103CE0000907090E002804DB00F1E02080F8001429
:103CF000704700F00F0000F1E02080F8141D7047BD
:103D000002E008C8121F08C1002AFAD170477047A4
:103D1000002001E001C1121F002AFBD17047000002
:103D20002DE9FF5F82B00021DDE90430020DDDF8EE
:103D300040B0034318D044F61050A2F2FF32424381
:103D40001514119801281FD0A5EB0B00401C5FEA49
:103D5000000A4FF000064E4FDFF83891B04650464B
:103D600015D5CAF1000413E0119801244AA30128D3
:103D700001D16FEA0B010298119AC0E90031C0E944
:103D8000024206B0BDE8F09FCBF10000DFE7044639
:103D90000021404A491842EB0450CDE9001012E0DE
:103DA000E00707D032463B4640464946FCF762FBF7
:103DB0008046894632463B4610461946FCF75AFB78
:103DC00006460F466410002CEAD1DDE90401DDE966
:103DD0000023BAF1000F06DAFCF74CFB42464B46D3
:103DE000FCF748FB05E0FCF7B7FB42464B46FCF707
:103DF000B3FB04460E460022284BFCF735FC03D8E3
:103E00004FF0FF30014607E00022254B20463146A7
:103E1000FCF789FAFCF70FFC102409E0002C0ADB00
:103E20000A220023FCF7F4F9039B30321A55641E72
:103E300050EA0102F2D1641C039AC4F11103144444
:103E4000119A012A03D0012208430DD10AE0084348
:103E500004D000204FF0110B119072E7A3EB0B057B
:103E60006D1E0DE05B4504DD4FF0000205F101051C
:103E700004E003DA4FF00002A5F10105002AECD0BE
:103E800002981199C0E90231C0E9004579E70000C4
:103E9000000014400000F03F300000000000F0433C
:103EA0000000E03F2DE9FF4F95B09B46894606464E
:103EB00000250FE2252877D100242746F84A012162
:103EC000059400E0044316F8013F203B01FA03F09B
:103ED0001042F7D130782A2811D06FF02F033078B4
:103EE000A0F13002092A16D8059A44F0020402EB28
:103EF000820203EB42021044761C0590EFE759F86A
:103F0000042B0592002A03DA504244F40054059031
:103F100044F00204761C30782E2816D116F8010FD2
:103F200044F004042A280DD06FF02F023078A0F15D
:103F30003003092B09D807EB870302EB4303C718AB
:103F4000761CF3E759F8047B761C30786C280FD088
:103F500006DC4C2817D068280DD06A2814D104E05C
:103F6000742810D07A280FD10DE044F400140AE030
:103F700044F4801401E044F440147278824202D187
:103F800004F58014761C761C307866280BD013DC80
:103F9000582877D009DC002875D04528F6D0462867
:103FA000F4D047281AD19DE118E0632835D0642861
:103FB00079D0652812D195E1702873D008DC672884
:103FC000F1D069286FD06E280DD06F2806D1B5E0EA
:103FD00073282CD0752875D0782874D05A46179934
:103FE00090476D1C75E1C4F30250022809D00328E4
:103FF0000DD0D9F8001004280DD00D6009F1040986
:1040000067E1D9F80010EA17C1E90052F6E7D9F8DC
:1040100000100D80F2E70D70F0E719F8041B8DF821
:10402000001000208DF80100EA46012003E059F855
:1040300004AB4FF0FF3061074FF0000102D40DE0F8
:1040400008F101018846B9420FDA8045F8DB1AF819
:1040500008100029F4D108E008F1010188468142E6
:10406000FADB1AF808100029F6D105985B46A0EB98
:10407000080721463846179A00F094FA284400EBC6
:10408000080507E04DE029E10DE01AF8010B5A465A
:1040900017999047B8F10108F7D25B462146384698
:1040A000179A13E142E00A220092C4F302524FF041
:1040B000000A022A08D059F804CB032A4FEAEC710F
:1040C0000AD00DE029E02AE009F1070121F00702FA
:1040D000F2E802C1914609E00FFA8CFC4FEAEC715C
:1040E000042A03D14FFA8CFC4FEAEC71002907DA5D
:1040F0000A460021DCF1000C61EB02012D2202E0F6
:10410000220504D52B228DF80420012203E0E207CA
:1041100001D02022F7E7904659E00A2102E0102260
:104120000DE010214FF0000A00910BE010224FF03B
:10413000000A44F004040827009203E008224FF02C
:10414000000A0092C4F30252022A05D059F804CBA7
:104150000021032A08D009E009F1070121F0070234
:10416000F2E802C1914605E01FFA8CFC042A01D155
:104170000CF0FF0C4FF00008220728D5702806D05D
:10418000009B83F0100353EA0A0305D00EE040229F
:104190008DF80420012208E05CEA010206D03022FA
:1041A0008DF804208DF8050002229046009B83F0D4
:1041B000080353EA0A030AD15CEA010201D162074B
:1041C00005D530228DF804204FF001087F1E5828B5
:1041D00004D034A003900EA802900DE036A0F9E7B9
:1041E00053466046009AFCF713F884460398825CB5
:1041F0000298401E029002705CEA0100F0D1029821
:1042000006A9081A00F1200A600702D524F48034B8
:1042100000E00127574502DDA7EB0A0000E000207F
:1042200000EB0A01009005984144401A0590E00314
:1042300006D45B462146179A059800F0B3F9054469
:10424000002706E001A85A46C05D179990476D1CEB
:104250007F1C4745F6DBE0030CD55B462146179AE9
:10426000059800F09FF9054404E030205A4617995C
:1042700090476D1C0099481E00900029F5DC08E06D
:10428000029802995A460078491C02911799904762
:104290006D1CBAF10001AAF1010AF1DC65E1000030
:1042A000092801003031323334353637383961620C
:1042B00063646566000000003031323334353637D0
:1042C00038394142434445460000000000F058F9A7
:1042D0000544761C307800287FF4ECAD19B02846F0
:1042E000BDE8F08F620700D4062709F1070222F02B
:1042F000070CFCE80223E14603F000485FEA080CE3
:1043000002D00FF2702C0DE05FEA045C02D50FF2D0
:10431000682C07E05FEAC47C02D00FF2602C01E059
:10432000AFF2700C4FF0FF3823F00043CDF850C0CF
:1043300065280CD006DC452809D046281DD0472822
:104340003DD13DE0662818D067287ED138E00021B5
:10435000112F01DB112000E0781CCDE9000106A936
:104360000EA8FFF7DDFCDDE90F010E9A0391002195
:10437000009207F1010A04914DE04FF000400097D0
:10438000CDE9011006A90EA8FFF7CAFCDDE90F026E
:1043900003920E9B11990022DDF80CA00093049269
:1043A00011B9791C00EB010AB7EB0A0004D4C0F183
:1043B000FF3007F1010A0490AAEB0700019044E0E6
:1043C000012F00DA01270021112F01DD112000E06B
:1043D0003846CDE9000106A90EA8FFF7A1FCDDE9EA
:1043E0000F010E9A0391002104910092BA46210711
:1043F0000CD40399514500DA8A46BAF1010F05DD64
:10440000009AAAF10101515C302908D0B84202DAC1
:1044100010F1040F06DA0121CDE9011015E0AAF12F
:104420000101E9E7002805DC049901440491AAEBA5
:10443000000102E0411C514500DD8A460499401A02
:10444000401C01904FF000400290200704D40198D6
:10445000504501DBCDF8048000208DF84F00029814
:104460000DF14F07B0F1004F25D02B200E90029890
:104470004FF0020800280CDA404202902D200E90E6
:1044800007E00A210298FBF719FF3031029007F884
:10449000011DB8F10001A8F10108F2DC0298002822
:1044A000EFD1791E0E980870307800F0200040F0AF
:1044B000450007F8020D12A8C01B00F10708149868
:1044C000007800B1012000EB0A01019801EBE071D6
:1044D00005984144401A401E0590E00306D45B460F
:1044E0002146179A059800F05DF805441498007865
:1044F00018B15A46179990476D1CE00324D55B46C6
:104500002146179A059800F04DF805441CE00498E0
:10451000002807DBDDE90301884203DD0098405CE9
:10452000179901E0179930205A469047049805F1F1
:104530000105401C04900198401E019004D12E20DA
:104540005A46179990476D1CBAF10001AAF1010A69
:10455000DDDC05E017F8010B5A46179990476D1CF2
:10456000B8F10001A8F10108F4DC5B462146179A76
:104570000598ABE62D0000002B0000002000000095
:104580002DE9F041044600251E461746880404D450
:1045900005E039462020B0476D1C641EF9D5284639
:1045A000BDE8F0812DE9F041044600251E46904605
:1045B000C80301D5302700E02027880404D505E092
:1045C00041463846B0476D1C641EF9D52846BDE803
:1045D000F0810A68531C0B6010707047002100E0E6
:1045E000491C8142FCD3704713B53223012269462E
:1045F0000248FDF7E5FD00981CBD000040000020CA
:1046000070B5114C01212046FCF7A0FF05460221A0
:104610002046FCF79BFF45EA400504212046FCF7B5
:1046200095FF45EA800401214FF09040FCF78EFF92
:10463000064944EAC00040F0F0004A78C04320EA4E
:1046400002020A70487070BD00040048000000209B
:10465000FCF794FFFEF73AFAFDF7ECFEFEF7F8FCE4
:10466000FDF70EFEFCF79AF8FCF7E0F8FEF730FCD9
:104670007020FCF797F9174A401CC1B211707020E6
:10468000FCF7AEF914A0FFF707FB032114A0FFF716
:1046900003FB1049012208311448FDF703FDFEF722
:1046A00025F81F20FDF77AFF1F20FEF7FFF84FF6D1
:1046B000FF70FEF70FF9FEF733F800BFFEF7A2F91F
:1046C000FDF722FFFEF72CF8FCF722F9FEF74AFC73
:1046D000F4E700000C00002068656C6C6F0D0A00A8
:1046E000646174613A25640D0A00000040000020F6
:1046F00000000000000000000000000000000000BA
:1047000000000000000000000000000000000000A9
:104710000000000000000000000000000000000099
:104720000000800180018001800180018001800102
:104730008001800180018001800180010000000073
:104740008001800100000000000000000000000067
:1047500000000000CC00CC00CC00CC00CC00CC0091
:104760000000000000000000000000000000000049
:104770000000000000000000000000000000000039
:10478000000000000000000000000000600C600C51
:10479000600C30063006FE1FFE1F30063807180377
:1047A000FE1FFE1F180318038C018C018C010000F2
:1047B00000008000E003F80F9C0E8C1C8C188C000D
:1047C0009800F801E007800E801C8C188C189C184B
:1047D000B80CF00FE0038000800000000000000033
:1047E0000000000000000E181B0C110C1106110631
:1047F000110311039B018E01C038C06C60446044FA
:10480000304430441844186C0C380000000000009C
:104810000000E001F0033807180618063003F00125
:10482000F000F8009C310E33061E061C061C063FE5
:10483000FC73F021000000000000000000000000F8
:10484000000000000C000C000C000C000C000C0020
:104850000000000000000000000000000000000058
:104860000000000000000000000000000000000048
:104870000000000200038001C000C0006000600072
:1048800030003000300030003000300030003000A8
:1048900060006000C000C000800100030002000052
:1048A000000020006000C0008001800100030003C0
:1048B00000060006000600060006000600060006C8
:1048C0000003000380018001C000600020000000A0
:1048D000000000000000000000000000C000C00058
:1048E000D806F807E0013003380700000000000098
:1048F00000000000000000000000000000000000B8
:1049000000000000000000000000000080018001A5
:10491000800180018001FC3FFC3F8001800180011B
:104920008001800100000000000000000000000085
:104930000000000000000000000000000000000077
:104940000000000000000000000000000000000067
:1049500000008001800100010001800000000000D3
:104960000000000000000000000000000000000047
:104970000000000000000000E007E0070000000069
:104980000000000000000000000000000000000027
:104990000000000000000000000000000000000017
:1049A0000000000000000000000000000000000007
:1049B0000000C000C0000000000000000000000077
:1049C0000000000C000C00060006000600030003B7
:1049D00000038003800180018001C000C000C0008E
:1049E0006000600000000000000000000000000007
:1049F0000000E003F007380E180C0C180C180C1807
:104A00000C180C180C180C180C180C18180C380E64
:104A1000F007E003000000000000000000000000BC
:104A2000000000018001C001F001980188018001AF
:104A3000800180018001800180018001800180016E
:104A40008001800100000000000000000000000064
:104A50000000E003F80F180C0C180C1800180018D0
:104A6000000C000600038001C00060003000180048
:104A7000FC1FFC1F00000000000000000000000000
:104A80000000E001F807180E0C0C0C0C000C0006DE
:104A9000C003C007000C001800180C180C18180CE4
:104AA000F807E00300000000000000000000000024
:104AB0000000000C000E000F000F800DC00C600CF9
:104AC000600C300C180C0C0CFC3FFC3F000C000C74
:104AD000000C000C000000000000000000000000BE
:104AE0000000F80FF80F180018000C00EC03FC078A
:104AF0001C0E001C0018001800180C181C0C180EB6
:104B0000F807E003000000000000000000000000C3
:104B10000000C007F00F381C181818000C00CC0358
:104B2000EC0F3C0E1C1C0C180C180C18181C380E22
:104B3000F007E0030000000000000000000000009B
:104B40000000FC1FFC1F000C000600060003800391
:104B50008001C001C000E000600060007000300013
:104B600030003000000000000000000000000000E5
:104B70000000E003F007380E180C180C180C38066B
:104B8000F007F007180C0C180C180C180C18380C3F
:104B9000F80FE0030000000000000000000000002B
:104BA0000000E003F007380E1C0C0C180C180C1851
:104BB0001C1C381EF81BE0190018000C000C1C0E01
:104BC000F807F001000000000000000000000000F5
:104BD00000000000000000000000000080018001D3
:104BE00000000000000000000000000000000000C5
:104BF00080018001000000000000000000000000B3
:104C000000000000000000000000000080018001A2
:104C10000000000000000000000000000000000094
:104C20008001800100010001800000000000000000
:104C30000000000000000000000000000000000074
:104C40000010001C800FE003F8001800F800E003DB
:104C5000800F001C00100000000000000000000099
:104C60000000000000000000000000000000000044
:104C7000F81F000000000000F81F00000000000006
:104C80000000000000000000000000000000000024
:104C90000000000000000000000000000000000014
:104CA00008003800F001C007001F0018001FC007EF
:104CB000F0013800080000000000000000000000C3
:104CC0000000E003F80F180C0C180C180018000C6A
:104CD000000600038001C000C000C000000000000A
:104CE000C000C00000000000000000000000000044
:104CF00000000000E00718180420C229224A1144CD
:104D000009440944094409221113E20C0240042019
:104D10001818E0070000000000000000000000007C
:104D2000000080038003C006C006C006600C600C53
:104D3000301830183018F83FF83F1C700C600C60C9
:104D400006C006C0000000000000000000000000D7
:104D50000000FC03FC0F0C0C0C180C180C180C0CAD
:104D6000FC07FC0F0C180C300C300C300C300C18FD
:104D7000FC1FFC0700000000000000000000000015
:104D80000000C007F01F38381C300C7006600600A9
:104D90000600060006000600060006600C701C30C7
:104DA000F01FE0070000000000000000000000000D
:104DB0000000FE03FE0F060E061806180630063029
:104DC0000630063006300630063006180618060E85
:104DD000FE0FFE03000000000000000000000000C5
:104DE0000000FC3FFC3F0C000C000C000C000C0011
:104DF000FC1FFC1F0C000C000C000C000C000C0035
:104E0000FC3FFC3F0000000000000000000000002C
:104E10000000F83FF83F18001800180018001800AC
:104E2000F81FF81F180018001800180018001800C4
:104E30001800180000000000000000000000000042
:104E40000000E00FF83F3C780E6006E007C003006A
:104E5000030003FE03FE03C007C006C00EC03CF003
:104E6000F83FE00F0000000000000000000000001C
:104E700000000C300C300C300C300C300C300C308E
:104E8000FC3FFC3F0C300C300C300C300C300C3044
:104E90000C300C300000000000000000000000009A
:104EA000000080018001800180018001800180017B
:104EB00080018001800180018001800180018001EA
:104EC00080018001000000000000000000000000E0
:104ED00000000006000600060006000600060006A8
:104EE0000006000600060006000618061806380729
:104EF000F003E001000000000000000000000000DE
:104F0000000006300618060C060606038601C600D9
:104F100066007600DE008E0106030606060C061803
:104F200006300660000000000000000000000000E5
:104F300000001800180018001800180018001800C9
:104F400018001800180018001800180018001800A1
:104F5000F81FF81F00000000000000000000000023
:104F600000000EE01EF01EF01EF036D836D836D8FF
:104F700036D866CC66CC66CCC6C6C6C6C6C6C6C65D
:104F800086C386C30000000000000000000000008F
:104F900000000C301C303C303C306C306C30CC307D
:104FA000CC308C310C330C330C360C360C3C0C3CB6
:104FB0000C380C3000000000000000000000000071
:104FC0000000E007F81F1C380E70066003C003C025
:104FD00003C003C003C003C003C006600E701C38CA
:104FE000F81FE007000000000000000000000000C3
:104FF0000000FC0FFC1F0C380C300C300C300C3057
:105000000C18FC1FFC070C000C000C000C000C0022
:105010000C000C0000000000000000000000000078
:105020000000E007F81F1C380E70066003E003C0A4
:1050300003C003C003C003C007E006630E3F1C3C6F
:10504000F83FE0F700C00000000000000000000092
:105050000000FE0FFE1F0638063006300630063808
:10506000FE1FFE0706030606060C06180618063085
:105070000630066000000000000000000000000094
:105080000000E003F80F1C0C0C180C180C001C009E
:10509000F803E00F001E0038063006300E301C1CEE
:1050A000F80FE00700000000000000000000000012
:1050B0000000FE7FFE7F8001800180018001800171
:1050C00080018001800180018001800180018001D8
:1050D00080018001000000000000000000000000CE
:1050E00000000C300C300C300C300C300C300C301C
:1050F0000C300C300C300C300C300C300C301818DC
:10510000F81FE007000000000000000000000000A1
:10511000000003600630063006300C180C180C181E
:10512000180C180C380E3006300670076003600348
:10513000C001C001000000000000000000000000ED
:1051400000000360C361C361C361663366336633C5
:105150006633663366336C1B6C1B6C1B2C1A3C1E4F
:10516000380E380E000000000000000000000000B3
:1051700000000FE00C7018303018700C600EC00783
:1051800080038003C003E006700C301C18180C303C
:105190000E6007E0000000000000000000000000BA
:1051A000000003C006600C301C383818300C600654
:1051B000E007C0038001800180018001800180013F
:1051C00080018001000000000000000000000000DD
:1051D0000000FC7FFC7F006000300018000C00061F
:1051E00000038001C0006000300018000C000600C1
:1051F000FE7FFE7F000000000000000000000000B5
:105200000000E003E00360006000600060006000F8
:10521000600060006000600060006000600060008E
:1052200060006000600060006000E003E0030000D8
:10523000000030003000600060006000C000C0006E
:10524000C000C00180018001800100030003000351
:105250000006000600000000000000000000000042
:105260000000E003E0030003000300030003000369
:105270000003000300030003000300030003000316
:1052800000030003000300030003E003E003000049
:1052900000000000C001C00160036003600330062D
:1052A0003006180C180C0000000000000000000080
:1052B00000000000000000000000000000000000EE
:1052C00000000000000000000000000000000000DE
:1052D00000000000000000000000000000000000CE
:1052E0000000FFFFFFFF00000000000000000000C2
:1052F00000000C000C000C000C000C000C00000066
:10530000000000000000000000000000000000009D
:10531000000000000000000000000000000000008D
:10532000000000000000000000000000F003F8078B
:105330001C0C0C0C000FF00FF80C0C0C0C0C1C0FC0
:10534000F80FF0180000000000000000000000004E
:10535000000018001800180018001800D803F80FF3
:10536000380C181818181818181818181818380C95
:10537000F80FD8030000000000000000000000004B
:10538000000000000000000000000000C003F00763
:10539000300E180C1800180018001800180C300EE9
:1053A000F007C00300000000000000000000000043
:1053B000000000180018001800180018C01BF01F8B
:1053C000301C181818181818181818181818301C25
:1053D000F01FC01B000000000000000000000000E3
:1053E000000000000000000000000000C003F00FFB
:1053F000300C1818F81FF81F180018003818301C47
:10540000F00FC007000000000000000000000000D6
:105410000000800FC00FC000C000C000F007F00700
:10542000C000C000C000C000C000C000C000C0007C
:10543000C000C000000000000000000000000000EC
:10544000000000000000000000000000E00DF80F68
:10545000180E0C0C0C0C0C0C0C0C0C0C0C0C180E70
:10546000F80FE00D000C0C0C1C06F807F001000012
:10547000000018001800180018001800D807F80FCE
:10548000381C181818181818181818181818181878
:1054900018181818000000000000000000000000AC
:1054A0000000C000C000000000000000C000C000FC
:1054B000C000C000C000C000C000C000C000C000EC
:1054C000C000C0000000000000000000000000005C
:1054D0000000C000C000000000000000C000C000CC
:1054E000C000C000C000C000C000C000C000C000BC
:1054F000C000C000C000C000C000F800780000007C
:1055000000000C000C000C000C000C000C0C0C0635
:105510000C038C01CC006C00FC009C018C030C0380
:105520000C060C0C00000000000000000000000051
:105530000000C000C000C000C000C000C000C0002B
:10554000C000C000C000C000C000C000C000C0005B
:10555000C000C000000000000000000000000000CB
:105560000000000000000000000000007C3CFF7E06
:10557000C7E383C183C183C183C183C183C183C1A5
:1055800083C183C100000000000000000000000093
:105590000000000000000000000000009807F80F65
:1055A000381C181818181818181818181818181857
:1055B000181818180000000000000000000000008B
:1055C000000000000000000000000000C003F00F19
:1055D000300C181818181818181818181818300C33
:1055E000F00FC003000000000000000000000000F9
:1055F000000000000000000000000000D803F80FC9
:10560000380C181818181818181818181818380CF2
:10561000F80FD80318001800180018001800000030
:10562000000000000000000000000000C01BF01F90
:10563000301C181818181818181818181818301CB2
:10564000F01FC01B001800180018001800180000F8
:10565000000000000000000000000000B007F003A0
:10566000700030003000300030003000300030007A
:1056700030003000000000000000000000000000CA
:10568000000000000000000000000000E003F00344
:10569000380E180C3800F003C007000C180C380E38
:1056A000F007E00300000000000000000000000020
:1056B000000000008000C000C000C000F007F0073C
:1056C000C000C000C000C000C000C000C000C000DA
:1056D000C00780070000000000000000000000007C
:1056E000000000000000000000000000181818185A
:1056F0001818181818181818181818181818381C06
:10570000F01FE01900000000000000000000000091
:105710000000000000000000000000000C18180C41
:10572000180C180C30063006300660036003600366
:10573000C001C001000000000000000000000000E7
:10574000000000000000000000000000C141C14155
:10575000C3616363636363633636363636361C1C57
:105760001C1C1C1C000000000000000000000000C9
:105770000000000000000000000000001C38381C81
:10578000300C600660036003600360036006300C49
:10579000381C1C3800000000000000000000000061
:1057A0000000000000000000000000001830301869
:1057B00030187018600C600CE00CC006C006800346
:1057C0008003800380018001C001F00070000000B0
:1057D000000000000000000000000000FC1FFC1F93
:1057E000000C000600038001C000600030001800BB
:1057F000FC1FFC1F00000000000000000000000073
:10580000000000038001C000C000C000C000C00054
:10581000C00060006000300060004000C000C000B8
:10582000C000C000C000C0008001000300000000F4
:1058300000008001800180018001800180018001E1
:105840008001800180018001800180018001800150
:1058500080018001800180018001800180010000C1
:1058600000006000C000C001800180018001800153
:105870008001000300030006000300018001800195
:105880008001800180018001C000600000000000F4
:105890000000000000000000000000000000000008
:1058A000F010F81F080F00000000000000000000CA
:1058B00000000000000000000000000000000000E8
:1058C0000000000001020304E85800080000002066
:1058D00040000000003D000828590008400000205A
:1058E000A0050000103D000800000000FFFF0000C0
:1058F00000000000000000000000000000000000A8
:105900000000000000000000000000000000000097
:105910000000000010000000010000000000000076
:085920000024F4000000000067
:04000005080001D915
:00000001FF
