:020000040800F2
:1000000070070020ED010008BB440008E33500083C
:10001000B944000899080008C55A0008000000000B
:1000200000000000000000000000000095490008EA
:10003000E108000800000000BD44000897490008DE
:10004000070200080702000807020008070200086C
:10005000070200080702000807020008070200085C
:10006000070200080702000807020008070200084C
:10007000070200080702000807020008070200083C
:10008000070200080000000007020008070200083D
:10009000070200080702000807020008070200081C
:1000A000070200080702000807020008070200080C
:1000B000354A0008414A0008070200080702000804
:1000C00007020008070200080702000807020008EC
:1000D00007020008B95A00080702000807020008D2
:1000E00007020008070200080702000807020008CC
:1000F00007020008070200080702000800000000CD
:1001000000000000070200080000000007020008CD
:1001100007020008000000000702000807020008AC
:10012000070200080702000807020008070200088B
:10013000070200080000000000000000070200089D
:10014000070200080702000800000000000000008D
:10015000000000000000000000000000000000009F
:10016000000000000000000000000000070200087E
:10017000070200080000000000000000000000006E
:10018000000000000702000800000000000000005E
:10019000000000000000000000000000000000005F
:1001A000000000000000000007020008070200082D
:1001B000070200080702000807020008000000000C
:1001C000000000000702000800000000000000001E
:1001D0000702000807020008DFF80CD000F05CFA04
:1001E0000048004731640008700700200648804737
:1001F00006480047FEE7FEE7FEE7FEE7FEE7FEE70C
:10020000FEE7FEE7FEE7FEE7194A0008D90100080D
:100210002DE9F05F0546002092469B46884606463B
:10022000814640241BE0284641464746224600F0CE
:100230006AF853465A46C01A914110D311461846DF
:10024000224600F051F82D1A67EB01084F4622466E
:100250000120002100F048F817EB00094E41201E54
:10026000A4F10104DFDC484631462A464346BDE896
:10027000F09FD2B201E000F8012B491EFBD270477B
:100280000022F6E710B513460A4604461946FFF762
:10029000F0FF204610BD00F0004230F000400AD0D0
:1002A000C10D01F56071C0F3160042EA0151C208A8
:1002B00040071143704700200146704730B50B4698
:1002C000014600202022012409E021FA02F59D4286
:1002D00005D303FA02F5491B04FA02F52844151E5A
:1002E000A2F10102F1DC30BD202A04DB203A00FA41
:1002F00002F1002070479140C2F1200320FA03F37D
:10030000194390407047202A04DB203A21FA02F07A
:100310000021704721FA02F3D040C2F1200291403F
:100320000843194670472DE9FE4F804681EA0300D5
:10033000C00F0C46009021F0004123F00045B8EBBF
:100340000200A94105D24046214690461C460B4674
:10035000024623F00040104347D0270DC7F30A00A0
:10036000C3F30A510290401A019040286BDAC3F39C
:10037000130040F4801B0098924620B10023D2EB7A
:10038000030A63EB0B0B01985946C0F1400250463B
:10039000FFF7AAFF06460D4650465946019A00F05F
:1003A0008DF910EB08006141002487EA115284EABC
:1003B000E7731A4340D0009A62B3019A012A4FEAC8
:1003C000075215DC001B61EB02014FF0004202EA0C
:1003D0000752CDE90042001C41F5801132462B4600
:1003E00000F08DF903B0BDE8F08F40462146F9E7F3
:1003F000001B61EB0201001C41F5801300185B41FA
:100400002018A2F5001747EB030140EAD570B61992
:100410006D4111E06D084FEA360645EAC0754FEAB6
:100420000752001B61EB0201001C41F580114908D5
:100430004FEA30000019514132462B4603B0BDE867
:10044000F04F00F04DB90098012240000023D0EB9E
:10045000020263EBE073009821464FEAE074B8EBC8
:10046000000061EB0401E9E783F000435BE781F002
:10047000004158E72DE9FE4F81EA030404F00044EF
:1004800021F0004100944FF0000B23F0004350EAAC
:1004900001045ED052EA03045BD0C3F30A54C1F3F3
:1004A0000A552C44A4F2F3340194A0FB0254C1F386
:1004B000130141F48011C3F3130343F4801301FBD0
:1004C000024400FB034E840A970A44EA815447EA37
:1004D0008357A4FB076802958D0A05FB07854FEA41
:1004E000932C04FB0C542705029D4FEA065847EA5B
:1004F0001637B5EB08056EEB070C870E920E47EA30
:10050000811742EA8312A7FB0201B6EB0B0164EBF1
:1005100000042B0D43EA0C335E1844EB1C50DA4602
:100520005146E7FB0201C5F313044FEA0B3343EADC
:1005300014534FEA0432019C43EA0603A4F10C046D
:100540000294009CCDE900B400F0D9F803B0BDE8F6
:10055000F08F00200146F9E72DE9F04D81EA030410
:1005600004F0004B21F0004514464FF0000A23F040
:10057000004150EA050220D054EA01021DD0C5F323
:100580000A570246C5F31303C1F31300C1F30A5619
:1005900040F4801543F48013A7EB0608101BD646E1
:1005A00008F2FD3873EB050002D308F1010801E001
:1005B00092185B41B8F1000F03DA00200146BDE854
:1005C000F08D00204FF48011064684460EE0171B84
:1005D00073EB050705D3121B63EB050306434CEAD7
:1005E000010C49084FEA300092185B4150EA0107BC
:1005F000EDD152EA030012D082EA040083EA050139
:10060000084305D0101BAB4106D20122002306E0AF
:1006100000224FF0004302E06FF0010253101AEB8A
:1006200006004CEB085110EB0A0041EB0B01BDE852
:10063000F04D00F055B8C1F30A52C1F3130140F276
:10064000FF3341F480119A4202DA002001467047DC
:1006500040F233439A42A2F2334202DC5242FFF7A5
:1006600052BEFFF741BE000030B5041E71F1000418
:1006700004DB4FF00044404264EB0101141E73F1AF
:10068000000405DB1C464FF00043524263EB0403B9
:10069000994208BF904230BD064C074D06E0E06825
:1006A00040F0010394E8070098471034AC42F6D3B9
:1006B000FFF796FD0077000820770008202A06DB68
:1006C000CB17203A41FA02F043EAE07306E041FA20
:1006D00002F3D040C2F1200291400843194670470E
:1006E00010B5141E73F1000408DA401C41F100013A
:1006F00092185B411A4301D120F0010010BD2DE991
:10070000F04D92469B4611B1B1FA81F202E0B0FA87
:1007100080F220329046FFF7E7FD04460F4640EA9C
:100720000A0041EA0B0153465A46084313D01146CA
:1007300053EA010019D0C8F140025046FFF7E3FD2B
:1007400005460E46504659464246FFF7CDFD084342
:1007500005D0012004E020463946BDE8F08D002098
:10076000054346EAE0762C4337430A986305E40ADA
:10077000A0EB08000022FD0A44EA47540A3002D5E3
:1007800000200146E9E7010510196941DDE9084546
:1007900000196941BDE8F04DA2E7000070B50446BC
:1007A0000068816811F0010F28D18168144A114254
:1007B00015D18168D5432940491C816000F0B8FFFC
:1007C000064616E0816811F0010F03D181682940C7
:1007D000491C816000F0ACFF801B022809D9E06D44
:1007E00040F01000E065206E40F00100206601201E
:1007F00070BD20680168C943C907E3D1002070BDFE
:100800003F00008010B51F482DED028B00F07EFCEC
:100810001C4800F029FB00EE100A9FED1B8ADFED5B
:100820001B8AB8EE400A1A4C164820EE080A20EE41
:10083000280A84ED150A00F069FC124800F014FB48
:1008400080B200EE100A60811248B8EE400A20EE35
:10085000080A20EE280A84ED140A00F057FC0D481F
:1008600000F002FB80B200EE100AA081B8EE400A50
:1008700020EE080A20EE280A84ED130ABDEC028B54
:1008800010BD0000A0000020000080393333534029
:10089000080000200C010020FEE7000010B50E4CFF
:1008A00040F2555340F61E40E3812082002211465B
:1008B0000A4800F0BFFD0021084800F0C8FD238A67
:1008C00000221021054800F0B5FDBDE810401021C0
:1008D000024800F0BCBD000008000020A00100207C
:1008E0007047002240F6B83306E00021491C89B267
:1008F0009942FBD3521C92B28242F6D3704710B594
:10090000044602F0EBFEA02002F0A9FE02F01CFF5C
:10091000204602F0A4FE02F017FF02F0DFFEA12045
:1009200002F09DFE02F010FF02F072FE044602F09B
:10093000BDFE02F0EEFE204610BD70B50D46044629
:1009400002F0CCFEA02002F08AFE02F0FDFE20465E
:1009500002F085FE02F0F8FE284602F080FE02F06A
:10096000F3FE02F0D6FEBDE87040052000F0E0BDC9
:10097000704700002DE9F047044690F858009CB0FD
:100980000D464FF00008012814D0012084F85800CB
:1009900020684FF0A0474FF00009B8420ED1284E12
:1009A0000096304603F06EFA8246206803F06AFA39
:1009B00060B10EE002201CB0BDE8F087E16D41F0AF
:1009C0002001E16584F858900120F4E7BAF1000FA6
:1009D0000AD0E06D40F02000E0654FF0010800BF54
:1009E00084F858904046E6E716482A6840F61F719A
:1009F000002A826822F4604215D094F8383042EA26
:100A000043326B681A438260BA68B36802F001022D
:100A100003F001031A43E3D1AB682A681A438368E1
:100A20008B431A430AE08260BA68B36802F001029D
:100A300003F001031A43D3D182688A438260CFE76F
:100A400000010050000300502DE9F84F0027044634
:100A5000009790F85800DFF8DC930D46B84601285F
:100A600011D0012684F85860206803F007FA60B1BD
:100A7000E06D40F02000E0655FF0010784F85880E9
:100A80003846BDE8F88F0220FBE7D5E900210C23AA
:100A9000206803EA91131844036B01F01F014FF023
:100AA0001F0C0CFA01FCC2F3846223EA0C038A4097
:100AB00013430363206803F0E1F98246206803F0E2
:100AC000D9F95AEA00003CD1AA6829682068B2F135
:100AD000004F37D003F0DAF92068416921F0004176
:100AE000416120686969C268C2F3C1025200914045
:100AF0002A69042A31D000EB82002B68026EDFF8ED
:100B000038C303F0F84302EA0C020B431A4342F0E5
:100B10000041016622682869A96902EB8000026E23
:100B200022F080720A430266297F20682A6901291F
:100B300010D0002100EB8200026E22F000720A4306
:100B400002667DE0002203F0A1F92068416941F0CE
:100B50000041C5E74FF00071ECE7002103F084F994
:100B6000400320684FF0000172D003F07DF990FA45
:100B7000A0F0B0FA80F1286842036ED090FAA0F09D
:100B8000B0FA80F0814204D100221146206803F0BF
:100B90008CF90121206803F067F9400320684FF0C9
:100BA00001015DD003F060F990FAA0F0B0FA80F195
:100BB0002868420359D090FAA0F0B0FA80F0814240
:100BC00004D100220121206803F06FF9022120687E
:100BD00003F04AF9400320684FF0020148D003F0C7
:100BE00043F990FAA0F0B0FA80F12868420344D0AB
:100BF00090FAA0F0B0FA80F0814204D100220221E4
:100C0000206803F052F90321206803F02DF9400316
:100C100020684FF0030133D003F026F990FAA0F0DA
:100C2000B0FA80F1286842032FD090FAA0F0B0FA11
:100C300080F0814204D100220321206803F035F9BD
:100C40002068816811F0010F22D0ACE000E004E0E0
:100C500003F00AF9C0F384618DE7C0F3846091E783
:100C600003F002F9C0F38461A2E7C0F38460A6E751
:100C700003F0FAF8C0F38461B7E7C0F38460BBE720
:100C800003F0F2F8C0F38461CCE7C0F38460D0E7EE
:100C90002A7B296850F8B03FC1F3120C23EA0C03F9
:100CA00002F0180C654A22FA0CF20A401343036062
:100CB000E968494577D1286841031CD090FAA0F132
:100CC000B1FA81F1491C01F01F0109294FEA4031B5
:100CD00032D8002912D000BF90FAA0F1B1FA81F108
:100CE00001F1010101F01F0106FA01F609D100BF6F
:100CF000C0F3846109E0C0F38461E3E7C0F3846179
:100D0000EEE790FAA0F1B1FA81F101F1010101F0F1
:100D10001F0146EA816102D1C0F3846003E090FACA
:100D2000A0F0B0FA80F000F1010000F01F0000EB2D
:100D3000400041EA005132E000290ED090FAA0F1C3
:100D4000B1FA81F101F1010101F01F0106FA01F68A
:100D500006D100BFC0F3846106E0C0F38461F1E70F
:100D600090FAA0F1B1FA81F101F1010101F01F0146
:100D700046EA816102D1C0F3846003E090FAA0F0FA
:100D8000B0FA80F000F1010000F01F002C4A00EBE7
:100D9000400002EB005041EA000141F00071AA68F6
:100DA000206803F073F827482A6802423FF466AED1
:100DB00025488168254B01F0E0719A4202D0244B0E
:100DC0009A421BD10B0219D42268B2F1A04F7FF4D2
:100DD00055AE826841F4000122F0E0720A4382605D
:100DE0001C481D490068B0FBF1F000EB400080009A
:100DF00000E0401E00900028FBD13FE6174D184B45
:100E0000AA4207D1CD0105D422689A42F5D041F01B
:100E1000807109E0134DAA42EFD14A02EDD4226855
:100E20009A42EAD041F48001826822F0E0720A43DB
:100E3000826023E600007F4000F0FF03FFFF070011
:100E4000000020FE0000088000030050000021C3C5
:100E50001000C09078000020400D0300000052C731
:100E600000010050000084CB0068006C7047000057
:100E7000F8B54FF0000504002E46009502D0E06D55
:100E800010B107E00120F8BD204600F0EDF826661D
:100E900084F8586020688168C1F3407119B1816895
:100EA000694A1140816020688168C1F3007179B995
:100EB0008168664A114041F080518160644865490B
:100EC0000068B0FBF1F000E0401E00900028FBD16C
:100ED00020688168C1F3007141B9E16D41F01001F2
:100EE000E165216E41F001012166012502F0C6FF96
:100EF000E16DC90600D430B1E06D40F01000E0654E
:100F000001252846F8BDE06D20F4807040F0020015
:100F1000E0652068806810F0010F11D14FF0A0400B
:100F200080684D4900F00100896801F00101084323
:100F300006D14A486168826822F47C120A438260C2
:100F4000E168E06B627F0843A16841EA42310843EF
:100F500094F8241040EA0140012904D1218D404A2F
:100F600002EB41410843E16A29B101F47871226B37
:100F7000014342EA01002168CA683A4B1A40024321
:100F8000CA6020680169626B21F040611143016110
:100F9000206802F073FF0646206802F06BFF3043C2
:100FA0002ED1207F94F83810800340EA4102206857
:100FB000C16844F2020399431143C16020690028CB
:100FC000206801690AD041F480310161206850F83D
:100FD000C01F22696FF30D01114307E021F4803136
:100FE0000161206850F8C01F6FF30D01016094F893
:100FF000400001280CD02068016921F00101016145
:10100000606901282068016B21F00F0111D013E005
:10101000D4E911010843D4E91312114308432168AC
:101020000A6940F2FC739A43104340F001000861E2
:10103000E6E7226A521E11430163E06D20F00200D0
:1010400040F00100E0655CE7C0FFFF5FC0FFFF7F8D
:1010500078000020400D0300000100500003005004
:101060000000FEFF0740F0FFF0B587B004461421F2
:101070006846FFF705F9214B266800241A68032506
:101080001F482049521CB6F1A04F06D01E4FBE4249
:1010900031D11A60012A16D01DE01A60012A07D149
:1010A000CA6C42F40052CA64CA6C02F4005205923F
:1010B000CA6C42F00202CA64C96C01F002010591D7
:1010C0004FF4A04111E0CA6C42F40052CA64CA6CE9
:1010D00002F400520592CA6C42F00202CA64C96C62
:1010E00001F0020105914FF40041CDE90015029491
:1010F000694600F02FFA07B0F0BD0000680000203C
:101100000004004800100240000100502DE9F041A9
:1011100004463848806800F01F05206802F0AEFEE3
:1011200018B102210846BDE8F08194F85800012862
:101130000CD0012084F858002046FFF72FFB010057
:101140004FF0000304D084F85830EBE70220EAE7C0
:10115000E06D40F60162904340F48070E065264AFD
:1011600020684FF0A046904201D1374600E0074684
:10117000874200D01DB9E76D27F48017E765E76D5A
:10118000FF0404D5276E27F00607276600E02366D4
:101190001C27076084F858302068904201D13346FC
:1011A00000E00346834215D0A5B1052D12D0092DCC
:1011B00010D0E36D43F48013E365904200D13046D4
:1011C000C0688001AED5E06D20F4005040F480503E
:1011D000E065A7E7C268920105D5E26D22F40052EE
:1011E00042F48052E2658268044B1A40121D82600C
:1011F00098E700000003005000010050C0FFFF7F8F
:101200002DE9F0470446407900270D4601280BD010
:101210004FF0010984F8059002202071A86802F0BF
:101220001006042803D043E00220BDE8F0874FF009
:10123000030802BB00F07CFA074604E000F078FAED
:10124000C01B01280FD82068406B0004F6D4012091
:1012500000F06EF92168686A086416E000F068FA28
:10126000C01B012807D9206940F00800206184F8DC
:1012700004800320D9E72068406B0028EEDB0120C2
:1012800000F056F92168686A48642068816C40F271
:10129000FF32B2409143AA6AB24011438164206890
:1012A000C16CFF22B2409143EA6AB2401143C1646B
:1012B000E869012808D12268916B1F20B040814362
:1012C000286AB040084390632068C06B0721B14092
:1012D0008843A969CA0703D1890755D46969E9B365
:1012E00000216B69AA681A430A434FF4807101FA1E
:1012F00006F398432B79012B00D0002111434FF4C2
:10130000007202FA06F398436B79012B00D0002299
:1013100020F44047286842EA0108022836D00743F3
:10132000216808FA06F03843C863206801684FF462
:101330008042B240914301602268116840F6FE701D
:10134000B0408143E868B0400843106020680168FD
:10135000C022B24091430160287B00E014E0297C68
:10136000C0F3830001F03C0140EA811021680A6E5D
:1013700040F60F73B3409A43B04002430A6684F8C4
:1013800004900020607150E70121AAE700F0FCFC06
:101390000549884202D947F40047C1E7034988421A
:1013A000BED947F48047BBE70068890900B4C4048C
:1013B00070B5040003D02079002510B105E00120AC
:1013C00070BD6571204600F007F80220207125618C
:1013D00001202071002070BD10B586B00446142194
:1013E0006846FEF74DFF1149206888421BD110481E
:1013F000C16C41F48031C164C16C01F4803105914C
:10140000C16C41F00101C164C06C694600F001008B
:1014100005903020009003200190002002904FF0B2
:10142000904000F097F806B010BD00000008005092
:101430000010024018B50068C46B0090104421B140
:10144000143000900360002018BD0830F9E72DE942
:10145000F041044640790D46012822D04FF00108A2
:1014600084F805800226267121680A6805F01007B5
:1014700008FA07F002430A60404600F059F8206875
:10148000016885B101F47811BE40B14203D14168D1
:1014900041F00201416084F8048000206071BDE8E1
:1014A000F0810220FBE7C1F344010129F3D1416837
:1014B00041F00101EEE770B590F8252000240121EC
:1014C0002346022A07D00422C26380F8251080F840
:1014D0002430012429E00268156825F00E05156006
:1014E0000268156825F001051560826C156825F401
:1014F0008075156090F84420056C02F01F0201FA17
:1015000002F26A60D0E913255560426D32B1156868
:1015100025F480751560D0E91625556080F82510F2
:1015200080F82430816B01B18847204670BD0000EF
:1015300070B5044600F0FCF80546601C02D0044873
:101540004068044400F0F4F8401BA042FAD370BD98
:101550006C0000202DE9FC4FDFF8A0A1002301253D
:101560000AF1040B03244FF00F0C0BF1040EBDE045
:1015700005FA03F632406FD04F68012F05D0022FD5
:1015800003D0112F01D0122F17D1D0F808905F008F
:1015900004FA07F829EA08090097D1F80C8008FA3C
:1015A00007F848EA0908C0F808804768B7430E7989
:1015B000C6F300169E403E434660C6684FEA4308A5
:1015C00004FA08F7BE4301978F6807FA08F7374314
:1015D000C7604E68022E01D0122E13D1DE0800EB38
:1015E00086060096366A5F07FF0E0CFA07F926EAB0
:1015F0000906D1F8109009FA07F949EA0609009E90
:10160000C6F820900668019FBE430F7907F00307D4
:1016100007FA08F7374307604E68F60065D5384E7D
:10162000376E47F001073766366E23F0030706F082
:1016300001060096334E3E44B146B6689F074FEA16
:1016400017780CFA08F7BE43B0F1904F05D02E4F33
:10165000B84204D1012717E047E0002714E02B4FE0
:10166000B84201D102270FE0294FB84201D1032728
:101670000AE0284FB84201D1042705E0264FB842BE
:1016800001D1052700E0062707FA08F73743C9F814
:101690000870DAF800605746D1F8048096435FEA94
:1016A000C83800D516433E60DBF800605F46D1F8CD
:1016B000048096435FEA883800D516433E60DEF822
:1016C00000607746D1F8048096435FEAC82800D5C9
:1016D00016433E60094F0C373E68D1F804809643AC
:1016E0005FEA882800D516433E605B1C0A6832FA20
:1016F00003F67FF43DAFBDE8FC8F0000000401401D
:1017000000100240000001400004004800080048AA
:10171000000C004800100048001400480069084010
:1017200000D0012070470AB1816170478162704723
:1017300001488068704700006C0000200248816802
:1017400042681144816070476C00002010B500248D
:10175000032000F077F8002000F008F808B1012419
:1017600001E000F025F8204610BD000070B50E4ED7
:1017700005460024706898B14FF47A71B1FBF0F01F
:101780000A490968B1FBF0F000F0E8FE40B9102DFD
:1017900006D200222946501E00F034F8356000E0E1
:1017A0000124204670BD00006C000020780000205D
:1017B0000B4808B5016E41F001010166016E01F0B0
:1017C00001010091816D41F080518165806D00F0D3
:1017D000805000900348816841F48041816008BDD9
:1017E0000010024000700040002809DB00F01F02DA
:1017F000012191404009800000F1E020C0F8001173
:1018000070470000F0B40E4B1B680C46C3F3022374
:10181000C3F10705042D00D90425191D072901D29C
:10182000002300E0DB1E012606FA05F1491E2140D7
:1018300099409E40761E16403143F0BC04F068B9D2
:101840000CED00E0064900F0070208684FF6FF03C0
:10185000184040EA0220034A104308607047000025
:101860000CED00E00000FA052B492C4B0A683221F0
:101870004A432B4940B1B0F5007F086829D020F4D5
:10188000C06040F480602CE00868C0F3412002286A
:1018900004D051F8800F20F4807022E0D1F880004D
:1018A00020F48070C1F88000086820F4C06040F423
:1018B00000700860B2FBF3F0401C00E0401E4A6973
:1018C000520501D50028F9D1486940050AD5032001
:1018D0007047C0F34120022806D051F8800F40F431
:1018E0008070086000207047D1F8800040F480705C
:1018F000C1F88000086820F4C06040F400700860FF
:10190000B2FBF3F0401C00E0401E4A695205DBD5F3
:101910000028F9D1D8E700007800002040420F00ED
:10192000007000402DE9F8430446006800269D4DF4
:1019300000035ED5A86D0027C00008D4A86D40F054
:101940008050A865A86D012700F080500090DFF856
:101950005892D9F8001041F48071C9F80010FFF7CF
:10196000E7FE804606E000BFFFF7E2FEA0EB0800BE
:1019700002282BD8D9F80000C005F5D5D5F890007D
:1019800010F4407014D0216C814211D0D5F8900031
:10199000D5F8901020F4407041F48031C5F89010D3
:1019A000D5F8901021F48031C5F89010C5F890005A
:1019B000C00711D0FFF7BCFE804641F2883907E02E
:1019C000FFF7B6FEA0EB0801494501D903260BE05D
:1019D000D5F890008007F3D5D5F89000216C20F45D
:1019E00040700843C5F890001FB1A86D20F08050EA
:1019F000A8652078C00707D0D5F88800616820F076
:101A000003000843C5F888002078800707D5D5F87B
:101A10008800A16820F00C000843C5F888002078F1
:101A2000400707D5D5F88800E16820F0300008436A
:101A3000C5F888002078000707D5D5F88800216907
:101A400020F0C0000843C5F888002078800607D53C
:101A5000D5F88800616920F440600843C5F8880023
:101A60002078400607D5D5F88800A16920F44050B9
:101A70000843C5F888002078000607D5D5F8880007
:101A8000E16920F440400843C5F888002088C0057B
:101A900007D5D5F88800216A20F440300843C5F8FE
:101AA00088002088800507D5D5F88800616A20F471
:101AB00040200843C5F88800208840050FD5D5F898
:101AC0008800A16A20F440100843C5F88800A06A85
:101AD000B0F5801F03D1E86840F48010E8602088EA
:101AE00000050FD5D5F88800E16A20F440000843CE
:101AF000C5F88800E06AB0F5800F03D1E86840F4CB
:101B00008010E8602088C0040FD5D5F88800216BCC
:101B100020F040700843C5F88800206BB0F1807F4A
:101B200003D1E86840F48010E86020884FF000613D
:101B300080040ED5D5F88800626B20F04060104319
:101B4000C5F88800606B884203D1E86840F48010D3
:101B5000E860208840040ED5D5F88800A26B20F0FC
:101B600040601043C5F88800A06B884203D1E86844
:101B700040F48010E860208800040FD5D5F8880074
:101B8000E16B20F040500843C5F88800E06BB0F1ED
:101B9000805F03D1E86840F48030E8603046BDE8FB
:101BA000F883000000100240007000402DE9F0476B
:101BB0000E4605004FF0000725D0DFF8AC81D8F8BD
:101BC000000000F00F00B0420CD2D8F8001021F055
:101BD0000F013143C8F80010D8F8000000F00F00E2
:101BE000B04210D12968614CC80741F2883A5AD0F6
:101BF0006868DFF87C91032808D0022820682DD07F
:101C0000400500282CDB0120BDE8F087206880011A
:101C1000F9D5E06800F00302E068C0F30310401C4F
:101C2000032A19D0534A00BFB2FBF0F0E268C2F3B6
:101C300006225043E268C2F34162521C5200B0FBDC
:101C4000F2F0484517D9A06810F0F00F0CD08807C3
:101C500011D5A86840B10EE0474AE5E78003D0E718
:101C600000F0BCF8484506D9A06820F0F00040F02C
:101C70008000A0608027A068696820F00300084306
:101C8000A060FFF755FD814606E000BFFFF750FD5D
:101C9000A0EB090151453AD8A068696800F00C0032
:101CA000B0EB810FF2D12868810714D5400703D526
:101CB000A06840F4E060A0602878000705D5A0681F
:101CC00020F4605040F4E060A060A068A96820F0B3
:101CD000F000084304E0802F03D1A06820F0F0005A
:101CE000A060D8F80010404601F00F01B14216D9AB
:101CF000016821F00F0131430160FFF719FD07462C
:101D000007E000BFFFF714FDC11B514501D90320B7
:101D10007AE7D8F8000000F00F00B042F2D128783E
:101D2000400705D5A068E96820F4E0600843A0609A
:101D30002878000706D5A068296920F4605040EA99
:101D4000C100A06000F04AF8A1680C4AC1F3031179
:101D5000515C01F01F01C84009490860094800684A
:101D6000BDE8F047FFF702BD00200240001002402E
:101D700000B4C4040024F40000366E01E8760008C4
:101D8000780000206C0000200148006870470000C7
:101D9000780000200548064900688968054AC1F3B3
:101DA0000221515C01F01F01C840704778000020FB
:101DB00000100240F8760008054806490068896866
:101DC000054AC1F3C221515C01F01F01C8407047B0
:101DD0007800002000100240F8760008184910B57D
:101DE0008868C0F381021748012A0BD08A68164B15
:101DF000C2F38102022A06D08A68C2F38102032A52
:101E000003D0002010BD184610BDCA6802F00304BC
:101E1000CA68C2F30312521C032C02D0B0FBF2F0CA
:101E200001E0B3FBF2F0CA68C968C2F3062250436E
:101E3000C1F34161491C4900B0FBF1F010BD000045
:101E4000001002400024F40000366E012DE9F84332
:101E500004007AD02078FA4DC00747D0A868E96816
:101E600000F00C0001F003010C2802D0082817D064
:101E700001E0032914D06068B0F5803F17D0B0F5B9
:101E8000A02F286817D020F480302860286820F41C
:101E9000802028606068E0B1FFF74AFC064614E045
:101EA0002868800322D560680028D2D01EE0286808
:101EB00040F48030EDE740F480202860F7E700BF71
:101EC000FFF736FC801B642870D828688003F7D59C
:101ED0000CE0FFF72DFC064605E000BFFFF728FCED
:101EE000801B6428F0D828688003F7D42078800706
:101EF0004CD5A868E96800F00C0001F003010C283B
:101F000002D004280DD001E002290AD0E0680028A0
:101F100028682BD040F480702860FFF709FC064643
:101F200019E02868400502D5E068002891D068686B
:101F3000217C20F0FE4040EA01606860C1480068F2
:101F4000FFF714FC002800D120E076E1FFF7F0FB5A
:101F5000801B0228B8D828684005F7D56868217C1E
:101F600020F0FE4040EA016068600FE020F48070DD
:101F70002860FFF7DDFB064605E000BFFFF7D8FB52
:101F8000801B0228A0D828684005F7D420780007D5
:101F900029D560690028D5F8940013D040F00100DD
:101FA000C5F89400FFF7C4FB064606E090E000BFCA
:101FB000FFF7BEFB801B022886D8D5F89400800767
:101FC000F6D510E020F00100C5F89400FFF7B0FB53
:101FD000064604E0FFF7ACFB801B022878D8D5F852
:101FE00094008007F6D42078400761D5A86D0026BC
:101FF000C00008D4A86D40F08050A865A86D0126E7
:1020000000F08050009090480168C90511D4016823
:10201000804641F480710160FFF78AFB074604E0C7
:10202000FFF786FBC01B022852D8D8F80000C00575
:10203000F6D5A068012815D00528D5F8900016D04F
:1020400020F00100C5F89000D5F8900020F00400C1
:10205000C5F89000A06841F28838B8B1FFF768FB76
:1020600007460EE0D5F8900040F00100F0E740F0A0
:102070000400C5F89000F5E7FFF75AFBC11B414586
:1020800026D8D5F890008007F6D50CE0FFF750FB76
:10209000074604E0FFF74CFBC11B414518D8D5F8B3
:1020A00090008007F6D41EB1A86D20F08050A8657E
:1020B0002078800629D5A0690028D5F8980013D08B
:1020C00040F00100C5F89800FFF732FB064606E035
:1020D00077E000BFFFF72CFB801B022877D8D5F8EC
:1020E00098008007F6D510E020F00100C5F89800B0
:1020F000FFF71EFB064604E0FFF71AFB801B0228D1
:1021000065D8D5F898008007F6D4E069F0B3A968DF
:10211000C1F38101032961D00228286820F0807072
:1021200028600BD0E86820F00300E860E8684749C1
:102130000840E860FFF7FCFA04464BE0FFF7F8FAC6
:10214000064604E0FFF7F4FA801B02283FD828680F
:102150008001F7D4F4E908016FF00F0202EB0111DE
:102160000843218A5204490802EB4151A26841EA1E
:1021700002210843217D4FF07E42490802EB416174
:102180000843217B40EAC160E96800E062E0304A30
:1021900011400843E860286840F080702860E868D3
:1021A00040F08070E860FFF7C3FA044605E000BF26
:1021B000FFF7BEFA001B022809D828688001F7D56E
:1021C00048E004E0FFF7B4FA001B022802D903201C
:1021D000BDE8F88328688001F4D43BE00128F7D0FB
:1021E000E868226A00F00301914226D1616A00F09A
:1021F000F0020901103991421FD1A26A00F4FE4198
:10220000B1EB022F19D194F82C2000F07841B1EBFA
:10221000C26F12D1218E00F4C00249084905A1F510
:102220000011914209D194F8341000F0C0604908BF
:102230004906A1F1007181420CD00120C8E70000DD
:10224000001002406C00002000700040FFFFEEFE16
:102250000C809F010020BBE70F4810B50B460168BA
:102260000E480140080CD870C1F304245C7001F0E2
:102270003F049C70C1F34231197052B902F0A9FABF
:10228000D870587802F0A5FA5870987802F0A1FA40
:102290009870002010BD0000042800403FFFFF00A0
:1022A000144810B500680B464860124808300068B2
:1022B000C0F30E0088600F48083801680E480140DE
:1022C000C1F305401870C1F306245C7001F07F046F
:1022D0009C70890DD97052B902F07BFA1870587849
:1022E00002F077FA5870987802F073FA987000202C
:1022F00010BD0000082800407F7F7F0070B50400FB
:102300004FF001003ED094F8250028B9002084F851
:102310002400204600F03CF8022084F825001A4EE4
:10232000CA20306053203060204602F067FA10BBAC
:10233000154D0C3D286815490840286028686168DB
:10234000A269084321691143084328602189E06894
:1023500040EA01400C4914390860204602F074FA42
:1023600048B9D4E90721114362692B6823F060431F
:102370001A4311432960FF213160002802D1012155
:1023800084F8251070BD000024280040BFFF8FFB9B
:1023900000680549884205D1044850F8901F41F46F
:1023A000004101607047000000280040001002401A
:1023B0002DE9F041044690F824000B4601281AD07C
:1023C000012684F82460022084F82500B2B19878B0
:1023D000D97840EA014558781978000240EA41303E
:1023E00005431B4FCA20386053203860204602F056
:1023F00005FAD8B122E00220BDE8F0815878C10684
:1024000003D500F0EF000A305870D87802F0EAF9EE
:102410000504587802F0E6F945EA0025987802F0BC
:10242000E1F90543187845EA4035DAE709480540FF
:10243000074820380560204602F006FAFF2139607F
:1024400008B984F82560002184F82410D4E700003E
:10245000242800403FFFFF002DE9F047054690F893
:10246000240017460C46012814D04FF0010985F8C6
:102470002490022085F82500DFF8A480CA21C8F83E
:1024800000105321C8F80010284602F0B7F90026C2
:1024900018B127E00220BDE8F087214B0C3B1868FB
:1024A0004FEA40601FB3002800DBE670A078217877
:1024B000E27840EA01406178090241EA825108432A
:1024C00018490840164924390860186820F480200B
:1024D0001860D4E9030108431968084318602846C6
:1024E00002F0B2F9FF22C8F80020A0B115E00028E0
:1024F00000DBE670207802F075F90704607802F0DE
:1025000071F947EA0027A07802F06CF90743E078F8
:1025100047EA8050D4E785F8259085F82460BAE72B
:10252000242800407F7F7F0070B50B4D286860F045
:10253000A0002860FFF7FCF804464FF47A7606E026
:10254000FFF7F6F8001BB04201D9032070BD2868E0
:102550008006F5D5002070BD0C28004010B5401E47
:10256000B0F1807F01D3012010BD4FF0E024606105
:102570000F21601703F0CCFA0020A0610720206132
:10258000002010BD7047704770470000F0B590F80C
:102590003C20012A4AD0012280F83C20CA688B687E
:1025A00022F440721A434B6822F480621A430B688B
:1025B00022F400621A430B6922F480521A434B69D9
:1025C00022F400521A430B6B22F480421A430B8B05
:1025D00022F4702242EA0342154C03680026154D8E
:1025E000A34201D0AB4203D1CF6922F080523A43DB
:1025F000A34201D0AB4214D10F8D22F4700242EA03
:1026000007520F6A22F080723A434F6A22F000723A
:102610003A43A34201D0AB4203D1C96A22F000522F
:102620000A435A6480F83C600020F0BD0220F0BDEF
:10263000002C014000340140704770477047000093
:10264000F0B590F83C20012A3AD0012580F83C50A2
:10265000022280F83D2003685A689C68194E1A4F80
:10266000B34201D0BB4204D122F4700C4A6842EA62
:102670000C02DFF858C002EA0C02D1F800C04CEAA4
:10268000020CC3F804C00268B2420DD0B2F1804F10
:102690000AD00F4B9A4207D00E4B9A4204D0BA424E
:1026A00002D00D4B9A4204D1896824F0800319436B
:1026B000916080F83D50002180F83C100846F0BD44
:1026C0000220F0BD002C0140003401408FFFFFFDCF
:1026D000000400400008004000400140704710B571
:1026E000040003D094F83D0010B107E0012010BDB4
:1026F000002084F83C00204600F022F8022084F8F4
:102700003D00211D206802F0A1F9012084F8480055
:1027100084F83E0084F83F0084F8400084F84100CB
:1027200084F8420084F8430084F8440084F84500AB
:1027300084F8460084F8470084F83D00002010BD6E
:1027400008B50C4A01680C48914207D1016E41F46A
:1027500000310166006E00F4003009E0074A914242
:1027600007D1016E41F480210166006E00F48020E3
:10277000009008BD004401400010024000480140A4
:102780002DE9F04706462DED028B01273C48002538
:10279000DFF8F0809FED3C8A3C4C4FF00209864206
:1027A00030D1A2790068B90722B1012A09D0022AE2
:1027B00010D023E04562086A40F002000862A77169
:1027C0001CE0406AA062086A20F00200086284F8F7
:1027D000069013E0406AB8FBF0F1C4E90B0194EDF8
:1027E0000A0AB8EE400A60EE080A00EE100AB8EED7
:1027F000400A80EE801A84ED0D1AA5710021204850
:1028000000F062F92248864236D1E279214922B1AC
:10281000012A0AD0022A12D026E000684562086820
:1028200040F002000860E7711EE00068406AA063A3
:10283000086820F00200086084F8079014E000683F
:10284000406AB8FBF0F1C4E90F0194ED0E0AB8EE4E
:10285000400A60EE080A00EE100AB8EE400A80EE68
:10286000801A84ED111AE5710021BDEC028B084835
:10287000BDE8F04700F028B9BDEC028BBDE8F08759
:102880004002002040420F000000C8420800002023
:102890008C020020200400402DE9F041054690F80C
:1028A0003C000C46012836D0012085F83C008AB354
:1028B000042A42D02868082A51D0D4E90023E168CC
:1028C000066A26F480560662C669076A26F44076D0
:1028D00046EA03234FF6FF7606EA013123F47043FC
:1028E00019434FF4204627F4204306EA02321A43E4
:1028F000C16102622868C16921F44061C161286830
:10290000C169A26841EA0221C161002085F83C004A
:10291000BDE8F08101E00220FAE7D4E90012E368A3
:10292000286802F08FFA2868816921F00C01816122
:1029300028688169A26811430FE0D4E90012E368B6
:10294000286802F0B5FA2868816921F44061816144
:1029500028688169A26841EA02218161D5E7D4E94A
:102960000027267B016A21F480710162C169036A34
:1029700021F00301394321F0F00731074FF42066BD
:1029800047EA116123F4206306EA02221A43C16177
:1029900002622868C16921F00C01C1612868C1691F
:1029A000A2681143B0E710B5040003D094F83D00CD
:1029B00010B107E0012010BD002084F83C00204643
:1029C00000F022F8022084F83D00211D206802F06A
:1029D0003DF8012084F8480084F83E0084F83F0068
:1029E00084F8400084F8410084F8420084F84300F1
:1029F00084F8440084F8450084F8460084F84700D1
:102A000084F83D00002010BD10B586B004461421A6
:102A10006846FDF735FC2368002128480222B3F1FF
:102A2000804F27D0264CA34222D1836D43F002036E
:102A30008365836D03F002030593C36C43F00203C7
:102A4000C364C06C00F00200059010200090CDE936
:102A50000121CDE9031269461A48FEF77BFD0022E9
:102A600011461D20FEF7CEFE5FF01D00FEF7BCFEF6
:102A700006B010BD836D43F001038365836D03F0E1
:102A800001030593C36C43F00103C364C06C00F001
:102A9000010005904FF400400090CDE90121012094
:102AA000CDE9031069464FF09040FEF753FD002238
:102AB00011461C20FEF7A6FE1C20D7E7001002409E
:102AC000000400400004004810B5044679B1042910
:102AD00012D0082915D00C2918D0102919D094F833
:102AE000430000BF94F84720012817D114E094F860
:102AF0003E0094F84420F7E794F83F0094F845200E
:102B0000F2E794F8400094F84620EDE794F841008D
:102B1000E8E794F84200E5E7012A01D0012010BD62
:102B2000022071B1042915D008291CD00C2936D0F7
:102B3000102937D084F8430084F847000C291BD1B2
:102B400033E084F83E0084F844002068C26842F014
:102B5000020210E084F83F0084F845002068C26853
:102B600042F0040207E084F8400084F84600206840
:102B7000C26842F00802C2600122206801F0BEFF74
:102B8000206881680B4A1140062906D0B1F5803FC4
:102B900003D0016841F001010160002010BD84F8FC
:102BA0004100C9E784F84200C6E72068C26842F0E5
:102BB0001002E0E70700010070B5044600680169F3
:102BC0004FF00005C943890715D4C168C943890777
:102BD00011D4E91E016101202077206880698007F7
:102BE000204602D0FFF7CCFD04E000F01BF92046A0
:102BF00000F0DAF9257720680169C943490717D43D
:102C0000C168C943490713D46FF004010161022070
:102C100020772068806910F4407F204602D0FFF7BB
:102C2000AFFD04E000F0FEF8204600F0BDF9257786
:102C300020680169C943090716D4C168C943090757
:102C400012D46FF008010161042020772068C06968
:102C50008007204602D0FFF793FD04E000F0E2F881
:102C6000204600F0A1F9257720680169C943C9060B
:102C700017D4C168C943C90613D46FF010010161AC
:102C8000082020772068C06910F4407F204602D0D9
:102C9000FFF776FD04E000F0C5F8204600F084F967
:102CA000257720680169C943C90708D1C168C943AC
:102CB000C90704D1891E0161204600F0E1F92068AE
:102CC0000169C943090609D4C168C943090605D485
:102CD0006FF0800101612046FFF755FC2068016913
:102CE000C943C90509D4C168C943090605D46FF4AD
:102CF000807101612046FFF745FC20680169C943E6
:102D0000490609D4C168C943490605D46FF040019A
:102D10000161204600F0B5F920680169C9438906C0
:102D200009D4C168C943890605D46FF02001016147
:102D30002046FFF729FC20680169C943C90209D46C
:102D4000C168C943C90205D46FF4801101612046EE
:102D5000FFF773FC20680169C943890209D4C1687F
:102D6000C943890205D46FF4001101612046FFF7C1
:102D700063FC20680169C943490209D4C168C94399
:102D8000490205D46FF4800101612046FFF756FC2B
:102D900020680169C94309020BD4C168C94309020B
:102DA00007D46FF4000101612046BDE87040FFF7D1
:102DB00095BC70BD70B586B0044614216846FDF719
:102DC0005FFA154E256800221449022401234FF0B2
:102DD0009040B54209D1CD6C45F00105CD64C96C78
:102DE00001F00101059140210BE00D4EB54210D1DB
:102DF000CD6C45F00105CD64C96C01F00101059170
:102E000080210091CDE901426946CDE90323FEF717
:102E1000A1FB06B070BD000000440140001002405C
:102E200000480140704770B5044690F83C000D46DC
:102E300001280BD0012084F83C000C2A45D007DC87
:102E40005AB1042A1BD0082A78D12CE0022070BD88
:102E5000102A4ED0142A71D15DE0206801F05CFE8A
:102E60002068816941F0080181612068816921F051
:102E700004018161206881692A69114311E0206899
:102E800001F098FE2068816941F400618161206849
:102E9000816921F480618161206881692A6941EA40
:102EA000022181614AE0206801F0CCFE2068C169FE
:102EB00041F00801C1612068C16921F00401C161CC
:102EC0002068C1692A69114311E0206801F002FFFE
:102ED0002068C16941F40061C1612068C16921F4C1
:102EE0008061C1612068C1692A6941EA0221C1612A
:102EF00024E0206801F036FF2068016D41F00801F0
:102F000001652068016D21F0040101652068016DF3
:102F10002A69114311E0206801F05CFF2068016D0F
:102F200041F4006101652068016D21F48061016553
:102F30002068016D2A6941EA02210165002084F8B8
:102F40003C0070BD10B5040003D094F83D0010B1F2
:102F500007E0012010BD002084F83C00204600F06E
:102F600022F8022084F83D00211D206801F06EFD4A
:102F7000012084F8480084F83E0084F83F0084F87B
:102F8000400084F8410084F8420084F8430084F84B
:102F9000440084F8450084F8460084F8470084F82B
:102FA0003D00002010BD70477047000010B504467A
:102FB000022269B1042912D0082917D00C291CD08B
:102FC000102921D094F84300012824D0012010BDFD
:102FD00094F83E000128F9D184F83E201DE094F8D1
:102FE0003F000128F2D184F83F2016E094F8400019
:102FF0000128EBD184F840200FE094F8410001282B
:10300000E4D184F8412008E094F842000128DDD1A1
:1030100084F8422001E084F843200122206801F076
:103020006DFD1149206888420BD01049884208D0B4
:103030000F49884205D00F49884202D00E49884284
:1030400003D1416C41F400414164206881680B4A1E
:103050001140062906D0B1F5803F03D0016841F048
:1030600001010160002010BD002C0140003401402E
:1030700000400140004401400048014007000100B9
:103080007047704790F87C10012918D0012180F812
:103090007C102421C0F8801050F8601B0A680B686F
:1030A00023F001030B6022F000510022426050F82F
:1030B000603C1960202101620277104670470220AF
:1030C0007047704770B5044690F87C0001281DD009
:1030D000012084F87C002420C4F880002068056862
:1030E000026822F0010202602068826822F06062B9
:1030F0000A438260204601F0F7FE20680560202028
:10310000C4F88000002084F87C0070BD022070BDEF
:1031100070B5044690F87C0001281DD0012084F889
:103120007C002420C4F8800020680568026822F032
:10313000010202602068826822F060420A438260D5
:10314000204601F0D1FE206805602020C4F88000F0
:10315000002084F87C0070BD022070BD704770476D
:10316000704700002DE9F04103680446D8691A68E9
:10317000996810F00F0F4FF0000569D05E4E02F411
:1031800090770E4037437DD0C70709D0D70507D5C4
:1031900001271F62D4F8883043F00103C4F8883057
:1031A00083070AD5CB0708D0276802233B62D4F8EF
:1031B000883043F00403C4F8883043070AD5CB07AE
:1031C00008D0276804233B62D4F8883043F0020318
:1031D000C4F8883003070CD502F02003334308D02D
:1031E000266808233362D4F8883043F00803C4F813
:1031F0008830D4F88830002B3CD0800609D502F006
:10320000200001F08051084303D0E16E09B120464F
:103210008847D4F8880021688968490601D40007E6
:103220002AD5204601F030FF2068816849061ED566
:10323000816821F040018160A06FC0B12F49816396
:10324000A06FFEF738F9002814D0A06F816B0AE058
:10325000860617D502F0200601F080573E4311D0B4
:10326000E16E24E02046BDE8F04108470AE0204630
:10327000FFF776FFBDE8F0812046FFF771FFC4F845
:103280008850F7E7C60209D54E0207D54FF48010E3
:1032900018622046BDE8F041FFF761BF060609D578
:1032A00002F0800601F400010E4303D0216F0029D3
:1032B000D8D1DFE741060DD551060BD51968204658
:1032C00021F0400119602021C4F88010256700F02A
:1032D00087F9CFE7010206D5510004D52046BDE8A5
:1032E000F041FFF73BBFC001C4D5002AC2DA204637
:1032F000BDE8F041FFF7E5BE010000107350000883
:1033000010B5040003D0D4F8800010B107E001200C
:1033100010BD002084F87C00204600F027F824200F
:10332000C4F880002068016821F001010160204696
:1033300001F0BCFF0128EBD0A06A10B1204601F0DB
:1033400005FE2068416821F4904141602068816851
:1033500021F02A0181602068016841F001010160CB
:103360002046BDE8104001F055BE000010B586B003
:10337000044614216846FCF783FF174920688842F9
:1033800027D11648016E41F480410166016E01F4B7
:1033900080410591C16C41F00101C164C06C694676
:1033A00000F0010005904FF4C060009002200190F1
:1033B000002002900390072004904FF09040FEF709
:1033C000C9F8002211462520FEF71CFA2520FEF739
:1033D0000BFA06B010BD000000380140001002409A
:1033E00070B5D0F88430202B6DD1B9B1B2B190F85E
:1033F0007C30012B67D0012380F87C308165A0F8F8
:103400005C20A0F85E200021C16683684FF48056DE
:10341000FF24B34207D1036913B11CE0012070BD42
:1034200040F2FF131DE07F259BB1B3F1805F15D003
:10343000A0F86010C0F888102223C0F88430036818
:103440009C6844F001049C60436EB3F1005F0ED0B1
:1034500027E0036943B9A0F86040EBE703691BB1BB
:103460003F23A0F86030E5E7A0F86050E2E7B0F84D
:103470006830934215D88268B24201D1026972B1B4
:10348000124AC26680F87C1001680A6842F48072B1
:103490000A600068816841F0805181600FE00C4A49
:1034A000EFE78268B24201D1026952B1094AC266AD
:1034B00080F87C100068016841F490710160002080
:1034C00070BD054AF3E7022070BD00000D520008F0
:1034D0000D510008AD510008AD5000080D4810B561
:1034E00001680D48416200F112010C4B0A784179E4
:1034F0005A54491C41710A2A04D10021417158785B
:1035000000F088FC04490122BDE810401231044853
:10351000FFF766BF74000020080000209400002020
:10352000B40100202DE9F8430446D0F880001F467E
:1035300016460D46202851D1DDB1D6B194F87C0055
:1035400001284BD0012084F87C004FF00008C4F81B
:1035500088802120C4F880001834FEF7E9F8A68797
:103560008146E68754F8100C183CB0F5805F03D014
:1035700004E00120BDE8F883206910B12E46002543
:1035800010E000260EE08021204602F062FAB8B971
:10359000C6B116F8010B21688862B4F85600401EC7
:1035A000A4F85600B4F856004B464FF000020097BE
:1035B0000028E8D14FF04001204602F04AFA30B12D
:1035C0000320D7E735F8020BC0F30800E3E720201B
:1035D000C4F8800084F87C800020CBE70220C9E793
:1035E0007047FEE700B585B014216846FCF748FE39
:1035F000C0200090012001900290022003906946B3
:103600000248FDF7A7FF05B000BD00000004004818
:1036100070B50824002501F085F913E06806050E51
:10362000002001F067F9142002F0F0FE142002F0EF
:10363000EDFE012001F05EF9142002F0E7FE01F03A
:1036400065F90543641EE4B2E8D2002001F052F9A6
:10365000142002F0DBFE01F087F9284670BD70B53A
:103660000446082516E001F045F9142002F0CEFECC
:1036700004F0800001F06CF9142002F0C7FE60062F
:10368000040E142002F0C2FE012001F033F91420D0
:1036900002F0BCFE6D1EEDB24FF00000E3D201F06F
:1036A00029F9BDE87040142002F0B0BE10B5012029
:1036B00001F04EF9142002F0A9FE142002F0A6FE3B
:1036C000012001F017F9142002F0A0FE002001F003
:1036D00011F9BDE81040142002F098BE10B5012089
:1036E00001F036F9142002F091FE012001F002F9F8
:1036F000142002F08BFE002001F02AF9142002F0C1
:1037000085FE002001F0F6F8BDE81040142002F01C
:103710007DBE10B5002001F0EDF8142002F076FE19
:10372000002001F015F9142002F070FE012001F0D4
:10373000E1F8142002F06AFE012001F009F9BDE869
:103740001040142002F062BE10B5052401F0EAF822
:10375000142002F05BFE012001F0CCF8142002F0EE
:1037600055FE05E0641EA4B2142002F04FFE6CB1B9
:1037700001F0CCF80028F5D101F0F6F8002001F0B6
:10378000B9F8142002F042FE002010BD01F0ECF860
:10379000FFF7BFFF012010BD70B51B4801681B4D2E
:1037A0002A6A891A0A292DD30068286200F032F8A3
:1037B000174C2078C0070BD0287A01091CD00121B2
:1037C000B1EB101F04D1002028721F2000F078F800
:1037D0002078800702D5022000F01CFB20784007EB
:1037E00002D5042000F016FB207800070AD5BDE8BA
:1037F0007040082000F00EBB1F2000F061F8102080
:103800002872E5E770BD0000740000200800002069
:103810006400002070B5114C01212046FDF77EFFA9
:10382000054602212046FDF779FF45EA40050421BF
:103830002046FDF773FF45EA800401214FF09040D8
:10384000FDF76CFF064944EAC00040F0F0004A78FA
:10385000C04320EA02020A70487070BD00040048AC
:103860006400002000B585B014216846FCF708FD0F
:103870004FF6FF70009000200321CDE90201019076
:1038800069460248FDF766FE05B000BD0008004825
:1038900000B585B014216846FCF7F2FC4FF6FF70C6
:1038A00000900120019003200390002002906946BF
:1038B0000248FDF74FFE05B000BD000000080048BB
:1038C00070B5002406462146204600F0FFF900F0BE
:1038D0003DFA4FF49635304600F00CFA641CAC42C9
:1038E000F9D370BD30B587B014216846FCF7C8FC29
:1038F0001E48C16C41F00401C164C16C01F00401B7
:103900000591C16C41F00101C164C16C01F001017C
:103910000591C16C41F00201C164C06C012500F049
:10392000020005904FF44870CDE90005002403948F
:10393000694602940E48FDF70DFE2802039400909C
:10394000CDE901544FF0904469462046FDF702FE50
:10395000FFF79EFFA06940F48070A0610448183012
:10396000016841F40871016007B030BD00100240E9
:1039700000040048203AD2B2034B02EB420203EBB0
:10398000021200F019B8000018650008F0B50E46E4
:103990000746002540F23F1407E021463846FFF76E
:1039A000E9FF103C6D1CA4B2761C3278002A01D0CD
:1039B000142DF2D3F0BD00002DE9F04791468A4660
:1039C0000026044600F082F9DFF84080012700BF9E
:1039D00000F0BCF95FF0000539F8160007FA05F1B0
:1039E0000842404601D1408800E0008800F082F99A
:1039F0006D1C102DF0D3641CE4B25146204600F03B
:103A000065F9761C182EE3D3BDE8F087000000208E
:103A100010B5FFF767FF002000F010F9084CA080F8
:103A2000A088A0F50241303906D000F0D1FD002079
:103A300000F004F9A08010BD00F041FDF7E70000A0
:103A40000000002030B54E4885B001684D4CA26C96
:103A5000891AC8297DD30068A064207A01095AD048
:103A60000121B1EB101F74D147A1684602F03CF868
:103A70001F20FFF725FF69461820FFF787FF6069C1
:103A8000FCF709FC41EC100B43A153EC102B6846EA
:103A900002F02AF8207A4FF6E075102868D01F202F
:103AA000FFF70EFF69463020FFF770FFA069FCF7B3
:103AB000F2FB41EC100B3EA153EC102B684602F0D8
:103AC00013F8207A112855D05FF01F00FFF7F8FE99
:103AD00069466020FFF75AFF22783AA1684602F053
:103AE00003F8207A122847D05FF01F00FFF7E8FEA6
:103AF00069469020FFF74AFF627836A1684601F0D8
:103B0000F3FF207A132839D05FF01F00FFF7D8FEAB
:103B10006946C02028E033A1684601F0E5FF694608
:103B20001820FFF733FFE06CFCF7B5FB41EC100BFE
:103B30002FA153EC102B684601F0D6FF69464820B0
:103B4000FFF724FF207A38B1012807D002280DD1D1
:103B500000E00BE02AA102E02EA100E032A16846BD
:103B600001F0C2FF69467820FFF710FF05B030BDB5
:103B7000284695E72846A9E72846B7E72846C5E737
:103B80007400002008000020202020202020205346
:103B9000657474696E6700002020204D61785F565F
:103BA0006F6C743A25332E316620202020200000CF
:103BB0002020204D696E5F566F6C743A25332E318C
:103BC0006600000020202055707065723A4C442534
:103BD000640000002020204C6F7765723A4C442529
:103BE00064000000202020202020204D61696E000C
:103BF0002020202020566F6C743A25342E32660027
:103C000020202020205374617475733A4C6F7765BF
:103C10007200000020202020205374617475733AD4
:103C20004E6F726D616C0000202020202053746163
:103C30007475733A557070657200000070B51D4957
:103C40000A6842F400720A600A6842F480720A60EC
:103C5000184C103C226842F020022260164A106084
:103C6000086840F02000086000BF00BF00BF206867
:103C700040F020002060206840F480702060FFF752
:103C8000F1FD4FF09041886A40F48070886200BF77
:103C900000BF00BF0848001F006885B2886940F473
:103CA00080708861FFF7F4FD206840F400702060A8
:103CB000284670BD280400481408004801B5BDF826
:103CC00000000149488008BD0000002010B50C46E6
:103CD0000146202000F068F82146BDE81040212070
:103CE00000F062B801B5BDF800000149088008BDC8
:103CF00000000020134A116841F40071116011495D
:103D000010390B6843F480730B600B6843F0200399
:103D10000B600D4B1860106840F02000106000BF71
:103D200000BF00BF086840F020000860086840F449
:103D30008070086000BF00BF00BF086840F40070DA
:103D400008607047280400481408004814490868AF
:103D500040F400700860086840F480700860104803
:103D60001038026842F0200202600E4B22221A60D4
:103D70000A6842F020020A6000BF00BF00BF01686D
:103D800041F020010160016841F48071016000BFD1
:103D900000BF00BF016841F400710160704700007E
:103DA0002804004814080048184B10B51A6842F45B
:103DB00000721A601A6842F480721A60134A103A4C
:103DC000146844F020041460114C2060186840F01E
:103DD0002000186000BF00BF00BF106840F0200046
:103DE0001060106840F4807010602160186840F026
:103DF0002000186000BF00BF00BF106840F0200026
:103E00001060106840F48070106010BD28040048F5
:103E10001408004870B5124D044601224FF47F414A
:103E20002846FDF780FC0F4E012204213046FDF7A5
:103E30007AFC002204213046FDF775FC21020022A5
:103E40002846FDF770FC012204213046FDF76BFC8B
:103E50003046BDE8704000220421FDF764BC00003C
:103E600000080048000C004800EB8100006E00F0E4
:103E7000F84070478068C0F3C00070478068C0F3A6
:103E8000800070478068C0F380007047042303EA15
:103E9000D15310B518444369C1F3045107248C4031
:103EA000A3438A401343436110BD00EB8100016EC0
:103EB00021F0004111430166704710B5FFF70EFC79
:103EC0005F20FFF7CCFBFFF73FFCFFF7A1FB0446A9
:103ED000FFF7ECFBFFF71DFC204610BD10B50446B4
:103EE000FFF7FCFB5E20FFF7BAFBFFF72DFC204637
:103EF000FFF7B5FBFFF728FCBDE81040FFF709BC52
:103F000030B58BB0002408940994202168460A94A7
:103F1000FCF7B6F922484FF0A0410425C0E900148F
:103F2000846085610121C460C0E90441047744775D
:103F30000221016280F82440C462046380F83840A2
:103F4000C46380F84040FCF793FF08B1FCF710FD14
:103F500008A913480894FCF70DFD08B1FCF708FD0B
:103F60001048009006200190072002907F200594C1
:103F7000CDE9030569460A48FCF766FD08B1FCF780
:103F8000F7FC094800900C20019069460448FCF7B2
:103F90005BFD002801D0FCF7EBFC0BB030BD00004E
:103FA000A00000202000F0140008302E30B589B0A9
:103FB00020216846FCF764F9184817490024C0E935
:103FC00000148460C46004250461C0E905450477D9
:103FD00044770121016280F82440C462046380F8C0
:103FE0003840C46380F84040FCF742FF08B1FCF75A
:103FF000BFFC0B4800900620CDE901047F2005940A
:10400000CDE9030569460548FCF71EFD002801D0EF
:10401000FCF7AEFC09B030BD000100500C010020DF
:104020000080F03E10B58CB030216846FCF728F9CE
:104030001649154808600846FDF7BAF908B1FCF7BB
:1040400097FC0220009000208DF804008DF80500F8
:104050000290039001240490CDE9050402460790E4
:1040600069460A48FDF7CCF808B1FCF781FC10223C
:10407000694606480694FDF7C3F8002801D0FCF70E
:1040800077FC0CB010BD000000080050A00100201B
:104090002DE9F04F87B014216846FCF7F1F840484D
:1040A000C16C41F00401C164C16C01F004010591CF
:1040B000C16C41F02001C164C16C01F02001059187
:1040C000C16C41F00101C164C16C01F001010591B5
:1040D000C16C41F00201C164C16C01F002010591A3
:1040E000C16C41F00801C164C06CDFF8B88000F019
:1040F00008004FF6FF740590002221464046FDF768
:1041000012FB4FF480764FF090490022314648462A
:10411000FDF709FBDFF890A0002204215046FDF7CF
:1041200002FBDFF888B04FF4487700223946584642
:10413000FDF7F9FA0125CDE900450024029469460E
:1041400040460394FDF706FACDE900546946484617
:104150000294FDF7FFF90720CDE9000469465846AF
:104160000294FDF7F7F90096CDE9015469464846F7
:104170000394FDF7EFF904200090CDE9015469465E
:1041800050460394FDF7E6F90097CDE901546946DE
:1041900058460394FDF7DEF907B0BDE8F08F000044
:1041A0000010024000080048000C004800040048CD
:1041B00010B586B014216846FCF762F81F48002449
:1041C0001D490594C0E900141F21816040F2E731C8
:1041D000C0E9031444610462FEF790F808B1FCF7EB
:1041E000C7FB23208DF8000059208DF801005520D1
:1041F0008DF8020001940394012269460F4804944B
:10420000FEF72AF908B1FCF7B3FB01208DF8140082
:1042100002208DF8150028208DF8160022208DF838
:104220001700012205A90548FEF7C2F8002801D0B1
:10423000FCF79EFB06B010BD00280040780100206E
:1042400010B594B01C210DA8FCF71AF8342168466B
:10425000FCF716F81F481E49002401604F21C0E9F1
:1042600001146321C0E9031444618461FEF737FA45
:1042700008B1FCF77DFB1748FEF764FE08B1FCF7B8
:1042800077FB60200D903220CDE90E04109411943C
:10429000129400220DA90F481394FEF7C4FD08B133
:1042A000FCF766FB00944FF40050CDE90440019404
:1042B000029403940694694606480C94FEF766F946
:1042C00008B1FCF755FB0348FEF774FD14B010BDB0
:1042D00000440140D802002010B594B01C210DA864
:1042E000FBF7CEFF34216846FBF7CAFF20481F4981
:1042F000002401604F21C0E9011440F2E731C0E918
:10430000031444618461FEF7EAF908B1FCF730FB5D
:104310001748FEF717FE08B1FCF72AFB60200D9046
:10432000C820CDE90E0410941194129400220DA916
:104330000F481394FEF777FD08B1FCF719FB0094C2
:104340004FF40050CDE90440019402940394069484
:10435000694607480C94FEF719F908B1FCF708FB09
:104360000348FEF727FD14B010BD000000480140CF
:104370002403002010B588B0002418480594069442
:1043800004940094019402944FF0804103940160DE
:104390004F21C0E90114611EC0E903148461FEF7D6
:1043A00002FB08B1FCF7E4FA049404A90B48069454
:1043B000FEF746F908B1FCF7DBFA0120CDE9004031
:1043C00002940022694605480394FEF765FA002826
:1043D00001D0FCF7CDFA08B010BD0000400200206B
:1043E00010B588B0002419480594069404940094EC
:1043F000019402941449039401604F21C0E901140F
:104400004FF6FF71C0E903148461FEF7CCFA08B1DE
:10441000FCF7AEFA049404A90C480694FEF710F9D0
:1044200008B1FCF7A5FA0120CDE900400294002272
:10443000694606480394FEF72FFA002801D0FCF7DE
:1044400097FA08B010BD0000000400408C02002064
:10445000184810B5164901604FF4E1314160002160
:1044600081600C22C160C0E904128161C1610162F6
:1044700041628162FEF744FF08B1FCF779FA00213E
:104480000C48FEF745FE08B1FCF772FA0021094816
:10449000FEF718FE08B1FCF76BFA0648FEF7F2FDCE
:1044A000002803D0BDE81040FCF762BA10BD000040
:1044B00000380140B4010020FEE77047704730B576
:1044C00001210020FFF770FC4FF47A70FCF709FA25
:1044D00000210120FFF768FC41F290711020FFF7E6
:1044E00063FC4FF41C516020FFF75EFC012161204A
:1044F000FFF75AFC02214620FFF756FC48F2100154
:104500001320FFF751FC48F2FE011220FFF74CFC8C
:104510004FF4A0610220FFF747FC41F23001032075
:10452000FFF742FC40F2033421463020FFF73CFC09
:1045300021463120FFF738FC21463220FFF734FCBA
:10454000E51E29463320FFF72FFC03213420FFF717
:104550002BFC21463520FFF727FC14213620FFF7DE
:1045600023FC21463720FFF71FFC21463820FFF7A8
:104570001BFC21463920FFF717FC29463A20FFF79C
:1045800013FC03213B20FFF70FFC21463C20FFF7E3
:104590000BFC4FF4A0513D20FFF706FC4FF40071D7
:1045A0009220FFF701FC21469320FFF7FDFB40F628
:1045B0000D019020FFF7F8FB41F218010320FFF7EF
:1045C000F3FBBDE8304040F273110720FFF7ECBB6E
:1045D00010B543F20801E320FFF7E6FB1221E720C4
:1045E000FFF7E2FB41F23121EF20FFF7DDFB002175
:1045F0000120FFF7D9FB4FF4E0610220FFF7D4FB65
:1046000041F230010320FFF7CFFB00210420FFF728
:10461000CBFB40F207210820FFF7C6FB0021092051
:10462000FFF7C2FB00210A20FFF7BEFB00210C2090
:10463000FFF7BAFB00210D20FFF7B6FB00210F208A
:10464000FFF7B2FB00211020FFF7AEFB072111207E
:10465000FFF7AAFB00211220FFF7A6FB0021132081
:10466000FFF7A2FBC820FCF763FF41F29061102026
:10467000FFF79AFB40F227211120FFF795FB32202C
:10468000FCF756FF1D211220FFF78EFB3220FCF7AE
:104690004FFF4FF400611320FFF786FB1421292000
:1046A000FFF782FB0B212B20FFF77EFB3220FCF76C
:1046B0003FFF00212020FFF777FB00212120FFF79B
:1046C00073FB07213020FFF76FFB40F207713120A9
:1046D000FFF76AFB06213220FFF766FB40F2047108
:1046E0003520FFF761FB41F604713620FFF75CFBD4
:1046F00004213720FFF758FB00213820FFF754FB37
:1047000040F206713920FFF74FFB40F201713C2067
:10471000FFF74AFB0F213D20FFF746FB0021502009
:10472000FFF742FBEF215120FFF73EFB0021522013
:10473000FFF73AFB40F23F115320FFF735FB4FF4F0
:104740001C516020FFF730FB01216120FFF72CFB9B
:1047500000216A20FFF728FB00218020FFF724FBBF
:1047600000218120FFF720FB00218220FFF71CFBA6
:1047700000218320FFF718FB00218420FFF714FBA2
:1047800000218520FFF710FB10219020FFF70CFB84
:1047900000219220FFF708FB03219320FFF704FB81
:1047A0004FF488719520FFF7FFFA00219720FFF75B
:1047B000FBFA00219820FFF7F7FA41F218010320D5
:1047C000FFF7F2FABDE8104040F273110720FFF73F
:1047D000EBBA010901EB810100F00F0000EB410091
:1047E000C0B270470022014602E00A39C9B2521C29
:1047F0000A29FAD2100741EA106070472DE9F04704
:10480000104C814600252068400618D4206840F0EE
:1048100080002060FCF78CFF06464FF47A7803276F
:1048200008E000BFFCF784FF801B404502D9032548
:1048300089F825702068400601D4032DF2D128465E
:10484000BDE8F0870C2800402DE9F04106461348EA
:104850000025016821F080010160104C0C342068B3
:104860004FF00307800607D43046FDF75DFE90B198
:1048700086F8257003250EE0206820F020002060D7
:104880003046FDF751FE10B186F8257003252068EB
:1048900040F0200020602846BDE8F0810C28004050
:1048A00010B5002205490648FDF7FAFCBDE81040A6
:1048B000002204490248FDF7CFBC00008000002020
:1048C000780100206000002007490A680748436A11
:1048D000D21A322A07D309684162002141710A21A4
:1048E0000348FBF7CDBC704774000020080000208F
:1048F0009400002008B1044801E00348103001682A
:1049000041F04001016070471804004810B5802153
:104910000348FCF703FF012800D0002010BD000071
:104920000004004800B585B014216846FBF7A8FCD8
:10493000802000900020019001200290022003902E
:1049400069460248FCF706FE05B000BD00040048B9
:1049500008B1044801E003481030016841F08001CB
:10496000016070471804004800B585B014216846FE
:10497000FBF786FC8020009011200190002002901F
:104980000220039069460248FCF7E4FD05B000BD33
:10499000000400487047FCF7D1BE000030B5A5B058
:1049A00038216846FBF76CFC14211FA8FBF768FC54
:1049B00044210EA8FBF764FC4FF400752846FCF771
:1049C00053FF0221C80103904020049000910791F9
:1049D00008911420CDE909100B910C9168460D91B6
:1049E000FDF734FA0F201F9000240320CDE92004A6
:1049F000014622941FA82394FDF7D8F805480E908D
:104A000040070F94CDE91D050EA8FCF78BFF25B0DC
:104A100030BD0000018008000548016841F47001C4
:104A2000016003494FF00060803908607047000062
:104A300088ED00E00148FEF7BFB80000400200200A
:104A40000148FEF7B9B800008C0200202DE9F043C0
:104A50000268234B234D244E244C4FF0804998424A
:104A600007D0484505D0A84203D0B04201D0A042AB
:104A700003D122F070074A683A431D4FDFF874C033
:104A8000DFF8748098420DD048450BD0A84209D079
:104A9000B04207D0A04205D0B84203D0604501D053
:104AA000404503D122F44075CA682A434D6922F07B
:104AB00080022A4302608A68C2620A68826298425F
:104AC00007D0A04205D0B84203D0604501D0404590
:104AD00001D10969016301214161BDE8F083000052
:104AE000002C014000040040000800400034014058
:104AF00000400140004401400048014010B501F071
:104B00001F030121046A99408C430462016A9A40A0
:104B10001143016210BD00002DE9F043026A22F04A
:104B200001020262056A436882691C4C25F0020595
:104B300022400C6822F0030214438A68194E2A436B
:104B4000174D194FDFF864C0DFF86490A84207D012
:104B5000B04205D0B84203D0604501D0484506D1E7
:104B600022F00808CA6842EA080222F00402A842B9
:104B700007D0B04205D0B84203D0604501D04845C7
:104B800005D14D6923F440731D438B692B4343606A
:104B90008461496841630262BDE8F0838FFFFEFFD4
:104BA000002C01400034014000400140004401401D
:104BB00000480140F0B5026A22F010020262056A64
:104BC00042688369194C1B4E23400C6823F44073E0
:104BD00043EA042425F020038D6843EA0513144DAD
:104BE000A84201D0B04206D1CF6823F0800343EA47
:104BF000071323F04003A8420AD0B04208D00E4D5C
:104C0000A84205D00D4DA84202D00D4DA84207D1B3
:104C10004D6922F4406242EA85028D6942EA8502CA
:104C200042608461496881630362F0BDFF8FFFFECB
:104C3000002C01400034014000400140004401408C
:104C400000480140F0B5026A22F480720262056AEF
:104C50004368C269194C1B4E22400C6822F00302C3
:104C6000144325F400728D6842EA0522144DA842CF
:104C700001D0B04206D1CF6822F4006242EA072296
:104C800022F48062A8420AD0B04208D00E4DA84259
:104C900005D00E4DA84202D00D4DA84207D14D6956
:104CA00023F4405343EA05138D6943EA0513436037
:104CB000C4614968C1630262F0BD00008FFFFEFF5E
:104CC000002C0140003401400040014000440140FC
:104CD00000480140F0B5026A22F480520262056A7F
:104CE0004268C369194C1B4E23400C6823F440737F
:104CF00043EA042425F400538D6843EA0533144D38
:104D0000A84201D0B04206D1CF6823F4004343EA61
:104D1000073323F48043A8420AD0B04208D00E4D96
:104D2000A84205D00D4DA84202D00D4DA84207D192
:104D30004D6922F4404242EA85128D6942EA8512A9
:104D40004260C461496801640362F0BDFF8FFFFEE9
:104D5000002C01400034014000400140004401406B
:104D60000048014030B5026A22F480320262046ACF
:104D70004268036D114D2B400D681D4324F4003330
:104D80000C8943EA04430E4CA0420BD00D4CA042C8
:104D900008D00D4CA04205D00C4CA04202D00C4CC7
:104DA000A04204D14C6922F4803242EA04224260DB
:104DB000056549688164036230BD00008FFFFEFF16
:104DC000002C0140003401400040014000440140FB
:104DD0000048014030B5026A22F480120262046A7F
:104DE0004268036D114D24F400142B400D6843EA12
:104DF00005230D8944EA05540D4DA8420BD00D4DF5
:104E0000A84208D00C4DA84205D00C4DA84202D0B3
:104E10000B4DA84204D14D6922F4802242EA85223A
:104E2000426003654968C164046230BDFF8FFFFEC4
:104E3000002C01400034014000400140004401408A
:104E40000048014070B5046A24F0010404628469DA
:104E5000056A124EB0420ED0B0F1804F0BD0104E0A
:104E6000B04208D00F4EB04205D00F4EB04202D033
:104E70000E4EB04203D124F00304144301E044F089
:104E800001041A0724F0F00444EA126225F00A0330
:104E900001F00A0119438261016270BD002C0140DA
:104EA0000004004000080040003401400040014080
:104EB00030B5046A24F0100404628469056A24F49D
:104EC000407444EA022222F470444FF6FF7202EA70
:104ED00003322243A02425F0A00304EA0111194360
:104EE0008261016230BD00003FB514A1D1E900210B
:104EF000CDE9002113A2D2E90012CDE90212416EE0
:104F0000B9B1026891689268C1F34261520F1DF80D
:104F10000240E50002ACA25CB5FBF2F2A0F86A2008
:104F20001DF80120615CD200B2FBF1F1A0F868101D
:104F30003FBD0121A0F86A10F8E70000010101035C
:104F400007010000080402040801010190F828107C
:104F5000C90706D001684A68C36A22F400321A43BE
:104F60004A6090F82810890706D501684A68036BE3
:104F700022F480321A434A6090F82810490706D577
:104F800001684A68436B22F480221A434A6090F811
:104F90002810090706D501684A68836B22F400428D
:104FA0001A434A6090F82810C90606D501688A6835
:104FB000C36B22F480521A438A6090F82810890645
:104FC00006D501688A68036C22F400521A438A608D
:104FD00090F82810490611D501684A68436C22F4FC
:104FE00080121A434A60416CB1F5801F06D10168F6
:104FF0004A68836C22F4C0021A434A6090F8281071
:10500000090606D501684A68C06C22F400220243F2
:105010004A607047F8B500260446C0F88860FCF77F
:1050200087FB0546206800686FF07E47000708D5BB
:105030002B4600224FF400112046009700F009FD96
:1050400060B92068006840070AD52B4600224FF45B
:1050500080012046009700F0FCFC08B10320F8BD59
:105060002020C4F88000C4F8840084F87C6000200C
:10507000F8BD10B5806A0021A0F85E10A0F85610A7
:10508000FEF76EF810BD000001680A6822F4907205
:105090000A6001688A68044B1A408A602021C0F8BF
:1050A00084100021C1667047FEFFFFEF10B5B0F815
:1050B0006020D0F884300168222B04D0886940F049
:1050C0000800886110BD496A836D11401980816DA7
:1050D000891C8165B0F85E10491EA0F85E10B0F81A
:1050E0005E100029EED101680A6822F490720A600D
:1050F00001688A6822F001028A602021C0F88410C9
:105100000021C166FEF7EAF910BD000070B5044643
:10511000B0F86060D0F88400222805D0206881694A
:1051200041F00801816170BDB4F8685023E0206847
:10513000406AA16D30400880A06D801CA065B4F865
:105140005E00401EA4F85E00B4F85E0088B92068D6
:10515000016821F48071016020688168114A114062
:1051600081602020C4F884000020E0662046FEF71D
:10517000B5F96D1EADB2002DD9D1B4F85E0000288E
:10518000D1D0B4F868108142CDD92068816821F06F
:10519000805181600448E0662068016841F0200188
:1051A000016070BDFEFFFFEFAD50000810B5B0F814
:1051B0006020D0F884300168222B04D0886940F048
:1051C0000800886110BD496A1140826D1170816DBF
:1051D000491C8165B0F85E10491EA0F85E10B0F859
:1051E0005E100029EED101680A6822F490720A600C
:1051F00001688A6822F001028A602021C0F88410C8
:105200000021C166FEF76AF910BD000070B50446C2
:10521000B0F86060D0F88400222805D02068816949
:1052200041F00801816170BDB4F8685023E0206846
:10523000406AA16D30400870A06D401CA065B4F8B4
:105240005E00401EA4F85E00B4F85E0088B92068D5
:10525000016821F48071016020688168114A114061
:1052600081602020C4F884000020E0662046FEF71C
:1052700035F96D1EADB2002DD9D1B4F85E0000280D
:10528000D1D0B4F868108142CDD92068816821F06E
:10529000805181600448E0662068016841F0200187
:1052A000016070BDFEFFFFEFAD5100082DE9F05F1A
:1052B0000446016880682369E5691843636900272B
:1052C0002B431843636EFA4A03430868F94D28409C
:1052D0001843086020684168E36821F4405119438D
:1052E00041602168A069914201D0236A18438B680C
:1052F000F14D2B4003438B602068C16A636A21F043
:105300000F011943C162ED4B2068ED4998420DD160
:10531000D1F8881011F0030106D001295AD00229D2
:1053200056D003293FD157E001253DE0E54B984297
:105330000BD1D1F8881011F00C0147D0042949D0C5
:10534000082945D00C292ED146E0DF4B98420BD1DD
:10535000D1F8881011F0300138D010293AD0202926
:1053600036D030291FD137E0D84B98420BD1D1F835
:10537000881011F0C00129D040292BD0802927D0D6
:10538000C02910D128E090420DD1D1F8881011F435
:1053900040611BD0B1F5806F1CD0B1F5006F17D004
:1053A000B1F5406F18D01025DFF824A34FF48076B4
:1053B0004FF000094FF4004B90426ED175B1022DB1
:1053C00029D0042D59D0082D68D176E00025EBE7CF
:1053D0000225E9E70425E7E70825E5E7FCF7DAFC1D
:1053E0004DE0012851D0022851D0032851D0042883
:1053F00051D0052853D0062853D0072853D0082869
:1054000053D0092853D00A2853D00B2853D03AE060
:10541000B1FBF0F06CE0606AA8B1012817D0022857
:1054200017D0032817D0042817D0052817D006282E
:1054300017D0072817D0082817D0092817D00A280E
:1054400017D00B2817D00120BAFBF0F050E0022053
:10545000FAE70420F8E70620F6E70820F4E70A2038
:10546000F2E70C20F0E71020EEE72020ECE74020E8
:10547000EAE78020E8E73046E6E7FCF7AFFC0146C4
:10548000606A0028ADD10120C2E70220C0E70420F5
:10549000BEE70620BCE70820BAE761E14AE00A203F
:1054A000B6E70C20B4E71020B2E72020B0E7402098
:1054B000AEE78020ACE73046AAE7606AA8B10128D1
:1054C00022D0022822D0032822D0042822D0052866
:1054D00022D0062822D0072822D0082822D0092846
:1054E00022D00A2822D00B2822D00120BBFBF0F0CA
:1054F000002820D06168884601EB4101814219D81B
:10550000B0EB083F16D817E00220EFE70420EDE7E4
:105510000620EBE70820E9E70A20E7E70C20E5E7AB
:105520001020E3E72020E1E74020DFE78020DDE7EF
:105530003046DBE7012739E27DB3022D61D0042D2F
:105540007DD0082DF6D1606AA8B1012878D0022854
:1055500077D0032876D0042875D0052874D0062883
:1055600073D0072872D0082871D0092870D00A2873
:105570006FD00B2800D0012632464D4600235846F6
:105580000021FAF745FE090241EA106102024FEAE2
:10559000580010186941424670E0FFE7FCF7FAFB3B
:1055A0000146606AA8B1012817D0022817D0032845
:1055B00017D0042817D0052817D0062817D0072899
:1055C00017D0082817D0092817D00A2817D00B2879
:1055D00000D0012632464D468CE00226FAE704262A
:1055E000F8E70626F6E70826F4E70A26F2E70C268F
:1055F000F0E71026EEE72026ECE74026EAE78026D3
:10560000E8E7606AA8B1012824D0022824D0032842
:1056100024D0042824D0052824D0062824D0072804
:1056200024D0082824D0092824D00A2824D00B28E4
:1056300000D0012632464D4600235046A0E726E022
:105640007AE07BE07CE07DE07EE07FE080E081E06E
:1056500082E083E00226EDE70426EBE70626E9E791
:105660000826E7E70A26E5E70C26E3E71026E1E748
:105670002026DFE74026DDE78026DBE70023FAF778
:10568000C7FD144AA0F54071914271D952E7FCF769
:10569000A5FB0146606A50B3012839D0022839D0F1
:1056A000032839D0042839D0052839D0062813E03A
:1056B00000800040F369FFCFFFF4FF110038014084
:1056C000001002400044004000480040004C0040F0
:1056D0000024F400FFFC0F0024D0072824D0082861
:1056E00024D0092824D00A2824D00B2800D0012651
:1056F0004D463246002308461946FAF789FD09024D
:10570000626841EA10610302500818186941B5E760
:105710000226EDE70426EBE70626E9E70826E7E799
:105720000A26E5E70C26E3E71026E1E72026DFE777
:105730004026DDE78026DBE702261DE704261BE77F
:10574000062619E7082617E70A2615E70C2613E7A9
:10575000102611E720260FE740260DE780260BE7ED
:10576000E0694FF6EF78584570D1092D8ED200E0F0
:105770001AE1DFE805F006093C0580050505830010
:10578000D8E6FCF707FB01E0FCF716FB0146606A70
:10579000A8B1012815D0022815D0032815D0042857
:1057A00015D0052815D0062815D0072815D00828AB
:1057B00015D0092815D00A2815D00B2814D0012699
:1057C00012E0022610E004260EE006260CE0082671
:1057D0000AE00A2608E00C2606E0102604E020264F
:1057E00002E0402600E08026B1FBF6F01AE0606A95
:1057F000A8B101282BD002282BD003282BD00428B5
:105800002BD005282BD006282BD007282BD00828F2
:105810002BD009282BD00A282BD00B2800D001260A
:10582000BAFBF6F04100606801EB5001B1FBF0F00B
:1058300080B2A0F110014145A2D84FF6F0710140AD
:10584000C0F3420001432068C160AFE046E0022699
:10585000E6E70426E4E70626E2E70826E0E70A266C
:10586000DEE70C26DCE71026DAE72026D8E740261C
:10587000D6E78026D4E7FCF7B1FA87E7606AA8B1DB
:10588000012817D0022817D0032817D0042817D0D2
:10589000052817D0062817D0072817D0082817D0B2
:1058A000092817D00A2817D00B2800D00126BBFBE7
:1058B000F6F0B7E70226FAE70426F8E70626F6E749
:1058C0000826F4E70A26F2E70C26F0E71026EEE7B2
:1058D0002026ECE74026EAE78026E8E7092DBFF41A
:1058E000D5AEDFE805F006093C0583050505860011
:1058F00020E6FCF74FFA01E0FCF75EFA0146606A29
:10590000A8B1012815D0022815D0032815D00428E5
:1059100015D0052815D0062815D0072815D0082839
:1059200015D0092815D00A2815D00B2814D0012627
:1059300012E0022610E004260EE006260CE00826FF
:105940000AE00A2608E00C2606E0102604E02026DD
:1059500002E0402600E08026B1FBF6F11AE0606A22
:10596000A8B101282ED002282ED003282ED004283A
:105970002ED005282ED006282ED007282ED0082875
:105980002ED009282ED00A282ED00B2800D0012690
:10599000BAFBF6F1606801EB5001B1FBF0F080B2A8
:1059A000A0F110014145A3D82168C8600120A4F8E6
:1059B0006A0024F8680F3846C4F80490C4F80890C8
:1059C000BDE8F09F0226E3E70426E1E70626DFE7CD
:1059D0000826DDE70A26DBE70C26D9E71026D7E7FD
:1059E0002026D5E74026D3E78026D1E7FCF7F6F955
:1059F00084E7606AA8B1012817D0022817D00328CD
:105A000017D0042817D0052817D0062817D0072844
:105A100017D0082817D0092817D00A2817D00B2824
:105A200000D00126BBFBF6F1B4E70226FAE7042614
:105A3000F8E70626F6E70826F4E70A26F2E70C263A
:105A4000F0E71026EEE72026ECE74026EAE780267E
:105A5000E8E72DE9F041984617460E460446069DB4
:105A600008E0681C06D0FBF763FEA0EB0800A84224
:105A70000BD855B12068C06936EA000019D0002063
:105A8000B842EED00020BDE8F0812068016821F422
:105A9000D07101602068816821F0010181602020BF
:105AA000C4F88000C4F88400002084F87C0003203F
:105AB000E9E70120E4E700000148FDF753BB0000DF
:105AC000B4010020FEE700000FB4054B10B503A998
:105AD000044A029800F0FEF810BC5DF814FB0000C8
