:020000040800F2
:10000000B0070020790200084F1A0008FD17000809
:100010004D1A00087F0300088F1F00080000000031
:10002000000000000000000000000000531A00085B
:100030008103000800000000511A0008551A00084A
:10004000930200089302000893020008930200083C
:10005000930200089302000893020008930200082C
:10006000930200089302000893020008930200081C
:10007000930200089302000893020008930200080C
:100080009302000800000000930200089302000899
:1000900093020008930200089302000893020008EC
:1000A00093020008930200089302000893020008DC
:1000B000DD1A0008E91A00089302000893020008FC
:1000C00093020008930200089302000893020008BC
:1000D00093020008930200089302000893020008AC
:1000E000930200089302000893020008930200089C
:1000F0009302000893020008930200080000000029
:1001000000000000930200080000000093020008B5
:100110009302000800000000930200089302000808
:10012000930200089302000893020008930200085B
:100130009302000800000000000000009302000885
:100140009302000893020008000000000000000075
:10015000000000000000000000000000000000009F
:1001600000000000000000000000000093020008F2
:1001700093020008000000000000000000000000E2
:1001800000000000930200080000000000000000D2
:10019000000000000000000000000000000000005F
:1001A0000000000000000000930200089302000815
:1001B0009302000893020008930200080000000068
:1001C0000000000093020008000000000000000092
:1001D000930200089302000800F002F800F03CF8D7
:1001E0000AA090E8000C82448344AAF10107DA4592
:1001F00001D100F031F8AFF2090EBAE80F0013F0A8
:10020000010F18BFFB1A43F001031847181E000026
:10021000381E0000103A24BF78C878C1FAD85207B7
:1002200024BF30C830C144BF04680C607047000070
:100230000023002400250026103A28BF78C1FBD8EF
:10024000520728BF30C148BF0B6070471FB501F08F
:10025000DBFE1FBD10B510BD00F058F81146FFF7CA
:10026000F5FF01F0A5FE00F076F803B4FFF7F2FF0A
:1002700003BC00F07DF800000948804709480047AA
:10028000FEE7FEE7FEE7FEE7FEE7FEE7FEE7FEE746
:10029000FEE7FEE704480549054A064B70470000A3
:1002A000C11A0008D9010008B0010020B0070020E1
:1002B000B0030020B00300204FF0000200B5134649
:1002C00094469646203922BFA0E80C50A0E80C5076
:1002D000B1F12001BFF4F7AF090728BFA0E80C5027
:1002E00048BF0CC05DF804EB890028BF40F8042B20
:1002F00008BF704748BF20F8022B11F0804F18BF8D
:1003000000F8012B7047704770477047754600F042
:100310002BF8AE4605006946534620F00700854697
:1003200018B020B5FFF7B6FFBDE820404FF000063B
:100330004FF000074FF000084FF0000B21F00701CD
:10034000AC46ACE8C009ACE8C009ACE8C009ACE810
:10035000C0098D46704710B50446AFF300802046B3
:10036000BDE81040FFF781BF0048704750010020F2
:1003700001491820ABBEFEE7260002007047FEE7E9
:10038000704772B6FEE700002DE9FC4FDFF8A0A130
:10039000002301250AF1040B03244FF00F0C0BF18D
:1003A000040EBDE005FA03F632406FD04F68012F0E
:1003B00005D0022F03D0112F01D0122F17D1D0F862
:1003C00008905F0004FA07F829EA08090097D1F8B5
:1003D0000C8008FA07F848EA0908C0F8088047685E
:1003E000B7430E79C6F300169E403E434660C6688A
:1003F0004FEA430804FA08F7BE4301978F6807FAEB
:1004000008F73743C7604E68022E01D0122E13D171
:10041000DE0800EB86060096366A5F07FF0E0CFAD0
:1004200007F926EA0906D1F8109009FA07F949EA0E
:100430000609009EC6F820900668019FBE430F790A
:1004400007F0030707FA08F7374307604E68F6001E
:1004500065D5384E376E47F001073766366E23F0A4
:10046000030706F001060096334E3E44B146B668D7
:100470009F074FEA17780CFA08F7BE43B0F1904F88
:1004800005D02E4FB84204D1012717E047E00027DE
:1004900014E02B4FB84201D102270FE0294FB84298
:1004A00001D103270AE0284FB84201D1042705E013
:1004B000264FB84201D1052700E0062707FA08F7C2
:1004C0003743C9F80870DAF800605746D1F804805D
:1004D00096435FEAC83800D516433E60DBF80060FB
:1004E0005F46D1F8048096435FEA883800D516430A
:1004F0003E60DEF800607746D1F8048096435FEAFC
:10050000C82800D516433E60094F0C373E68D1F825
:10051000048096435FEA882800D516433E605B1C42
:100520000A6832FA03F67FF43DAFBDE8FC8F0000A5
:100530000004014000100240000001400004004897
:1005400000080048000C0048001000480014004853
:100550000148806870470000100000200248816850
:1005600042681144816070471000002010B50024DB
:10057000032000F071F80F2000F008F808B1012402
:1005800001E000F025F8204610BD000070B50E4EC9
:1005900005460024706898B14FF47A71B1FBF0F011
:1005A0000A490968B1FBF0F000F0F0FB40B9102DEA
:1005B00006D200222946501E00F02EF8356000E0D9
:1005C0000124204670BD0000100000201C00002007
:1005D000094808B5016E41F001010166016E01F0A4
:1005E00001010091816D41F080518165806D00F0C5
:1005F0008050009008BD000000100240002809DB78
:1006000000F01F02012191404009800000F1E0202C
:10061000C0F8001170470000F0B40E4B1B680C4688
:10062000C3F30223C3F10705042D00D90425191DC6
:10063000072901D2002300E0DB1E012606FA05F19E
:10064000491E214099409E40761E16403143F0BC21
:1006500001F09EBC0CED00E0064900F007020868BE
:100660004FF6FF03184040EA0220034A1043086097
:10067000704700000CED00E00000FA052B492C4B00
:100680000A6832214A432B4940B1B0F5007F08681F
:1006900029D020F4C06040F480602CE00868C0F3EA
:1006A0004120022804D051F8800F20F4807022E00D
:1006B000D1F8800020F48070C1F88000086820F430
:1006C000C06040F400700860B2FBF3F0401C00E032
:1006D000401E4A69520501D50028F9D148694005F4
:1006E0000AD503207047C0F34120022806D051F8F4
:1006F000800F40F48070086000207047D1F88000BF
:1007000040F48070C1F88000086820F4C06040F4B4
:1007100000700860B2FBF3F0401C00E0401E4A6924
:100720005205DBD50028F9D1D8E700001C000020D5
:1007300040420F00007000402DE9F0470E460500D2
:100740004FF0000725D0DFF8AC81D8F8000000F0AA
:100750000F00B0420CD2D8F8001021F00F01314345
:10076000C8F80010D8F8000000F00F00B04210D117
:100770002968614CC80741F2883A5AD06868DFF8A6
:100780007C91032808D0022820682DD0400500283D
:100790002CDB0120BDE8F08720688001F9D5E068F6
:1007A00000F00302E068C0F30310401C032A19D0D4
:1007B000534A00BFB2FBF0F0E268C2F30622504396
:1007C000E268C2F34162521C5200B0FBF2F04845AD
:1007D00017D9A06810F0F00F0CD0880711D5A868C1
:1007E00040B10EE0474AE5E78003D0E700F092F819
:1007F000484506D9A06820F0F00040F08000A060D5
:100800008027A068696820F003000843A060FFF714
:100810009FFE814606E000BFFFF79AFEA0EB0901AC
:1008200051453AD8A068696800F00C00B0EB810F20
:10083000F2D12868810714D5400703D5A06840F499
:10084000E060A0602878000705D5A06820F460501B
:1008500040F4E060A060A068A96820F0F0000843C0
:1008600004E0802F03D1A06820F0F000A060D8F849
:100870000010404601F00F01B14216D9016821F085
:100880000F0131430160FFF763FE074607E000BF39
:10089000FFF75EFEC11B514501D903207AE7D8F866
:1008A000000000F00F00B042F2D12878400705D5D3
:1008B000A068E96820F4E0600843A0602878000799
:1008C00006D5A068296920F4605040EAC100A06004
:1008D00000F020F8A1680C4AC1F30311515C01F04B
:1008E0001F01C8400949086009480068BDE8F04791
:1008F000FFF74CBE002002400010024000B4C404C8
:100900000024F40000127A00122000081C000020CD
:1009100010000020184910B58868C0F381021748FC
:10092000012A0BD08A684310C2F38102022A06D042
:100930008A68C2F38102032A03D0002010BD184642
:1009400010BDCA6802F00304CA68C2F30312521C45
:10095000032C02D0B0FBF2F001E0B3FBF2F0CA6866
:10096000C968C2F306225043C1F34161491C4900E2
:10097000B0FBF1F010BD0000001002400024F400B4
:100980002DE9F84304007AD02078FA4DC00747D00B
:10099000A868E96800F00C0001F003010C2802D0FF
:1009A000082817D001E0032914D06068B0F5803F13
:1009B00017D0B0F5A02F286817D020F48030286019
:1009C000286820F4802028606068E0B1FFF7C0FD4F
:1009D000064614E02868800322D560680028D2D03B
:1009E0001EE0286840F48030EDE740F48020286065
:1009F000F7E700BFFFF7ACFD801B642870D82868BC
:100A00008003F7D50CE0FFF7A3FD064605E000BF25
:100A1000FFF79EFD801B6428F0D828688003F7D478
:100A2000207880074CD5A868E96800F00C0001F038
:100A300003010C2802D004280DD001E002290AD0BD
:100A4000E068002828682BD040F480702860FFF709
:100A50007FFD064619E02868400502D5E0680028B9
:100A600091D06868217C20F0FE4040EA0160686017
:100A7000C1480068FFF78AFD002800D120E076E138
:100A8000FFF766FD801B0228B8D828684005F7D517
:100A90006868217C20F0FE4040EA016068600FE059
:100AA00020F480702860FFF753FD064605E000BF84
:100AB000FFF74EFD801B0228A0D828684005F7D418
:100AC0002078000729D560690028D5F8940013D054
:100AD00040F00100C5F89400FFF73AFD064606E035
:100AE00090E000BFFFF734FD801B022886D8D5F8C0
:100AF00094008007F6D510E020F00100C5F89400BE
:100B0000FFF726FD064604E0FFF722FD801B0228C2
:100B100078D8D5F894008007F6D42078400761D5BE
:100B2000A86D0026C00008D4A86D40F08050A865CC
:100B3000A86D012600F08050009090480168C9051A
:100B400011D40168804641F480710160FFF700FD17
:100B5000074604E0FFF7FCFCC01B022852D8D8F877
:100B60000000C005F6D5A068012815D00528D5F8E5
:100B7000900016D020F00100C5F89000D5F8900044
:100B800020F00400C5F89000A06841F28838B8B1A0
:100B9000FFF7DEFC07460EE0D5F8900040F00100BC
:100BA000F0E740F00400C5F89000F5E7FFF7D0FC4F
:100BB000C11B414526D8D5F890008007F6D50CE03A
:100BC000FFF7C6FC074604E0FFF7C2FCC11B414526
:100BD00018D8D5F890008007F6D41EB1A86D20F083
:100BE0008050A8652078800629D5A0690028D5F80E
:100BF000980013D040F00100C5F89800FFF7A8FC5A
:100C0000064606E077E000BFFFF7A2FC801B022843
:100C100077D8D5F898008007F6D510E020F00100CD
:100C2000C5F89800FFF794FC064604E0FFF790FC37
:100C3000801B022865D8D5F898008007F6D4E069B3
:100C4000F0B3A968C1F38101032961D002282868A3
:100C500020F0807028600BD0E86820F00300E86086
:100C6000E86847490840E860FFF772FC04464BE03B
:100C7000FFF76EFC064604E0FFF76AFC801B0228C3
:100C80003FD828688001F7D4F4E908016FF00F021B
:100C900002EB01110843218A5204490802EB415139
:100CA000A26841EA02210843217D4FF07E424908B3
:100CB00002EB41610843217B40EAC160E96800E042
:100CC00062E0304A11400843E860286840F08070D4
:100CD0002860E86840F08070E860FFF739FC04465F
:100CE00005E000BFFFF734FC001B022809D8286884
:100CF0008001F7D548E004E0FFF72AFC001B02283A
:100D000002D90320BDE8F88328688001F4D43BE0D1
:100D10000128F7D0E868226A00F00301914226D149
:100D2000616A00F0F0020901103991421FD1A26AF4
:100D300000F4FE41B1EB022F19D194F82C2000F001
:100D40007841B1EBC26F12D1218E00F4C002490884
:100D50004905A1F50011914209D194F8341000F031
:100D6000C06049084906A1F1007181420CD0012000
:100D7000C8E7000000100240100000200070004092
:100D8000FFFFEEFE0C809F010020BBE710B5401E68
:100D9000B0F1807F01D3012010BD4FF0E0246061ED
:100DA0000F21601701F0F4F80020A06107202061F6
:100DB000002010BD7047704770470000F0B590F8F4
:100DC0003C20012A4AD0012280F83C20CA688B6866
:100DD00022F440721A434B6822F480621A430B6873
:100DE00022F400621A430B6922F480521A434B69C1
:100DF00022F400521A430B6B22F480421A430B8BED
:100E000022F4702242EA0342154C03680026154D75
:100E1000A34201D0AB4203D1CF6922F080523A43C2
:100E2000A34201D0AB4214D10F8D22F4700242EAEA
:100E300007520F6A22F080723A434F6A22F0007222
:100E40003A43A34201D0AB4203D1C96A22F0005217
:100E50000A435A6480F83C600020F0BD0220F0BDD7
:100E6000002C01400034014070477047704700007B
:100E7000F0B590F83C20012A3AD0012580F83C508A
:100E8000022280F83D2003685A689C68194E1A4F68
:100E9000B34201D0BB4204D122F4700C4A6842EA4A
:100EA0000C02DFF858C002EA0C02D1F800C04CEA8C
:100EB000020CC3F804C00268B2420DD0B2F1804FF8
:100EC0000AD00F4B9A4207D00E4B9A4204D0BA4236
:100ED00002D00D4B9A4204D1896824F08003194353
:100EE000916080F83D50002180F83C100846F0BD2C
:100EF0000220F0BD002C0140003401408FFFFFFDB7
:100F0000000400400008004000400140704710B558
:100F1000040003D094F83D0010B107E0012010BD9B
:100F2000002084F83C00204600F022F8022084F8DB
:100F30003D00211D206800F0DDFD012084F84800FF
:100F400084F83E0084F83F0084F8400084F84100B3
:100F500084F8420084F8430084F8440084F8450093
:100F600084F8460084F8470084F83D00002010BD56
:100F700008B50C4A01680C48914207D1016E41F452
:100F800000310166006E00F4003009E0074A91422A
:100F900007D1016E41F480210166006E00F48020CB
:100FA000009008BD0044014000100240004801408C
:100FB0002DE9F041124D0027124CDFF84C80064617
:100FC000A8420AD12968486A20604F62B8FBF0F055
:100FD00060600021284600F033F9AE420DD10B4885
:100FE0000068416AA1604762B8FBF1F0E060BDE8CB
:100FF000F0410021054800F023B9BDE8F081000070
:10100000200000200000002040420F006C00002063
:101010002DE9F041054690F83C000C46012836D0F9
:10102000012085F83C008AB3042A42D02868082AA7
:1010300051D0D4E90023E168066A26F4805606629E
:10104000C669076A26F4407646EA03234FF6FF7620
:1010500006EA013123F4704319434FF4204627F484
:10106000204306EA02321A43C16102622868C1695C
:1010700021F44061C1612868C169A26841EA022186
:10108000C161002085F83C00BDE8F08101E002204C
:10109000FAE7D4E90012E368286800F027FF28681F
:1010A000816921F00C01816128688169A26811437E
:1010B0000FE0D4E90012E368286800F04DFF2868CB
:1010C000816921F44061816128688169A26841EAEF
:1010D00002218161D5E7D4E90027267B016A21F44A
:1010E00080710162C169036A21F00301394321F073
:1010F000F00731074FF4206647EA116123F42063BB
:1011000006EA02221A43C16102622868C16921F01D
:101110000C01C1612868C169A2681143B0E710B52C
:10112000040003D094F83D0010B107E0012010BD89
:10113000002084F83C00204600F022F8022084F8C9
:101140003D00211D206800F0D5FC012084F84800F6
:1011500084F83E0084F83F0084F8400084F84100A1
:1011600084F8420084F8430084F8440084F8450081
:1011700084F8460084F8470084F83D00002010BD44
:1011800010B586B0044614216846FFF795F8236829
:10119000002128480222B3F1804F27D0264CA342D9
:1011A00022D1836D43F002038365836D03F0020354
:1011B0000593C36C43F00203C364C06C00F00200EB
:1011C000059010200090CDE90121CDE90312694678
:1011D0001A48FFF7D9F8002211461D20FFF71CFA24
:1011E0005FF01D00FFF70AFA06B010BD836D43F0F3
:1011F00001038365836D03F001030593C36C43F022
:101200000103C364C06C00F0010005904FF400407E
:101210000090CDE901210120CDE9031069464FF08E
:101220009040FFF7B1F8002211461C20FFF7F4F9B7
:101230001C20D7E7001002400004004000040048D2
:1012400010B5044679B1042912D0082915D00C290B
:1012500018D0102919D094F8430000BF94F8472003
:10126000012817D114E094F83E0094F84420F7E7E1
:1012700094F83F0094F84520F2E794F8400094F881
:101280004620EDE794F84100E8E794F84200E5E7EE
:10129000012A01D0012010BD022071B1042915D00E
:1012A00008291CD00C2936D0102937D084F84300E7
:1012B00084F847000C291BD133E084F83E0084F801
:1012C00044002068C26842F0020210E084F83F0047
:1012D00084F845002068C26842F0040207E084F800
:1012E000400084F846002068C26842F00802C260EC
:1012F0000122206800F056FC206881680B4A1140EA
:10130000062906D0B1F5803F03D0016841F0010104
:101310000160002010BD84F84100C9E784F8420054
:10132000C6E72068C26842F01002E0E7070001004B
:1013300070B50446006801694FF00005C94389078C
:1013400015D4C168C943890711D4E91E0161012080
:101350002077206880698007204602D0FFF728FEAA
:1013600004E000F01BF9204600F0DAF92577206848
:101370000169C943490717D4C168C943490713D450
:101380006FF004010161022020772068806910F469
:10139000407F204602D0FFF70BFE04E000F0FEF88D
:1013A000204600F0BDF9257720680169C943090787
:1013B00016D4C168C943090712D46FF0080101614E
:1013C000042020772068C0698007204602D0FFF7FC
:1013D000EFFD04E000F0E2F8204600F0A1F92577E7
:1013E00020680169C943C90617D4C168C943C90641
:1013F00013D46FF010010161082020772068C069C4
:1014000010F4407F204602D0FFF7D2FD04E000F048
:10141000C5F8204600F084F9257720680169C943A2
:10142000C90708D1C168C943C90704D1891E016130
:10143000204600F0E1F920680169C943090609D492
:10144000C168C943090605D46FF0800101612046D7
:10145000FFF7B1FC20680169C943C90509D4C16817
:10146000C943090605D46FF4807101612046FFF776
:10147000A1FC20680169C943490609D4C168C94370
:10148000490605D46FF040010161204600F0B5F92E
:1014900020680169C943890609D4C168C94389061E
:1014A00005D46FF0200101612046FFF785FC20681C
:1014B0000169C943C90209D4C168C943C90205D435
:1014C0006FF4801101612046FFF7CFFC20680169AD
:1014D000C943890209D4C168C943890205D46FF49C
:1014E000001101612046FFF7BFFC20680169C94374
:1014F000490209D4C168C943490205D46FF4800187
:1015000001612046FFF7B2FC20680169C943090266
:101510000BD4C168C943090207D46FF4000101610B
:101520002046BDE87040FFF7F1BC70BD70B586B0D5
:10153000044614216846FEF7BFFE154E25680022BA
:101540001449022401234FF09040B54209D1CD6CDB
:1015500045F00105CD64C96C01F001010591402100
:101560000BE00D4EB54210D1CD6C45F00105CD64B8
:10157000C96C01F00101059180210091CDE9014282
:101580006946CDE90323FEF7FFFE06B070BD0000FB
:10159000004401400010024000480140704770B50F
:1015A000044690F83C000D4601280BD0012084F839
:1015B0003C000C2A45D007DC5AB1042A1BD0082A6B
:1015C00078D12CE0022070BD102A4ED0142A71D19F
:1015D0005DE0206800F0F4FA2068816941F00801BC
:1015E00081612068816921F004018161206881693D
:1015F0002A69114311E0206800F030FB20688169FE
:1016000041F4006181612068816921F48061816118
:10161000206881692A6941EA022181614AE02068E3
:1016200000F064FB2068C16941F00801C1612068D5
:10163000C16921F00401C1612068C1692A691143AF
:1016400011E0206800F09AFB2068C16941F4006154
:10165000C1612068C16921F48061C1612068C169EC
:101660002A6941EA0221C16124E0206800F0CEFB32
:101670002068016D41F0080101652068016D21F0CD
:10168000040101652068016D2A69114311E0206899
:1016900000F0F4FB2068016D41F4006101652068F1
:1016A000016D21F4806101652068016D2A6941EABC
:1016B00002210165002084F83C0070BD10B50400D3
:1016C00003D094F83D0010B107E0012010BD0020C8
:1016D00084F83C00204600F022F8022084F83D0007
:1016E000211D206800F006FA012084F8480084F8E3
:1016F0003E0084F83F0084F8400084F8410084F8FC
:10170000420084F8430084F8440084F8450084F8DB
:10171000460084F8470084F83D00002010BD704763
:101720007047000010B50446022269B1042912D0A6
:10173000082917D00C291CD0102921D094F8430077
:10174000012824D0012010BD94F83E000128F9D1D1
:1017500084F83E201DE094F83F000128F2D184F87F
:101760003F2016E094F840000128EBD184F8402097
:101770000FE094F841000128E4D184F8412008E00A
:1017800094F842000128DDD184F8422001E084F879
:1017900043200122206800F005FA114920688842A0
:1017A0000BD01049884208D00F49884205D00F4914
:1017B000884202D00E49884203D1416C41F4004175
:1017C0004164206881680B4A1140062906D0B1F5B2
:1017D000803F03D0016841F001010160002010BD8D
:1017E000002C014000340140004001400044014011
:1017F000004801400700010070477047FEE7000005
:101800000D4808B5C16C41F02001C164C16C01F004
:1018100020010091C16C41F00101C164C16C01F073
:1018200001010091C16C41F00201C164C06C00F083
:101830000200009008BD00000010024010B594B0F6
:101840001C210DA8FEF738FD34216846FEF734FD53
:101850001F481E49002401604F21C0E90114632183
:10186000C0E9031444618461FFF751FB08B1FEF73E
:1018700088FD1748FFF722FF08B1FEF782FD6020C0
:101880000D901420CDE90E041094119412940022AE
:101890000DA90F481394FFF782FE08B1FEF771FD02
:1018A00000944FF40050CDE9044001940294039455
:1018B0000694694606480C94FFF780FA08B1FEF7D3
:1018C00060FD0348FFF732FE14B010BD0044014034
:1018D000B800002010B594B01C210DA8FEF7ECFC58
:1018E00034216846FEF7E8FC20481F4900240160C7
:1018F0004F21C0E9011440F2E731C0E9031444610B
:101900008461FFF704FB08B1FEF73BFD1748FFF7C2
:10191000D5FE08B1FEF735FD60200D90C820CDE959
:101920000E0410941194129400220DA90F481394E0
:10193000FFF735FE08B1FEF724FD00944FF4005088
:10194000CDE9044001940294039406946946074843
:101950000C94FFF733FA08B1FEF713FD0348FFF7C5
:10196000E5FD14B010BD0000004801400401002056
:1019700010B588B000241848059406940494009487
:10198000019402944FF08041039401604F21C0E91B
:101990000114611EC0E903148461FFF7C0FB08B1A4
:1019A000FEF7EFFC049404A90B480694FFF760FAD5
:1019B00008B1FEF7E6FC0120CDE9004002940022C8
:1019C000694605480394FFF723FB002801D0FEF782
:1019D000D8FC08B010BD00002000002010B588B071
:1019E00000241948059406940494009401940294E8
:1019F0001449039401604F21C0E901144FF6FF71AF
:101A0000C0E903148461FFF78AFB08B1FEF7B9FC53
:101A1000049404A90C480694FFF72AFA08B1FEF7CB
:101A2000B0FC0120CDE9004002940022694606483E
:101A30000394FFF7EDFA002801D0FEF7A2FC08B0EE
:101A400010BD0000000400406C000020FEE7FEE72F
:101A500070477047FEF782BD00B593B038216846E5
:101A6000FEF72AFC14210EA8FEF726FC4FF40070A6
:101A7000FEF704FE0220C101039140210491009071
:101A8000079008901421CDE909010B900C900D905E
:101A90006846FEF775FF08B172B6FEE70F200E909C
:101AA00003200F90002010901190129002210EA898
:101AB000FEF742FE002801D072B6FEE713B000BD6B
:101AC0000548016841F47001016003494FF000606E
:101AD000803908607047000088ED00E00148FFF79A
:101AE00027BC0000200000200148FFF721BC0000B7
:101AF0006C0000202DE9F0430268234B234D244E57
:101B0000244C4FF08049984207D0484505D0A84260
:101B100003D0B04201D0A04203D122F070074A683E
:101B20003A431D4FDFF874C0DFF8748098420DD03F
:101B300048450BD0A84209D0B04207D0A04205D0FA
:101B4000B84203D0604501D0404503D122F440752E
:101B5000CA682A434D6922F080022A4302608A68DB
:101B6000C2620A688262984207D0A04205D0B84299
:101B700003D0604501D0404501D1096901630121CD
:101B80004161BDE8F0830000002C014000040040EA
:101B90000008004000340140004001400044014082
:101BA0000048014010B501F01F030121046A99406B
:101BB0008C430462016A9A401143016210BD000027
:101BC0002DE9F043026A22F001020262056A4368CD
:101BD00082691C4C25F0020522400C6822F00302A9
:101BE00014438A68194E2A43174D194FDFF864C011
:101BF000DFF86490A84207D0B04205D0B84203D0C5
:101C0000604501D0484506D122F00808CA6842EA7A
:101C1000080222F00402A84207D0B04205D0B84220
:101C200003D0604501D0484505D14D6923F4407388
:101C30001D438B692B4343608461496841630262A1
:101C4000BDE8F0838FFFFEFF002C0140003401400F
:101C5000004001400044014000480140F0B5026AE4
:101C600022F010020262056A42688369194C1B4E19
:101C700023400C6823F4407343EA042425F0200336
:101C80008D6843EA0513144DA84201D0B04206D135
:101C9000CF6823F0800343EA071323F04003A842F0
:101CA0000AD0B04208D00E4DA84205D00D4DA84232
:101CB00002D00D4DA84207D14D6922F4406242EA9C
:101CC00085028D6942EA85024260846149688163C8
:101CD0000362F0BDFF8FFFFE002C01400034014085
:101CE000004001400044014000480140F0B5026A54
:101CF00022F480720262056A4368C269194C1B4E65
:101D000022400C6822F00302144325F400728D680F
:101D100042EA0522144DA84201D0B04206D1CF6854
:101D200022F4006242EA072222F48062A8420AD02A
:101D3000B04208D00E4DA84205D00E4DA84202D0A8
:101D40000D4DA84207D14D6923F4405343EA0513D2
:101D50008D6943EA05134360C4614968C163026247
:101D6000F0BD00008FFFFEFF002C01400034014059
:101D7000004001400044014000480140F0B5026AC3
:101D800022F480520262056A4268C369194C1B4EF4
:101D900023400C6823F4407343EA042425F40053E1
:101DA0008D6843EA0533144DA84201D0B04206D1F4
:101DB000CF6823F4004343EA073323F48043A84267
:101DC0000AD0B04208D00E4DA84205D00D4DA84211
:101DD00002D00D4DA84207D14D6922F4404242EA9B
:101DE00085128D6942EA85124260C46149680164C6
:101DF0000362F0BDFF8FFFFE002C01400034014064
:101E000000400140004401400048014030B5026AF2
:101E100022F480320262046A4268036D114D2B4045
:101E20000D681D4324F400330C8943EA04430E4C2F
:101E3000A0420BD00D4CA04208D00D4CA04205D0C2
:101E40000C4CA04202D00C4CA04204D14C6922F4AC
:101E5000803242EA04224260056549688164036277
:101E600030BD00008FFFFEFF002C01400034014018
:101E700000400140004401400048014030B5026A82
:101E800022F480120262046A4268036D114D24F448
:101E900000142B400D6843EA05230D8944EA0554DC
:101EA0000D4DA8420BD00D4DA84208D00C4DA842B4
:101EB00005D00C4DA84202D00B4DA84204D14D696B
:101EC00022F4802242EA8522426003654968C164A7
:101ED000046230BDFF8FFFFE002C01400034014042
:101EE00000400140004401400048014070B5046AD0
:101EF00024F0010404628469056A124EB0420ED0D7
:101F0000B0F1804F0BD0104EB04208D00F4EB0420F
:101F100005D00F4EB04202D00E4EB04203D124F095
:101F20000304144301E044F001041A0724F0F00410
:101F300044EA126225F00A0301F00A0119438261A2
:101F4000016270BD002C0140000400400008004008
:101F5000003401400040014030B5046A24F0100410
:101F600004628469056A24F4407444EA022222F47B
:101F700070444FF6FF7202EA03322243A02425F098
:101F8000A00304EA011119438261016230BDFEE73A
:101F90000907090E002804DB00F1E02080F8001496
:101FA000704700F00F0000F1E02080F8141D70472A
:101FB000FEF7DCFAFFF750FDFFF722FCFFF7D8FC35
:101FC000FFF70CFDFFF786FC00210B48FFF738F9FF
:101FD00000210A48FFF734F900210948FFF7A2FB66
:101FE000084940F2E730086006494FF4FA700831BA
:101FF0000860FFF723FCFEE7200000206C000020B3
:10200000040100202C4801404FF04070E1EE100A1E
:1020100070470000000000000000010203040607F2
:1020200008090000442000080000002020000000F3
:10203000140200086420000820000020900700001F
:102040003002000800000000000000000000000056
:10205000000000001000000001000000000000006F
:042060000024F40064
:04000005080001D915
:00000001FF
