:020000040800F2
:10000000C8060020ED010008231500082B11000888
:1000100021150008990800082916000800000000B2
:100020000000000000000000000000008D15000826
:10003000E108000800000000251500088F150008E1
:10004000070200080702000807020008070200086C
:10005000070200080702000807020008070200085C
:10006000070200080702000807020008070200084C
:10007000070200080702000807020008070200083C
:10008000070200080000000007020008070200083D
:10009000070200080702000807020008070200081C
:1000A000070200080702000807020008070200080C
:1000B000B1150008BD150008070200080702000876
:1000C00007020008070200080702000807020008EC
:1000D000070200081D1600080702000807020008B2
:1000E00007020008070200080702000807020008CC
:1000F00007020008070200080702000800000000CD
:1001000000000000070200080000000007020008CD
:1001100007020008000000000702000807020008AC
:10012000070200080702000807020008070200088B
:10013000070200080000000000000000070200089D
:10014000070200080702000800000000000000008D
:10015000000000000000000000000000000000009F
:10016000000000000000000000000000070200087E
:10017000070200080000000000000000000000006E
:10018000000000000702000800000000000000005E
:10019000000000000000000000000000000000005F
:1001A000000000000000000007020008070200082D
:1001B000070200080702000807020008000000000C
:1001C000000000000702000800000000000000001E
:1001D0000702000807020008DFF80CD000F05CFA04
:1001E00000480047311F0008C80600200648804725
:1001F00006480047FEE7FEE7FEE7FEE7FEE7FEE70C
:10020000FEE7FEE7FEE7FEE795150008D9010008C6
:100210002DE9F05F0546002092469B46884606463B
:10022000814640241BE0284641464746224600F0CE
:100230006AF853465A46C01A914110D311461846DF
:10024000224600F051F82D1A67EB01084F4622466E
:100250000120002100F048F817EB00094E41201E54
:10026000A4F10104DFDC484631462A464346BDE896
:10027000F09FD2B201E000F8012B491EFBD270477B
:100280000022F6E710B513460A4604461946FFF762
:10029000F0FF204610BD00F0004230F000400AD0D0
:1002A000C10D01F56071C0F3160042EA0151C208A8
:1002B00040071143704700200146704730B50B4698
:1002C000014600202022012409E021FA02F59D4286
:1002D00005D303FA02F5491B04FA02F52844151E5A
:1002E000A2F10102F1DC30BD202A04DB203A00FA41
:1002F00002F1002070479140C2F1200320FA03F37D
:10030000194390407047202A04DB203A21FA02F07A
:100310000021704721FA02F3D040C2F1200291403F
:100320000843194670472DE9FE4F804681EA0300D5
:10033000C00F0C46009021F0004123F00045B8EBBF
:100340000200A94105D24046214690461C460B4674
:10035000024623F00040104347D0270DC7F30A00A0
:10036000C3F30A510290401A019040286BDAC3F39C
:10037000130040F4801B0098924620B10023D2EB7A
:10038000030A63EB0B0B01985946C0F1400250463B
:10039000FFF7AAFF06460D4650465946019A00F05F
:1003A0008DF910EB08006141002487EA115284EABC
:1003B000E7731A4340D0009A62B3019A012A4FEAC8
:1003C000075215DC001B61EB02014FF0004202EA0C
:1003D0000752CDE90042001C41F5801132462B4600
:1003E00000F08DF903B0BDE8F08F40462146F9E7F3
:1003F000001B61EB0201001C41F5801300185B41FA
:100400002018A2F5001747EB030140EAD570B61992
:100410006D4111E06D084FEA360645EAC0754FEAB6
:100420000752001B61EB0201001C41F580114908D5
:100430004FEA30000019514132462B4603B0BDE867
:10044000F04F00F04DB90098012240000023D0EB9E
:10045000020263EBE073009821464FEAE074B8EBC8
:10046000000061EB0401E9E783F000435BE781F002
:10047000004158E72DE9FE4F81EA030404F00044EF
:1004800021F0004100944FF0000B23F0004350EAAC
:1004900001045ED052EA03045BD0C3F30A54C1F3F3
:1004A0000A552C44A4F2F3340194A0FB0254C1F386
:1004B000130141F48011C3F3130343F4801301FBD0
:1004C000024400FB034E840A970A44EA815447EA37
:1004D0008357A4FB076802958D0A05FB07854FEA41
:1004E000932C04FB0C542705029D4FEA065847EA5B
:1004F0001637B5EB08056EEB070C870E920E47EA30
:10050000811742EA8312A7FB0201B6EB0B0164EBF1
:1005100000042B0D43EA0C335E1844EB1C50DA4602
:100520005146E7FB0201C5F313044FEA0B3343EADC
:1005300014534FEA0432019C43EA0603A4F10C046D
:100540000294009CCDE900B400F0D9F803B0BDE8F6
:10055000F08F00200146F9E72DE9F04D81EA030410
:1005600004F0004B21F0004514464FF0000A23F040
:10057000004150EA050220D054EA01021DD0C5F323
:100580000A570246C5F31303C1F31300C1F30A5619
:1005900040F4801543F48013A7EB0608101BD646E1
:1005A00008F2FD3873EB050002D308F1010801E001
:1005B00092185B41B8F1000F03DA00200146BDE854
:1005C000F08D00204FF48011064684460EE0171B84
:1005D00073EB050705D3121B63EB050306434CEAD7
:1005E000010C49084FEA300092185B4150EA0107BC
:1005F000EDD152EA030012D082EA040083EA050139
:10060000084305D0101BAB4106D20122002306E0AF
:1006100000224FF0004302E06FF0010253101AEB8A
:1006200006004CEB085110EB0A0041EB0B01BDE852
:10063000F04D00F055B8C1F30A52C1F3130140F276
:10064000FF3341F480119A4202DA002001467047DC
:1006500040F233439A42A2F2334202DC5242FFF7A5
:1006600052BEFFF741BE000030B5041E71F1000418
:1006700004DB4FF00044404264EB0101141E73F1AF
:10068000000405DB1C464FF00043524263EB0403B9
:10069000994208BF904230BD064C074D06E0E06825
:1006A00040F0010394E8070098471034AC42F6D3B9
:1006B000FFF796FD1C3100083C310008202A06DBBC
:1006C000CB17203A41FA02F043EAE07306E041FA20
:1006D00002F3D040C2F1200291400843194670470E
:1006E00010B5141E73F1000408DA401C41F100013A
:1006F00092185B411A4301D120F0010010BD2DE991
:10070000F04D92469B4611B1B1FA81F202E0B0FA87
:1007100080F220329046FFF7E7FD04460F4640EA9C
:100720000A0041EA0B0153465A46084313D01146CA
:1007300053EA010019D0C8F140025046FFF7E3FD2B
:1007400005460E46504659464246FFF7CDFD084342
:1007500005D0012004E020463946BDE8F08D002098
:10076000054346EAE0762C4337430A986305E40ADA
:10077000A0EB08000022FD0A44EA47540A3002D5E3
:1007800000200146E9E7010510196941DDE9084546
:1007900000196941BDE8F04DA2E7000070B50446BC
:1007A0000068816811F0010F28D18168144A114254
:1007B00015D18168D5432940491C816000F0A8F912
:1007C000064616E0816811F0010F03D181682940C7
:1007D000491C816000F09CF9801B022809D9E06D5A
:1007E00040F01000E065206E40F00100206601201E
:1007F00070BD20680168C943C907E3D1002070BDFE
:100800003F00008010B51F482DED028B00F06CF802
:100810001C4800F066F800EE100A9FED1B8ADFED21
:100820001B8AB8EE400A1A4C164820EE080A20EE41
:10083000280A84ED130A00F057F8124800F051F826
:1008400080B200EE100A20811248B8EE400A20EE75
:10085000080A20EE280A84ED120A00F045F80D4837
:1008600000F03FF880B200EE100A6081B8EE400A56
:1008700020EE080A20EE280A84ED110ABDEC028B56
:1008800010BD00008C00002000008039333353403D
:1008900008000020F8000020FEE7000010B50E4C14
:1008A00040F2555340F61E40A381E08100221146DC
:1008B0000A4800F093F80021084800F09CF8E3890A
:1008C00000221021054800F089F8BDE810401021F1
:1008D000024800F090B80000080000208C010020C1
:1008E00070470068006C70472DE9F04104463848B5
:1008F000806800F01F05206800F00EFE18B102218C
:100900000846BDE8F08194F8580001280CD0012079
:1009100084F858002046FFF741FF01004FF0000324
:1009200004D084F85830EBE70220EAE7E06D40F6A7
:100930000162904340F48070E065264A20684FF0E1
:10094000A046904201D1374600E00746874200D0DA
:100950001DB9E76D27F48017E765E76DFF0404D53F
:10096000276E27F00607276600E023661C2707602E
:1009700084F858302068904201D1334600E00346A5
:10098000834215D0A5B1052D12D0092D10D0E36DED
:1009900043F48013E365904200D13046C068800183
:1009A000AED5E06D20F4005040F48050E065A7E73C
:1009B000C268920105D5E26D22F4005242F48052E1
:1009C000E2658268044B1A40121D826098E70000BD
:1009D0000003005000010050C0FFFF7F18B5006801
:1009E000C46B0090104421B11430009003600020CB
:1009F00018BD0830F9E72DE9F041044640790D466D
:100A0000012822D04FF0010884F8058002262671C3
:100A100021680A6805F0100708FA07F002430A6027
:100A2000404600F059F82068016885B101F478115A
:100A3000BE40B14203D1416841F00201416084F8F7
:100A4000048000206071BDE8F0810220FBE7C1F363
:100A500044010129F3D1416841F00101EEE770B58D
:100A600090F82520002401212346022A07D00422E1
:100A7000C26380F8251080F82430012429E0026840
:100A8000156825F00E0515600268156825F001054A
:100A90001560826C156825F48075156090F8442007
:100AA000056C02F01F0201FA02F26A60D0E9132518
:100AB0005560426D32B1156825F480751560D0E936
:100AC0001625556080F8251080F82430816B01B11F
:100AD0008847204670BD000070B5044600F018F845
:100AE0000546601C02D004484068044400F010F839
:100AF000401BA042FAD370BD60000020006908408E
:100B000000D0012070470AB181617047816270474F
:100B1000014880687047000060000020024881683A
:100B20004268114481607047600000200F4810B592
:100B30000B4601680E480140080CD870C1F304242C
:100B40005C7001F03F049C70C1F34231197052B9DE
:100B500000F0E9FCD870587800F0E5FC58709878FF
:100B600000F0E1FC9870002010BD00000428004057
:100B70003FFFFF00144810B500680B46486012485C
:100B800008300068C0F30E0088600F48083801681C
:100B90000E480140C1F305401870C1F306245C7093
:100BA00001F07F049C70890DD97052B900F0BBFC34
:100BB0001870587800F0B7FC5870987800F0B3FCC3
:100BC0009870002010BD0000082800407F7F7F0043
:100BD0007047704770477047704770477047000014
:100BE0002DE9F041064625480025254C254F864233
:100BF00032D1A2780068390622B1012A09D0022A2E
:100C000010D025E04562086A40F002000862012029
:100C100006E0406A2062086A20F0020008620220B2
:100C2000A07015E0406ADFED180AB7FBF0F1C4E9E7
:100C3000090194ED080AB8EE400A60EE200A00EEC1
:100C4000100AB8EE400A80EE801A84ED0B1AA570E7
:100C500000210A4800F01CF80C4886420CD10168BB
:100C6000486A20634D62B7FBF0F06063BDE8F04175
:100C70000021064800F00CB8BDE8F0812C020020ED
:100C80000800002040420F000000C8427802002007
:100C900010B5044679B1042912D0082915D00C29C1
:100CA00018D0102919D094F8430000BF94F84720B9
:100CB000012817D114E094F83E0094F84420F7E797
:100CC00094F83F0094F84520F2E794F8400094F837
:100CD0004620EDE794F84100E8E794F84200E5E7A4
:100CE000012A01D0012010BD022071B1042915D0C4
:100CF00008291CD00C2936D0102937D084F843009D
:100D000084F847000C291BD133E084F83E0084F8B6
:100D100044002068C26842F0020210E084F83F00FC
:100D200084F845002068C26842F0040207E084F8B5
:100D3000400084F846002068C26842F00802C260A1
:100D40000122206800F040FC206881680B4A1140B5
:100D5000062906D0B1F5803F03D0016841F00101BA
:100D60000160002010BD84F84100C9E784F842000A
:100D7000C6E72068C26842F01002E0E70700010001
:100D800070B50446006801694FF00005C943890742
:100D900015D4C168C943890711D4E91E0161012036
:100DA0002077206880698007204602D0FFF718FF6F
:100DB00004E000F0E3F8204600F0E1F82577206831
:100DC0000169C943490717D4C168C943490713D406
:100DD0006FF004010161022020772068806910F41F
:100DE000407F204602D0FFF7FBFE04E000F0C6F88B
:100DF000204600F0C4F8257720680169C943090737
:100E000016D4C168C943090712D46FF00801016103
:100E1000042020772068C0698007204602D0FFF7B1
:100E2000DFFE04E000F0AAF8204600F0A8F82577DD
:100E300020680169C943C90617D4C168C943C906F6
:100E400013D46FF010010161082020772068C06979
:100E500010F4407F204602D0FFF7C2FE04E000F00D
:100E60008DF8204600F08BF8257720680169C9438A
:100E7000C90708D1C168C943C90704D1891E0161E6
:100E8000204600F07DF820680169C943090609D4AD
:100E9000C168C943090605D46FF08001016120468D
:100EA000FFF797FE20680169C943C90509D4C168E5
:100EB000C943090605D46FF4807101612046FFF72C
:100EC00087FE20680169C943490609D4C168C9433E
:100ED000490605D46FF040010161204600F051F849
:100EE00020680169C943890609D4C168C9438906D4
:100EF00005D46FF0200101612046FFF76BFE2068EA
:100F00000169C943C90209D4C168C943C90205D4EA
:100F10006FF4801101612046FFF75EFE20680169D1
:100F2000C943890209D4C168C943890205D46FF451
:100F3000001101612046FFF74EFE20680169C94398
:100F4000490209D4C168C943490205D46FF480013C
:100F500001612046FFF741FE20680169C94309028B
:100F60000BD4C168C943090207D46FF400010161C1
:100F70002046BDE87040FFF731BE70BD7047704736
:100F80007047704770477047704770472DE9F041D0
:100F900003680446D8691A68996810F00F0F4FF07B
:100FA000000569D05E4E02F490770E4037437DD045
:100FB000C70709D0D70507D501271F62D4F88830A5
:100FC00043F00103C4F8883083070AD5CB0708D063
:100FD000276802233B62D4F8883043F00403C4F846
:100FE000883043070AD5CB0708D0276804233B6223
:100FF000D4F8883043F00203C4F8883003070CD5D6
:1010000002F02003334308D0266808233362D4F863
:10101000883043F00803C4F88830D4F88830002BB7
:101020003CD0800609D502F0200001F08051084331
:1010300003D0E16E09B120468847D4F888002168C2
:101040008968490601D400072AD5204600F0D4FA61
:101050002068816849061ED5816821F040018160C1
:10106000A06FC0B12F498163A06FFFF7F8FC002883
:1010700014D0A06F816B0AE0860617D502F0200617
:1010800001F080573E4311D0E16E24E02046BDE8D8
:10109000F04108470AE02046FFF777FFBDE8F081FE
:1010A0002046FFF772FFC4F88850F7E7C60209D55B
:1010B0004E0207D54FF4801018622046BDE8F0417B
:1010C000FFF762BF060609D502F0800601F40001B1
:1010D0000E4303D0216F0029D8D1DFE741060DD59B
:1010E00051060BD51968204621F0400119602021D6
:1010F000C4F88010256700F017F8CFE7010206D585
:10110000510004D52046BDE8F041FFF73CBFC001C7
:10111000C4D5002AC2DA2046BDE8F041FFF732BF4D
:1011200001000010E31500087047FEE770B5144891
:101130000168144CA269891A0A2920D30068A061A9
:1011400000F024F8104D2878C10703D0E178A1B150
:101150000021E170800702D5022000F0B3F9287861
:10116000400702D5042000F0ADF92878000706D525
:10117000BDE87040082000F0A5B91021E9E770BD76
:1011800068000020080000205C00002070B5114CB1
:1011900001212046FFF7B2FC054602212046FFF759
:1011A000ADFC45EA400504212046FFF7A7FC45EACF
:1011B000800401214FF09040FFF7A0FC064944EA6B
:1011C000C00040F0F0004A78C04320EA02020A70F2
:1011D000487070BD000400485C000020203AD2B284
:1011E000034B02EB420203EB021200F019B80000BD
:1011F0004A1F0008F0B50E460746002540F23F148E
:1012000007E021463846FFF7E9FF103C6D1CA4B209
:10121000761C3278002A01D0142DF2D3F0BD0000E4
:101220002DE9F04791468A460026044600F0AEF8C4
:10123000DFF84080012700BF00F0E0F85FF0000514
:1012400039F8160007FA05F10842404601D14088F6
:1012500000E0008800F0A6F86D1C102DF0D3641C8F
:10126000E4B25146204600F091F8761C182EE3D3E4
:10127000BDE8F0870000002010B52B4886B001685B
:101280002A4CA26B891AC8292AD30068A063E07887
:1012900040B327A1684600F0C9F969461820FFF756
:1012A000A9FFE06BFEF7F7FF41EC100B23A153EC15
:1012B000102B684600F0BAF969467820FFF79AFFCC
:1012C000206CFEF7E8FF41EC100B20A153EC102B33
:1012D000684600F0ABF969465FF0A800FFF78AFFA7
:1012E00006B010BD1DA1684600F0A0F9694618209F
:1012F000FFF780FF22791CA1684600F097F9694644
:101300007820FFF777FF62791AA1684600F08EF91E
:101310006946A820FFF76EFFA27919A1684600F080
:1013200085F96946D820D9E7680000200800002028
:1013300020202020202020506172610020202043A6
:101340004E42523A25352E326600000020202056AB
:101350004E425225352E326600000000202020200B
:101360002020204461746100202020434E42523AE4
:1013700025640000202020564E42522564000000C3
:1013800020202049444C45256400000010B50C463F
:101390000146202000F060F82146BDE810402120E1
:1013A00000F05AB8134A116841F4007111601149F4
:1013B00010390B6843F480730B600B6843F0200313
:1013C0000B600D4B1860106840F02000106000BFEB
:1013D00000BF00BF086840F020000860086840F4C3
:1013E0008070086000BF00BF00BF086840F4007054
:1013F0000860704728040048140800481449086829
:1014000040F400700860086840F48070086010487C
:101410001038026842F0200202600E4B22221A604D
:101420000A6842F020020A6000BF00BF00BF0168E6
:1014300041F020010160016841F48071016000BF4A
:1014400000BF00BF016841F40071016070470000F7
:101450002804004814080048184B10B51A6842F4D4
:1014600000721A601A6842F480721A60134A103AC5
:10147000146844F020041460114C2060186840F097
:101480002000186000BF00BF00BF106840F02000BF
:101490001060106840F4807010602160186840F09F
:1014A0002000186000BF00BF00BF106840F020009F
:1014B0001060106840F48070106010BD280400486F
:1014C0001408004870B5124D044601224FF47F41C4
:1014D0002846FFF718FB0F4E012204213046FFF784
:1014E00012FB002204213046FFF70DFB21020022EF
:1014F0002846FFF708FB012204213046FFF703FBD3
:101500003046BDE8704000220421FFF7FCBA00001D
:1015100000080048000C00488068C0F38000704755
:10152000FEE770477047010901EB810100F00F00F1
:1015300000EB4100C0B2704710B5002205490648D3
:10154000FFF718FBBDE81040002204490248FFF7EE
:10155000EDBA00006C00002064010020580000205B
:1015600007490A680748C369D21A322A07D30968AB
:10157000C161002141700A210348FEF781BE704716
:101580006800002008000020800000207047FFF75E
:10159000C5BA00000548016841F4700101600349C3
:1015A0004FF00060803908607047000088ED00E06F
:1015B0000148FFF7E5BB00002C0200200148FFF7BF
:1015C000DFBB00007802002010B501F01F030121ED
:1015D000046A99408C430462016A9A401143016293
:1015E00010BD10B5806A0021A0F85E10A0F856105A
:1015F000FFF7CBFC10BD000001680A6822F490726E
:101600000A6001688A68044B1A408A602021C0F889
:1016100084100021C1667047FEFFFFEF0148FFF70D
:10162000B5BC0000A0010020FEE700000FB4084B8D
:1016300010B504A902AA039800F0DEF8044602A936
:10164000002000F070FC204610BC5DF814FB000088
:10165000271F000802E008C8121F08C1002AFAD19B
:1016600070477047002001E001C1121F002AFBD122
:10167000704700002DE9FF5F82B00021DDE90430F2
:10168000020DDDF840B0034318D044F61050A2F22A
:10169000FF3242431514119801281FD0A5EB0B000F
:1016A000401C5FEA000A4FF000064E4FDFF8389109
:1016B000B046504615D5CAF1000413E01198012434
:1016C0004AA3012801D16FEA0B010298119AC0E9DF
:1016D0000031C0E9024206B0BDE8F09FCBF1000046
:1016E000DFE704460021404A491842EB0450CDE9A7
:1016F000001012E0E00707D032463B46404649461C
:10170000FEF7B8FE8046894632463B4610461946EB
:10171000FEF7B0FE06460F466410002CEAD1DDE964
:101720000401DDE90023BAF1000F06DAFEF7A2FE9C
:1017300042464B46FEF79EFE05E0FEF70DFF424691
:101740004B46FEF709FF04460E460022284BFEF7E3
:101750008BFF03D84FF0FF30014607E00022254BF6
:1017600020463146FEF7DFFDFEF765FF102409E055
:10177000002C0ADB0A220023FEF74AFD039B3032CD
:101780001A55641E50EA0102F2D1641C039AC4F196
:1017900011031444119A012A03D0012208430DD1E8
:1017A0000AE0084304D000204FF0110B119072E7BB
:1017B000A3EB0B056D1E0DE05B4504DD4FF0000251
:1017C00005F1010504E003DA4FF00002A5F101057F
:1017D000002AECD002981199C0E90231C0E9004515
:1017E00079E70000000014400000F03F30000000E6
:1017F0000000F0430000E03F2DE9FF4F95B09B460D
:101800008946064600250FE2252877D10024274681
:10181000F84A0121059400E0044316F8013F203BFB
:1018200001FA03F01042F7D130782A2811D06FF076
:101830002F033078A0F13002092A16D8059A44F017
:10184000020402EB820203EB42021044761C059074
:10185000EFE759F8042B0592002A03DA504244F4CA
:101860000054059044F00204761C30782E2816D1DE
:1018700016F8010F44F004042A280DD06FF02F024F
:101880003078A0F13003092B09D807EB870302EB6E
:101890004303C718761CF3E759F8047B761C3078AD
:1018A0006C280FD006DC4C2817D068280DD06A2889
:1018B00014D104E0742810D07A280FD10DE044F43C
:1018C00000140AE044F4801401E044F440147278F7
:1018D000824202D104F58014761C761C307866288A
:1018E0000BD013DC582877D009DC002875D04528A8
:1018F000F6D04628F4D047281AD19DE118E0632895
:1019000035D0642879D0652812D195E1702873D03C
:1019100008DC6728F1D069286FD06E280DD06F28B9
:1019200006D1B5E073282CD0752875D0782874D0EE
:101930005A46179990476D1C75E1C4F3025002286E
:1019400009D003280DD0D9F8001004280DD00D605F
:1019500009F1040967E1D9F80010EA17C1E900525A
:10196000F6E7D9F800100D80F2E70D70F0E719F8EE
:10197000041B8DF8001000208DF80100EA460120BC
:1019800003E059F804AB4FF0FF3061074FF000015E
:1019900002D40DE008F101018846B9420FDA804512
:1019A000F8DB1AF808100029F4D108E008F1010169
:1019B00088468142FADB1AF808100029F6D105980A
:1019C0005B46A0EB080721463846179A00F094FAC8
:1019D000284400EB080507E04DE029E10DE01AF886
:1019E000010B5A4617999047B8F10108F7D25B46A8
:1019F00021463846179A13E142E00A220092C4F3C6
:101A000002524FF0000A022A08D059F804CB032AE8
:101A10004FEAEC710AD00DE029E02AE009F1070154
:101A200021F00702F2E802C1914609E00FFA8CFCAE
:101A30004FEAEC71042A03D14FFA8CFC4FEAEC71A7
:101A4000002907DA0A460021DCF1000C61EB0201F3
:101A50002D2202E0220504D52B228DF8042001223C
:101A600003E0E20701D02022F7E7904659E00A217F
:101A700002E010220DE010214FF0000A00910BE06F
:101A800010224FF0000A44F004040827009203E0FB
:101A900008224FF0000A0092C4F30252022A05D035
:101AA00059F804CB0021032A08D009E009F1070105
:101AB00021F00702F2E802C1914605E01FFA8CFC12
:101AC000042A01D10CF0FF0C4FF00008220728D5A2
:101AD000702806D0009B83F0100353EA0A0305D058
:101AE0000EE040228DF80420012208E05CEA0102A9
:101AF00006D030228DF804208DF805000222904691
:101B0000009B83F0080353EA0A030AD15CEA01024E
:101B100001D1620705D530228DF804204FF001086D
:101B20007F1E582804D034A003900EA802900DE028
:101B300036A0F9E753466046009AFEF769FB8446F3
:101B40000398825C0298401E029002705CEA0100D9
:101B5000F0D1029806A9081A00F1200A600702D500
:101B600024F4803400E00127574502DDA7EB0A008A
:101B700000E0002000EB0A01009005984144401A63
:101B80000590E00306D45B462146179A059800F0BD
:101B9000B3F90544002706E001A85A46C05D17992D
:101BA00090476D1C7F1C4745F6DBE0030CD55B4678
:101BB0002146179A059800F09FF9054404E030206B
:101BC0005A46179990476D1C0099481E00900029AD
:101BD000F5DC08E0029802995A460078491C029107
:101BE000179990476D1CBAF10001AAF1010AF1DCC6
:101BF00065E10000092801003031323334353637D1
:101C00003839616263646566000000003031323348
:101C100034353637383941424344454600000000E8
:101C200000F058F90544761C307800287FF4ECADBC
:101C300019B02846BDE8F08F620700D4062709F1E5
:101C4000070222F0070CFCE80223E14603F00048FB
:101C50005FEA080C02D00FF2702C0DE05FEA045C22
:101C600002D50FF2682C07E05FEAC47C02D00FF2C5
:101C7000602C01E0AFF2700C4FF0FF3823F000430E
:101C8000CDF850C065280CD006DC452809D0462880
:101C90001DD047283DD13DE0662818D067287ED169
:101CA00038E00021112F01DB112000E0781CCDE984
:101CB000000106A90EA8FFF7DDFCDDE90F010E9A71
:101CC00003910021009207F1010A04914DE04FF0C9
:101CD00000400097CDE9011006A90EA8FFF7CAFC45
:101CE000DDE90F0203920E9B11990022DDF80CA092
:101CF0000093049211B9791C00EB010AB7EB0A00BA
:101D000004D4C0F1FF3007F1010A0490AAEB0700E8
:101D1000019044E0012F00DA01270021112F01DD9D
:101D2000112000E03846CDE9000106A90EA8FFF712
:101D3000A1FCDDE90F010E9A0391002104910092AC
:101D4000BA4621070CD40399514500DA8A46BAF104
:101D5000010F05DD009AAAF10101515C302908D07C
:101D6000B84202DA10F1040F06DA0121CDE90110C0
:101D700015E0AAF10101E9E7002805DC0499014416
:101D80000491AAEB000102E0411C514500DD8A46A6
:101D90000499401A401C01904FF000400290200727
:101DA00004D40198504501DBCDF8048000208DF863
:101DB0004F0002980DF14F07B0F1004F25D02B20B6
:101DC0000E9002984FF0020800280CDA4042029070
:101DD0002D200E9007E00A210298FEF76FFA3031AD
:101DE000029007F8011DB8F10001A8F10108F2DC2A
:101DF00002980028EFD1791E0E980870307800F014
:101E0000200040F0450007F8020D12A8C01B00F1A9
:101E100007081498007800B1012000EB0A0101982E
:101E200001EBE07105984144401A401E0590E00323
:101E300006D45B462146179A059800F05DF80544E4
:101E40001498007818B15A46179990476D1CE00312
:101E500024D55B462146179A059800F04DF80544B5
:101E60001CE00498002807DBDDE90301884203DD5C
:101E70000098405C179901E0179930205A46904726
:101E8000049805F10105401C04900198401E019042
:101E900004D12E205A46179990476D1CBAF10001C3
:101EA000AAF1010ADDDC05E017F8010B5A46179983
:101EB00090476D1CB8F10001A8F10108F4DC5B4605
:101EC0002146179A0598ABE62D0000002B00000074
:101ED000200000002DE9F041044600251E4617466B
:101EE000880404D405E039462020B0476D1C641EE8
:101EF000F9D52846BDE8F0812DE9F04104460025DA
:101F00001E469046C80301D5302700E020278804EC
:101F100004D505E041463846B0476D1C641EF9D52E
:101F20002846BDE8F0810A68531C0B6010707047AA
:101F3000FFF7FCF8FEF766FCFFF7FEFAFEF7AEFCD3
:101F4000FFF79AF9FFF70CFBF2E700000000000032
:101F50000000000000000000000000000000000081
:101F60000000000000000000000000000000000071
:101F7000000000000000000000000000800180015F
:101F80008001800180018001800180018001800149
:101F900080018001800100000000800180010000BC
:101FA0000000000000000000000000000000CC0065
:101FB000CC00CC00CC00CC00CC0000000000000025
:101FC0000000000000000000000000000000000011
:101FD0000000000000000000000000000000000001
:101FE000000000000000600C600C600C3006300641
:101FF000FE1FFE1F300638071803FE1FFE1F1803C2
:1020000018038C018C018C01000000008000E003AB
:10201000F80F9C0E8C1C8C188C009800F801E007BF
:10202000800E801C8C188C189C18B80CF00FE003E4
:1020300080008000000000000000000000000000A0
:102040000E181B0C110C11061106110311039B0134
:102050008E01C038C06C6044604430443044184441
:10206000186C0C380000000000000000E001F003D4
:102070003807180618063003F001F000F8009C310C
:102080000E33061E061C061C063FFC73F0210000E2
:1020900000000000000000000000000000000C0034
:1020A0000C000C000C000C000C00000000000000F4
:1020B0000000000000000000000000000000000020
:1020C000000000000000000000000000000200030B
:1020D0008001C000C00060006000300030003000AF
:1020E0003000300030003000300060006000C00080
:1020F000C00080010003000200000000200060001A
:10210000C0008001800100030003000600060006F5
:10211000000600060006000600060003000380011A
:102120008001C000600020000000000000000000EE
:10213000000000000000C000C000D806F807E00161
:10214000300338070000000000000000000000001D
:10215000000000000000000000000000000000007F
:1021600000000000000080018001800180018001EA
:10217000FC3FFC3F80018001800180018001000064
:10218000000000000000000000000000000000004F
:10219000000000000000000000000000000000003F
:1021A000000000000000000000000000800180012D
:1021B000000100018000000000000000000000009D
:1021C000000000000000000000000000000000000F
:1021D0000000E007E0070000000000000000000031
:1021E00000000000000000000000000000000000EF
:1021F00000000000000000000000000000000000DF
:10220000000000000000000000000000C000C0004E
:10221000000000000000000000000000000C000CA6
:10222000000600060006000300030003800380018F
:1022300080018001C000C000C0006000600000009C
:10224000000000000000000000000000E003F007B4
:10225000380E180C0C180C180C180C180C180C183C
:102260000C180C180C18180C380EF007E0030000BE
:1022700000000000000000000000000000018001DC
:10228000C001F00198018801800180018001800176
:1022900080018001800180018001800180010000B7
:1022A000000000000000000000000000E003F80F44
:1022B000180C0C180C1800180018000C000600036D
:1022C0008001C000600030001800FC1FFC1F0000EF
:1022D000000000000000000000000000E001F8071E
:1022E000180E0C0C0C0C000C0006C003C007000CF0
:1022F000001800180C180C18180CF807E003000060
:10230000000000000000000000000000000C000EB3
:10231000000F000F800DC00C600C600C300C180C0E
:102320000C0CFC3FFC3F000C000C000C000C0000EF
:10233000000000000000000000000000F80FF80F8F
:10234000180018000C00EC03FC071C0E001C001801
:10235000001800180C181C0C180EF807E0030000F9
:10236000000000000000000000000000C007F00FA7
:10237000381C181818000C00CC03EC0F3C0E1C1C69
:102380000C180C180C18181C380EF007E00300008D
:10239000000000000000000000000000FC1FFC1F07
:1023A000000C00060006000380038001C001C0008D
:1023B000E00060006000700030003000300000007D
:1023C000000000000000000000000000E003F00733
:1023D000380E180C180C180C3806F007F007180CFB
:1023E0000C180C180C180C18380CF80FE00300002F
:1023F000000000000000000000000000E003F00703
:10240000380E1C0C0C180C180C181C1C381EF81B51
:10241000E0190018000C000C1C0EF807F001000079
:1024200000000000000000000000000000000000AC
:10243000000000000000800180010000000000009A
:10244000000000000000000000008001800100008A
:10245000000000000000000000000000000000007C
:10246000000000000000800180010000000000006A
:102470000000000000000000000080018001000159
:1024800000018000000000000000000000000000CB
:10249000000000000000000000000010001C800F81
:1024A000E003F8001800F800E003800F001C0010A3
:1024B000000000000000000000000000000000001C
:1024C00000000000000000000000F81F00000000F5
:1024D0000000F81F000000000000000000000000E5
:1024E00000000000000000000000000000000000EC
:1024F0000000000000000000000008003800F001AB
:10250000C007001F0018001FC007F00138000800B6
:10251000000000000000000000000000E003F80FD1
:10252000180C0C180C180018000C00060003800191
:10253000C000C000C00000000000C000C0000000DB
:102540000000000000000000000000000000E007A4
:1025500018180420C229224A114409440944094494
:1025600009221113E20C024004201818E0070000B1
:102570000000000000000000000000008003800355
:10258000C006C006C006600C600C30183018301849
:10259000F83FF83F1C700C600C6006C006C00000DD
:1025A000000000000000000000000000FC03FC0F21
:1025B0000C0C0C180C180C180C0CFC07FC0F0C184D
:1025C0000C300C300C300C300C18FC1FFC070000D9
:1025D000000000000000000000000000C007F01F25
:1025E00038381C300C700660060006000600060035
:1025F0000600060006600C701C30F01FE0070000AB
:10260000000000000000000000000000FE03FE0FBC
:10261000060E06180618063006300630063006305C
:102620000630063006180618060EFE0FFE030000E0
:10263000000000000000000000000000FC3FFC3F24
:102640000C000C000C000C000C00FC1FFC1F0C000C
:102650000C000C000C000C000C00FC3FFC3F0000C8
:10266000000000000000000000000000F83FF83FFC
:1026700018001800180018001800F81FF81F18009C
:1026800018001800180018001800180018000000A2
:10269000000000000000000000000000E00FF83F14
:1026A0003C780E6006E007C00300030003FE03FE53
:1026B00003C007C006C00EC03CF0F83FE00F0000AA
:1026C0000000000000000000000000000C300C3092
:1026D0000C300C300C300C300C30FC3FFC3F0C301C
:1026E0000C300C300C300C300C300C300C30000046
:1026F00000000000000000000000000080018001D8
:1027000080018001800180018001800180018001C1
:102710008001800180018001800180018001000032
:10272000000000000000000000000000000600069D
:102730000006000600060006000600060006000669
:1027400000060006180618063807F003E00100002E
:102750000000000000000000000000000630061825
:10276000060C060606038601C60066007600DE003B
:102770008E0106030606060C0618063006600000E9
:102780000000000000000000000000001800180019
:102790001800180018001800180018001800180079
:1027A00018001800180018001800F81FF81F000083
:1027B0000000000000000000000000000EE01EF01D
:1027C0001EF01EF036D836D836D836D866CC66CC51
:1027D00066CCC6C6C6C6C6C6C6C686C386C3000005
:1027E0000000000000000000000000000C301C3061
:1027F0003C303C306C306C30CC30CC308C310C33D5
:102800000C330C360C360C3C0C3C0C380C300000F5
:10281000000000000000000000000000E007F81FBA
:102820001C380E70066003C003C003C003C003C0A1
:1028300003C003C006600E701C38F81FE0070000DC
:10284000000000000000000000000000FC0FFC1F62
:102850000C380C300C300C300C300C18FC1FFC0702
:102860000C000C000C000C000C000C000C00000014
:10287000000000000000000000000000E007F81F5A
:102880001C380E70066003E003C003C003C003C021
:1028900003C007E006630E3F1C3CF83FE0F700C0B2
:1028A000000000000000000000000000FE0FFE1FFE
:1028B00006380630063006300638FE1FFE070603CF
:1028C0000606060C061806180630063006600000DC
:1028D000000000000000000000000000E003F80F0E
:1028E0001C0C0C180C180C001C00F803E00F001E48
:1028F0000038063006300E301C1CF80FE0070000D0
:10290000000000000000000000000000FE7FFE7FCD
:1029100080018001800180018001800180018001AF
:102920008001800180018001800180018001000020
:102930000000000000000000000000000C300C301F
:102940000C300C300C300C300C300C300C300C30A7
:102950000C300C300C300C301818F81FE007000059
:1029600000000000000000000000000003600630CE
:10297000063006300C180C180C18180C180C380EF1
:1029800030063006700760036003C001C00100001C
:102990000000000000000000000000000360C361B0
:1029A000C361C36166336633663366336633663349
:1029B0006C1B6C1B6C1B2C1A3C1E380E380E000056
:1029C0000000000000000000000000000FE00C709C
:1029D00018303018700C600EC00780038003C003ED
:1029E000E006700C301C18180C300E6007E0000078
:1029F00000000000000000000000000003C00660AE
:102A00000C301C383818300C6006E007C003800119
:102A1000800180018001800180018001800100002F
:102A2000000000000000000000000000FC7FFC7FB0
:102A3000006000300018000C000600038001C00098
:102A40006000300018000C000600FE7FFE7F0000D2
:102A5000000000000000000000000000E003E003B0
:102A60006000600060006000600060006000600066
:102A70006000600060006000600060006000600056
:102A800060006000E003E003000000003000300060
:102A9000600060006000C000C000C000C001800194
:102AA000800180010003000300030006000600000F
:102AB000000000000000000000000000E003E00350
:102AC00000030003000300030003000300030003EE
:102AD00000030003000300030003000300030003DE
:102AE00000030003E003E003000000000000C00159
:102AF000C00160036003600330063006180C180C38
:102B000000000000000000000000000000000000C5
:102B100000000000000000000000000000000000B5
:102B200000000000000000000000000000000000A5
:102B3000000000000000000000000000FFFFFFFF99
:102B40000000000000000000000000000C000C006D
:102B50000C000C000C000C00000000000000000045
:102B60000000000000000000000000000000000065
:102B70000000000000000000000000000000000055
:102B8000000000000000F003F8071C0C0C0C000F04
:102B9000F00FF80C0C0C0C0C1C0FF80FF0180000C8
:102BA00000000000000000000000000018001800F5
:102BB000180018001800D803F80F380C1818181847
:102BC0001818181818181818380CF80FD80300001F
:102BD00000000000000000000000000000000000F5
:102BE000000000000000C003F007300E180C1800B1
:102BF000180018001800180C300EF007C003000071
:102C00000000000000000000000000000018001894
:102C1000001800180018C01BF01F301C18181818D6
:102C20001818181818181818301CF01FC01B0000AE
:102C30000000000000000000000000000000000094
:102C4000000000000000C003F00F300C1818F81F3F
:102C5000F81F180018003818301CF00FC0070000CB
:102C6000000000000000000000000000800FC00F06
:102C7000C000C000C000F007F007C000C000C000E6
:102C8000C000C000C000C000C000C000C000000004
:102C90000000000000000000000000000000000034
:102CA000000000000000E00DF80F180E0C0C0C0CDA
:102CB0000C0C0C0C0C0C0C0C180EF80FE00D000C8E
:102CC0000C0C1C06F807F0010000000018001800AA
:102CD000180018001800D807F80F381C1818181812
:102CE0001818181818181818181818181818000094
:102CF000000000000000000000000000C000C00054
:102D0000000000000000C000C000C000C000C00003
:102D1000C000C000C000C000C000C000C000000073
:102D2000000000000000000000000000C000C00023
:102D3000000000000000C000C000C000C000C000D3
:102D4000C000C000C000C000C000C000C000C00083
:102D5000C000C000F8007800000000000C000C006B
:102D60000C000C000C000C0C0C060C038C01CC00AD
:102D70006C00FC009C018C030C030C060C0C000086
:102D8000000000000000000000000000C000C000C3
:102D9000C000C000C000C000C000C000C000C00033
:102DA000C000C000C000C000C000C000C0000000E3
:102DB0000000000000000000000000000000000013
:102DC0000000000000007C3CFF7EC7E383C183C19C
:102DD00083C183C183C183C183C183C183C1000017
:102DE00000000000000000000000000000000000E3
:102DF0000000000000009807F80F381C1818181879
:102E00001818181818181818181818181818000072
:102E100000000000000000000000000000000000B2
:102E2000000000000000C003F00F300C1818181844
:102E30001818181818181818300CF00FC0030000D4
:102E40000000000000000000000000000000000082
:102E5000000000000000D803F80F380C18181818EC
:102E60001818181818181818380CF80FD803180064
:102E700018001800180018000000000000000000F2
:102E8000000000000000C01BF01F301C18181818AC
:102E90001818181818181818301CF01FC01B001824
:102EA00000180018001800180000000000000000C2
:102EB000000000000000B007F00370003000300098
:102EC00030003000300030003000300030000000B2
:102ED00000000000000000000000000000000000F2
:102EE000000000000000E003F003380E180C38006A
:102EF000F003C007000C180C380EF007E0030000C8
:102F00000000000000000000000000000000800041
:102F1000C000C000C000F007F007C000C000C00043
:102F2000C000C000C000C000C000C0078007000093
:102F30000000000000000000000000000000000091
:102F40000000000000001818181818181818181891
:102F50001818181818181818381CF01FE019000055
:102F60000000000000000000000000000000000061
:102F70000000000000000C18180C180C180C30068B
:102F800030063006600360036003C001C00100002A
:102F90000000000000000000000000000000000031
:102FA000000000000000C141C141C361636363636D
:102FB00063633636363636361C1C1C1C1C1C00005F
:102FC0000000000000000000000000000000000001
:102FD0000000000000001C38381C300C6006600344
:102FE0006003600360036006300C381C1C3800006E
:102FF00000000000000000000000000000000000D1
:103000000000000000001830301830187018600CF4
:10301000600CE00CC006C0068003800380038001C2
:103020008001C001F00070000000000000000000FE
:10303000000000000000FC1FFC1F000C0006000345
:103040008001C000600030001800FC1FFC1F000061
:1030500000000000000000000000000000038001EC
:10306000C000C000C000C000C000C0006000600020
:10307000300060004000C000C000C000C000C000C0
:10308000C0008001000300000000000080018001FA
:103090008001800180018001800180018001800128
:1030A0008001800180018001800180018001800118
:1030B0008001800180018001000000006000C000EC
:1030C000C0018001800180018001800100030003B4
:1030D0000006000300018001800180018001800161
:1030E0008001C0006000000000000000000000003F
:1030F00000000000000000000000F010F81F080FA2
:1031000000000000000000000000000000000000BF
:103110000000000000000000000000003C3100083A
:10312000000000206C00000054160008A8310008C0
:103130006C0000205C060000641600080000FFFF21
:1031400000000000FF000000000000000000000080
:10315000000000000000000000000000000000006F
:10316000000000000000000000000000000000005F
:10317000000000000000000000000000000000004F
:10318000000000000000000000000000000000003F
:10319000000000000000000000000000100000001F
:0831A000010000000000000026
:04000005080001D915
:00000001FF
