:020000040800F2
:1000000028060020ED010008132D0008D321000868
:10001000112D0008250300082942000800000000F7
:10002000000000000000000000000000F93000089F
:100030002703000800000000152D0008FB30000811
:10004000070200080702000807020008070200086C
:10005000070200080702000807020008070200085C
:10006000070200080702000807020008070200084C
:10007000070200080702000807020008070200083C
:10008000070200080000000007020008070200083D
:10009000070200080702000807020008070200081C
:1000A000070200080702000807020008070200080C
:1000B00099310008A531000807020008070200086E
:1000C00007020008070200080702000807020008EC
:1000D000070200081D420008070200080702000886
:1000E00007020008070200080702000807020008CC
:1000F00007020008070200080702000800000000CD
:1001000000000000070200080000000007020008CD
:1001100007020008000000000702000807020008AC
:10012000070200080702000807020008070200088B
:10013000070200080000000000000000070200089D
:10014000070200080702000800000000000000008D
:10015000000000000000000000000000000000009F
:10016000000000000000000000000000070200087E
:10017000070200080000000000000000000000006E
:10018000000000000702000800000000000000005E
:10019000000000000000000000000000000000005F
:1001A000000000000000000007020008070200082D
:1001B000070200080702000807020008000000000C
:1001C000000000000702000800000000000000001E
:1001D0000702000807020008DFF80CD000F090F8D2
:1001E0000048004739440008280600200648804798
:1001F00006480047FEE7FEE7FEE7FEE7FEE7FEE70C
:10020000FEE7FEE7FEE7FEE77D310008D9010008C2
:100210002DE9F05F0546002092469B46884606463B
:10022000814640241BE0284641464746224600F0CE
:1002300057F853465A46C01A914110D311461846F2
:10024000224600F03EF82D1A67EB01084F46224681
:100250000120002100F035F817EB00094E41201E67
:10026000A4F10104DFDC484631462A464346BDE896
:10027000F09FD2B201E000F8012B491EFBD270477B
:100280000022F6E710B513460A4604461946FFF762
:10029000F0FF204610BD30B50B460146002020225D
:1002A000012409E021FA02F59D4205D303FA02F583
:1002B000491B04FA02F52844151EA2F10102F1DCE3
:1002C00030BD202A04DB203A00FA02F100207047FA
:1002D0009140C2F1200320FA03F319439040704784
:1002E000202A04DB203A21FA02F00021704721FA8B
:1002F00002F3D040C2F120029140084319467047F2
:10030000064C074D06E0E06840F0010394E8070062
:1003100098471034AC42F6D3FFF762FFEC56000862
:100320000C570008FEE77047002240F6B83306E09D
:100330000021491C89B29942FBD3521C92B28242DD
:10034000F6D3704710B5044601F0C0FFA02001F0BD
:100350007EFF01F0F1FF204601F079FF01F0ECFF94
:1003600001F0B4FFA12001F072FF01F0E5FF01F000
:1003700047FF044601F092FF01F0C3FF204610BD85
:1003800070B50D46044601F0A1FFA02001F05FFF0B
:1003900001F0D2FF204601F05AFF01F0CDFF2846C0
:1003A00001F055FF01F0C8FF01F0ABFFBDE8704060
:1003B000052000F03DB8704770B590F82520002466
:1003C00001212346022A07D00422C26380F82510A7
:1003D00080F82430012429E00268156825F00E0514
:1003E00015600268156825F001051560826C1568B6
:1003F00025F48075156090F84420056C02F01F020A
:1004000001FA02F26A60D0E913255560426D32B1FB
:10041000156825F480751560D0E91625556080F8BB
:10042000251080F82430816B01B18847204670BDCB
:1004300070B5044600F0FCF80546601C02D0044884
:100440004068044400F0F4F8401BA042FAD370BDA9
:100450004C0000202DE9FC4FDFF8A0A1002301256E
:100460000AF1040B03244FF00F0C0BF1040EBDE056
:1004700005FA03F632406FD04F68012F05D0022FE6
:1004800003D0112F01D0122F17D1D0F808905F00A0
:1004900004FA07F829EA08090097D1F80C8008FA4D
:1004A00007F848EA0908C0F808804768B7430E799A
:1004B000C6F300169E403E434660C6684FEA4308B6
:1004C00004FA08F7BE4301978F6807FA08F7374325
:1004D000C7604E68022E01D0122E13D1DE0800EB49
:1004E00086060096366A5F07FF0E0CFA07F926EAC1
:1004F0000906D1F8109009FA07F949EA0609009EA1
:10050000C6F820900668019FBE430F7907F00307E5
:1005100007FA08F7374307604E68F60065D5384E8E
:10052000376E47F001073766366E23F0030706F093
:1005300001060096334E3E44B146B6689F074FEA27
:1005400017780CFA08F7BE43B0F1904F05D02E4F44
:10055000B84204D1012717E047E0002714E02B4FF1
:10056000B84201D102270FE0294FB84201D1032739
:100570000AE0284FB84201D1042705E0264FB842CF
:1005800001D1052700E0062707FA08F73743C9F825
:100590000870DAF800605746D1F8048096435FEAA5
:1005A000C83800D516433E60DBF800605F46D1F8DE
:1005B000048096435FEA883800D516433E60DEF833
:1005C00000607746D1F8048096435FEAC82800D5DA
:1005D00016433E60094F0C373E68D1F804809643BD
:1005E0005FEA882800D516433E605B1C0A6832FA31
:1005F00003F67FF43DAFBDE8FC8F0000000401402E
:1006000000100240000001400004004800080048BB
:10061000000C004800100048001400480069084021
:1006200000D0012070470AB1816170478162704734
:1006300001488068704700004C0000200248816833
:1006400042681144816070474C00002010B50024BE
:10065000032000F077F8002000F008F808B101242A
:1006600001E000F025F8204610BD000070B50E4EE8
:1006700005460024706898B14FF47A71B1FBF0F030
:100680000A490968B1FBF0F000F060FD40B9102D97
:1006900006D200222946501E00F034F8356000E0F2
:1006A0000124204670BD00004C00002058000020AE
:1006B0000B4808B5016E41F001010166016E01F0C1
:1006C00001010091816D41F080518165806D00F0E4
:1006D000805000900348816841F48041816008BDEA
:1006E0000010024000700040002809DB00F01F02EB
:1006F000012191404009800000F1E020C0F8001184
:1007000070470000F0B40E4B1B680C46C3F3022385
:10071000C3F10705042D00D90425191D072901D2AD
:10072000002300E0DB1E012606FA05F1491E2140E8
:1007300099409E40761E16403143F0BC03F09ABDAE
:100740000CED00E0064900F0070208684FF6FF03D1
:10075000184040EA0220034A104308607047000036
:100760000CED00E00000FA052B492C4B0A68322101
:100770004A432B4940B1B0F5007F086829D020F4E6
:10078000C06040F480602CE00868C0F3412002287B
:1007900004D051F8800F20F4807022E0D1F880005E
:1007A00020F48070C1F88000086820F4C06040F434
:1007B00000700860B2FBF3F0401C00E0401E4A6984
:1007C000520501D50028F9D1486940050AD5032012
:1007D0007047C0F34120022806D051F8800F40F442
:1007E0008070086000207047D1F8800040F480706D
:1007F000C1F88000086820F4C06040F40070086010
:10080000B2FBF3F0401C00E0401E4A695205DBD504
:100810000028F9D1D8E700005800002040420F001E
:10082000007000402DE9F8430446006800269D4D05
:1008300000035ED5A86D0027C00008D4A86D40F065
:100840008050A865A86D012700F080500090DFF867
:100850005892D9F8001041F48071C9F80010FFF7E0
:10086000E7FE804606E000BFFFF7E2FEA0EB0800CF
:1008700002282BD8D9F80000C005F5D5D5F890008E
:1008800010F4407014D0216C814211D0D5F8900042
:10089000D5F8901020F4407041F48031C5F89010E4
:1008A000D5F8901021F48031C5F89010C5F890006B
:1008B000C00711D0FFF7BCFE804641F2883907E03F
:1008C000FFF7B6FEA0EB0801494501D903260BE06E
:1008D000D5F890008007F3D5D5F89000216C20F46E
:1008E00040700843C5F890001FB1A86D20F08050FB
:1008F000A8652078C00707D0D5F88800616820F087
:1009000003000843C5F888002078800707D5D5F88C
:100910008800A16820F00C000843C5F88800207802
:10092000400707D5D5F88800E16820F0300008437B
:10093000C5F888002078000707D5D5F88800216918
:1009400020F0C0000843C5F888002078800607D54D
:10095000D5F88800616920F440600843C5F8880034
:100960002078400607D5D5F88800A16920F44050CA
:100970000843C5F888002078000607D5D5F8880018
:10098000E16920F440400843C5F888002088C0058C
:1009900007D5D5F88800216A20F440300843C5F80F
:1009A00088002088800507D5D5F88800616A20F482
:1009B00040200843C5F88800208840050FD5D5F8A9
:1009C0008800A16A20F440100843C5F88800A06A96
:1009D000B0F5801F03D1E86840F48010E8602088FB
:1009E00000050FD5D5F88800E16A20F440000843DF
:1009F000C5F88800E06AB0F5800F03D1E86840F4DC
:100A00008010E8602088C0040FD5D5F88800216BDD
:100A100020F040700843C5F88800206BB0F1807F5B
:100A200003D1E86840F48010E86020884FF000614E
:100A300080040ED5D5F88800626B20F0406010432A
:100A4000C5F88800606B884203D1E86840F48010E4
:100A5000E860208840040ED5D5F88800A26B20F00D
:100A600040601043C5F88800A06B884203D1E86855
:100A700040F48010E860208800040FD5D5F8880085
:100A8000E16B20F040500843C5F88800E06BB0F1FE
:100A9000805F03D1E86840F48030E8603046BDE80C
:100AA000F883000000100240007000402DE9F0477C
:100AB0000E4605004FF0000725D0DFF8AC81D8F8CE
:100AC000000000F00F00B0420CD2D8F8001021F066
:100AD0000F013143C8F80010D8F8000000F00F00F3
:100AE000B04210D12968614CC80741F2883A5AD007
:100AF0006868DFF87C91032808D0022820682DD090
:100B0000400500282CDB0120BDE8F087206880012B
:100B1000F9D5E06800F00302E068C0F30310401C60
:100B2000032A19D0534A00BFB2FBF0F0E268C2F3C7
:100B300006225043E268C2F34162521C5200B0FBED
:100B4000F2F0484517D9A06810F0F00F0CD08807D4
:100B500011D5A86840B10EE0474AE5E78003D0E729
:100B600000F0B6F8484506D9A06820F0F00040F043
:100B70008000A0608027A068696820F00300084317
:100B8000A060FFF755FD814606E000BFFFF750FD6E
:100B9000A0EB090151453AD8A068696800F00C0043
:100BA000B0EB810FF2D12868810714D5400703D537
:100BB000A06840F4E060A0602878000705D5A06830
:100BC00020F4605040F4E060A060A068A96820F0C4
:100BD000F000084304E0802F03D1A06820F0F0006B
:100BE000A060D8F80010404601F00F01B14216D9BC
:100BF000016821F00F0131430160FFF719FD07463D
:100C000007E000BFFFF714FDC11B514501D90320C8
:100C10007AE7D8F8000000F00F00B042F2D128784F
:100C2000400705D5A068E96820F4E0600843A060AB
:100C30002878000706D5A068296920F4605040EAAA
:100C4000C100A06000F044F8A1680C4AC1F3031190
:100C5000515C01F01F01C84009490860094800685B
:100C6000BDE8F047FFF702BD00200240001002403F
:100C700000B4C4040024F40000366E01D456000809
:100C8000580000204C00002005480649006889688B
:100C9000054AC1F30221515C01F01F01C8407047B1
:100CA0005800002000100240E4560008054806499C
:100CB00000688968054AC1F3C221515C01F01F0137
:100CC000C84070475800002000100240E456000859
:100CD000184910B58868C0F381021748012A0BD063
:100CE0008A68164BC2F38102022A06D08A68C2F3D0
:100CF0008102032A03D0002010BD184610BDCA6827
:100D000002F00304CA68C2F30312521C032C02D07F
:100D1000B0FBF2F001E0B3FBF2F0CA68C968C2F3BD
:100D200006225043C1F34161491C4900B0FBF1F078
:100D300010BD0000001002400024F40000366E01D7
:100D40002DE9F84304007AD02078FA4DC00747D047
:100D5000A868E96800F00C0001F003010C2802D03B
:100D6000082817D001E0032914D06068B0F5803F4F
:100D700017D0B0F5A02F286817D020F48030286055
:100D8000286820F4802028606068E0B1FFF750FCFC
:100D9000064614E02868800322D560680028D2D077
:100DA0001EE0286840F48030EDE740F480202860A1
:100DB000F7E700BFFFF73CFC801B642870D8286869
:100DC0008003F7D50CE0FFF733FC064605E000BFD3
:100DD000FFF72EFC801B6428F0D828688003F7D426
:100DE000207880074CD5A868E96800F00C0001F075
:100DF00003010C2802D004280DD001E002290AD0FA
:100E0000E068002828682BD040F480702860FFF745
:100E10000FFC064619E02868400502D5E068002866
:100E200091D06868217C20F0FE4040EA0160686053
:100E3000C1480068FFF71AFC002800D120E076E1E5
:100E4000FFF7F6FB801B0228B8D828684005F7D5C5
:100E50006868217C20F0FE4040EA016068600FE095
:100E600020F480702860FFF7E3FB064605E000BF32
:100E7000FFF7DEFB801B0228A0D828684005F7D4C6
:100E80002078000729D560690028D5F8940013D090
:100E900040F00100C5F89400FFF7CAFB064606E0E3
:100EA00090E000BFFFF7C4FB801B022886D8D5F86E
:100EB00094008007F6D510E020F00100C5F89400FA
:100EC000FFF7B6FB064604E0FFF7B2FB801B0228E3
:100ED00078D8D5F894008007F6D42078400761D5FB
:100EE000A86D0026C00008D4A86D40F08050A86509
:100EF000A86D012600F08050009090480168C90557
:100F000011D40168804641F480710160FFF790FBC5
:100F1000074604E0FFF78CFBC01B022852D8D8F824
:100F20000000C005F6D5A068012815D00528D5F821
:100F3000900016D020F00100C5F89000D5F8900080
:100F400020F00400C5F89000A06841F28838B8B1DC
:100F5000FFF76EFB07460EE0D5F8900040F0010069
:100F6000F0E740F00400C5F89000F5E7FFF760FBFC
:100F7000C11B414526D8D5F890008007F6D50CE076
:100F8000FFF756FB074604E0FFF752FBC11B414544
:100F900018D8D5F890008007F6D41EB1A86D20F0BF
:100FA0008050A8652078800629D5A0690028D5F84A
:100FB000980013D040F00100C5F89800FFF738FB07
:100FC000064606E077E000BFFFF732FB801B0228F1
:100FD00077D8D5F898008007F6D510E020F001000A
:100FE000C5F89800FFF724FB064604E0FFF720FB56
:100FF000801B022865D8D5F898008007F6D4E069F0
:10100000F0B3A968C1F38101032961D002282868DF
:1010100020F0807028600BD0E86820F00300E860C2
:10102000E86847490840E860FFF702FB04464BE0E8
:10103000FFF7FEFA064604E0FFF7FAFA801B0228E3
:101040003FD828688001F7D4F4E908016FF00F0257
:1010500002EB01110843218A5204490802EB415175
:10106000A26841EA02210843217D4FF07E424908EF
:1010700002EB41610843217B40EAC160E96800E07E
:1010800062E0304A11400843E860286840F0807010
:101090002860E86840F08070E860FFF7C9FA04460D
:1010A00005E000BFFFF7C4FA001B022809D8286832
:1010B0008001F7D548E004E0FFF7BAFA001B0228E8
:1010C00002D90320BDE8F88328688001F4D43BE00E
:1010D0000128F7D0E868226A00F00301914226D186
:1010E000616A00F0F0020901103991421FD1A26A31
:1010F00000F4FE41B1EB022F19D194F82C2000F03E
:101100007841B1EBC26F12D1218E00F4C0024908C0
:101110004905A1F50011914209D194F8341000F06D
:10112000C06049084906A1F1007181420CD001203C
:10113000C8E70000001002404C0000200070004092
:10114000FFFFEEFE0C809F010020BBE710B5401EA4
:10115000B0F1807F01D3012010BD4FF0E024606129
:101160000F21601703F086F80020A061072020619E
:10117000002010BD7047704770470000F0B590F830
:101180003C20012A4AD0012280F83C20CA688B68A2
:1011900022F440721A434B6822F480621A430B68AF
:1011A00022F400621A430B6922F480521A434B69FD
:1011B00022F400521A430B6B22F480421A430B8B29
:1011C00022F4702242EA0342154C03680026154DB2
:1011D000A34201D0AB4203D1CF6922F080523A43FF
:1011E000A34201D0AB4214D10F8D22F4700242EA27
:1011F00007520F6A22F080723A434F6A22F000725F
:101200003A43A34201D0AB4203D1C96A22F0005253
:101210000A435A6480F83C600020F0BD0220F0BD13
:10122000002C0140003401407047704770470000B7
:10123000F0B590F83C20012A3AD0012580F83C50C6
:10124000022280F83D2003685A689C68194E1A4FA4
:10125000B34201D0BB4204D122F4700C4A6842EA86
:101260000C02DFF858C002EA0C02D1F800C04CEAC8
:10127000020CC3F804C00268B2420DD0B2F1804F34
:101280000AD00F4B9A4207D00E4B9A4204D0BA4272
:1012900002D00D4B9A4204D1896824F0800319438F
:1012A000916080F83D50002180F83C100846F0BD68
:1012B0000220F0BD002C0140003401408FFFFFFDF3
:1012C000000400400008004000400140704710B595
:1012D000040003D094F83D0010B107E0012010BDD8
:1012E000002084F83C00204600F022F8022084F818
:1012F0003D00211D206801F05BFF012084F84800BB
:1013000084F83E0084F83F0084F8400084F84100EF
:1013100084F8420084F8430084F8440084F84500CF
:1013200084F8460084F8470084F83D00002010BD92
:1013300008B50C4A01680C48914207D1016E41F48E
:1013400000310166006E00F4003009E0074A914266
:1013500007D1016E41F480210166006E00F4802007
:10136000009008BD004401400010024000480140C8
:101370002DE9F04706462DED028B01273C4800255C
:10138000DFF8F0809FED3C8A3C4C4FF0020986422A
:1013900030D122790068B90722B1012A09D0022A86
:1013A00010D023E04562086A40F00200086227710D
:1013B0001CE0406AE061086A20F00200086284F8DC
:1013C000049013E0406AB8FBF0F1C4E9080194ED21
:1013D000070AB8EE400A60EE080A00EE100AB8EEFE
:1013E000400A80EE801A84ED0A1A257100212048F7
:1013F00000F062F92248864236D16279214922B151
:10140000012A0AD0022A12D026E000684562086844
:1014100040F00200086067711EE00068406AE06208
:10142000086820F00200086084F8059014E0006865
:10143000406AB8FBF0F1C4E90C0194ED0B0AB8EE78
:10144000400A60EE080A00EE100AB8EE400A80EE8C
:10145000801A84ED0E1A65710021BDEC028B0848DC
:10146000BDE8F04700F028B9BDEC028BBDE8F0877D
:10147000F800002040420F000000C8420800002091
:1014800044010020200400402DE9F041054690F879
:101490003C000C46012836D0012085F83C008AB378
:1014A000042A42D02868082A51D0D4E90023E168F0
:1014B000066A26F480560662C669076A26F44076F4
:1014C00046EA03234FF6FF7606EA013123F4704320
:1014D00019434FF4204627F4204306EA02321A4308
:1014E000C16102622868C16921F44061C161286854
:1014F000C169A26841EA0221C161002085F83C006F
:10150000BDE8F08101E00220FAE7D4E90012E368C7
:10151000286802F049F82868816921F00C0181618E
:1015200028688169A26811430FE0D4E90012E368DA
:10153000286802F06FF82868816921F440618161B0
:1015400028688169A26841EA02218161D5E7D4E96E
:101550000027267B016A21F480710162C169036A58
:1015600021F00301394321F0F00731074FF42066E1
:1015700047EA116123F4206306EA02221A43C1619B
:1015800002622868C16921F00C01C1612868C16943
:10159000A2681143B0E710B5040003D094F83D00F1
:1015A00010B107E0012010BD002084F83C00204667
:1015B00000F022F8022084F83D00211D206801F08F
:1015C000F7FD012084F8480084F83E0084F83F00CD
:1015D00084F8400084F8410084F8420084F8430015
:1015E00084F8440084F8450084F8460084F84700F5
:1015F00084F83D00002010BD10B586B004461421CB
:101600006846FEF73DFE2368002128480222B3F118
:10161000804F27D0264CA34222D1836D43F0020392
:101620008365836D03F002030593C36C43F00203EB
:10163000C364C06C00F00200059010200090CDE95A
:101640000121CDE9031269461A48FEF703FF002283
:1016500011461D20FFF756F85FF01D00FFF744F814
:1016600006B010BD836D43F001038365836D03F005
:1016700001030593C36C43F00103C364C06C00F025
:10168000010005904FF400400090CDE901210120B8
:10169000CDE9031069464FF09040FEF7DBFE0022D3
:1016A00011461C20FFF72EF81C20D7E7001002403F
:1016B000000400400004004810B5044679B1042934
:1016C00012D0082915D00C2918D0102919D094F857
:1016D000430000BF94F84720012817D114E094F884
:1016E0003E0094F84420F7E794F83F0094F8452032
:1016F000F2E794F8400094F84620EDE794F84100B2
:10170000E8E794F84200E5E7012A01D0012010BD86
:10171000022071B1042915D008291CD00C2936D01B
:10172000102937D084F8430084F847000C291BD1D6
:1017300033E084F83E0084F844002068C26842F038
:10174000020210E084F83F0084F845002068C26877
:1017500042F0040207E084F8400084F84600206864
:10176000C26842F00802C2600122206801F078FDE0
:10177000206881680B4A1140062906D0B1F5803FE8
:1017800003D0016841F001010160002010BD84F820
:101790004100C9E784F84200C6E72068C26842F009
:1017A0001002E0E70700010070B504460068016917
:1017B0004FF00005C943890715D4C168C94389079B
:1017C00011D4E91E0161012020772068806980071B
:1017D000204602D0FFF7CCFD04E000F01BF92046C4
:1017E00000F0DAF9257720680169C943490717D461
:1017F000C168C943490713D46FF004010161022095
:1018000020772068806910F4407F204602D0FFF7DF
:10181000AFFD04E000F0FEF8204600F0BDF92577AA
:1018200020680169C943090716D4C168C94309077B
:1018300012D46FF008010161042020772068C0698C
:101840008007204602D0FFF793FD04E000F0E2F8A5
:10185000204600F0A1F9257720680169C943C9062F
:1018600017D4C168C943C90613D46FF010010161D0
:10187000082020772068C06910F4407F204602D0FD
:10188000FFF776FD04E000F0C5F8204600F084F98B
:10189000257720680169C943C90708D1C168C943D0
:1018A000C90704D1891E0161204600F0E1F92068D2
:1018B0000169C943090609D4C168C943090605D4A9
:1018C0006FF0800101612046FFF755FC2068016937
:1018D000C943C90509D4C168C943090605D46FF4D1
:1018E000807101612046FFF745FC20680169C9430A
:1018F000490609D4C168C943490605D46FF04001BF
:101900000161204600F0B5F920680169C9438906E4
:1019100009D4C168C943890605D46FF0200101616B
:101920002046FFF729FC20680169C943C90209D490
:10193000C168C943C90205D46FF480110161204612
:10194000FFF773FC20680169C943890209D4C168A3
:10195000C943890205D46FF4001101612046FFF7E5
:1019600063FC20680169C943490209D4C168C943BD
:10197000490205D46FF4800101612046FFF756FC4F
:1019800020680169C94309020BD4C168C94309022F
:1019900007D46FF4000101612046BDE87040FFF7F5
:1019A00095BC70BD70B586B0044614216846FEF73C
:1019B00067FC154E256800221449022401234FF0CC
:1019C0009040B54209D1CD6C45F00105CD64C96C9C
:1019D00001F00101059140210BE00D4EB54210D1FF
:1019E000CD6C45F00105CD64C96C01F00101059194
:1019F00080210091CDE901426946CDE90323FEF73C
:101A000029FD06B070BD00000044014000100240F6
:101A100000480140704770B5044690F83C000D4600
:101A200001280BD0012084F83C000C2A45D007DCAB
:101A30005AB1042A1BD0082A78D12CE0022070BDAC
:101A4000102A4ED0142A71D15DE0206801F016FCF6
:101A50002068816941F0080181612068816921F075
:101A600004018161206881692A69114311E02068BD
:101A700001F052FC2068816941F4006181612068B5
:101A8000816921F480618161206881692A6941EA64
:101A9000022181614AE0206801F086FC2068C1696A
:101AA00041F00801C1612068C16921F00401C161F0
:101AB0002068C1692A69114311E0206801F0BCFC6B
:101AC0002068C16941F40061C1612068C16921F4E5
:101AD0008061C1612068C1692A6941EA0221C1614E
:101AE00024E0206801F0F0FC2068016D41F008015D
:101AF00001652068016D21F0040101652068016D18
:101B00002A69114311E0206801F016FD2068016D7B
:101B100041F4006101652068016D21F48061016577
:101B20002068016D2A6941EA02210165002084F8DC
:101B30003C0070BD10B5040003D094F83D0010B116
:101B400007E0012010BD002084F83C00204600F092
:101B500022F8022084F83D00211D206801F028FBB6
:101B6000012084F8480084F83E0084F83F0084F89F
:101B7000400084F8410084F8420084F8430084F86F
:101B8000440084F8450084F8460084F8470084F84F
:101B90003D00002010BD70477047000010B504469E
:101BA000022269B1042912D0082917D00C291CD0AF
:101BB000102921D094F84300012824D0012010BD21
:101BC00094F83E000128F9D184F83E201DE094F8F5
:101BD0003F000128F2D184F83F2016E094F840003D
:101BE0000128EBD184F840200FE094F8410001284F
:101BF000E4D184F8412008E094F842000128DDD1C6
:101C000084F8422001E084F843200122206801F09A
:101C100027FB1149206888420BD01049884208D020
:101C20000F49884205D00F49884202D00E498842A8
:101C300003D1416C41F400414164206881680B4A42
:101C40001140062906D0B1F5803F03D0016841F06C
:101C500001010160002010BD002C01400034014052
:101C600000400140004401400048014007000100DD
:101C70007047704790F87C10012918D0012180F836
:101C80007C102421C0F8801050F8601B0A680B6893
:101C900023F001030B6022F000510022426050F853
:101CA000603C1960202101620277104670470220D3
:101CB0007047704770B5044690F87C0001281DD02D
:101CC000012084F87C002420C4F880002068056886
:101CD000026822F0010202602068826822F06062DD
:101CE0000A438260204601F0B1FC20680560202094
:101CF000C4F88000002084F87C0070BD022070BD14
:101D000070B5044690F87C0001281DD0012084F8AD
:101D10007C002420C4F8800020680568026822F056
:101D2000010202602068826822F060420A438260F9
:101D3000204601F08BFC206805602020C4F880005C
:101D4000002084F87C0070BD022070BD7047704791
:101D5000704700002DE9F04103680446D8691A680D
:101D6000996810F00F0F4FF0000569D05E4E02F435
:101D700090770E4037437DD0C70709D0D70507D5E8
:101D800001271F62D4F8883043F00103C4F888307B
:101D900083070AD5CB0708D0276802233B62D4F813
:101DA000883043F00403C4F8883043070AD5CB07D2
:101DB00008D0276804233B62D4F8883043F002033C
:101DC000C4F8883003070CD502F02003334308D051
:101DD000266808233362D4F8883043F00803C4F837
:101DE0008830D4F88830002B3CD0800609D502F02A
:101DF000200001F08051084303D0E16E09B1204674
:101E00008847D4F8880021688968490601D400070A
:101E10002AD5204601F0EAFC2068816849061ED5D3
:101E2000816821F040018160A06FC0B12F498163BA
:101E3000A06FFEF7C1FA002814D0A06F816B0AE0F2
:101E4000860617D502F0200601F080573E4311D0D8
:101E5000E16E24E02046BDE8F04108470AE0204654
:101E6000FFF776FFBDE8F0812046FFF771FFC4F869
:101E70008850F7E7C60209D54E0207D54FF4801007
:101E800018622046BDE8F041FFF761BF060609D59C
:101E900002F0800601F400010E4303D0216F0029F7
:101EA000D8D1DFE741060DD551060BD5196820467C
:101EB00021F0400119602021C4F88010256700F04E
:101EC00087F9CFE7010206D5510004D52046BDE8C9
:101ED000F041FFF73BBFC001C4D5002AC2DA20465B
:101EE000BDE8F041FFF7E5BE01000010D73700085C
:101EF00010B5040003D0D4F8800010B107E0012031
:101F000010BD002084F87C00204600F027F8242033
:101F1000C4F880002068016821F0010101602046BA
:101F200001F076FD0128EBD0A06A10B1204601F047
:101F3000BFFB2068416821F49041416020688168BE
:101F400021F02A0181602068016841F001010160EF
:101F50002046BDE8104001F00FBC000010B586B06F
:101F6000044614216846FEF78BF917492068884219
:101F700027D11648016E41F480410166016E01F4DB
:101F800080410591C16C41F00101C164C06C69469A
:101F900000F0010005904FF4C06000900220019015
:101FA000002002900390072004904FF09040FEF72D
:101FB00051FA002211462520FEF7A4FB2520FEF74A
:101FC00093FB06B010BD0000003801400010024035
:101FD00070B5D0F88430202B6DD1B9B1B2B190F882
:101FE0007C30012B67D0012380F87C308165A0F81C
:101FF0005C20A0F85E200021C16683684FF4805603
:10200000FF24B34207D1036913B11CE0012070BD66
:1020100040F2FF131DE07F259BB1B3F1805F15D027
:10202000A0F86010C0F888102223C0F8843003683C
:102030009C6844F001049C60436EB3F1005F0ED0D5
:1020400027E0036943B9A0F86040EBE703691BB1DF
:102050003F23A0F86030E5E7A0F86050E2E7B0F871
:102060006830934215D88268B24201D1026972B1D8
:10207000124AC26680F87C1001680A6842F48072D5
:102080000A600068816841F0805181600FE00C4A6D
:10209000EFE78268B24201D1026952B1094AC266D1
:1020A00080F87C100068016841F4907101600020A4
:1020B00070BD054AF3E7022070BD000071390008C9
:1020C0007138000811390008113800080D4810B5A2
:1020D00001680D488161C11D0C4B0A78C1785A54C2
:1020E000491CC1700A2A04D10021C170587800F03F
:1020F000F5FB05490122BDE81040C91D0448FFF762
:1021000067BF00005400002008000020600000208D
:102110006C0000202DE9F8430446D0F880001F46EB
:1021200016460D46202851D1DDB1D6B194F87C0079
:1021300001284BD0012084F87C004FF00008C4F83F
:1021400088802120C4F880001834FEF771FAA68731
:102150008146E68754F8100C183CB0F5805F03D038
:1021600004E00120BDE8F883206910B12E46002567
:1021700010E000260EE08021204602F01CF8B8B9DD
:10218000C6B116F8010B21688862B4F85600401EEB
:10219000A4F85600B4F856004B464FF000020097E2
:1021A0000028E8D14FF04001204602F004F830B199
:1021B0000320D7E735F8020BC0F30800E3E720203F
:1021C000C4F8800084F87C800020CBE70220C9E7B7
:1021D0007047FEE700B585B014216846FEF750F859
:1021E000C0200090012001900290022003906946D7
:1021F0000248FEF72FF905B000BD000000040048BA
:1022000070B50824002500F03FFF13E06806050EB6
:10221000002000F021FF142002F0FBF8142002F04F
:10222000F8F8012000F018FF142002F0F2F800F096
:102230001FFF0543641EE4B2E8D2002000F00CFF4B
:10224000142002F0E6F800F041FF284670BD70B59A
:102250000446082516E000F0FFFE142002F0D9F82D
:1022600004F0800000F026FF142002F0D2F860068F
:10227000040E142002F0CDF8012000F0EDFE142031
:1022800002F0C7F86D1EEDB24FF00000E3D200F08F
:10229000E3FEBDE87040142002F0BBB810B5012089
:1022A00000F008FF142002F0B4F8142002F0B1F896
:1022B000012000F0D1FE142002F0ABF8002000F065
:1022C000CBFEBDE81040142002F0A3B810B50120E9
:1022D00000F0F0FE142002F09CF8012000F0BCFE9B
:1022E000142002F096F8002000F0E4FE142002F022
:1022F00090F8002000F0B0FEBDE81040142002F07D
:1023000088B810B5002000F0A7FE142002F081F874
:10231000002000F0CFFE142002F07BF8012000F036
:102320009BFE142002F075F8012000F0C3FEBDE80A
:102330001040142002F06DB810B5052400F0A4FE82
:10234000142002F066F8012000F086FE142002F04E
:1023500060F805E0641EA4B2142002F05AF86CB1D3
:1023600000F086FE0028F5D100F0B0FE002000F05D
:1023700073FE142002F04DF8002010BD00F0A6FE00
:10238000FFF7BFFF012010BD70B526480168264C3D
:102390006269891A0A293DD30068606100F048F833
:1023A00022484FF00002017804F10C00CB0708D05E
:1023B000A37933B903785B1CDBB203700A2B00D11D
:1023C00002708B0708D5A37933B943785B1CDBB265
:1023D00043700A2B00D142704B0708D5A37933B95B
:1023E00083785B1CDBB283700A2B00D182700907F3
:1023F00010D50D4B0578093300211E78B5420AD15E
:1024000045785E78B54206D185789B789D4202D1A9
:102410000120A07170BD4254491CC9B20329FAD3EE
:1024200070BD00005400002008000020480000207B
:1024300070B5114C01212046FEF7F0F80546022147
:102440002046FEF7EBF845EA400504212046FEF75A
:10245000E5F845EA800401214FF09040FEF7DEF8F0
:10246000064944EAC00040F0F0004A78C04320EA40
:1024700002020A70487070BD000400484800002045
:1024800000B585B014216846FDF7FAFE4FF6FF70DF
:10249000009000200321CDE9020101906946024825
:1024A000FDF7D8FF05B000BD0008004800B585B0B5
:1024B00014216846FDF7E4FE4FF6FF7000900120FE
:1024C0000190032003900020029069460248FDF726
:1024D000C1FF05B000BD00000008004870B5002431
:1024E00006462146204600F055F900F093F94FF4D6
:1024F0009635304600F062F9641CAC42F9D370BDE9
:1025000030B587B014216846FDF7BAFE1E48C16C8D
:1025100041F00401C164C16C01F004010591C16C7A
:1025200041F00101C164C16C01F001010591C16C70
:1025300041F00201C164C06C012500F00200059069
:102540004FF44870CDE900050024039469460294D5
:102550000E48FDF77FFF280203940090CDE9015457
:102560004FF0904469462046FDF774FFFFF79EFF49
:10257000A06940F48070A06104481830016841F4FB
:102580000871016007B030BD00100240000400482F
:10259000203AD2B2034B02EB420203EB021200F0EC
:1025A00019B8000004450008F0B50E46074600259E
:1025B00040F23F1407E021463846FFF7E9FF103CA0
:1025C0006D1CA4B2761C3278002A01D0142DF2D3EF
:1025D000F0BD00002DE9F04791468A4600260446EA
:1025E00000F0D8F8DFF84080012700BF00F012F9B2
:1025F0005FF0000539F8160007FA05F10842404679
:1026000001D1408800E0008800F0D8F86D1C102D42
:10261000F0D3641CE4B25146204600F0BBF8761CAF
:10262000182EE3D3BDE8F0870000002010B5FFF7B7
:1026300067FF002000F066F8084CA080A088A0F595
:102640000241303906D000F0EFFB002000F05AF8CC
:10265000A08010BD00F05FFBF7E700000000002045
:1026600010B51A4986B00A681948C36BD21AC82A2D
:1026700029D30968C1638079002824D115A168464F
:1026800001F0E4FD69461820FFF78EFF104C14A1FD
:102690000C346846227801F0D9FD69464820FFF7DE
:1026A00083FF627811A1684601F0D0FD6946602081
:1026B000FFF77AFFA27810A1684601F0C7FD6946CE
:1026C0007820FFF771FF06B010BD00005400002015
:1026D000080000202020202020202050534400000B
:1026E0002020202042313A256400000020202020B4
:1026F00042323A25640000002020202042333A254F
:102700006400000070B51D490A6842F400720A6056
:102710000A6842F480720A60184C103C226842F049
:1027200020022260164A1060086840F0200008600D
:1027300000BF00BF00BF206840F02000206020687C
:1027400040F480702060FFF79BFE4FF09041886A54
:1027500040F48070886200BF00BF00BF0848001FBF
:10276000006885B2886940F480708861FFF79EFE3A
:10277000206840F400702060284670BD280400489E
:102780001408004801B5BDF800000149488008BDA3
:102790000000002010B50C460146202000F068F82B
:1027A0002146BDE81040212000F062B801B5BDF817
:1027B00000000149088008BD00000020134A11688C
:1027C00041F400711160114910390B6843F48073B2
:1027D0000B600B6843F020030B600D4B1860106812
:1027E00040F02000106000BF00BF00BF086840F04C
:1027F00020000860086840F48070086000BF00BFD7
:1028000000BF086840F40070086070472804004862
:10281000140800481449086840F40070086008680B
:1028200040F48070086010481038026842F02002BE
:1028300002600E4B22221A600A6842F020020A60EF
:1028400000BF00BF00BF016841F0200101600168C6
:1028500041F48071016000BF00BF00BF016841F416
:102860000071016070470000280400481408004807
:10287000184B10B51A6842F400721A601A6842F4D4
:1028800080721A60134A103A146844F020041460ED
:10289000114C2060186840F02000186000BF00BF95
:1028A00000BF106840F020001060106840F4807095
:1028B00010602160186840F02000186000BF00BF61
:1028C00000BF106840F020001060106840F4807075
:1028D000106010BD280400481408004870B5124D5F
:1028E000044601224FF47F412846FDF79CFE0F4E1F
:1028F000012204213046FDF796FE002204213046D5
:10290000FDF791FE210200222846FDF78CFE0122F0
:1029100004213046FDF787FE3046BDE870400022B6
:102920000421FDF780BE000000080048000C0048AC
:1029300010B5FFF7CBFC5F20FFF789FCFFF7FCFC2D
:10294000FFF75EFC0446FFF7A9FCFFF7DAFC204620
:1029500010BD10B50446FFF7B9FC5E20FFF777FC09
:10296000FFF7EAFC2046FFF772FCFFF7E5FCBDE845
:102970001040FFF7C6BC00002DE9F04F87B01421CE
:102980006846FDF77DFC4048C16C41F00401C1641C
:10299000C16C01F004010591C16C41F02001C164DA
:1029A000C16C01F020010591C16C41F00101C164CD
:1029B000C16C01F001010591C16C41F00201C164DB
:1029C000C16C01F002010591C16C41F00801C164C4
:1029D000C06CDFF8B88000F008004FF6FF74059077
:1029E000002221464046FDF71EFE4FF480764FF050
:1029F0009049002231464846FDF715FEDFF890A0C9
:102A0000002204215046FDF70EFEDFF888B04FF497
:102A10004877002239465846FDF705FE0125CDE9E5
:102A2000004500240294694640460394FDF712FDD8
:102A3000CDE90054694648460294FDF70BFD072096
:102A4000CDE90004694658460294FDF703FD00965F
:102A5000CDE90154694648460394FDF7FBFC042088
:102A60000090CDE90154694650460394FDF7F2FC0D
:102A70000097CDE90154694658460394FDF7EAFCF6
:102A800007B0BDE8F08F00000010024000080048C9
:102A9000000C00480004004810B594B01C210DA89B
:102AA000FDF7EEFB34216846FDF7EAFB1F481E499F
:102AB000002401604F21C0E901146321C0E903141F
:102AC00044618461FEF703FC08B1FDF774FC17480C
:102AD000FFF730F808B1FDF76EFC60200D90322052
:102AE000CDE90E0410941194129400220DA90F4800
:102AF0001394FEF790FF08B1FDF75DFC00944FF4CE
:102B00000050CDE904400194029403940694694670
:102B100006480C94FEF732FB08B1FDF74CFC034865
:102B2000FEF740FF14B010BD0044014090010020AA
:102B300010B594B01C210DA8FDF7A2FB3421684606
:102B4000FDF79EFB20481F49002401604F21C0E98A
:102B5000011440F2E731C0E9031444618461FEF7D7
:102B6000B6FB08B1FDF727FC1748FEF7E3FF08B1F5
:102B7000FDF721FC60200D90C820CDE90E041094D3
:102B80001194129400220DA90F481394FEF743FFED
:102B900008B1FDF710FC00944FF40050CDE904405B
:102BA0000194029403940694694607480C94FEF736
:102BB000E5FA08B1FDF7FFFB0348FEF7F3FE14B09A
:102BC00010BD000000480140DC01002010B588B0B5
:102BD00000241848059406940494009401940294E7
:102BE0004FF08041039401604F21C0E90114611E40
:102BF000C0E903148461FEF7CEFC08B1FDF7DBFBEE
:102C0000049404A90B480694FEF712FB08B1FDF7E3
:102C1000D2FB0120CDE9004002940022694605481C
:102C20000394FEF731FC002801D0FDF7C4FB08B087
:102C300010BD0000F800002010B588B0002419482D
:102C40000594069404940094019402941449039406
:102C500001604F21C0E901144FF6FF71C0E9031470
:102C60008461FEF798FC08B1FDF7A5FB049404A964
:102C70000C480694FEF7DCFA08B1FDF79CFB012036
:102C8000CDE9004002940022694606480394FEF70D
:102C9000FBFB002801D0FDF78EFB08B010BD000043
:102CA0000004004044010020184810B51649016096
:102CB0004FF4E1314160002181600C22C160C0E924
:102CC00004128161C161016241628162FFF710F902
:102CD00008B1FDF770FB00210C48FFF711F808B1AF
:102CE000FDF769FB00210948FEF7E4FF08B1FDF795
:102CF00062FB0648FEF7BEFF002803D0BDE8104087
:102D0000FDF759BB10BD0000003801406C000020E9
:102D1000FEE77047704730B501210020FFF7A8FD9E
:102D20004FF47A70FDF700FB00210120FFF7A0FDB2
:102D300041F290711020FFF79BFD4FF41C51602071
:102D4000FFF796FD01216120FFF792FD0221462049
:102D5000FFF78EFD48F210011320FFF789FD48F2BE
:102D6000FE011220FFF784FD4FF4A0610220FFF75F
:102D70007FFD41F230010320FFF77AFD40F203347A
:102D800021463020FFF774FD21463120FFF770FD0A
:102D900021463220FFF76CFDE51E29463320FFF760
:102DA00067FD03213420FFF763FD21463520FFF73F
:102DB0005FFD14213620FFF75BFD21463720FFF72A
:102DC00057FD21463820FFF753FD21463920FFF7F4
:102DD0004FFD29463A20FFF74BFD03213B20FFF72B
:102DE00047FD21463C20FFF743FD4FF4A0513D2015
:102DF000FFF73EFD4FF400719220FFF739FD2146A9
:102E00009320FFF735FD40F60D019020FFF730FDD0
:102E100041F218010320FFF72BFDBDE8304040F2DE
:102E200073110720FFF724BD10B543F20801E3201A
:102E3000FFF71EFD1221E720FFF71AFD41F23121B5
:102E4000EF20FFF715FD00210120FFF711FD4FF4E2
:102E5000E0610220FFF70CFD41F230010320FFF793
:102E600007FD00210420FFF703FD40F207210820A1
:102E7000FFF7FEFC00210920FFF7FAFC00210A20E1
:102E8000FFF7F6FC00210C20FFF7F2FC00210D20DB
:102E9000FFF7EEFC00210F20FFF7EAFC00211020D5
:102EA000FFF7E6FC07211120FFF7E2FC00211220CA
:102EB000FFF7DEFC00211320FFF7DAFCC820FDF746
:102EC000B7FA41F290611020FFF7D2FC40F22721BF
:102ED0001120FFF7CDFC3220FDF7AAFA1D211220A8
:102EE000FFF7C6FC3220FDF7A3FA4FF40061132070
:102EF000FFF7BEFC14212920FFF7BAFC0B212B2081
:102F0000FFF7B6FC3220FDF793FA00212020FFF7EF
:102F1000AFFC00212120FFF7ABFC07213020FFF799
:102F2000A7FC40F207713120FFF7A2FC06213220F6
:102F3000FFF79EFC40F204713520FFF799FC41F643
:102F400004713620FFF794FC04213720FFF790FC32
:102F500000213820FFF78CFC40F206713920FFF782
:102F600087FC40F201713C20FFF782FC0F213D20DD
:102F7000FFF77EFC00215020FFF77AFCEF21512063
:102F8000FFF776FC00215220FFF772FC40F23F1160
:102F90005320FFF76DFC4FF41C516020FFF768FCD5
:102FA00001216120FFF764FC00216A20FFF760FC2B
:102FB00000218020FFF75CFC00218120FFF758FCF6
:102FC00000218220FFF754FC00218320FFF750FCF2
:102FD00000218420FFF74CFC00218520FFF748FCEE
:102FE00010219020FFF744FC00219220FFF740FCC5
:102FF00003219320FFF73CFC4FF488719520FFF7E5
:1030000037FC00219720FFF733FC00219820FFF7C1
:103010002FFC41F218010320FFF72AFCBDE8104005
:1030200040F273110720FFF723BC000007490A682C
:1030300007488369D21A322A07D3096881610021BF
:10304000C170044801604160018170475400002054
:10305000080000206000002008B1044801E0034897
:103060001030016841F040010160704718040048C9
:1030700010B580210348FDF7D1FA012800D00020C7
:1030800010BD00000004004800B585B0142168465A
:10309000FDF7F6F8802000900020019001200290BA
:1030A0000220039069460248FDF7D4F905B000BD3F
:1030B0000004004808B1044801E0034810300168EA
:1030C00041F08001016070471804004800B585B0E8
:1030D00014216846FDF7D4F880200090112001905B
:1030E000002002900220039069460248FDF7B2F9E1
:1030F00005B000BD000400487047FDF79FBA00000E
:1031000030B5A5B038216846FDF7BAF814211FA8DC
:10311000FDF7B6F844210EA8FDF7B2F84FF400759C
:103120002846FDF721FB0221C801039040200490AE
:103130000091079108911420CDE909100B910C9191
:1031400068460D91FDF7FCFD0F201F900024032021
:10315000CDE92004014622941FA82394FDF7A6FC84
:1031600005480E9040070F94CDE91D050EA8FDF708
:1031700059FB25B030BD00000180080005480168FA
:1031800041F47001016003494FF00060803908602C
:103190007047000088ED00E00148FEF705BB000025
:1031A000F80000200148FEF7FFBA000044010020AB
:1031B0002DE9F0430268234B234D244E244C4FF05D
:1031C0008049984207D0484505D0A84203D0B04274
:1031D00001D0A04203D122F070074A683A431D4F44
:1031E000DFF874C0DFF8748098420DD048450BD0EA
:1031F000A84209D0B04207D0A04205D0B84203D0BF
:10320000604501D0404503D122F44075CA682A4385
:103210004D6922F080022A4302608A68C2620A680D
:103220008262984207D0A04205D0B84203D06045E0
:1032300001D0404501D10969016301214161BDE827
:10324000F0830000002C0140000400400008004012
:10325000003401400040014000440140004801406A
:1032600010B501F01F030121046A99408C430462E8
:10327000016A9A401143016210BD00002DE9F0433C
:10328000026A22F001020262056A436882691C4CEC
:1032900025F0020522400C6822F0030214438A68DC
:1032A000194E2A43174D194FDFF864C0DFF86490B8
:1032B000A84207D0B04205D0B84203D0604501D043
:1032C000484506D122F00808CA6842EA080222F0FE
:1032D0000402A84207D0B04205D0B84203D06045EE
:1032E00001D0484505D14D6923F440731D438B69D6
:1032F0002B4343608461496841630262BDE8F08307
:103300008FFFFEFF002C01400034014000400140CF
:103310000044014000480140F0B5026A22F010026A
:103320000262056A42688369194C1B4E23400C688F
:1033300023F4407343EA042425F020038D6843EA14
:103340000513144DA84201D0B04206D1CF6823F036
:10335000800343EA071323F04003A8420AD0B04297
:1033600008D00E4DA84205D00D4DA84202D00D4DFB
:10337000A84207D14D6922F4406242EA85028D6974
:1033800042EA850242608461496881630362F0BD5C
:10339000FF8FFFFE002C014000340140004001403F
:1033A0000044014000480140F0B5026A22F48072F6
:1033B0000262056A4368C269194C1B4E22400C68C0
:1033C00022F00302144325F400728D6842EA0522BC
:1033D000144DA84201D0B04206D1CF6822F4006259
:1033E00042EA072222F48062A8420AD0B04208D002
:1033F0000E4DA84205D00E4DA84202D00D4DA84258
:1034000007D14D6923F4405343EA05138D6943EA1C
:1034100005134360C4614968C1630262F0BD0000E6
:103420008FFFFEFF002C01400034014000400140AE
:103430000044014000480140F0B5026A22F4805285
:103440000262056A4268C369194C1B4E23400C682E
:1034500023F4407343EA042425F400538D6843EABF
:103460000533144DA84201D0B04206D1CF6823F4F1
:10347000004343EA073323F48043A8420AD0B04212
:1034800008D00E4DA84205D00D4DA84202D00D4DDA
:10349000A84207D14D6922F4404242EA85128D6963
:1034A00042EA85124260C461496801640362F0BD6A
:1034B000FF8FFFFE002C014000340140004001401E
:1034C000004401400048014030B5026A22F48032D5
:1034D0000262046A4268036D114D2B400D681D4362
:1034E00024F400330C8943EA04430E4CA0420BD071
:1034F0000D4CA04208D00D4CA04205D00C4CA0426F
:1035000002D00C4CA04204D14C6922F4803242EA31
:1035100004224260056549688164036230BD000091
:103520008FFFFEFF002C01400034014000400140AD
:10353000004401400048014030B5026A22F4801284
:103540000262046A4268036D114D24F400142B409A
:103550000D6843EA05230D8944EA05540D4DA84240
:103560000BD00D4DA84208D00C4DA84205D00C4DF3
:10357000A84202D00B4DA84204D14D6922F480220A
:1035800042EA8522426003654968C164046230BD35
:10359000FF8FFFFE002C014000340140004001403D
:1035A000004401400048014070B5046A24F0010461
:1035B00004628469056A124EB0420ED0B0F1804FA9
:1035C0000BD0104EB04208D00F4EB04205D00F4E77
:1035D000B04202D00E4EB04203D124F00304144393
:1035E00001E044F001041A0724F0F00444EA1262F6
:1035F00025F00A0301F00A0119438261016270BDDE
:10360000002C01400004004000080040003401404C
:103610000040014030B5046A24F01004046284695B
:10362000056A24F4407444EA022222F470444FF6FE
:10363000FF7202EA03322243A02425F0A00304EA29
:10364000011119438261016230BD00003FB514A130
:10365000D1E90021CDE9002113A2D2E90012CDE980
:103660000212416EB9B1026891689268C1F3426179
:10367000520F1DF80240E50002ACA25CB5FBF2F26D
:10368000A0F86A201DF80120615CD200B2FBF1F1C4
:10369000A0F868103FBD0121A0F86A10F8E700000B
:1036A00001010103070100000804020408010101EF
:1036B00090F82810C90706D001684A68C36A22F446
:1036C00000321A434A6090F82810890706D501682D
:1036D0004A68036B22F480321A434A6090F828103B
:1036E000490706D501684A68436B22F480221A43D1
:1036F0004A6090F82810090706D501684A68836B6C
:1037000022F400421A434A6090F82810C90606D5F0
:1037100001688A68C36B22F480521A438A6090F869
:103720002810890606D501688A68036C22F40052C5
:103730001A438A6090F82810490611D501684A6832
:10374000436C22F480121A434A60416CB1F5801F29
:1037500006D101684A68836C22F4C0021A434A60A9
:1037600090F82810090606D501684A68C06C22F452
:10377000002202434A607047F8B500260446C0F8AC
:103780008860FCF755FF0546206800686FF07E47AB
:10379000000708D52B4600224FF400112046009761
:1037A00000F009FD60B92068006840070AD52B4683
:1037B00000224FF480012046009700F0FCFC08B185
:1037C0000320F8BD2020C4F88000C4F8840084F8E9
:1037D0007C600020F8BD10B5806A0021A0F85E1062
:1037E000A0F85610FEF7B4FA10BD000001680A6890
:1037F00022F490720A6001688A68044B1A408A6059
:103800002021C0F884100021C1667047FEFFFFEF41
:1038100010B5B0F86020D0F884300168222B04D0B5
:10382000886940F00800886110BD496A836D1140C5
:103830001980816D891C8165B0F85E10491EA0F861
:103840005E10B0F85E100029EED101680A6822F41B
:1038500090720A6001688A6822F001028A60202161
:10386000C0F884100021C166FEF730FC10BD0000D6
:1038700070B50446B0F86060D0F88400222805D006
:103880002068816941F00801816170BDB4F8685019
:1038900023E02068406AA16D30400880A06D801C44
:1038A000A065B4F85E00401EA4F85E00B4F85E00A7
:1038B00088B92068016821F48071016020688168FE
:1038C000114A114081602020C4F884000020E06685
:1038D0002046FEF7FBFB6D1EADB2002DD9D1B4F82A
:1038E0005E000028D1D0B4F868108142CDD920689C
:1038F000816821F0805181600448E0662068016899
:1039000041F02001016070BDFEFFFFEF113800089B
:1039100010B5B0F86020D0F884300168222B04D0B4
:10392000886940F00800886110BD496A1140826DC5
:103930001170816D491C8165B0F85E10491EA0F8B8
:103940005E10B0F85E100029EED101680A6822F41A
:1039500090720A6001688A6822F001028A60202160
:10396000C0F884100021C166FEF7B0FB10BD000056
:1039700070B50446B0F86060D0F88400222805D005
:103980002068816941F00801816170BDB4F8685018
:1039900023E02068406AA16D30400870A06D401C93
:1039A000A065B4F85E00401EA4F85E00B4F85E00A6
:1039B00088B92068016821F48071016020688168FD
:1039C000114A114081602020C4F884000020E06684
:1039D0002046FEF77BFB6D1EADB2002DD9D1B4F8A9
:1039E0005E000028D1D0B4F868108142CDD920689B
:1039F000816821F0805181600448E0662068016898
:103A000041F02001016070BDFEFFFFEF1139000899
:103A10002DE9F05F0446016880682369E569184371
:103A2000636900272B431843636EFA4A034308680F
:103A3000F94D28401843086020684168E36821F484
:103A40004051194341602168A069914201D0236A25
:103A500018438B68F14D2B4003438B602068C16A8B
:103A6000636A21F00F011943C162ED4B2068ED49F3
:103A700098420DD1D1F8881011F0030106D0012928
:103A80005AD0022956D003293FD157E001253DE005
:103A9000E54B98420BD1D1F8881011F00C0147D0BA
:103AA000042949D0082945D00C292ED146E0DF4B06
:103AB00098420BD1D1F8881011F0300138D010297C
:103AC0003AD0202936D030291FD137E0D84B984240
:103AD0000BD1D1F8881011F0C00129D040292BD08A
:103AE000802927D0C02910D128E090420DD1D1F8EB
:103AF000881011F440611BD0B1F5806F1CD0B1F576
:103B0000006F17D0B1F5406F18D01025DFF824A34F
:103B10004FF480764FF000094FF4004B90426ED185
:103B200075B1022D29D0042D59D0082D68D176E029
:103B30000025EBE70225E9E70425E7E70825E5E7A7
:103B4000FDF7A2F84DE0012851D0022851D00328FA
:103B500051D0042851D0052853D0062853D0072827
:103B600053D0082853D0092853D00A2853D00B2803
:103B700053D03AE0B1FBF0F06CE0606AA8B10128E4
:103B800017D0022817D0032817D0042817D00528EB
:103B900017D0062817D0072817D0082817D00928CB
:103BA00017D00A2817D00B2817D00120BAFBF0F045
:103BB00050E00220FAE70420F8E70620F6E70820A4
:103BC000F4E70A20F2E70C20F0E71020EEE72020CF
:103BD000ECE74020EAE78020E8E73046E6E7FDF73B
:103BE00077F80146606A0028ADD10120C2E70220C3
:103BF000C0E70420BEE70620BCE70820BAE761E181
:103C00004AE00A20B6E70C20B4E71020B2E72020F3
:103C1000B0E74020AEE78020ACE73046AAE7606A14
:103C2000A8B1012822D0022822D0032822D00428BB
:103C300022D0052822D0062822D0072822D0082802
:103C400022D0092822D00A2822D00B2822D00120F5
:103C5000BBFBF0F0002820D06168884601EB4101F1
:103C6000814219D8B0EB083F16D817E00220EFE7E1
:103C70000420EDE70620EBE70820E9E70A20E7E764
:103C80000C20E5E71020E3E72020E1E74020DFE714
:103C90008020DDE73046DBE7012739E27DB3022DE6
:103CA00061D0042D7DD0082DF6D1606AA8B101281D
:103CB00078D0022877D0032876D0042875D005283C
:103CC00074D0062873D0072872D0082871D009282C
:103CD00070D00A286FD00B2800D0012632464D46FE
:103CE000002358460021FCF793FA090241EA1061CB
:103CF00002024FEA580010186941424670E0FFE79F
:103D0000FCF7C2FF0146606AA8B1012817D002285B
:103D100017D0032817D0042817D0052817D0062855
:103D200017D0072817D0082817D0092817D00A2835
:103D300017D00B2800D0012632464D468CE00226D3
:103D4000FAE70426F8E70626F6E70826F4E70A2647
:103D5000F2E70C26F0E71026EEE72026ECE74026F7
:103D6000EAE78026E8E7606AA8B1012824D00228A3
:103D700024D0032824D0042824D0052824D00628C1
:103D800024D0072824D0082824D0092824D00A28A1
:103D900024D00B2800D0012632464D460023504641
:103DA000A0E726E07AE07BE07CE07DE07EE07FE05B
:103DB00080E081E082E083E00226EDE70426EBE785
:103DC0000626E9E70826E7E70A26E5E70C26E3E703
:103DD0001026E1E72026DFE74026DDE78026DBE747
:103DE0000023FCF715FA144AA0F54071914271D9ED
:103DF00052E7FCF76DFF0146606A50B3012839D0E5
:103E0000022839D0032839D0042839D0052839D0E0
:103E1000062813E000800040F369FFCFFFF4FF1194
:103E200000380140001002400044004000480040BB
:103E3000004C00400024F400FFFC0F0024D00728B1
:103E400024D0082824D0092824D00A2824D00B28DC
:103E500000D001264D463246002308461946FCF79D
:103E6000D7F90902626841EA106103025008181884
:103E70006941B5E70226EDE70426EBE70626E9E708
:103E80000826E7E70A26E5E70C26E3E71026E1E740
:103E90002026DFE74026DDE78026DBE702261DE758
:103EA00004261BE7062619E7082617E70A2615E762
:103EB0000C2613E7102611E720260FE740260DE712
:103EC00080260BE7E0694FF6EF78584570D1092D51
:103ED0008ED200E01AE1DFE805F006093C05800516
:103EE00005058300D8E6FCF7CFFE01E0FCF7DEFE17
:103EF0000146606AA8B1012815D0022815D0032810
:103F000015D0042815D0052815D0062815D0072867
:103F100015D0082815D0092815D00A2815D00B2847
:103F200014D0012612E0022610E004260EE0062638
:103F30000CE008260AE00A2608E00C2606E0102617
:103F400004E0202602E0402600E08026B1FBF6F0E7
:103F50001AE0606AA8B101282BD002282BD00328D0
:103F60002BD004282BD005282BD006282BD00728AF
:103F70002BD008282BD009282BD00A282BD00B288F
:103F800000D00126BAFBF6F04100606801EB500159
:103F9000B1FBF0F080B2A0F110014145A2D84FF67C
:103FA000F0710140C0F3420001432068C160AFE0FE
:103FB00046E00226E6E70426E4E70626E2E70826CE
:103FC000E0E70A26DEE70C26DCE71026DAE7202603
:103FD000D8E74026D6E78026D4E7FCF779FE87E7C6
:103FE000606AA8B1012817D0022817D0032817D07B
:103FF000042817D0052817D0062817D0072817D06F
:10400000082817D0092817D00A2817D00B2800D065
:104010000126BBFBF6F0B7E70226FAE70426F8E72D
:104020000626F6E70826F4E70A26F2E70C26F0E76C
:104030001026EEE72026ECE74026EAE78026E8E7B0
:10404000092DBFF4D5AEDFE805F006093C05830570
:104050000505860020E6FCF717FE01E0FCF726FECA
:104060000146606AA8B1012815D0022815D003289E
:1040700015D0042815D0052815D0062815D00728F6
:1040800015D0082815D0092815D00A2815D00B28D6
:1040900014D0012612E0022610E004260EE00626C7
:1040A0000CE008260AE00A2608E00C2606E01026A6
:1040B00004E0202602E0402600E08026B1FBF6F175
:1040C0001AE0606AA8B101282ED002282ED0032859
:1040D0002ED004282ED005282ED006282ED0072832
:1040E0002ED008282ED009282ED00A282ED00B2812
:1040F00000D00126BAFBF6F1606801EB5001B1FB7C
:10410000F0F080B2A0F110014145A3D82168C86049
:104110000120A4F86A0024F8680F3846C4F8049017
:10412000C4F80890BDE8F09F0226E3E70426E1E723
:104130000626DFE70826DDE70A26DBE70C26D9E7B7
:104140001026D7E72026D5E74026D3E78026D1E7FB
:10415000FCF7BEFD84E7606AA8B1012817D00228E9
:1041600017D0032817D0042817D0052817D0062801
:1041700017D0072817D0082817D0092817D00A28E1
:1041800017D00B2800D00126BBFBF6F1B4E70226BE
:10419000FAE70426F8E70626F6E70826F4E70A26F3
:1041A000F2E70C26F0E71026EEE72026ECE74026A3
:1041B000EAE78026E8E72DE9F041984617460E46E3
:1041C0000446069D08E0681C06D0FCF731FAA0EB17
:1041D0000800A8420BD855B12068C06936EA000033
:1041E00019D00020B842EED00020BDE8F081206850
:1041F000016821F4D07101602068816821F001011B
:1042000081602020C4F88000C4F88400002084F875
:104210007C000320E9E70120E4E700000148FDF706
:1042200099BD00006C000020FEE700000FB4054BB4
:1042300010B503A9044A029800F03CF810BC5DF8E0
:1042400014FB0000214400085C0000200FB4084B60
:1042500010B504A902AA039800F02CF8044602A99C
:10426000002000F0D1F8204610BC5DF814FB0000DF
:10427000094400080907090E002804DB00F1E020CA
:1042800080F80014704700F00F0000F1E02080F883
:10429000141D704702E008C8121F08C1002AFAD195
:1042A00070477047002001E001C1121F002AFBD1B6
:1042B000704700002DE9FF4F89B09B46044600255A
:1042C00006E025280BD05A460B999047641C6D1CBC
:1042D00020780028F5D10DB02846BDE8F08F0027E2
:1042E000B8460122474900E0074314F8013F203B4C
:1042F00002FA03F00842F7D120782E2819D114F8D9
:10430000010F47F004072A280ED06FF02F02207803
:10431000A0F1300109290CD808EB880102EB41011A
:1043200000EB0108641CF2E70A98641C50F8048B47
:104330000A9020780028CED0642808D0692806D0BA
:1043400075281ED05A460B9990476D1C58E00A9963
:104350004FF00A0901C90A91002802DA40422D21D2
:1043600002E0390504D52B218DF82010012103E04E
:10437000F90704D02021F7E78A4608AE0DE00021B6
:10438000FAE70A994FF00A0901C90A91F7E7494685
:10439000FBF781FF303106F8011D0028F7D1ADEBA6
:1043A000060000F12009780701D44FF00108C84544
:1043B00002DDA8EB090000E000208046002706E0AF
:1043C00008A85A46C05D0B9990476D1C7F1C574545
:1043D000F6DB04E030205A460B9990476D1CB8F18B
:1043E0000001A8F10108F5DC05E016F8010B5A46BA
:1043F0000B9990476D1CB9F10001A9F10109F4DC9A
:10440000641C65E7092801000A68531C0B601070E2
:104410007047002100E0491C8142FCD37047000036
:1044200013B53223012269460248FDF773FE009856
:104430001CBD00006C000020FCF708F9FEF760FED0
:10444000FEF79AFAFEF730FC012224492448FDF7D2
:10445000BFFDFEF7BBFB00212248FDF72DF9FEF75B
:10446000EBFB00212048FDF727F9FEF761FB002157
:104470001E48FDF793FBFEF70FFB00211C48FDF7DC
:104480008DFBFEF7D3F80020FEF728FA0020FEF798
:1044900025F80020FEF776F94FF6FF70FEF786F953
:1044A000FDF798FE2020FBF74DFF0C4C401CE41F4D
:1044B000C1B261702020FBF763FF7F20FEF749FA4D
:1044C000FEF736FAA0700BA0FFF7B0FEFDF75CFF19
:1044D000FEF7C6F8FEF7AAFDF8E700000F0000207F
:1044E0006C000020F800002044010020DC010020C6
:1044F0009001002048656C6C6F20576F726C6421CE
:104500000D0A000000000000000000000000000094
:10451000000000000000000000000000000000009B
:10452000000000000000000000000000000000008B
:1045300000000000000080018001800180018001F6
:104540008001800180018001800180018001800163
:104550000000000080018001000000000000000059
:104560000000000000000000CC00CC00CC00CC001B
:10457000CC00CC00000000000000000000000000A3
:10458000000000000000000000000000000000002B
:10459000000000000000000000000000000000001B
:1045A000600C600C600C30063006FE1FFE1F3006EB
:1045B00038071803FE1FFE1F180318038C018C0117
:1045C0008C01000000008000E003F80F9C0E8C1CA2
:1045D0008C188C009800F801E007800E801C8C1865
:1045E0008C189C18B80CF00FE003800080000000CD
:1045F000000000000000000000000E181B0C110C51
:1046000011061106110311039B018E01C038C06C05
:1046100060446044304430441844186C0C38000046
:10462000000000000000E001F0033807180618063B
:104630003003F001F000F8009C310E33061E061C1A
:10464000061C063FFC73F021000000000000000083
:1046500000000000000000000C000C000C000C002A
:104660000C000C0000000000000000000000000032
:10467000000000000000000000000000000000003A
:10468000000000000000000200038001C000C00024
:10469000600060003000300030003000300030003A
:1046A0003000300060006000C000C00080010003E6
:1046B00000020000000020006000C00080018001B6
:1046C00000030003000600060006000600060006C0
:1046D000000600060003000380018001C0006000A6
:1046E00020000000000000000000000000000000AA
:1046F000C000C000D806F807E0013003380700000A
:1047000000000000000000000000000000000000A9
:104710000000000000000000000000000000000099
:1047200080018001800180018001FC3FFC3F80010D
:104730008001800180018001000000000000000075
:104740000000000000000000000000000000000069
:104750000000000000000000000000000000000059
:1047600000000000000080018001000100018000C5
:104770000000000000000000000000000000000039
:10478000000000000000000000000000E007E0075B
:104790000000000000000000000000000000000019
:1047A0000000000000000000000000000000000009
:1047B00000000000000000000000000000000000F9
:1047C000000000000000C000C00000000000000069
:1047D000000000000000000C000C000600060006AF
:1047E0000003000300038003800180018001C000FA
:1047F000C000C00060006000000000000000000079
:10480000000000000000E003F007380E180C0C1840
:104810000C180C180C180C180C180C180C180C1878
:10482000180C380EF007E003000000000000000044
:1048300000000000000000018001C001F0019801AB
:104840008801800180018001800180018001800158
:104850008001800180018001000000000000000054
:10486000000000000000E003F80F180C0C180C18F2
:1048700000180018000C000600038001C000600052
:1048800030001800FC1FFC1F0000000000000000AA
:10489000000000000000E001F807180E0C0C0C0CE2
:1048A000000C0006C003C007000C001800180C180C
:1048B0000C18180CF807E0030000000000000000CE
:1048C000000000000000000C000E000F000F800D23
:1048D000C00C600C600C300C180C0C0CFC3FFC3F46
:1048E000000C000C000C000C000000000000000098
:1048F000000000000000F80FF80F180018000C006E
:10490000EC03FC071C0E001C0018001800180C1803
:104910001C0C180EF807E003000000000000000067
:10492000000000000000C007F00F381C1818180025
:104930000C00CC03EC0F3C0E1C1C0C180C180C18B3
:10494000181C380EF007E003000000000000000013
:10495000000000000000FC1FFC1F000C0006000609
:10496000000380038001C001C000E000600060001F
:104970007000300030003000000000000000000037
:10498000000000000000E003F007380E180C180CBF
:10499000180C3806F007F007180C0C180C180C1837
:1049A0000C18380CF80FE0030000000000000000B5
:1049B000000000000000E003F007380E1C0C0C188B
:1049C0000C180C181C1C381EF81BE0190018000CE1
:1049D000000C1C0EF807F0010000000000000000B1
:1049E00000000000000000000000000000000000C7
:1049F00080018001000000000000000000000000B5
:104A000000000000800180010000000000000000A4
:104A10000000000000000000000000000000000096
:104A20008001800100000000000000000000000084
:104A300000000000800180010001000180000000F2
:104A40000000000000000000000000000000000066
:104A5000000000000010001C800FE003F8001800A8
:104A6000F800E003800F001C0010000000000000B0
:104A70000000000000000000000000000000000036
:104A800000000000F81F000000000000F81F0000F8
:104A90000000000000000000000000000000000016
:104AA0000000000000000000000000000000000006
:104AB0000000000008003800F001C007001F0018C7
:104AC000001FC007F00138000800000000000000CF
:104AD000000000000000E003F80F180C0C180C1880
:104AE0000018000C000600038001C000C000C000D8
:104AF00000000000C000C000000000000000000036
:104B00000000000000000000E00718180420C2297F
:104B1000224A114409440944094409221113E20CB0
:104B2000024004201818E007000000000000000008
:104B300000000000000080038003C006C006C0061D
:104B4000600C600C301830183018F83FF83F1C70BB
:104B50000C600C6006C006C00000000000000000F1
:104B6000000000000000FC03FC0F0C0C0C180C18DB
:104B70000C180C0CFC07FC0F0C180C300C300C3013
:104B80000C300C18FC1FFC070000000000000000A7
:104B9000000000000000C007F01F38381C300C7007
:104BA0000660060006000600060006000600066015
:104BB0000C701C30F01FE007000000000000000037
:104BC000000000000000FE03FE0F060E0618061887
:104BD000063006300630063006300630063006183D
:104BE0000618060EFE0FFE03000000000000000085
:104BF000000000000000FC3FFC3F0C000C000C001B
:104C00000C000C00FC1FFC1F0C000C000C000C0026
:104C10000C000C00FC3FFC3F000000000000000006
:104C2000000000000000F83FF83F180018001800CE
:104C300018001800F81FF81F1800180018001800B6
:104C40001800180018001800000000000000000004
:104C5000000000000000E00FF83F3C780E6006E026
:104C600007C00300030003FE03FE03C007C006C025
:104C70000EC03CF0F83FE00F000000000000000014
:104C80000000000000000C300C300C300C300C30F8
:104C90000C300C30FC3FFC3F0C300C300C300C3036
:104CA0000C300C300C300C30000000000000000014
:104CB000000000000000800180018001800180016F
:104CC00080018001800180018001800180018001DC
:104CD00080018001800180010000000000000000D0
:104CE00000000000000000060006000600060006A6
:104CF000000600060006000600060006000618066C
:104D000018063807F003E001000000000000000072
:104D100000000000000006300618060C0606060318
:104D20008601C60066007600DE008E0106030606D8
:104D3000060C0618063006600000000000000000A7
:104D400000000000000018001800180018001800EB
:104D50001800180018001800180018001800180093
:104D600018001800F81FF81F0000000000000000E5
:104D70000000000000000EE01EF01EF01EF036D80D
:104D800036D836D836D866CC66CC66CCC6C6C6C64B
:104D9000C6C6C6C686C386C3000000000000000069
:104DA0000000000000000C301C303C303C306C3007
:104DB0006C30CC30CC308C310C330C330C360C36A0
:104DC0000C3C0C3C0C380C300000000000000000D3
:104DD000000000000000E007F81F1C380E7006609D
:104DE00003C003C003C003C003C003C003C0066008
:104DF0000E701C38F81FE0070000000000000000E3
:104E0000000000000000FC0FFC1F0C380C300C30C0
:104E10000C300C300C18FC1FFC070C000C000C00B4
:104E20000C000C000C000C00000000000000000052
:104E3000000000000000E007F81F1C380E7006603C
:104E400003E003C003C003C003C003C007E0066360
:104E50000E3F1C3CF83FE0F700C0000000000000DF
:104E6000000000000000FE0FFE1F0638063006306E
:104E700006300638FE1FFE0706030606060C061857
:104E80000618063006300660000000000000000032
:104E9000000000000000E003F80F1C0C0C180C18B8
:104EA0000C001C00F803E00F001E0038063006302E
:104EB0000E301C1CF80FE00700000000000000008E
:104EC000000000000000FE7FFE7F80018001800165
:104ED00080018001800180018001800180018001CA
:104EE00080018001800180010000000000000000BE
:104EF0000000000000000C300C300C300C300C3086
:104F00000C300C300C300C300C300C300C300C30C1
:104F10000C301818F81FE007000000000000000027
:104F200000000000000003600630063006300C1858
:104F30000C180C18180C180C380E300630067007B8
:104F400060036003C001C001000000000000000019
:104F50000000000000000360C361C361C3616633E9
:104F6000663366336633663366336C1B6C1B6C1BAF
:104F70002C1A3C1E380E380E000000000000000005
:104F80000000000000000FE00C7018303018700CAA
:104F9000600EC00780038003C003E006700C301C65
:104FA00018180C300E6007E0000000000000000040
:104FB00000000000000003C006600C301C383818E8
:104FC000300C6006E007C003800180018001800191
:104FD00080018001800180010000000000000000CD
:104FE000000000000000FC7FFC7F00600030001823
:104FF000000C000600038001C000600030001800B3
:105000000C000600FE7FFE7F000000000000000094
:10501000000000000000E003E003600060006000AA
:105020006000600060006000600060006000600080
:105030006000600060006000600060006000E003ED
:10504000E0030000000030003000600060006000FD
:10505000C000C000C000C0018001800180010003C9
:10506000000300030006000600000000000000002E
:10507000000000000000E003E00300030003000361
:105080000003000300030003000300030003000308
:105090000003000300030003000300030003E00318
:1050A000E003000000000000C001C00160036003D5
:1050B000600330063006180C180C000000000000D9
:1050C00000000000000000000000000000000000E0
:1050D00000000000000000000000000000000000D0
:1050E00000000000000000000000000000000000C0
:1050F000000000000000FFFFFFFF000000000000B4
:105100000000000000000C000C000C000C000C0063
:105110000C00000000000000000000000000000083
:10512000000000000000000000000000000000007F
:10513000000000000000000000000000000000006F
:10514000F003F8071C0C0C0C000FF00FF80C0C0C03
:105150000C0C1C0FF80FF0180000000000000000FD
:1051600000000000000018001800180018001800C7
:10517000D803F80F380C1818181818181818181819
:105180001818380CF80FD8030000000000000000C9
:10519000000000000000000000000000000000000F
:1051A000C003F007300E180C180018001800180083
:1051B000180C300EF007C0030000000000000000D3
:1051C0000000000000000018001800180018001867
:1051D000C01BF01F301C18181818181818181818A9
:1051E0001818301CF01FC01B000000000000000059
:1051F00000000000000000000000000000000000AF
:10520000C003F00F300C1818F81FF81F1800180012
:105210003818301CF00FC00700000000000000002C
:10522000000000000000800FC00FC000C000C000E0
:10523000F007F007C000C000C000C000C000C00000
:10524000C000C000C000C00000000000000000005E
:10525000000000000000000000000000000000004E
:10526000E00DF80F180E0C0C0C0C0C0C0C0C0C0CAC
:105270000C0C180EF80FE00D000C0C0C1C06F807B7
:10528000F0010000000018001800180018001800B5
:10529000D807F80F381C18181818181818181818E4
:1052A000181818181818181800000000000000003E
:1052B000000000000000C000C0000000000000006E
:1052C000C000C000C000C000C000C000C000C000DE
:1052D000C000C000C000C0000000000000000000CE
:1052E000000000000000C000C0000000000000003E
:1052F000C000C000C000C000C000C000C000C000AE
:10530000C000C000C000C000C000C000C000F80065
:105310007800000000000C000C000C000C000C00D9
:105320000C0C0C060C038C01CC006C00FC009C01E6
:105330008C030C030C060C0C0000000000000000A5
:10534000000000000000C000C000C000C000C0009D
:10535000C000C000C000C000C000C000C000C0004D
:10536000C000C000C000C00000000000000000003D
:10537000000000000000000000000000000000002D
:105380007C3CFF7EC7E383C183C183C183C183C1EA
:1053900083C183C183C183C10000000000000000FD
:1053A00000000000000000000000000000000000FD
:1053B0009807F80F381C1818181818181818181803
:1053C000181818181818181800000000000000001D
:1053D00000000000000000000000000000000000CD
:1053E000C003F00F300C18181818181818181818CF
:1053F0001818300CF00FC00300000000000000007F
:10540000000000000000000000000000000000009C
:10541000D803F80F380C1818181818181818181876
:105420001818380CF80FD8031800180018001800C6
:105430001800000000000000000000000000000054
:10544000C01BF01F301C1818181818181818181836
:105450001818301CF01FC01B001800180018001886
:105460000018000000000000000000000000000024
:10547000B007F00370003000300030003000300022
:10548000300030003000300000000000000000005C
:10549000000000000000000000000000000000000C
:1054A000E003F003380E180C3800F003C007000CBE
:1054B000180C380EF007E0030000000000000000A8
:1054C00000000000000000008000C000C000C0001C
:1054D000F007F007C000C000C000C000C000C0005E
:1054E000C000C000C00780070000000000000000EE
:1054F00000000000000000000000000000000000AC
:10550000181818181818181818181818181818181B
:105510001818381CF01FE0190000000000000000FF
:10552000000000000000000000000000000000007B
:105530000C18180C180C180C3006300630066003D6
:1055400060036003C001C001000000000000000013
:10555000000000000000000000000000000000004B
:10556000C141C141C36163636363636336363636E9
:1055700036361C1C1C1C1C1C000000000000000017
:10558000000000000000000000000000000000001B
:105590001C38381C300C6006600360036003600335
:1055A0006006300C381C1C380000000000000000B1
:1055B00000000000000000000000000000000000EB
:1055C0001830301830187018600C600CE00CC006F1
:1055D000C00680038003800380018001C001F000C9
:1055E000700000000000000000000000000000004B
:1055F000FC1FFC1F000C000600038001C0006000BF
:1056000030001800FC1FFC1F00000000000000001C
:1056100000000000000000038001C000C000C000C6
:10562000C000C000C00060006000300060004000AA
:10563000C000C000C000C000C000C0008001000366
:1056400000000000000080018001800180018001D5
:105650008001800180018001800180018001800142
:105660008001800180018001800180018001800132
:105670008001000000006000C000C00180018001C6
:105680008001800180010003000300060003000187
:10569000800180018001800180018001C0006000E4
:1056A00000000000000000000000000000000000FA
:1056B00000000000F010F81F080F000000000000BC
:1056C00000000000000000000000000000000000DA
:1056D00000000000000000000000000001020304C0
:1056E0000607080900000000010203040C57000827
:1056F0000000002060000000944200086C57000881
:1057000060000020C8050000A44200080000FFFF60
:1057100000000000FF00000000000000000000008A
:105720000000000000000000000000000000000079
:105730000000000000000000000000000000000069
:105740000000000000000000000000000000000059
:105750000000000000000000100000000100000038
:0C576000000000000024F4000000000025
:04000005080001D915
:00000001FF
