:020000040800F2
:10000000E006002079020008A7170008B1160008D2
:10001000A51700087F030008291800080000000049
:10002000000000000000000000000000AB17000806
:100030008103000800000000A9170008AD170008A0
:10004000930200089302000893020008930200083C
:10005000930200089302000893020008930200082C
:10006000930200089302000893020008930200081C
:10007000930200089302000893020008930200080C
:100080009302000800000000930200089302000899
:1000900093020008930200089302000893020008EC
:1000A00093020008930200089302000893020008DC
:1000B00093020008930200089302000893020008CC
:1000C00093020008930200089302000893020008BC
:1000D00093020008930200089302000893020008AC
:1000E000930200089302000893020008930200089C
:1000F0009302000893020008930200080000000029
:1001000000000000930200080000000093020008B5
:100110009302000800000000930200089302000808
:10012000930200089302000893020008930200085B
:100130009302000800000000000000009302000885
:100140009302000893020008000000000000000075
:10015000000000000000000000000000000000009F
:1001600000000000000000000000000093020008F2
:1001700093020008000000000000000000000000E2
:1001800000000000930200080000000000000000D2
:10019000000000000000000000000000000000005F
:1001A0000000000000000000930200089302000815
:1001B0009302000893020008930200080000000068
:1001C0000000000093020008000000000000000092
:1001D000930200089302000800F002F800F03CF8D7
:1001E0000AA090E8000C82448344AAF10107DA4592
:1001F00001D100F031F8AFF2090EBAE80F0013F0A8
:10020000010F18BFFB1A43F0010318476C160000DA
:100210008C160000103A24BF78C878C1FAD852076B
:1002200024BF30C830C144BF04680C607047000070
:100230000023002400250026103A28BF78C1FBD8EF
:10024000520728BF30C148BF0B6070471FB501F08F
:1002500005FB1FBD10B510BD00F058F81146FFF7A3
:10026000F5FF01F0F2FA00F076F803B4FFF7F2FFC1
:1002700003BC00F07DF800000948804709480047AA
:10028000FEE7FEE7FEE7FEE7FEE7FEE7FEE7FEE746
:10029000FEE7FEE704480549054A064B70470000A3
:1002A0000D180008D9010008E0000020E006002039
:1002B000E0020020E00200204FF0000200B51346EB
:1002C00094469646203922BFA0E80C50A0E80C5076
:1002D000B1F12001BFF4F7AF090728BFA0E80C5027
:1002E00048BF0CC05DF804EB890028BF40F8042B20
:1002F00008BF704748BF20F8022B11F0804F18BF8D
:1003000000F8012B7047704770477047754600F042
:100310002BF8AE4605006946534620F00700854697
:1003200018B020B5FFF7B6FFBDE820404FF000063B
:100330004FF000074FF000084FF0000B21F00701CD
:10034000AC46ACE8C009ACE8C009ACE8C009ACE810
:10035000C0098D46704710B50446AFF300802046B3
:10036000BDE81040FFF781BF004870477C000020C7
:1003700001491820ABBEFEE7260002007047FEE7E9
:10038000704772B6FEE700002DE9F84F00270446DB
:10039000009790F85800DFF8DC930D46B846012826
:1003A00011D0012684F85860206801F08CF960B102
:1003B000E06D40F02000E0655FF0010784F85880B0
:1003C0003846BDE8F88F0220FBE7D5E900210C2371
:1003D000206803EA91131844036B01F01F014FF0EA
:1003E0001F0C0CFA01FCC2F3846223EA0C038A405E
:1003F00013430363206801F066F98246206801F028
:100400005EF95AEA00003CD1AA6829682068B2F176
:10041000004F37D001F05BF92068416921F00041BD
:10042000416120686969C268C2F3C102520091400B
:100430002A69042A31D000EB82002B68026EDFF8B3
:1004400038C303F0F84302EA0C020B431A4342F0AC
:100450000041016622682869A96902EB8000026EEA
:1004600022F080720A430266297F20682A690129E6
:1004700010D0002100EB8200026E22F000720A43CD
:1004800002667DE0002201F022F92068416941F016
:100490000041C5E74FF00071ECE7002101F009F9D8
:1004A000400320684FF0000172D001F002F990FA89
:1004B000A0F0B0FA80F1286842036ED090FAA0F064
:1004C000B0FA80F0814204D100221146206801F088
:1004D0000DF90121206801F0ECF8400320684FF08D
:1004E00001015DD001F0E5F890FAA0F0B0FA80F1DA
:1004F0002868420359D090FAA0F0B0FA80F0814207
:1005000004D100220121206801F0F0F802212068C6
:1005100001F0CFF8400320684FF0020148D001F00D
:10052000C8F890FAA0F0B0FA80F12868420344D0ED
:1005300090FAA0F0B0FA80F0814204D100220221AA
:10054000206801F0D3F80321206801F0B2F84003DD
:1005500020684FF0030133D001F0ABF890FAA0F01F
:10056000B0FA80F1286842032FD090FAA0F0B0FAD8
:1005700080F0814204D100220321206801F0B6F806
:100580002068816811F0010F22D0ACE000E004E0A7
:1005900001F08FF8C0F384618DE7C0F3846091E7C8
:1005A00001F087F8C0F38461A2E7C0F38460A6E796
:1005B00001F07FF8C0F38461B7E7C0F38460BBE764
:1005C00001F077F8C0F38461CCE7C0F38460D0E732
:1005D0002A7B296850F8B03FC1F3120C23EA0C03C0
:1005E00002F0180C654A22FA0CF20A401343036029
:1005F000E968494577D1286841031CD090FAA0F1F9
:10060000B1FA81F1491C01F01F0109294FEA40317B
:1006100032D8002912D000BF90FAA0F1B1FA81F1CE
:1006200001F1010101F01F0106FA01F609D100BF35
:10063000C0F3846109E0C0F38461E3E7C0F384613F
:10064000EEE790FAA0F1B1FA81F101F1010101F0B8
:100650001F0146EA816102D1C0F3846003E090FA91
:10066000A0F0B0FA80F000F1010000F01F0000EBF4
:10067000400041EA005132E000290ED090FAA0F18A
:10068000B1FA81F101F1010101F01F0106FA01F651
:1006900006D100BFC0F3846106E0C0F38461F1E7D6
:1006A00090FAA0F1B1FA81F101F1010101F01F010D
:1006B00046EA816102D1C0F3846003E090FAA0F0C1
:1006C000B0FA80F000F1010000F01F002C4A00EBAE
:1006D000400002EB005041EA000141F00071AA68BD
:1006E000206800F0F4FF27482A6802423FF466AE13
:1006F00025488168254B01F0E0719A4202D0244BD5
:100700009A421BD10B0219D42268B2F1A04F7FF498
:1007100055AE826841F4000122F0E0720A43826023
:100720001C481D490068B0FBF1F000EB4000800060
:1007300000E0401E00900028FBD13FE6174D184B0B
:10074000AA4207D1CD0105D422689A42F5D041F0E2
:10075000807109E0134DAA42EFD14A02EDD422681C
:100760009A42EAD041F48001826822F0E0720A43A2
:10077000826023E600007F4000F0FF03FFFF0700D8
:10078000000020FE0000088000030050000021C38C
:100790001000C0900C000020400D0300000052C764
:1007A00000010050000084CBF8B54FF000050400B4
:1007B0002E46009502D0E06D10B107E00120F8BD93
:1007C000204600F0EDF8266684F8586020688168BD
:1007D000C1F3407119B18168694A11408160206894
:1007E0008168C1F3007179B98168664A114041F0AE
:1007F00080518160644865490068B0FBF1F000E019
:10080000401E00900028FBD120688168C1F3007170
:1008100041B9E16D41F01001E165216E41F0010146
:100820002166012500F04FFFE16DC90600D430B10B
:10083000E06D40F01000E06501252846F8BDE06D50
:1008400020F4807040F00200E0652068806810F0BD
:10085000010F11D14FF0A04080684D4900F0010018
:10086000896801F00101084306D14A48616882683D
:1008700022F47C120A438260E168E06B627F0843E5
:10088000A16841EA4231084394F8241040EA01404B
:10089000012904D1218D404A02EB41410843E16A1C
:1008A00029B101F47871226B014342EA0100216809
:1008B000CA683A4B1A400243CA6020680169626BF9
:1008C00021F0406111430161206800F0FCFE064602
:1008D000206800F0F4FE30432ED1207F94F83810C9
:1008E000800340EA41022068C16844F20203994350
:1008F0001143C16020690028206801690AD041F4D1
:1009000080310161206850F8C01F22696FF30D012A
:10091000114307E021F480310161206850F8C01FC5
:100920006FF30D01016094F8400001280CD020689D
:10093000016921F001010161606901282068016BF2
:1009400021F00F0111D013E0D4E911010843D4E9DB
:1009500013121143084321680A6940F2FC739A4359
:10096000104340F001000861E6E7226A521E11437D
:100970000163E06D20F0020040F00100E0655CE7FB
:10098000C0FFFF5FC0FFFF7F0C000020400D030091
:1009900000010050000300500000FEFF0740F0FF80
:1009A00010B598B00446142111A8FFF785FC442126
:1009B0006846FFF781FC15492068884223D1C401AD
:1009C000400500940F90684600F0F0F908B1FFF779
:1009D000D8FC0F48C16C41F40051C164C16C01F4F2
:1009E00000511691C16C41F00201C164C06C11A9A3
:1009F00000F0020016900320CDE911400020139072
:100A0000044800F009F818B010BD000000010050C3
:100A100000100240000400482DE9FC4FDFF8A0A1BF
:100A2000002301250AF1040B03244FF00F0C0BF1F6
:100A3000040EBDE005FA03F632406FD04F68012F77
:100A400005D0022F03D0112F01D0122F17D1D0F8CB
:100A500008905F0004FA07F829EA08090097D1F81E
:100A60000C8008FA07F848EA0908C0F808804768C7
:100A7000B7430E79C6F300169E403E434660C668F3
:100A80004FEA430804FA08F7BE4301978F6807FA54
:100A900008F73743C7604E68022E01D0122E13D1DB
:100AA000DE0800EB86060096366A5F07FF0E0CFA3A
:100AB00007F926EA0906D1F8109009FA07F949EA78
:100AC0000609009EC6F820900668019FBE430F7974
:100AD00007F0030707FA08F7374307604E68F60088
:100AE00065D5384E376E47F001073766366E23F00E
:100AF000030706F001060096334E3E44B146B66841
:100B00009F074FEA17780CFA08F7BE43B0F1904FF1
:100B100005D02E4FB84204D1012717E047E0002747
:100B200014E02B4FB84201D102270FE0294FB84201
:100B300001D103270AE0284FB84201D1042705E07C
:100B4000264FB84201D1052700E0062707FA08F72B
:100B50003743C9F80870DAF800605746D1F80480C6
:100B600096435FEAC83800D516433E60DBF8006064
:100B70005F46D1F8048096435FEA883800D5164373
:100B80003E60DEF800607746D1F8048096435FEA65
:100B9000C82800D516433E60094F0C373E68D1F88F
:100BA000048096435FEA882800D516433E605B1CAC
:100BB0000A6832FA03F67FF43DAFBDE8FC8F00000F
:100BC0000004014000100240000001400004004801
:100BD00000080048000C00480010004800140048BD
:100BE00001488068704700000000002002488168CA
:100BF00042681144816070470000002010B5002455
:100C0000032000F063F80F2000F008F808B1012479
:100C100001E000F025F8204610BD000070B50E4E32
:100C200005460024706898B14FF47A71B1FBF0F07A
:100C30000A490968B1FBF0F000F026FD40B9102D1B
:100C400006D200222946501E00F020F8356000E050
:100C50000124204670BD0000000000200C00002090
:100C6000094808B5016E41F001010166016E01F00D
:100C700001010091816D41F080518165806D00F02E
:100C80008050009008BD000000100240F0B40E4BF0
:100C90001B680C46C3F30223C3F10705042D00D9DA
:100CA0000425191D072901D2002300E0DB1E0126BF
:100CB00006FA05F1491E214099409E40761E1640D5
:100CC0003143F0BC00F0B1BD0CED00E0064900F08E
:100CD000070208684FF6FF03184040EA0220034A63
:100CE00010430860704700000CED00E00000FA05BA
:100CF0002B492C4B0A6832214A432B4940B1B0F5AD
:100D0000007F086829D020F4C06040F480602CE0A7
:100D10000868C0F34120022804D051F8800F20F465
:100D2000807022E0D1F8800020F48070C1F880004B
:100D3000086820F4C06040F400700860B2FBF3F073
:100D4000401C00E0401E4A69520501D50028F9D137
:100D5000486940050AD503207047C0F341200228A6
:100D600006D051F8800F40F4807008600020704772
:100D7000D1F8800040F48070C1F88000086820F449
:100D8000C06040F400700860B2FBF3F0401C00E06B
:100D9000401E4A695205DBD50028F9D1D8E700008A
:100DA0000C00002040420F00007000402DE9F84385
:100DB0000446006800269D4D00035ED5A86D0027FF
:100DC000C00008D4A86D40F08050A865A86D012728
:100DD00000F080500090DFF85892D9F8001041F4EC
:100DE0008071C9F80010FFF7FBFE804606E000BFE7
:100DF000FFF7F6FEA0EB080002282BD8D9F8000078
:100E0000C005F5D5D5F8900010F4407014D0216CD1
:100E1000814211D0D5F89000D5F8901020F44070A0
:100E200041F48031C5F89010D5F8901021F480314C
:100E3000C5F89010C5F89000C00711D0FFF7D0FE9C
:100E4000804641F2883907E0FFF7CAFEA0EB0801AF
:100E5000494501D903260BE0D5F890008007F3D56A
:100E6000D5F89000216C20F440700843C5F890003C
:100E70001FB1A86D20F08050A8652078C00707D06A
:100E8000D5F88800616820F003000843C5F88800A1
:100E90002078800707D5D5F88800A16820F00C00DD
:100EA0000843C5F888002078400707D5D5F88800A2
:100EB000E16820F030000843C5F88800207800077A
:100EC00007D5D5F88800216920F0C0000843C5F88F
:100ED00088002078800607D5D5F88800616920F45D
:100EE00040600843C5F888002078400607D5D5F84B
:100EF0008800A16920F440500843C5F88800207894
:100F0000000607D5D5F88800E16920F44040084381
:100F1000C5F888002088C00507D5D5F88800216A63
:100F200020F440300843C5F888002088800507D5A4
:100F3000D5F88800616A20F440200843C5F888008D
:100F4000208840050FD5D5F88800A16A20F440100C
:100F50000843C5F88800A06AB0F5801F03D1E8688F
:100F600040F48010E860208800050FD5D5F888008F
:100F7000E16A20F440000843C5F88800E06AB0F553
:100F8000800F03D1E86840F48010E8602088C00436
:100F90000FD5D5F88800216B20F040700843C5F8C4
:100FA0008800206BB0F1807F03D1E86840F48010A6
:100FB000E86020884FF0006180040ED5D5F88800E5
:100FC000626B20F040601043C5F88800606B884277
:100FD00003D1E86840F48010E860208840040ED512
:100FE000D5F88800A26B20F040601043C5F8880057
:100FF000A06B884203D1E86840F48010E860208844
:1010000000040FD5D5F88800E16B20F0405008436C
:10101000C5F88800E06BB0F1805F03D1E86840F468
:101020008030E8603046BDE8F883000000100240E0
:10103000007000402DE9F0470E4605004FF0000714
:1010400025D0DFF8AC81D8F8000000F00F00B042E6
:101050000CD2D8F8001021F00F013143C8F800106D
:10106000D8F8000000F00F00B04210D12968614CA0
:10107000C80741F2883A5AD06868DFF87C910328A3
:1010800008D0022820682DD0400500282CDB012044
:10109000BDE8F08720688001F9D5E06800F0030220
:1010A000E068C0F30310401C032A19D0534A00BF64
:1010B000B2FBF0F0E268C2F306225043E268C2F3EA
:1010C0004162521C5200B0FBF2F0484517D9A068AB
:1010D00010F0F00F0CD0880711D5A86840B10EE0D1
:1010E000474AE5E78003D0E700F092F8484506D983
:1010F000A06820F0F00040F08000A0608027A06889
:10110000696820F003000843A060FFF769FD81468D
:1011100006E000BFFFF764FDA0EB090151453AD896
:10112000A068696800F00C00B0EB810FF2D128686C
:10113000810714D5400703D5A06840F4E060A060A3
:101140002878000705D5A06820F4605040F4E060DE
:10115000A060A068A96820F0F000084304E0802F98
:1011600003D1A06820F0F000A060D8F8001040463D
:1011700001F00F01B14216D9016821F00F0131438E
:101180000160FFF72DFD074607E000BFFFF728FDD0
:10119000C11B514501D903207AE7D8F8000000F0BF
:1011A0000F00B042F2D12878400705D5A068E96861
:1011B00020F4E0600843A0602878000706D5A06806
:1011C000296920F4605040EAC100A06000F020F8D6
:1011D000A1680C4AC1F30311515C01F01F01C84022
:1011E0000949086009480068BDE8F047FFF716BDE7
:1011F000002002400010024000B4C4040024F400A7
:1012000000127A00661800080C0000200000002080
:10121000184910B58868C0F381021748012A0BD01D
:101220008A684310C2F38102022A06D08A68C2F398
:101230008102032A03D0002010BD184610BDCA68E1
:1012400002F00304CA68C2F30312521C032C02D03A
:10125000B0FBF2F001E0B3FBF2F0CA68C968C2F378
:1012600006225043C1F34161491C4900B0FBF1F033
:1012700010BD0000001002400024F4002DE9F843E6
:1012800004007AD02078FA4DC00747D0A868E968F2
:1012900000F00C0001F003010C2802D0082817D040
:1012A00001E0032914D06068B0F5803F17D0B0F595
:1012B000A02F286817D020F480302860286820F4F8
:1012C000802028606068E0B1FFF78AFC064614E0E1
:1012D0002868800322D560680028D2D01EE02868E4
:1012E00040F48030EDE740F480202860F7E700BF4D
:1012F000FFF776FC801B642870D828688003F7D538
:101300000CE0FFF76DFC064605E000BFFFF768FC48
:10131000801B6428F0D828688003F7D420788007E1
:101320004CD5A868E96800F00C0001F003010C2816
:1013300002D004280DD001E002290AD0E06800287C
:1013400028682BD040F480702860FFF749FC0646DF
:1013500019E02868400502D5E068002891D0686847
:10136000217C20F0FE4040EA01606860C1480068CE
:10137000FFF754FC002800D120E076E1FFF730FCB5
:10138000801B0228B8D828684005F7D56868217CFA
:1013900020F0FE4040EA016068600FE020F48070B9
:1013A0002860FFF71DFC064605E000BFFFF718FCAC
:1013B000801B0228A0D828684005F7D420780007B1
:1013C00029D560690028D5F8940013D040F00100B9
:1013D000C5F89400FFF704FC064606E090E000BF65
:1013E000FFF7FEFB801B022886D8D5F89400800703
:1013F000F6D510E020F00100C5F89400FFF7F0FBEF
:10140000064604E0FFF7ECFB801B022878D8D5F8ED
:1014100094008007F6D42078400761D5A86D002697
:10142000C00008D4A86D40F08050A865A86D0126C2
:1014300000F08050009090480168C90511D40168FF
:10144000804641F480710160FFF7CAFB074604E063
:10145000FFF7C6FBC01B022852D8D8F80000C00511
:10146000F6D5A068012815D00528D5F8900016D02B
:1014700020F00100C5F89000D5F8900020F004009D
:10148000C5F89000A06841F28838B8B1FFF7A8FB12
:1014900007460EE0D5F8900040F00100F0E740F07C
:1014A0000400C5F89000F5E7FFF79AFBC11B414522
:1014B00026D8D5F890008007F6D50CE0FFF790FB12
:1014C000074604E0FFF78CFBC11B414518D8D5F84F
:1014D00090008007F6D41EB1A86D20F08050A8655A
:1014E0002078800629D5A0690028D5F8980013D067
:1014F00040F00100C5F89800FFF772FB064606E0D1
:1015000077E000BFFFF76CFB801B022877D8D5F887
:1015100098008007F6D510E020F00100C5F898008B
:10152000FFF75EFB064604E0FFF75AFB801B02282C
:1015300065D8D5F898008007F6D4E069F0B3A968BB
:10154000C1F38101032961D00228286820F080704E
:1015500028600BD0E86820F00300E860E86847499D
:101560000840E860FFF73CFB04464BE0FFF738FB20
:10157000064604E0FFF734FB801B02283FD82868AA
:101580008001F7D4F4E908016FF00F0202EB0111BA
:101590000843218A5204490802EB4151A26841EAFA
:1015A00002210843217D4FF07E42490802EB416150
:1015B0000843217B40EAC160E96800E062E0304A0C
:1015C00011400843E860286840F080702860E868AF
:1015D00040F08070E860FFF703FB044605E000BFC1
:1015E000FFF7FEFA001B022809D828688001F7D50A
:1015F00048E004E0FFF7F4FA001B022802D90320B8
:10160000BDE8F88328688001F4D43BE00128F7D0D6
:10161000E868226A00F00301914226D1616A00F075
:10162000F0020901103991421FD1A26A00F4FE4173
:10163000B1EB022F19D194F82C2000F07841B1EBD6
:10164000C26F12D1218E00F4C00249084905A1F5EC
:101650000011914209D194F8341000F0C06049089B
:101660004906A1F1007181420CD00120C8E70000B9
:10167000001002400000002000700040FFFFEEFE5E
:101680000C809F010020BBE710B5401EB0F1807FA9
:1016900001D3012010BD4FF0E02460610F216017DD
:1016A00000F0C3F80020A06107202061002010BDD9
:1016B000FEE700EB8100006E00F0F84070478068A4
:1016C000C0F3C00070478068C0F3800070470423F7
:1016D00003EAD15310B518444369C1F304510724F8
:1016E0008C40A3438A401343436110BD00EB81004B
:1016F000016E21F0004111430166704730B589B099
:1017000020216846FEF7D8FD1948184900240160D9
:101710004902C0E90114C46004250461C0E905451B
:10172000047744770121016280F82440C462046395
:1017300080F83840C46380F84040FFF735F808B1BE
:10174000FEF71FFE0B4800900620CDE901047F2024
:101750000594CDE9030569460548FEF715FE002806
:1017600001D0FEF70EFE09B030BD000000010050B0
:10177000100000200080F03E094808B5C16C41F01F
:101780002001C164C16C01F020010091C16C41F0E5
:101790000201C164C06C00F00200009008BD0000AE
:1017A00000100240FEE7FEE770477047FFF71EBAE1
:1017B00010B594B038216846FEF77EFD14210EA8BE
:1017C000FEF77AFD4FF40070FFF792FA02200090C6
:1017D000C001039040200024049007946846FFF75E
:1017E0004DFD08B172B6FEE70F200E900120CDE945
:1017F0000F04119400210EA81294FFF71BFC00287F
:1018000001D072B6FEE714B010BD000005480168B3
:1018100041F47001016003494FF0006080390860B5
:101820007047000088ED00E0FEE70907090E002878
:1018300004DB00F1E02080F80014704700F00F0096
:1018400000F1E02080F8141D7047FFF7D7F9FFF78B
:10185000AFFFFFF791FFFFF751FFFEE74FF040703A
:10186000E1EE100A704700000000000000000102D5
:10187000030406070809000098180008000000206B
:101880001000000014020008A81800081000002032
:10189000D006000030020008100000000100000027
:0818A000000000000024F40028
:04000005080001D915
:00000001FF
