:020000040800F2
:1000000030060020ED010008233B0008972B000874
:10001000213B00083D090008794C00080000000061
:10002000000000000000000000000000FD3F00088C
:100030008509000800000000253B0008FF3F00087C
:10004000070200080702000807020008070200086C
:10005000070200080702000807020008070200085C
:10006000070200080702000807020008070200084C
:10007000070200080702000807020008070200083C
:10008000070200080000000007020008070200083D
:10009000070200080702000807020008070200081C
:1000A000070200080702000807020008070200080C
:1000B00007020008070200080702000807020008FC
:1000C00007020008070200080702000807020008EC
:1000D000070200086D4C000807020008070200082C
:1000E00007020008070200080702000807020008CC
:1000F00007020008070200080702000800000000CD
:1001000000000000070200080000000007020008CD
:1001100007020008000000000702000807020008AC
:10012000070200080702000807020008070200088B
:10013000070200080000000000000000070200089D
:10014000070200080702000800000000000000008D
:10015000000000000000000000000000000000009F
:10016000000000000000000000000000070200087E
:10017000070200080000000000000000000000006E
:10018000000000000702000800000000000000005E
:10019000000000000000000000000000000000005F
:1001A000000000000000000007020008070200082D
:1001B000070200080702000807020008000000000C
:1001C000000000000702000800000000000000001E
:1001D0000702000807020008DFF80CD000F01EFB41
:1001E00000480047E55500083006002006488047D3
:1001F00006480047FEE7FEE7FEE7FEE7FEE7FEE70C
:10020000FEE7FEE7FEE7FEE781400008D9010008AF
:100210002DE9F05F0546002092469B46884606463B
:10022000814640241BE0284641464746224600F0CE
:100230002DF953465A46C01A914110D3114618461B
:10024000224600F014F92D1A67EB01084F462246AA
:100250000120002100F00BF917EB00094E41201E90
:10026000A4F10104DFDC484631462A464346BDE896
:10027000F09FD2B201E000F8012B491EFBD270477B
:100280000022F6E710B513460A4604461946FFF762
:10029000F0FF204610BD2DE9FE4F804681EA0300A5
:1002A000C00F0C46009021F0004123F00045B8EB50
:1002B0000200A94105D24046214690461C460B4605
:1002C000024623F00040104347D0270DC7F30A0031
:1002D000C3F30A510290401A019040286BDAC3F32D
:1002E000130040F4801B0098924620B10023D2EB0B
:1002F000030A63EB0B0B01985946C0F140025046CC
:1003000000F0B5F806460D4650465946019A00F0F1
:10031000CDF810EB08006141002487EA115284EA0D
:10032000E7731A4340D0009A62B3019A012A4FEA58
:10033000075215DC001B61EB02014FF0004202EA9C
:100340000752CDE90042001C41F5801132462B4690
:1003500000F004F903B0BDE8F08F40462146F9E70C
:10036000001B61EB0201001C41F5801300185B418A
:100370002018A2F5001747EB030140EAD570B61923
:100380006D4111E06D084FEA360645EAC0754FEA47
:100390000752001B61EB0201001C41F58011490866
:1003A0004FEA30000019514132462B4603B0BDE8F8
:1003B000F04F00F0C4B80098012240000023D0EBB9
:1003C000020263EBE073009821464FEAE074B8EB59
:1003D000000061EB0401E9E783F000435BE781F093
:1003E000004158E700F0004230F000400AD0C10D53
:1003F00001F56071C0F3160042EA0151C2084007DE
:100400001143704700200146704701F0004330B4AB
:1004100021F0004150EA010206D00A0DA2F56072F7
:10042000C1F31301002A02DC30BC00207047440FE6
:1004300044EAC104C100E01830BC00EBC25000F037
:1004400047B830B50B46014600202022012409E0C0
:1004500021FA02F59D4205D303FA02F5491B04FA7D
:1004600002F52844151EA2F10102F1DC30BD202A5C
:1004700004DB203A00FA02F1002070479140C2F1FB
:10048000200320FA03F3194390407047202A04DB2D
:10049000203A21FA02F00021704721FA02F3D040FD
:1004A000C2F120029140084319467047202A06DB1A
:1004B000CB17203A41FA02F043EAE07306E041FA32
:1004C00002F3D040C2F12002914008431946704720
:1004D0000029A8BF7047401C490008BF20F0010058
:1004E000704710B4B0FA80FC00FA0CF050EA010436
:1004F00004BF10BC704749B1CCF1200421FA04F4C8
:1005000011FA0CF118BF012121430843A3EB0C01A0
:10051000CB1D4FEA00614FEA102042BF002010BC03
:10052000704700EBC35010440029A4BF10BC7047B3
:10053000401C490008BF20F0010010BC704710B5F6
:10054000141E73F1000408DA401C41F100019218F6
:100550005B411A4301D120F0010010BD2DE9F04D9F
:1005600092469B4611B1B1FA81F202E0B0FA80F2F4
:1005700020329046FFF77BFF04460F4640EA0A0010
:1005800041EA0B0153465A46084313D0114653EA39
:10059000010019D0C8F140025046FFF777FF054629
:1005A0000E46504659464246FFF761FF084305D0C4
:1005B000012004E020463946BDE8F08D00200543C7
:1005C00046EAE0762C4337430A986305E40AA0EB39
:1005D00008000022FD0A44EA47540A3002D50020F0
:1005E0000146E9E7010510196941DDE908450019EF
:1005F0006941BDE8F04DA2E72DE9FE4F81EA030411
:1006000004F0004421F0004100944FF0000B23F06F
:10061000004350EA01045ED052EA03045BD0C3F306
:100620000A54C1F30A552C44A4F2F3340194A0FBFC
:100630000254C1F3130141F48011C3F3130343F4D3
:10064000801301FB024400FB034E840A970A44EA2C
:10065000815447EA8357A4FB076802958D0A05FB7E
:1006600007854FEA932C04FB0C542705029D4FEAA3
:10067000065847EA1637B5EB08056EEB070C870EF0
:10068000920E47EA811742EA8312A7FB0201B6EBFA
:100690000B0164EB00042B0D43EA0C335E1844EBB2
:1006A0001C50DA465146E7FB0201C5F313044FEA3A
:1006B0000B3343EA14534FEA0432019C43EA060326
:1006C000A4F10C040294009CCDE900B4FFF746FFAE
:1006D00003B0BDE8F08F00200146F9E72DE9F04DA9
:1006E00081EA030404F0004B21F0004514464FF06A
:1006F000000A23F0004150EA050220D054EA01022A
:100700001DD0C5F30A570246C5F31303C1F3130006
:10071000C1F30A5640F4801543F48013A7EB060892
:10072000101BD64608F2FD3873EB050002D308F122
:10073000010801E092185B41B8F1000F03DA0020D4
:100740000146BDE8F08D00204FF480110646844636
:100750000EE0171B73EB050705D3121B63EB0503B4
:1007600006434CEA010C49084FEA300092185B41FD
:1007700050EA0107EDD152EA030012D082EA0400E8
:1007800083EA0501084305D0101BAB4106D20122C4
:10079000002306E000224FF0004302E06FF0010268
:1007A00053101AEB06004CEB085110EB0A0041EB1A
:1007B0000B01BDE8F04DFFF7C2BEC1F30A52C1F311
:1007C000130140F2FF3341F480119A4202DA002013
:1007D0000146704740F233439A42A2F2334202DCB0
:1007E0005242FFF753BEFFF742BE000030B5041E71
:1007F00071F1000404DB4FF00044404264EB01015E
:10080000141E73F1000405DB1C464FF000435242F6
:1008100063EB0403994208BF904230BD064C074D7C
:1008200006E0E06840F0010394E8070098471034C0
:10083000AC42F6D3FFF7D4FCC0680008E0680008BB
:1008400070B504460068816811F0010F28D18168F5
:10085000144A114215D18168D5432940491C816051
:1008600000F0B8FF064616E0816811F0010F03D1D1
:1008700081682940491C816000F0ACFF801B022880
:1008800009D9E06D40F01000E065206E40F00100F5
:100890002066012070BD20680168C943C907E3D103
:1008A000002070BD3F00008010B51F482DED028B69
:1008B00000F07EFC1C4800F029FB00EE100A9FEDC2
:1008C0001B8ADFED1B8AB8EE400A1A4C164820EE50
:1008D000080A20EE280A84ED110A00F069FC12488B
:1008E00000F014FB80B200EE100A60811248B8EEEE
:1008F000400A20EE080A20EE280A84ED100A00F0D3
:1009000057FC0D4800F002FB80B200EE100AA081F7
:10091000B8EE400A20EE080A20EE280A84ED0F0AFD
:10092000BDEC028B10BD000090000020000080395B
:100930003333534008000020FC000020FEE7000095
:1009400010B50E4C40F2555340F61E40E381208214
:10095000002211460A4800F0BFFD0021084800F0BF
:10096000C8FD238A00221021054800F0B5FDBDE82E
:1009700010401021024800F0BCBD0000080000201B
:10098000900100207047002240F6B83306E00021B5
:10099000491C89B29942FBD3521C92B28242F6D3CF
:1009A000704710B5044602F073F9A02002F031F947
:1009B00002F0A4F9204602F02CF902F09FF902F0AF
:1009C00067F9A12002F025F902F098F902F0FAF88F
:1009D000044602F045F902F076F9204610BD70B5E4
:1009E0000D46044602F054F9A02002F012F902F07C
:1009F00085F9204602F00DF902F080F9284602F050
:100A000008F902F07BF902F05EF9BDE870400520BC
:100A100000F0E0BD704700002DE9F047044690F873
:100A200058009CB00D464FF00008012814D001205A
:100A300084F8580020684FF0A0474FF00009B842F2
:100A40000ED1284E0096304602F058FE82462068AD
:100A500002F054FE60B10EE002201CB0BDE8F08749
:100A6000E16D41F02001E16584F858900120F4E740
:100A7000BAF1000F0AD0E06D40F02000E0654FF0C1
:100A8000010800BF84F858904046E6E716482A68F7
:100A900040F61F71002A826822F4604215D094F853
:100AA000383042EA43326B681A438260BA68B368EE
:100AB00002F0010203F001031A43E3D1AB682A6894
:100AC0001A4383688B431A430AE08260BA68B368AA
:100AD00002F0010203F001031A43D3D182688A4372
:100AE0008260CFE700010050000300502DE9F84F6D
:100AF00000270446009790F85800DFF8DC930D4675
:100B0000B846012811D0012684F85860206802F008
:100B1000F1FD60B1E06D40F02000E0655FF001079D
:100B200084F858803846BDE8F88F0220FBE7D5E905
:100B300000210C23206803EA91131844036B01F091
:100B40001F014FF01F0C0CFA01FCC2F3846223EA70
:100B50000C038A4013430363206802F0CBFD8246F6
:100B6000206802F0C3FD5AEA00003CD1AA68296857
:100B70002068B2F1004F37D002F0C4FD206841690F
:100B800021F00041416120686969C268C2F3C10275
:100B9000520091402A69042A31D000EB82002B6870
:100BA000026EDFF838C303F0F84302EA0C020B438D
:100BB0001A4342F00041016622682869A96902EBE4
:100BC0008000026E22F080720A430266297F20684C
:100BD0002A69012910D0002100EB8200026E22F068
:100BE00000720A4302667DE0002202F08BFD20685D
:100BF000416941F00041C5E74FF00071ECE7002189
:100C000002F06EFD400320684FF0000172D002F048
:100C100067FD90FAA0F0B0FA80F1286842036ED028
:100C200090FAA0F0B0FA80F0814204D1002211467F
:100C3000206802F076FD0121206802F051FD40039A
:100C400020684FF001015DD002F04AFD90FAA0F05B
:100C5000B0FA80F12868420359D090FAA0F0B0FAB7
:100C600080F0814204D100220121206802F059FD68
:100C70000221206802F034FD400320684FF0020199
:100C800048D002F02DFD90FAA0F0B0FA80F128686B
:100C9000420344D090FAA0F0B0FA80F0814204D12F
:100CA00000220221206802F03CFD0321206802F0AE
:100CB00017FD400320684FF0030133D002F010FD10
:100CC00090FAA0F0B0FA80F1286842032FD090FA91
:100CD000A0F0B0FA80F0814204D100220321206804
:100CE00002F01FFD2068816811F0010F22D0ACE0F6
:100CF00000E004E002F0F4FCC0F384618DE7C0F38F
:100D0000846091E702F0ECFCC0F38461A2E7C0F3D9
:100D10008460A6E702F0E4FCC0F38461B7E7C0F3A7
:100D20008460BBE702F0DCFCC0F38461CCE7C0F375
:100D30008460D0E72A7B296850F8B03FC1F3120CD9
:100D400023EA0C0302F0180C654A22FA0CF20A405E
:100D500013430360E968494577D1286841031CD0F3
:100D600090FAA0F1B1FA81F1491C01F01F010929A3
:100D70004FEA403132D8002912D000BF90FAA0F1DA
:100D8000B1FA81F101F1010101F01F0106FA01F64A
:100D900009D100BFC0F3846109E0C0F38461E3E7D7
:100DA000C0F38461EEE790FAA0F1B1FA81F101F1AC
:100DB000010101F01F0146EA816102D1C0F38460A4
:100DC00003E090FAA0F0B0FA80F000F1010000F02A
:100DD0001F0000EB400041EA005132E000290ED034
:100DE00090FAA0F1B1FA81F101F1010101F01F01C6
:100DF00006FA01F606D100BFC0F3846106E0C0F335
:100E00008461F1E790FAA0F1B1FA81F101F10101F9
:100E100001F01F0146EA816102D1C0F3846003E062
:100E200090FAA0F0B0FA80F000F1010000F01F008D
:100E30002C4A00EB400002EB005041EA000141F077
:100E40000071AA68206802F05DFC27482A68024207
:100E50003FF466AE25488168254B01F0E0719A4267
:100E600002D0244B9A421BD10B0219D42268B2F152
:100E7000A04F7FF455AE826841F4000122F0E07289
:100E80000A4382601C481D490068B0FBF1F000EB8A
:100E90004000800000E0401E00900028FBD13FE6AB
:100EA000174D184BAA4207D1CD0105D422689A42AA
:100EB000F5D041F0807109E0134DAA42EFD14A020A
:100EC000EDD422689A42EAD041F48001826822F08F
:100ED000E0720A43826023E600007F4000F0FF03D7
:100EE000FFFF0700000020FE000008800003005004
:100EF000000021C31000C09068000020400D0300D6
:100F0000000052C700010050000084CB0068006C54
:100F100070470000F8B54FF0000504002E4600951C
:100F200002D0E06D10B107E00120F8BD204600F0CE
:100F3000EDF8266684F8586020688168C1F3407136
:100F400019B18168694A1140816020688168C1F3E4
:100F5000007179B98168664A114041F08051816021
:100F6000644865490068B0FBF1F000E0401E009065
:100F70000028FBD120688168C1F3007141B9E16D9F
:100F800041F01001E165216E41F00101216601256A
:100F900002F0B0FBE16DC90600D430B1E06D40F065
:100FA0001000E06501252846F8BDE06D20F4807052
:100FB00040F00200E0652068806810F0010F11D158
:100FC0004FF0A04080684D4900F00100896801F0B1
:100FD0000101084306D14A486168826822F47C1204
:100FE0000A438260E168E06B627F0843A16841EADE
:100FF0004231084394F8241040EA0140012904D109
:10100000218D404A02EB41410843E16A29B101F4D4
:101010007871226B014342EA01002168CA683A4BA9
:101020001A400243CA6020680169626B21F0406186
:1010300011430161206802F05DFB0646206802F062
:1010400055FB30432ED1207F94F83810800340EABE
:1010500041022068C16844F2020399431143C16010
:1010600020690028206801690AD041F480310161BB
:10107000206850F8C01F22696FF30D01114307E08B
:1010800021F480310161206850F8C01F6FF30D0119
:10109000016094F8400001280CD02068016921F01B
:1010A00001010161606901282068016B21F00F01D5
:1010B00011D013E0D4E911010843D4E9131211430C
:1010C000084321680A6940F2FC739A43104340F0D8
:1010D00001000861E6E7226A521E11430163E06DD8
:1010E00020F0020040F00100E0655CE7C0FFFF5F18
:1010F000C0FFFF7F68000020400D0300000100508A
:10110000000300500000FEFF0740F0FFF0B587B07D
:10111000044614216846FFF7B3F8214B26680024E3
:101120001A6803251F482049521CB6F1A04F06D06B
:101130001E4FBE4231D11A60012A16D01DE01A603E
:10114000012A07D1CA6C42F40052CA64CA6C02F484
:1011500000520592CA6C42F00202CA64C96C01F0E6
:10116000020105914FF4A04111E0CA6C42F4005213
:10117000CA64CA6C02F400520592CA6C42F00202C0
:10118000CA64C96C01F0020105914FF40041CDE938
:1011900000150294694600F02FFA07B0F0BD000078
:1011A00058000020000400480010024000010050D8
:1011B0002DE9F04104463848806800F01F0520689A
:1011C00002F098FA18B102210846BDE8F08194F8BF
:1011D000580001280CD0012084F858002046FFF761
:1011E0002FFB01004FF0000304D084F85830EBE7E8
:1011F0000220EAE7E06D40F60162904340F480701F
:10120000E065264A20684FF0A046904201D137465B
:1012100000E00746874200D01DB9E76D27F480172C
:10122000E765E76DFF0404D5276E27F006072766FC
:1012300000E023661C27076084F85830206890423D
:1012400001D1334600E00346834215D0A5B1052DF8
:1012500012D0092D10D0E36D43F48013E365904262
:1012600000D13046C0688001AED5E06D20F400505A
:1012700040F48050E065A7E7C268920105D5E26DB1
:1012800022F4005242F48052E2658268044B1A4014
:10129000121D826098E7000000030050000100501A
:1012A000C0FFFF7F2DE9F0470446407900270D4637
:1012B00001280BD04FF0010984F80590022020711D
:1012C000A86802F01006042803D043E00220BDE81D
:1012D000F0874FF0030802BB00F07CFA074604E0F9
:1012E00000F078FAC01B01280FD82068406B00047A
:1012F000F6D4012000F06EF92168686A086416E0EF
:1013000000F068FAC01B012807D9206940F00800E6
:10131000206184F804800320D9E72068406B00280E
:10132000EEDB012000F056F92168686A4864206805
:10133000816C40F2FF32B2409143AA6AB24011433D
:1013400081642068C16CFF22B2409143EA6AB240D6
:101350001143C164E869012808D12268916B1F20FC
:10136000B0408143286AB040084390632068C06B56
:101370000721B1408843A969CA0703D1890755D419
:101380006969E9B300216B69AA681A430A434FF4FB
:10139000807101FA06F398432B79012B00D00021CC
:1013A00011434FF4007202FA06F398436B79012B54
:1013B00000D0002220F44047286842EA01080228B1
:1013C00036D00743216808FA06F03843C86320681E
:1013D00001684FF48042B240914301602268116875
:1013E00040F6FE70B0408143E868B04008431060AA
:1013F00020680168C022B24091430160287B00E070
:1014000014E0297CC0F3830001F03C0140EA811024
:1014100021680A6E40F60F73B3409A43B04002430E
:101420000A6684F804900020607150E70121AAE761
:1014300000F0FCFC0549884202D947F40047C1E7A7
:1014400003498842BED947F48047BBE70068890951
:1014500000B4C40470B5040003D02079002510B195
:1014600005E0012070BD6571204600F007F80220FC
:101470002071256101202071002070BD10B586B05B
:10148000044614216846FEF7FBFE11492068884295
:101490001BD11048C16C41F48031C164C16C01F4AE
:1014A00080310591C16C41F00101C164C06C694695
:1014B00000F00100059030200090032001900020F2
:1014C00002904FF0904000F097F806B010BD000079
:1014D000000800500010024018B50068C46B00906E
:1014E000104421B1143000900360002018BD083072
:1014F000F9E72DE9F041044640790D46012822D054
:101500004FF0010884F805800226267121680A68D8
:1015100005F0100708FA07F002430A60404600F0A1
:1015200059F82068016885B101F47811BE40B142D4
:1015300003D1416841F00201416084F80480002039
:101540006071BDE8F0810220FBE7C1F3440101298D
:10155000F3D1416841F00101EEE770B590F8252024
:10156000002401212346022A07D00422C26380F806
:10157000251080F82430012429E00268156825F040
:101580000E0515600268156825F001051560826C6E
:10159000156825F48075156090F84420056C02F0FC
:1015A0001F0201FA02F26A60D0E913255560426D0C
:1015B00032B1156825F480751560D0E9162555609F
:1015C00080F8251080F82430816B01B188472046CF
:1015D00070BD000070B5044600F0FCF80546601CC4
:1015E00002D004484068044400F0F4F8401BA042D4
:1015F000FAD370BD5C0000202DE9FC4FDFF8A0A1FC
:10160000002301250AF1040B03244FF00F0C0BF10A
:10161000040EBDE005FA03F632406FD04F68012F8B
:1016200005D0022F03D0112F01D0122F17D1D0F8DF
:1016300008905F0004FA07F829EA08090097D1F832
:101640000C8008FA07F848EA0908C0F808804768DB
:10165000B7430E79C6F300169E403E434660C66807
:101660004FEA430804FA08F7BE4301978F6807FA68
:1016700008F73743C7604E68022E01D0122E13D1EF
:10168000DE0800EB86060096366A5F07FF0E0CFA4E
:1016900007F926EA0906D1F8109009FA07F949EA8C
:1016A0000609009EC6F820900668019FBE430F7988
:1016B00007F0030707FA08F7374307604E68F6009C
:1016C00065D5384E376E47F001073766366E23F022
:1016D000030706F001060096334E3E44B146B66855
:1016E0009F074FEA17780CFA08F7BE43B0F1904F06
:1016F00005D02E4FB84204D1012717E047E000275C
:1017000014E02B4FB84201D102270FE0294FB84215
:1017100001D103270AE0284FB84201D1042705E090
:10172000264FB84201D1052700E0062707FA08F73F
:101730003743C9F80870DAF800605746D1F80480DA
:1017400096435FEAC83800D516433E60DBF8006078
:101750005F46D1F8048096435FEA883800D5164387
:101760003E60DEF800607746D1F8048096435FEA79
:10177000C82800D516433E60094F0C373E68D1F8A3
:10178000048096435FEA882800D516433E605B1CC0
:101790000A6832FA03F67FF43DAFBDE8FC8F000023
:1017A0000004014000100240000001400004004815
:1017B00000080048000C00480010004800140048D1
:1017C0000069084000D0012070470AB1816170476C
:1017D0008162704701488068704700005C0000200B
:1017E0000248816842681144816070475C000020B3
:1017F00010B50024032000F077F8002000F008F86E
:1018000008B1012401E000F025F8204610BD0000D9
:1018100070B50E4E05460024706898B14FF47A7189
:10182000B1FBF0F00A490968B1FBF0F000F0E8FE06
:1018300040B9102D06D200222946501E00F034F87F
:10184000356000E00124204670BD00005C000020EF
:10185000680000200B4808B5016E41F001010166E7
:10186000016E01F001010091816D41F080518165AF
:10187000806D00F0805000900348816841F4804101
:10188000816008BD0010024000700040002809DBA4
:1018900000F01F02012191404009800000F1E0208A
:1018A000C0F8001170470000F0B40E4B1B680C46E6
:1018B000C3F30223C3F10705042D00D90425191D24
:1018C000072901D2002300E0DB1E012606FA05F1FC
:1018D000491E214099409E40761E16403143F0BC7F
:1018E00003F0F0B90CED00E0064900F007020868CB
:1018F0004FF6FF03184040EA0220034A10430860F5
:10190000704700000CED00E00000FA052B492C4B5D
:101910000A6832214A432B4940B1B0F5007F08687C
:1019200029D020F4C06040F480602CE00868C0F347
:101930004120022804D051F8800F20F4807022E06A
:10194000D1F8800020F48070C1F88000086820F48D
:10195000C06040F400700860B2FBF3F0401C00E08F
:10196000401E4A69520501D50028F9D14869400551
:101970000AD503207047C0F34120022806D051F851
:10198000800F40F48070086000207047D1F880001C
:1019900040F48070C1F88000086820F4C06040F412
:1019A00000700860B2FBF3F0401C00E0401E4A6982
:1019B0005205DBD50028F9D1D8E7000068000020E7
:1019C00040420F00007000402DE9F84304460068D3
:1019D00000269D4D00035ED5A86D0027C00008D4E9
:1019E000A86D40F08050A865A86D012700F08050D8
:1019F0000090DFF85892D9F8001041F48071C9F8CE
:101A00000010FFF7E7FE804606E000BFFFF7E2FEAA
:101A1000A0EB080002282BD8D9F80000C005F5D5A6
:101A2000D5F8900010F4407014D0216C814211D090
:101A3000D5F89000D5F8901020F4407041F4803132
:101A4000C5F89010D5F8901021F48031C5F89010A9
:101A5000C5F89000C00711D0FFF7BCFE804641F2E8
:101A6000883907E0FFF7B6FEA0EB0801494501D928
:101A700003260BE0D5F890008007F3D5D5F8900049
:101A8000216C20F440700843C5F890001FB1A86D88
:101A900020F08050A8652078C00707D0D5F88800CE
:101AA000616820F003000843C5F8880020788007AB
:101AB00007D5D5F88800A16820F00C000843C5F8C8
:101AC00088002078400707D5D5F88800E16820F025
:101AD00030000843C5F888002078000707D5D5F8FE
:101AE0008800216920F0C0000843C5F888002078EC
:101AF000800607D5D5F88800616920F44060084366
:101B0000C5F888002078400607D5D5F88800A16977
:101B100020F440500843C5F888002078000607D517
:101B2000D5F88800E16920F440400843C5F88800F2
:101B30002088C00507D5D5F88800216A20F44030F8
:101B40000843C5F888002088800507D5D5F88800A7
:101B5000616A20F440200843C5F8880020884005C9
:101B60000FD5D5F88800A16A20F440100843C5F8C5
:101B70008800A06AB0F5801F03D1E86840F48010A7
:101B8000E860208800050FD5D5F88800E16A20F4C8
:101B900040000843C5F88800E06AB0F5800F03D123
:101BA000E86840F48010E8602088C0040FD5D5F8BC
:101BB0008800216B20F040700843C5F88800206B36
:101BC000B0F1807F03D1E86840F48010E86020889D
:101BD0004FF0006180040ED5D5F88800626B20F0CC
:101BE00040601043C5F88800606B884203D1E86804
:101BF00040F48010E860208840040ED5D5F88800B5
:101C0000A26B20F040601043C5F88800A06B8842AA
:101C100003D1E86840F48010E860208800040FD504
:101C2000D5F88800E16B20F040500843C5F88800E3
:101C3000E06BB0F1805F03D1E86840F48030E86089
:101C40003046BDE8F88300000010024000700040FC
:101C50002DE9F0470E4605004FF0000725D0DFF8CC
:101C6000AC81D8F8000000F00F00B0420CD2D8F8D8
:101C7000001021F00F013143C8F80010D8F800001F
:101C800000F00F00B04210D12968614CC80741F242
:101C9000883A5AD06868DFF87C91032808D0022877
:101CA00020682DD0400500282CDB0120BDE8F087FE
:101CB00020688001F9D5E06800F00302E068C0F315
:101CC0000310401C032A19D0534A00BFB2FBF0F0A6
:101CD000E268C2F306225043E268C2F34162521C3A
:101CE0005200B0FBF2F0484517D9A06810F0F00F91
:101CF0000CD0880711D5A86840B10EE0474AE5E747
:101D00008003D0E700F0BCF8484506D9A06820F071
:101D1000F00040F08000A0608027A068696820F093
:101D200003000843A060FFF755FD814606E000BFB1
:101D3000FFF750FDA0EB090151453AD8A06869684A
:101D400000F00C00B0EB810FF2D12868810714D5A8
:101D5000400703D5A06840F4E060A0602878000741
:101D600005D5A06820F4605040F4E060A060A06851
:101D7000A96820F0F000084304E0802F03D1A06898
:101D800020F0F000A060D8F80010404601F00F01EC
:101D9000B14216D9016821F00F0131430160FFF70C
:101DA00019FD074607E000BFFFF714FDC11B5145B1
:101DB00001D903207AE7D8F8000000F00F00B04204
:101DC000F2D12878400705D5A068E96820F4E060E2
:101DD0000843A0602878000706D5A068296920F488
:101DE000605040EAC100A06000F04AF8A1680C4AC7
:101DF000C1F30311515C01F01F01C840094908609B
:101E000009480068BDE8F047FFF702BD0020024026
:101E10000010024000B4C4040024F40000366E0137
:101E2000A8680008680000205C00002001480068E5
:101E3000704700006800002005480649006889686E
:101E4000054AC1F30221515C01F01F01C8407047EF
:101E50006800002000100240B868000805480649E4
:101E600000688968054AC1F3C221515C01F01F0175
:101E7000C84070476800002000100240B8680008A1
:101E8000184910B58868C0F381021748012A0BD0A1
:101E90008A68164BC2F38102022A06D08A68C2F30E
:101EA0008102032A03D0002010BD184610BDCA6865
:101EB00002F00304CA68C2F30312521C032C02D0BE
:101EC000B0FBF2F001E0B3FBF2F0CA68C968C2F3FC
:101ED00006225043C1F34161491C4900B0FBF1F0B7
:101EE00010BD0000001002400024F40000366E0116
:101EF0002DE9F84304007AD02078FA4DC00747D086
:101F0000A868E96800F00C0001F003010C2802D079
:101F1000082817D001E0032914D06068B0F5803F8D
:101F200017D0B0F5A02F286817D020F48030286093
:101F3000286820F4802028606068E0B1FFF74AFC40
:101F4000064614E02868800322D560680028D2D0B5
:101F50001EE0286840F48030EDE740F480202860DF
:101F6000F7E700BFFFF736FC801B642870D82868AD
:101F70008003F7D50CE0FFF72DFC064605E000BF17
:101F8000FFF728FC801B6428F0D828688003F7D46A
:101F9000207880074CD5A868E96800F00C0001F0B3
:101FA00003010C2802D004280DD001E002290AD038
:101FB000E068002828682BD040F480702860FFF784
:101FC00009FC064619E02868400502D5E0680028AB
:101FD00091D06868217C20F0FE4040EA0160686092
:101FE000C1480068FFF714FC002800D120E076E12A
:101FF000FFF7F0FB801B0228B8D828684005F7D50A
:102000006868217C20F0FE4040EA016068600FE0D3
:1020100020F480702860FFF7DDFB064605E000BF76
:10202000FFF7D8FB801B0228A0D828684005F7D40A
:102030002078000729D560690028D5F8940013D0CE
:1020400040F00100C5F89400FFF7C4FB064606E027
:1020500090E000BFFFF7BEFB801B022886D8D5F8B2
:1020600094008007F6D510E020F00100C5F8940038
:10207000FFF7B0FB064604E0FFF7ACFB801B02282D
:1020800078D8D5F894008007F6D42078400761D539
:10209000A86D0026C00008D4A86D40F08050A86547
:1020A000A86D012600F08050009090480168C90595
:1020B00011D40168804641F480710160FFF78AFB0A
:1020C000074604E0FFF786FBC01B022852D8D8F869
:1020D0000000C005F6D5A068012815D00528D5F860
:1020E000900016D020F00100C5F89000D5F89000BF
:1020F00020F00400C5F89000A06841F28838B8B11B
:10210000FFF768FB07460EE0D5F8900040F00100AD
:10211000F0E740F00400C5F89000F5E7FFF75AFB40
:10212000C11B414526D8D5F890008007F6D50CE0B4
:10213000FFF750FB074604E0FFF74CFBC11B41458E
:1021400018D8D5F890008007F6D41EB1A86D20F0FD
:102150008050A8652078800629D5A0690028D5F888
:10216000980013D040F00100C5F89800FFF732FB4B
:10217000064606E077E000BFFFF72CFB801B022835
:1021800077D8D5F898008007F6D510E020F0010048
:10219000C5F89800FFF71EFB064604E0FFF71AFBA0
:1021A000801B022865D8D5F898008007F6D4E0692E
:1021B000F0B3A968C1F38101032961D0022828681E
:1021C00020F0807028600BD0E86820F00300E86001
:1021D000E86847490840E860FFF7FCFA04464BE02E
:1021E000FFF7F8FA064604E0FFF7F4FA801B02282E
:1021F0003FD828688001F7D4F4E908016FF00F0296
:1022000002EB01110843218A5204490802EB4151B3
:10221000A26841EA02210843217D4FF07E4249082D
:1022200002EB41610843217B40EAC160E96800E0BC
:1022300062E0304A11400843E860286840F080704E
:102240002860E86840F08070E860FFF7C3FA044651
:1022500005E000BFFFF7BEFA001B022809D8286876
:102260008001F7D548E004E0FFF7B4FA001B02282C
:1022700002D90320BDE8F88328688001F4D43BE04C
:102280000128F7D0E868226A00F00301914226D1C4
:10229000616A00F0F0020901103991421FD1A26A6F
:1022A00000F4FE41B1EB022F19D194F82C2000F07C
:1022B0007841B1EBC26F12D1218E00F4C0024908FF
:1022C0004905A1F50011914209D194F8341000F0AC
:1022D000C06049084906A1F1007181420CD001207B
:1022E000C8E70000001002405C00002000700040C1
:1022F000FFFFEEFE0C809F010020BBE70F4810B5EA
:102300000B4601680E480140080CD870C1F3042444
:102310005C7001F03F049C70C1F34231197052B9F6
:1023200001F08BFDD870587801F087FD58709878CF
:1023300001F083FD9870002010BD000004280040CB
:102340003FFFFF00144810B500680B464860124874
:1023500008300068C0F30E0088600F480838016834
:102360000E480140C1F305401870C1F306245C70AB
:1023700001F07F049C70890DD97052B901F05DFDA8
:102380001870587801F059FD5870987801F055FD93
:102390009870002010BD0000082800407F7F7F005B
:1023A00070B504004FF001003ED094F8250028B924
:1023B000002084F82400204600F03CF8022084F835
:1023C00025001A4ECA20306053203060204601F0AC
:1023D00049FD10BB154D0C3D286815490840286083
:1023E00028686168A269084321691143084328608D
:1023F0002189E06840EA01400C4914390860204610
:1024000001F056FD48B9D4E90721114362692B68F0
:1024100023F060431A4311432960FF2131600028F3
:1024200002D1012184F8251070BD0000242800404D
:10243000BFFF8FFB00680549884205D1044850F86A
:10244000901F41F4004101607047000000280040E7
:10245000001002402DE9F041044690F824000B469C
:1024600001281AD0012684F82460022084F825006F
:10247000B2B19878D97840EA0145587819780002C5
:1024800040EA413005431B4FCA2038605320386072
:10249000204601F0E7FCD8B122E00220BDE8F0813F
:1024A0005878C10603D500F0EF000A305870D8788C
:1024B00001F0CCFC0504587801F0C8FC45EA002581
:1024C000987801F0C3FC0543187845EA4035DAE70F
:1024D00009480540074820380560204601F0E8FC1F
:1024E000FF21396008B984F82560002184F82410A0
:1024F000D4E70000242800403FFFFF002DE9F0470B
:10250000054690F8240017460C46012814D04FF0D9
:10251000010985F82490022085F82500DFF8A480C1
:10252000CA21C8F800105321C8F80010284601F04D
:1025300099FC002618B127E00220BDE8F087214B66
:102540000C3B18684FEA40601FB3002800DBE670C0
:10255000A0782178E27840EA01406178090241EAF6
:102560008251084318490840164924390860186800
:1025700020F480201860D4E9030108431968084357
:102580001860284601F094FCFF22C8F80020A0B192
:1025900015E0002800DBE670207801F057FC070406
:1025A000607801F053FC47EA0027A07801F04EFC68
:1025B0000743E07847EA8050D4E785F8259085F80E
:1025C0002460BAE7242800407F7F7F0070B50B4D60
:1025D000286860F0A0002860FFF7FCF804464FF47C
:1025E0007A7606E0FFF7F6F8001BB04201D9032027
:1025F00070BD28688006F5D5002070BD0C2800400D
:1026000010B5401EB0F1807F01D3012010BD4FF006
:10261000E02460610F21601702F054FB0020A061EC
:1026200007202061002010BD90F87C10012918D0EF
:10263000012180F87C102421C0F8801050F8601B24
:102640000A680B6823F001030B6022F0005100229E
:10265000426050F8603C1960202101620277104608
:10266000704702207047704770B5044690F87C00B0
:1026700001281DD0012084F87C002420C4F88000AB
:1026800020680568026822F0010202602068826802
:1026900022F060620A438260204601F0FFFC20685D
:1026A00005602020C4F88000002084F87C0070BD04
:1026B000022070BD70B5044690F87C0001281DD042
:1026C000012084F87C002420C4F88000206805687C
:1026D000026822F0010202602068826822F06042F3
:1026E0000A438260204601F0D9FC20680560202062
:1026F000C4F88000002084F87C0070BD022070BD0A
:1027000070477047704700002DE9F04103680446A8
:10271000D8691A68996810F00F0F4FF0000569D05A
:102720005E4E02F490770E4037437DD0C70709D044
:10273000D70507D501271F62D4F8883043F001037D
:10274000C4F8883083070AD5CB0708D0276802234E
:102750003B62D4F8883043F00403C4F88830430760
:102760000AD5CB0708D0276804233B62D4F8883009
:1027700043F00203C4F8883003070CD502F02003AD
:10278000334308D0266808233362D4F8883043F0F6
:102790000803C4F88830D4F88830002B3CD0800679
:1027A00009D502F0200001F08051084303D0E16E0A
:1027B00009B120468847D4F888002168896849060D
:1027C00001D400072AD5204601F038FD2068816831
:1027D00049061ED5816821F040018160A06FC0B11B
:1027E0002F498163A06FFEF7B8FE002814D0A06FB8
:1027F000816B0AE0860617D502F0200601F08057AB
:102800003E4311D0E16E24E02046BDE8F041084788
:102810000AE02046FFF776FFBDE8F0812046FFF78B
:1028200071FFC4F88850F7E7C60209D54E0207D5F4
:102830004FF4801018622046BDE8F041FFF761BFF9
:10284000060609D502F0800601F400010E4303D00C
:10285000216F0029D8D1DFE741060DD551060BD5F0
:102860001968204621F0400119602021C4F8801029
:10287000256700F08FF9CFE7010206D5510004D596
:102880002046BDE8F041FFF73BBFC001C4D5002A98
:10289000C2DA2046BDE8F041FFF7E5BE01000010B6
:1028A0002742000810B5040003D0D4F8800010B10E
:1028B00007E0012010BD002084F87C00204600F0D5
:1028C00027F82420C4F880002068016821F0010165
:1028D0000160204601F0C4FD0128EBD0A06A10B1D0
:1028E000204601F00DFC2068416821F490414160D0
:1028F0002068816821F02A0181602068016841F028
:10290000010101602046BDE8104001F05DBC0000FF
:1029100010B586B0044614216846FDF7B1FC17498E
:102920002068884227D11648016E41F48041016633
:10293000016E01F480410591C16C41F00101C16457
:10294000C06C694600F0010005904FF4C060009033
:1029500002200190002002900390072004904FF085
:102960009040FEF749FE002211462520FEF79CFF0D
:102970002520FEF78BFF06B010BD00000038014097
:102980000010024070B5D0F88430202B6DD1B9B161
:10299000B2B190F87C30012B67D0012380F87C30F5
:1029A0008165A0F85C20A0F85E200021C1668368E4
:1029B0004FF48056FF24B34207D1036913B11CE0E2
:1029C000012070BD40F2FF131DE07F259BB1B3F1E4
:1029D000805F15D0A0F86010C0F888102223C0F8DE
:1029E000843003689C6844F001049C60436EB3F13A
:1029F000005F0ED027E0036943B9A0F86040EBE721
:102A000003691BB13F23A0F86030E5E7A0F86050F0
:102A1000E2E7B0F86830934215D88268B24201D13B
:102A2000026972B1124AC26680F87C1001680A68B5
:102A300042F480720A600068816841F080518160D0
:102A40000FE00C4AEFE78268B24201D1026952B14D
:102A5000094AC26680F87C100068016841F49071F0
:102A60000160002070BD054AF3E7022070BD000040
:102A7000C1430008C14200086143000861420008E8
:102A8000114800681149486301F112004A7A03783D
:102A90000F488354521CD2B24A72032A0ED100222C
:102AA0004A720278522A09D14278332A06D18078B4
:102AB000372801D0382801D101204871034901226B
:102AC00012310448FFF75EBF6400002008000020B8
:102AD00084000020A40100202DE9F8430446D0F82A
:102AE00080001F4616460D46202851D1DDB1D6B1D3
:102AF00094F87C0001284BD0012084F87C004FF032
:102B00000008C4F888802120C4F880001834FEF73B
:102B100061FEA6878146E68754F8100C183CB0F594
:102B2000805F03D004E00120BDE8F883206910B184
:102B30002E46002510E000260EE08021204602F0FF
:102B400062F8B8B9C6B116F8010B21688862B4F80A
:102B50005600401EA4F85600B4F856004B464FF0FD
:102B6000000200970028E8D14FF04001204602F013
:102B70004AF830B10320D7E735F8020BC0F308005C
:102B8000E3E72020C4F8800084F87C800020CBE7B5
:102B90000220C9E77047FEE700B585B014216846FA
:102BA000FDF76EFBC02000900120019002900220F2
:102BB000039069460248FEF71FFD05B000BD000006
:102BC0000004004870B50824002501F0DFF913E087
:102BD0006806050E002001F0C1F9142002F0F0FC97
:102BE000142002F0EDFC012001F0B8F9142002F0ED
:102BF000E7FC01F0BFF90543641EE4B2E8D200200F
:102C000001F0ACF9142002F0DBFC01F0E1F92846F8
:102C100070BD70B50446082516E001F09FF9142038
:102C200002F0CEFC04F0800001F0C6F9142002F09E
:102C3000C7FC6006040E142002F0C2FC012001F063
:102C40008DF9142002F0BCFC6D1EEDB24FF00000B7
:102C5000E3D201F083F9BDE87040142002F0B0BC6B
:102C600010B5012001F0A8F9142002F0A9FC1420ED
:102C700002F0A6FC012001F071F9142002F0A0FC82
:102C8000002001F06BF9BDE81040142002F098BC60
:102C900010B5012001F090F9142002F091FC012000
:102CA00001F05CF9142002F08BFC002001F084F9A3
:102CB000142002F085FC002001F050F9BDE810401E
:102CC000142002F07DBC10B5002001F047F914205B
:102CD00002F076FC002001F06FF9142002F070FC85
:102CE000012001F03BF9142002F06AFC012001F000
:102CF00063F9BDE81040142002F062BC10B5052451
:102D000001F044F9142002F05BFC012001F026F9E7
:102D1000142002F055FC05E0641EA4B2142002F059
:102D20004FFC6CB101F026F90028F5D101F050F903
:102D3000002001F013F9142002F042FC002010BD25
:102D400001F046F9FFF7BFFF012010BD2DE9F04764
:102D5000BF482DED048B0168BE4C226B891A0A29ED
:102D600076D30068206300F08DF9DFF8EC824FF035
:102D700010074FF0010698F800004FF00005C0075B
:102D80001AD0207848B1B6EB101F0DD1002000F00A
:102D9000CFF9A771202020700EE0002000F0C8F9C4
:102DA0000820A071277007E0202805D1002000F03E
:102DB000BFF90420A071257098F800004FF47A79CB
:102DC00080079FEDA69A4CD5207858B1B6EB101F1E
:102DD00047D110283DD011283DD012283DD01328CE
:102DE0003ED03EE094ED0F0AD4ED050AB4EEE00AC1
:102DF000F1EE10FA18DBD4ED060AB4EEE00AF1EEBB
:102E000010FA11D86078401C6070A07940F0010081
:102E1000A07100F029FC4846FEF7DCFBA07900F029
:102E20000400A07100F020FCA078401CC0B2A0708B
:102E3000617800EE101AF8EE400A00EE100AB8EEC3
:102E4000401A80EE810A20EE090A84ED090A08E0A2
:102E5000EAE0112002E0122000E01320207000E0E0
:102E6000277098F80000474640079FED7D8B4AD5B4
:102E7000207898B1B6EB101F45D1DFF8EC819FEDBB
:102E80007B9A102840D04FF08049DFED799A1128C5
:102E900049D0122856D0132863D070E094ED100A60
:102EA000D4ED070AB4EEE00AF1EE10FA18DBD4ED27
:102EB000080AB4EEE00AF1EE10FA11D8E078401CEE
:102EC000E070A07940F00100A07100F0CDFB484611
:102ED000FEF780FBA07920F00100A07100F0C4FB98
:102EE0002079401CC0B22071E17800EE101AF8EE93
:102EF000400A00EE100AB8EE401A80EE810A20EE79
:102F0000090A84ED0A0A3CE0A069FDF76BFA53EC6C
:102F1000182BFDF7C0F9FDF778FAA06140452EDDCA
:102F200084ED069A2BE06069FDF75CFA53EC182BF0
:102F3000FDF7B1F9FDF769FA606148451FDDC4EDA1
:102F4000059A1CE0206AFDF74DFA53EC182BFDF7AB
:102F5000A2F9FDF75AFA2062404510DD84ED089A87
:102F60000DE0E069FDF73EFA53EC182BFDF793F9FD
:102F7000FDF74BFAE061484501DDC4ED079A657045
:102F8000A570387800074FD52078B6EB101F4FD1C9
:102F9000384EF0EE089A102809D0374FB0EE009A5C
:102FA000112813D0122820D013282DD03AE0A06980
:102FB000FDF718FA53EC182BFDF70EFAFDF725FA7A
:102FC000A061B0422EDAC4ED069A2BE06069FDF7ED
:102FD00009FA53EC182BFDF7FFF9FDF716FA6061BB
:102FE000B8421FDA84ED059A1CE094ED080ADFED83
:102FF000230A30EE600A10EE100A84ED080AB0428F
:1030000010DAC4ED089A0DE0E069FDF7EBF953EC36
:10301000182BFDF7E1F9FDF7F8F9E061B84201DAA4
:1030200084ED079AE5702571BDEC048BBDE8F0874F
:103030000221B1EB101FF7D16570E570A5709FED0F
:10304000100A257184ED0A0A84ED090AECE70000F4
:103050006400002008000020540000200000C84246
:103060009A9999999999C93F00004040CDCC0C405C
:103070009A99993FCDCC0C409A99993FCDCC4C3E32
:103080000000000070B5114C01212046FEF798FBAE
:10309000054602212046FEF793FB45EA4005042140
:1030A0002046FEF78DFB45EA800401214FF0904059
:1030B000FEF786FB064944EAC00040F0F0004A787B
:1030C000C04320EA02020A70487070BD0004004844
:1030D0005400002000B585B014216846FDF7D0F8F3
:1030E0004FF6FF70009000200321CDE9020101900E
:1030F00069460248FEF780FA05B000BD00080048A6
:1031000000B585B014216846FDF7BAF84FF6FF7098
:103110000090012001900320039000200290694656
:103120000248FEF769FA05B000BD0000000800483B
:1031300070B5002406462146204600F0F1F900F063
:103140002FFA4FF49635304600F0FEF9641CAC427D
:10315000F9D370BD30B587B014216846FDF790F8FB
:103160001E48C16C41F00401C164C16C01F004014E
:103170000591C16C41F00101C164C16C01F0010114
:103180000591C16C41F00201C164C06C012500F0E1
:10319000020005904FF44870CDE900050024039427
:1031A000694602940E48FEF727FA2802039400901D
:1031B000CDE901544FF0904469462046FEF71CFAD1
:1031C000FFF79EFFA06940F48070A06104481830AA
:1031D000016841F40871016007B030BD0010024081
:1031E00000040048203AD2B2034B02EB420203EB48
:1031F000021200F019B80000D8560008F0B50E46CB
:103200000746002540F23F1407E021463846FFF705
:10321000E9FF103C6D1CA4B2761C3278002A01D064
:10322000142DF2D3F0BD00002DE9F04791468A46F7
:103230000026044600F074F9DFF84080012700BF43
:1032400000F0AEF95FF0000539F8160007FA05F155
:103250000842404601D1408800E0008800F074F93F
:103260006D1C102DF0D3641CE4B25146204600F0D2
:1032700057F9761C182EE3D3BDE8F0870000002034
:1032800010B5FFF767FF002000F002F9084CA0809E
:10329000A088A0F50241303906D000F0CDFC002016
:1032A00000F0F6F8A08010BD00F03DFCF7E700004C
:1032B0000000002070B5494888B00168484CA26BF6
:1032C000891A64293CD30068A0632078002839D08B
:1032D0000121B1EB101F5CD142A102A801F0DEFC7C
:1032E00002A91820FFF78AFFA069FDF77BF80546C1
:1032F0000E466069FDF776F841EC100BCDE90056FB
:1033000053EC102B3BA102A801F0C8FC02A94820F5
:10331000FFF774FF206AFDF765F805460E46E06981
:10332000FDF760F841EC100BCDE9005653EC102B83
:1033300036A102A801F0B2FC02A96020FFF75EFFEF
:1033400008B070BD37A102A801F0A8FC4FF6E070EC
:1033500000F0DEF802A91820FFF750FF002000F06F
:10336000D7F8E06BFDF73EF841EC100B32A153ECBF
:10337000102B02A801F092FC02A94820FFF73EFFA3
:10338000206CFDF72FF841EC100B2FA153EC102B04
:1033900020E02028D4D130A102A801F07FFC02A9AE
:1033A0001820FFF72BFF606AFDF71CF841EC100BAB
:1033B0002DA153EC102B02A801F070FC02A94820AB
:1033C000FFF71CFFA06AFDF70DF841EC100B2BA1D5
:1033D00053EC102B02A801F061FCADE76400002063
:1033E000080000202020202020205354414E44413A
:1033F0005244000020202020535233373A25322EE9
:1034000031662D25322E316600000000202020205C
:10341000535233383A25322E31662D25322E3166FD
:103420000000000020202020202020474F4F445340
:103430002020202020200000202020202052333770
:103440003A25342E326600002020202020523338C6
:103450003A25342E32660000202020202020202013
:1034600050415353000000002020202020505233B0
:10347000373A2530342E31662525000020202020C3
:1034800020505233383A2530342E3166252500003D
:1034900070B51D490A6842F400720A600A6842F475
:1034A00080720A60184C103C226842F020022260B0
:1034B000164A1060086840F02000086000BF00BF96
:1034C00000BF206840F020002060206840F4807039
:1034D0002060FFF7FFFD4FF09041886A40F4807054
:1034E000886200BF00BF00BF0848001F006885B2A7
:1034F000886940F480708861FFF702FE206840F41C
:1035000000702060284670BD280400481408004858
:1035100001B5BDF800000149488008BD0000002049
:1035200010B50C460146202000F068F82146BDE8A1
:103530001040212000F062B801B5BDF8000001493B
:10354000088008BD00000020134A116841F4007192
:103550001160114910390B6843F480730B600B68DC
:1035600043F020030B600D4B1860106840F0200002
:10357000106000BF00BF00BF086840F02000086076
:10358000086840F48070086000BF00BF00BF086892
:1035900040F4007008607047280400481408004890
:1035A0001449086840F400700860086840F48070AE
:1035B000086010481038026842F0200202600E4B8A
:1035C00022221A600A6842F020020A6000BF00BF8F
:1035D00000BF016841F020010160016841F4807181
:1035E000016000BF00BF00BF016841F400710160CD
:1035F000704700002804004814080048184B10B514
:103600001A6842F400721A601A6842F480721A60F2
:10361000134A103A146844F020041460114C2060DE
:10362000186840F02000186000BF00BF00BF10689D
:1036300040F020001060106840F48070106021603D
:10364000186840F02000186000BF00BF00BF10687D
:1036500040F020001060106840F48070106010BDD1
:10366000280400481408004870B5124D0446012291
:103670004FF47F412846FEF7A8F80F4E012204219F
:103680003046FEF7A2F8002204213046FEF79DF8EE
:10369000210200222846FEF798F801220421304634
:1036A000FEF793F83046BDE8704000220421FEF793
:1036B0008CB8000000080048000C004806490A6861
:1036C0000648C36AD21A642A04D30968C1628079A1
:1036D000FFF7CABF70470000640000200800002008
:1036E00000EB8100006E00F0F84070478068C0F386
:1036F000C00070478068C0F3800070478068C0F3E6
:1037000080007047042303EAD15310B5184443697D
:10371000C1F3045107248C40A3438A4013434361FF
:1037200010BD00EB8100016E21F0004111430166E4
:10373000704710B5FFF7ACFA5F20FFF76AFAFFF7A2
:10374000DDFAFFF73FFA0446FFF78AFAFFF7BBFA04
:10375000204610BD10B50446FFF79AFA5E20FFF729
:1037600058FAFFF7CBFA2046FFF753FAFFF7C6FAED
:10377000BDE81040FFF7A7BA30B58BB0002408941D
:103780000994202168460A94FCF77AFD22484FF0FC
:10379000A0410425C0E90014846085610121C46052
:1037A000C0E90441047744770221016280F8244093
:1037B000C462046380F83840C46380F84040FDF779
:1037C000A9FB08B1FDF726F908A913480894FDF7ED
:1037D00023F908B1FDF71EF910480090062001906A
:1037E000072002907F200594CDE9030569460A4829
:1037F000FDF77CF908B1FDF70DF9094800900C20A0
:10380000019069460448FDF771F9002801D0FDF7E1
:1038100001F90BB030BD0000900000202000F01432
:103820000008302E30B589B020216846FCF728FD0D
:10383000184817490024C0E900148460C4600425B6
:103840000461C0E90545047744770121016280F8ED
:103850002440C462046380F83840C46380F8404068
:10386000FDF758FB08B1FDF7D5F80B48009006208E
:10387000CDE901047F200594CDE90305694605489B
:10388000FDF734F9002801D0FDF7C4F809B030BDC8
:1038900000010050FC0000200080F03E10B58CB00C
:1038A00030216846FCF7ECFC1649154808600846CC
:1038B000FDF7D0FD08B1FDF7ADF802200090002023
:1038C0008DF804008DF80500029003900124049007
:1038D000CDE905040246079069460A48FDF7E2FC77
:1038E00008B1FDF797F81022694606480694FDF7DF
:1038F000D9FC002801D0FDF78DF80CB010BD0000F8
:1039000000080050900100202DE9F04F87B01421ED
:103910006846FCF7B5FC4048C16C41F00401C16445
:10392000C16C01F004010591C16C41F02001C1643A
:10393000C16C01F020010591C16C41F00101C1642D
:10394000C16C01F001010591C16C41F00201C1643B
:10395000C16C01F002010591C16C41F00801C16424
:10396000C06CDFF8B88000F008004FF6FF740590D7
:10397000002221464046FDF728FF4FF480764FF0A5
:103980009049002231464846FDF71FFFDFF890A01E
:10399000002204215046FDF718FFDFF888B04FF4ED
:1039A0004877002239465846FDF70FFF0125CDE93B
:1039B000004500240294694640460394FDF71CFE2E
:1039C000CDE90054694648460294FDF715FE0720EC
:1039D000CDE90004694658460294FDF70DFE0096B5
:1039E000CDE90154694648460394FDF705FE0420DD
:1039F0000090CDE90154694650460394FDF7FCFD63
:103A00000097CDE90154694658460394FDF7F4FD4B
:103A100007B0BDE8F08F0000001002400008004829
:103A2000000C00480004004810B586B01421684618
:103A3000FCF726FC1F4800241D490594C0E900142A
:103A40001F21816040F2E731C0E903144461046240
:103A5000FEF7A6FC08B1FCF7DDFF23208DF800007F
:103A600059208DF8010055208DF80200019403942F
:103A7000012269460F480494FEF740FD08B1FCF7A7
:103A8000C9FF01208DF8140002208DF815002820B0
:103A90008DF8160022208DF81700012205A905488F
:103AA000FEF7D8FC002801D0FCF7B4FF06B010BD2B
:103AB0000028004068010020184810B51649016030
:103AC0004FF416514160002181600C22C160C0E9B1
:103AD00004128161C161016241628162FEF7E2FE0E
:103AE00008B1FCF797FF00210C48FEF7E3FD08B191
:103AF000FCF790FF00210948FEF7B6FD08B1FCF77E
:103B000089FF0648FEF790FD002803D0BDE810406D
:103B1000FCF780BF10BD000000380140A401002068
:103B2000FEE77047704730B501210020FFF766FDC2
:103B30004FF47A70FCF727FF00210120FFF75EFDAC
:103B400041F290711020FFF759FD4FF41C51602095
:103B5000FFF754FD01216120FFF750FD02214620AF
:103B6000FFF74CFD48F210011320FFF747FD48F224
:103B7000FE011220FFF742FD4FF4A0610220FFF783
:103B80003DFD41F230010320FFF738FD40F20334E0
:103B900021463020FFF732FD21463120FFF72EFD70
:103BA00021463220FFF72AFDE51E29463320FFF784
:103BB00025FD03213420FFF721FD21463520FFF7A5
:103BC0001DFD14213620FFF719FD21463720FFF790
:103BD00015FD21463820FFF711FD21463920FFF75A
:103BE0000DFD29463A20FFF709FD03213B20FFF791
:103BF00005FD21463C20FFF701FD4FF4A0513D207B
:103C0000FFF7FCFC4FF400719220FFF7F7FC214610
:103C10009320FFF7F3FC40F60D019020FFF7EEFC38
:103C200041F218010320FFF7E9FCBDE8304040F203
:103C300073110720FFF7E2BC10B543F20801E3203F
:103C4000FFF7DCFC1221E720FFF7D8FC41F231211D
:103C5000EF20FFF7D3FC00210120FFF7CFFC4FF44A
:103C6000E0610220FFF7CAFC41F230010320FFF7B8
:103C7000C5FC00210420FFF7C1FC40F20721082009
:103C8000FFF7BCFC00210920FFF7B8FC00210A2047
:103C9000FFF7B4FC00210C20FFF7B0FC00210D2041
:103CA000FFF7ACFC00210F20FFF7A8FC002110203B
:103CB000FFF7A4FC07211120FFF7A0FC0021122030
:103CC000FFF79CFC00211320FFF798FCC820FDF7AC
:103CD00081FC41F290611020FFF790FC40F2272117
:103CE0001120FFF78BFC3220FDF774FC1D21122000
:103CF000FFF784FC3220FDF76DFC4FF400611320C8
:103D0000FFF77CFC14212920FFF778FC0B212B20E6
:103D1000FFF774FC3220FDF75DFC00212020FFF747
:103D20006DFC00212120FFF769FC07213020FFF7FF
:103D300065FC40F207713120FFF760FC062132205C
:103D4000FFF75CFC40F204713520FFF757FC41F6A9
:103D500004713620FFF752FC04213720FFF74EFC98
:103D600000213820FFF74AFC40F206713920FFF7A6
:103D700045FC40F201713C20FFF740FC0F213D2043
:103D8000FFF73CFC00215020FFF738FCEF215120C9
:103D9000FFF734FC00215220FFF730FC40F23F11C6
:103DA0005320FFF72BFC4FF41C516020FFF726FC3B
:103DB00001216120FFF722FC00216A20FFF71EFC91
:103DC00000218020FFF71AFC00218120FFF716FC5C
:103DD00000218220FFF712FC00218320FFF70EFC58
:103DE00000218420FFF70AFC00218520FFF706FC54
:103DF00010219020FFF702FC00219220FFF7FEFB2C
:103E000003219320FFF7FAFB4FF488719520FFF709
:103E1000F5FB00219720FFF7F1FB00219820FFF729
:103E2000EDFB41F218010320FFF7E8FBBDE810406D
:103E300040F273110720FFF7E1BB010901EB81019B
:103E400000F00F0000EB4100C0B2704700220146B5
:103E500002E00A39C9B2521C0A29FAD2100741EA13
:103E6000106070472DE9F047104C8146002520680E
:103E7000400618D4206840F080002060FDF7AAFCBE
:103E800006464FF47A78032708E000BFFDF7A2FC4E
:103E9000801B404502D9032589F82570206840061B
:103EA00001D4032DF2D12846BDE8F0870C2800404C
:103EB0002DE9F041064613480025016821F08001F4
:103EC0000160104C0C3420684FF00307800607D4C3
:103ED0003046FEF77BFB90B186F8257003250EE097
:103EE000206820F0200020603046FEF76FFB10B104
:103EF00086F825700325206840F0200020602846C1
:103F0000BDE8F0810C28004010B5002205490648A4
:103F1000FEF718FABDE81040002204490248FEF7F7
:103F2000EDB9000070000020680100205000002062
:103F300007490A680748436BD21A322A07D309682F
:103F40004163002141720A210348FCF799B9704787
:103F500064000020080000208400002008B104480C
:103F600001E003481030016841F0400101607047F2
:103F70001804004810B580210348FDF721FC0128F2
:103F800000D0002010BD00000004004800B585B03E
:103F900014216846FCF774F98020009000200190FD
:103FA000012002900220039069460248FDF724FB9D
:103FB00005B000BD0004004808B1044801E0034812
:103FC0001030016841F0800101607047180400481A
:103FD00000B585B014216846FCF752F980200090A6
:103FE00011200190002002900220039069460248AF
:103FF000FDF702FB05B000BD000400487047FDF767
:10400000EFBB000030B5A5B038216846FCF738F9A1
:1040100014211FA8FCF734F944210EA8FCF730F94D
:104020004FF400752846FDF771FC0221C80103908A
:10403000402004900091079108911420CDE90910C7
:104040000B910C9168460D91FDF752FF0F201F90C8
:1040500000240320CDE92004014622941FA82394C4
:10406000FDF7F6FD05480E9040070F94CDE91D05BC
:104070000EA8FDF7A9FC25B030BD000001800800A6
:104080000548016841F47001016003494FF0006088
:10409000803908607047000088ED00E03FB514A14A
:1040A000D1E90021CDE9002113A2D2E90012CDE926
:1040B0000212416EB9B1026891689268C1F342611F
:1040C000520F1DF80240E50002ACA25CB5FBF2F213
:1040D000A0F86A201DF80120615CD200B2FBF1F16A
:1040E000A0F868103FBD0121A0F86A10F8E70000B1
:1040F0000101010307010000080402040801010195
:1041000090F82810C90706D001684A68C36A22F4EB
:1041100000321A434A6090F82810890706D50168D2
:104120004A68036B22F480321A434A6090F82810E0
:10413000490706D501684A68436B22F480221A4376
:104140004A6090F82810090706D501684A68836B11
:1041500022F400421A434A6090F82810C90606D596
:1041600001688A68C36B22F480521A438A6090F80F
:104170002810890606D501688A68036C22F400526B
:104180001A438A6090F82810490611D501684A68D8
:10419000436C22F480121A434A60416CB1F5801FCF
:1041A00006D101684A68836C22F4C0021A434A604F
:1041B00090F82810090606D501684A68C06C22F4F8
:1041C000002202434A607047F8B500260446C0F852
:1041D0008860FDF7FFFA0546206800686FF07E47AB
:1041E000000708D52B4600224FF400112046009707
:1041F00000F009FD60B92068006840070AD52B4629
:1042000000224FF480012046009700F0FCFC08B12A
:104210000320F8BD2020C4F88000C4F8840084F88E
:104220007C600020F8BD10B5806A0021A0F85E1007
:10423000A0F85610FEF766FA10BD000001680A6883
:1042400022F490720A6001688A68044B1A408A60FE
:104250002021C0F884100021C1667047FEFFFFEFE7
:1042600010B5B0F86020D0F884300168222B04D05B
:10427000886940F00800886110BD496A836D11406B
:104280001980816D891C8165B0F85E10491EA0F807
:104290005E10B0F85E100029EED101680A6822F4C1
:1042A00090720A6001688A6822F001028A60202107
:1042B000C0F884100021C166FEF7E2FB10BD0000CB
:1042C00070B50446B0F86060D0F88400222805D0AC
:1042D0002068816941F00801816170BDB4F86850BF
:1042E00023E02068406AA16D30400880A06D801CEA
:1042F000A065B4F85E00401EA4F85E00B4F85E004D
:1043000088B92068016821F48071016020688168A3
:10431000114A114081602020C4F884000020E0662A
:104320002046FEF7ADFB6D1EADB2002DD9D1B4F81D
:104330005E000028D1D0B4F868108142CDD9206841
:10434000816821F0805181600448E066206801683E
:1043500041F02001016070BDFEFFFFEF61420008E7
:1043600010B5B0F86020D0F884300168222B04D05A
:10437000886940F00800886110BD496A1140826D6B
:104380001170816D491C8165B0F85E10491EA0F85E
:104390005E10B0F85E100029EED101680A6822F4C0
:1043A00090720A6001688A6822F001028A60202106
:1043B000C0F884100021C166FEF762FB10BD00004A
:1043C00070B50446B0F86060D0F88400222805D0AB
:1043D0002068816941F00801816170BDB4F86850BE
:1043E00023E02068406AA16D30400870A06D401C39
:1043F000A065B4F85E00401EA4F85E00B4F85E004C
:1044000088B92068016821F48071016020688168A2
:10441000114A114081602020C4F884000020E06629
:104420002046FEF72DFB6D1EADB2002DD9D1B4F89C
:104430005E000028D1D0B4F868108142CDD9206840
:10444000816821F0805181600448E066206801683D
:1044500041F02001016070BDFEFFFFEF61430008E5
:104460002DE9F05F0446016880682369E569184317
:10447000636900272B431843636EFA4A03430868B5
:10448000F94D28401843086020684168E36821F42A
:104490004051194341602168A069914201D0236ACB
:1044A00018438B68F14D2B4003438B602068C16A31
:1044B000636A21F00F011943C162ED4B2068ED4999
:1044C00098420DD1D1F8881011F0030106D00129CE
:1044D0005AD0022956D003293FD157E001253DE0AB
:1044E000E54B98420BD1D1F8881011F00C0147D060
:1044F000042949D0082945D00C292ED146E0DF4BAC
:1045000098420BD1D1F8881011F0300138D0102921
:104510003AD0202936D030291FD137E0D84B9842E5
:104520000BD1D1F8881011F0C00129D040292BD02F
:10453000802927D0C02910D128E090420DD1D1F890
:10454000881011F440611BD0B1F5806F1CD0B1F51B
:10455000006F17D0B1F5406F18D01025DFF824A3F5
:104560004FF480764FF000094FF4004B90426ED12B
:1045700075B1022D29D0042D59D0082D68D176E0CF
:104580000025EBE70225E9E70425E7E70825E5E74D
:10459000FDF752FC4DE0012851D0022851D00328EC
:1045A00051D0042851D0052853D0062853D00728CD
:1045B00053D0082853D0092853D00A2853D00B28A9
:1045C00053D03AE0B1FBF0F06CE0606AA8B101288A
:1045D00017D0022817D0032817D0042817D0052891
:1045E00017D0062817D0072817D0082817D0092871
:1045F00017D00A2817D00B2817D00120BAFBF0F0EB
:1046000050E00220FAE70420F8E70620F6E7082049
:10461000F4E70A20F2E70C20F0E71020EEE7202074
:10462000ECE74020EAE78020E8E73046E6E7FDF7E0
:1046300027FC0146606A0028ADD10120C2E70220B4
:10464000C0E70420BEE70620BCE70820BAE761E126
:104650004AE00A20B6E70C20B4E71020B2E7202099
:10466000B0E74020AEE78020ACE73046AAE7606ABA
:10467000A8B1012822D0022822D0032822D0042861
:1046800022D0052822D0062822D0072822D00828A8
:1046900022D0092822D00A2822D00B2822D001209B
:1046A000BBFBF0F0002820D06168884601EB410197
:1046B000814219D8B0EB083F16D817E00220EFE787
:1046C0000420EDE70620EBE70820E9E70A20E7E70A
:1046D0000C20E5E71020E3E72020E1E74020DFE7BA
:1046E0008020DDE73046DBE7012739E27DB3022D8C
:1046F00061D0042D7DD0082DF6D1606AA8B10128C3
:1047000078D0022877D0032876D0042875D00528E1
:1047100074D0062873D0072872D0082871D00928D1
:1047200070D00A286FD00B2800D0012632464D46A3
:10473000002358460021FBF76BFD090241EA106196
:1047400002024FEA580010186941424670E0FFE744
:10475000FDF772FB0146606AA8B1012817D0022854
:1047600017D0032817D0042817D0052817D00628FB
:1047700017D0072817D0082817D0092817D00A28DB
:1047800017D00B2800D0012632464D468CE0022679
:10479000FAE70426F8E70626F6E70826F4E70A26ED
:1047A000F2E70C26F0E71026EEE72026ECE740269D
:1047B000EAE78026E8E7606AA8B1012824D0022849
:1047C00024D0032824D0042824D0052824D0062867
:1047D00024D0072824D0082824D0092824D00A2847
:1047E00024D00B2800D0012632464D4600235046E7
:1047F000A0E726E07AE07BE07CE07DE07EE07FE001
:1048000080E081E082E083E00226EDE70426EBE72A
:104810000626E9E70826E7E70A26E5E70C26E3E7A8
:104820001026E1E72026DFE74026DDE78026DBE7EC
:104830000023FBF7EDFC144AA0F54071914271D9B9
:1048400052E7FDF71DFB0146606A50B3012839D0DD
:10485000022839D0032839D0042839D0052839D086
:10486000062813E000800040F369FFCFFFF4FF113A
:104870000038014000100240004400400048004061
:10488000004C00400024F400FFFC0F0024D0072857
:1048900024D0082824D0092824D00A2824D00B2882
:1048A00000D001264D463246002308461946FBF744
:1048B000AFFC0902626841EA10610302500818184F
:1048C0006941B5E70226EDE70426EBE70626E9E7AE
:1048D0000826E7E70A26E5E70C26E3E71026E1E7E6
:1048E0002026DFE74026DDE78026DBE702261DE7FE
:1048F00004261BE7062619E7082617E70A2615E708
:104900000C2613E7102611E720260FE740260DE7B7
:1049100080260BE7E0694FF6EF78584570D1092DF6
:104920008ED200E01AE1DFE805F006093C058005BB
:1049300005058300D8E6FDF77FFA01E0FDF78EFA62
:104940000146606AA8B1012815D0022815D00328B5
:1049500015D0042815D0052815D0062815D007280D
:1049600015D0082815D0092815D00A2815D00B28ED
:1049700014D0012612E0022610E004260EE00626DE
:104980000CE008260AE00A2608E00C2606E01026BD
:1049900004E0202602E0402600E08026B1FBF6F08D
:1049A0001AE0606AA8B101282BD002282BD0032876
:1049B0002BD004282BD005282BD006282BD0072855
:1049C0002BD008282BD009282BD00A282BD00B2835
:1049D00000D00126BAFBF6F04100606801EB5001FF
:1049E000B1FBF0F080B2A0F110014145A2D84FF622
:1049F000F0710140C0F3420001432068C160AFE0A4
:104A000046E00226E6E70426E4E70626E2E7082673
:104A1000E0E70A26DEE70C26DCE71026DAE72026A8
:104A2000D8E74026D6E78026D4E7FDF729FA87E7BE
:104A3000606AA8B1012817D0022817D0032817D020
:104A4000042817D0052817D0062817D0072817D014
:104A5000082817D0092817D00A2817D00B2800D00B
:104A60000126BBFBF6F0B7E70226FAE70426F8E7D3
:104A70000626F6E70826F4E70A26F2E70C26F0E712
:104A80001026EEE72026ECE74026EAE78026E8E756
:104A9000092DBFF4D5AEDFE805F006093C05830516
:104AA0000505860020E6FDF7C7F901E0FDF7D6F918
:104AB0000146606AA8B1012815D0022815D0032844
:104AC00015D0042815D0052815D0062815D007289C
:104AD00015D0082815D0092815D00A2815D00B287C
:104AE00014D0012612E0022610E004260EE006266D
:104AF0000CE008260AE00A2608E00C2606E010264C
:104B000004E0202602E0402600E08026B1FBF6F11A
:104B10001AE0606AA8B101282ED002282ED00328FE
:104B20002ED004282ED005282ED006282ED00728D7
:104B30002ED008282ED009282ED00A282ED00B28B7
:104B400000D00126BAFBF6F1606801EB5001B1FB21
:104B5000F0F080B2A0F110014145A3D82168C860EF
:104B60000120A4F86A0024F8680F3846C4F80490BD
:104B7000C4F80890BDE8F09F0226E3E70426E1E7C9
:104B80000626DFE70826DDE70A26DBE70C26D9E75D
:104B90001026D7E72026D5E74026D3E78026D1E7A1
:104BA000FDF76EF984E7606AA8B1012817D00228E2
:104BB00017D0032817D0042817D0052817D00628A7
:104BC00017D0072817D0082817D0092817D00A2887
:104BD00017D00B2800D00126BBFBF6F1B4E7022664
:104BE000FAE70426F8E70626F6E70826F4E70A2699
:104BF000F2E70C26F0E71026EEE72026ECE7402649
:104C0000EAE78026E8E72DE9F041984617460E4688
:104C10000446069D08E0681C06D0FCF7DBFDA0EB0F
:104C20000800A8420BD855B12068C06936EA0000D8
:104C300019D00020B842EED00020BDE8F0812068F5
:104C4000016821F4D07101602068816821F00101C0
:104C500081602020C4F88000C4F88400002084F81B
:104C60007C000320E9E70120E4E700000148FDF7AC
:104C70004BBD0000A4010020FEE700000FB4054B6F
:104C800010B503A9044A029800F0FEF810BC5DF8C4
:104C900014FB0000CD5500086C0000200FB4084B39
:104CA00010B504A902AA039800F0EEF8044602A980
:104CB000002000F080FC204610BC5DF814FB0000D2
:104CC000B75500080907090E002804DB00F1E020B1
:104CD00080F80014704700F00F0000F1E02080F829
:104CE000141D704702E008C8121F08C1002AFAD13B
:104CF00070477047002001E001C1121F002AFBD15C
:104D0000704700002DE9FF5F82B00021DDE904302B
:104D1000020DDDF840B0034318D044F61050A2F263
:104D2000FF3242431514119801281FD0A5EB0B0048
:104D3000401C5FEA000A4FF000064E4FDFF8389142
:104D4000B046504615D5CAF1000413E0119801246D
:104D50004AA3012801D16FEA0B010298119AC0E918
:104D60000031C0E9024206B0BDE8F09FCBF100007F
:104D7000DFE704460021404A491842EB0450CDE9E0
:104D8000001012E0E00707D032463B464046494655
:104D9000FBF732FC8046894632463B4610461946B0
:104DA000FBF72AFC06460F466410002CEAD1DDE929
:104DB0000401DDE90023BAF1000F06DAFBF71CFC61
:104DC00042464B46FBF718FC05E0FBF787FC4246E2
:104DD0004B46FBF783FC04460E460022284BFBF7AC
:104DE00005FD03D84FF0FF30014607E00022254BB8
:104DF00020463146FBF74FFAFBF7DFFC102409E0B1
:104E0000002C0ADB0A220023FBF702FA039B303254
:104E10001A55641E50EA0102F2D1641C039AC4F1CF
:104E200011031444119A012A03D0012208430DD121
:104E30000AE0084304D000204FF0110B119072E7F4
:104E4000A3EB0B056D1E0DE05B4504DD4FF000028A
:104E500005F1010504E003DA4FF00002A5F10105B8
:104E6000002AECD002981199C0E90231C0E900454E
:104E700079E70000000014400000F03F300000001F
:104E80000000F0430000E03F2DE9FF4F95B09B4646
:104E90008946064600250FE2252877D100242746BB
:104EA000F84A0121059400E0044316F8013F203B35
:104EB00001FA03F01042F7D130782A2811D06FF0B0
:104EC0002F033078A0F13002092A16D8059A44F051
:104ED000020402EB820203EB42021044761C0590AE
:104EE000EFE759F8042B0592002A03DA504244F404
:104EF0000054059044F00204761C30782E2816D118
:104F000016F8010F44F004042A280DD06FF02F0288
:104F10003078A0F13003092B09D807EB870302EBA7
:104F20004303C718761CF3E759F8047B761C3078E6
:104F30006C280FD006DC4C2817D068280DD06A28C2
:104F400014D104E0742810D07A280FD10DE044F475
:104F500000140AE044F4801401E044F44014727830
:104F6000824202D104F58014761C761C30786628C3
:104F70000BD013DC582877D009DC002875D04528E1
:104F8000F6D04628F4D047281AD19DE118E06328CE
:104F900035D0642879D0652812D195E1702873D076
:104FA00008DC6728F1D069286FD06E280DD06F28F3
:104FB00006D1B5E073282CD0752875D0782874D028
:104FC0005A46179990476D1C75E1C4F302500228A8
:104FD00009D003280DD0D9F8001004280DD00D6099
:104FE00009F1040967E1D9F80010EA17C1E9005294
:104FF000F6E7D9F800100D80F2E70D70F0E719F828
:10500000041B8DF8001000208DF80100EA460120F5
:1050100003E059F804AB4FF0FF3061074FF0000197
:1050200002D40DE008F101018846B9420FDA80454B
:10503000F8DB1AF808100029F4D108E008F10101A2
:1050400088468142FADB1AF808100029F6D1059843
:105050005B46A0EB080721463846179A00F094FA01
:10506000284400EB080507E04DE029E10DE01AF8BF
:10507000010B5A4617999047B8F10108F7D25B46E1
:1050800021463846179A13E142E00A220092C4F3FF
:1050900002524FF0000A022A08D059F804CB032A22
:1050A0004FEAEC710AD00DE029E02AE009F107018E
:1050B00021F00702F2E802C1914609E00FFA8CFCE8
:1050C0004FEAEC71042A03D14FFA8CFC4FEAEC71E1
:1050D000002907DA0A460021DCF1000C61EB02012D
:1050E0002D2202E0220504D52B228DF80420012276
:1050F00003E0E20701D02022F7E7904659E00A21B9
:1051000002E010220DE010214FF0000A00910BE0A8
:1051100010224FF0000A44F004040827009203E034
:1051200008224FF0000A0092C4F30252022A05D06E
:1051300059F804CB0021032A08D009E009F107013E
:1051400021F00702F2E802C1914605E01FFA8CFC4B
:10515000042A01D10CF0FF0C4FF00008220728D5DB
:10516000702806D0009B83F0100353EA0A0305D091
:105170000EE040228DF80420012208E05CEA0102E2
:1051800006D030228DF804208DF8050002229046CA
:10519000009B83F0080353EA0A030AD15CEA010288
:1051A00001D1620705D530228DF804204FF00108A7
:1051B0007F1E582804D034A003900EA802900DE062
:1051C00036A0F9E753466046009AFBF721F884467B
:1051D0000398825C0298401E029002705CEA010013
:1051E000F0D1029806A9081A00F1200A600702D53A
:1051F00024F4803400E00127574502DDA7EB0A00C4
:1052000000E0002000EB0A01009005984144401A9C
:105210000590E00306D45B462146179A059800F0F6
:10522000B3F90544002706E001A85A46C05D179966
:1052300090476D1C7F1C4745F6DBE0030CD55B46B1
:105240002146179A059800F09FF9054404E03020A4
:105250005A46179990476D1C0099481E00900029E6
:10526000F5DC08E0029802995A460078491C029140
:10527000179990476D1CBAF10001AAF1010AF1DCFF
:1052800065E100000928010030313233343536370A
:105290003839616263646566000000003031323382
:1052A0003435363738394142434445460000000022
:1052B00000F058F90544761C307800287FF4ECADF6
:1052C00019B02846BDE8F08F620700D4062709F11F
:1052D000070222F0070CFCE80223E14603F0004835
:1052E0005FEA080C02D00FF2702C0DE05FEA045C5C
:1052F00002D50FF2682C07E05FEAC47C02D00FF2FF
:10530000602C01E0AFF2700C4FF0FF3823F0004347
:10531000CDF850C065280CD006DC452809D04628B9
:105320001DD047283DD13DE0662818D067287ED1A2
:1053300038E00021112F01DB112000E0781CCDE9BD
:10534000000106A90EA8FFF7DDFCDDE90F010E9AAA
:1053500003910021009207F1010A04914DE04FF002
:1053600000400097CDE9011006A90EA8FFF7CAFC7E
:10537000DDE90F0203920E9B11990022DDF80CA0CB
:105380000093049211B9791C00EB010AB7EB0A00F3
:1053900004D4C0F1FF3007F1010A0490AAEB070022
:1053A000019044E0012F00DA01270021112F01DDD7
:1053B000112000E03846CDE9000106A90EA8FFF74C
:1053C000A1FCDDE90F010E9A0391002104910092E6
:1053D000BA4621070CD40399514500DA8A46BAF13E
:1053E000010F05DD009AAAF10101515C302908D0B6
:1053F000B84202DA10F1040F06DA0121CDE90110FA
:1054000015E0AAF10101E9E7002805DC049901444F
:105410000491AAEB000102E0411C514500DD8A46DF
:105420000499401A401C01904FF000400290200760
:1054300004D40198504501DBCDF8048000208DF89C
:105440004F0002980DF14F07B0F1004F25D02B20EF
:105450000E9002984FF0020800280CDA40420290A9
:105460002D200E9007E00A210298FAF7EAFF30316A
:10547000029007F8011DB8F10001A8F10108F2DC63
:1054800002980028EFD1791E0E980870307800F04D
:10549000200040F0450007F8020D12A8C01B00F1E3
:1054A00007081498007800B1012000EB0A01019868
:1054B00001EBE07105984144401A401E0590E0035D
:1054C00006D45B462146179A059800F05DF805441E
:1054D0001498007818B15A46179990476D1CE0034C
:1054E00024D55B462146179A059800F04DF80544EF
:1054F0001CE00498002807DBDDE90301884203DD96
:105500000098405C179901E0179930205A4690475F
:10551000049805F10105401C04900198401E01907B
:1055200004D12E205A46179990476D1CBAF10001FC
:10553000AAF1010ADDDC05E017F8010B5A461799BC
:1055400090476D1CB8F10001A8F10108F4DC5B463E
:105550002146179A0598ABE62D0000002B000000AD
:10556000200000002DE9F041044600251E461746A4
:10557000880404D405E039462020B0476D1C641E21
:10558000F9D52846BDE8F0812DE9F0410446002513
:105590001E469046C80301D5302700E02027880426
:1055A00004D505E041463846B0476D1C641EF9D568
:1055B0002846BDE8F0810A68531C0B6010707047E4
:1055C000002100E0491C8142FCD3704713B532230F
:1055D000012269460248FDF77FFA00981CBD0000D1
:1055E000A4010020FCF704F9FEF70CFDFEF78CF98E
:1055F000FEF7C2F8FEF716F9FEF716FAFEF74EF9B7
:10560000FEF75AFA01221D491D48FDF7BBF9FDF7C7
:1056100037FE0020FEF728F80020FDF789FD002066
:10562000FDF776FF4FF6FF70FDF786FFFDF7B4FA42
:105630002020FBF7B6F9114C401C123CC1B2E171BD
:105640002020FBF7CCF97F20FEF784F8FEF771F8F5
:1056500020720420FEF708F8FDF778FBFBF724F929
:10566000FEF752FCFBF76CF9FDF724FEFEF760FC39
:1056700000F008F8FEF722F8EEE700001A0000201C
:10568000A40100207CB50D4E7079012814D10C487E
:10569000314682788D784C78486A372A01D0382A8A
:1056A00008D1FAF79FFECDE900012A46214605A060
:1056B000FFF7E4FA002070717CBD000008000020B4
:1056C000840000205233373A25642C25642C25347D
:1056D0002E316625250D0A000000000000000000A4
:1056E00000000000000000000000000000000000BA
:1056F00000000000000000000000000000000000AA
:105700000000000000000000000080018001800116
:105710008001800180018001800180018001800181
:105720008001800100000000800180010000000075
:10573000000000000000000000000000CC00CC00D1
:10574000CC00CC00CC00CC00000000000000000029
:105750000000000000000000000000000000000049
:105760000000000000000000000000000000000039
:1057700000000000600C600C600C30063006FE1F5C
:10578000FE1F300638071803FE1FFE1F18031803FC
:105790008C018C018C01000000008000E003F80FF8
:1057A0009C0E8C1C8C188C009800F801E007800E71
:1057B000801C8C188C189C18B80CF00FE00380002B
:1057C00080000000000000000000000000000E1833
:1057D0001B0C110C11061106110311039B018E0104
:1057E000C038C06C60446044304430441844186C85
:1057F0000C380000000000000000E001F003380752
:10580000180618063003F001F000F8009C310E3342
:10581000061E061C061C063FFC73F021000000005B
:105820000000000000000000000000000C000C0060
:105830000C000C000C000C00000000000000000038
:105840000000000000000000000000000000000058
:1058500000000000000000000000000200038001C2
:10586000C000C00060006000300030003000300038
:10587000300030003000300060006000C000C00028
:105880008001000300020000000020006000C00052
:1058900080018001000300030006000600060006E8
:1058A00000060006000600060003000380018001D8
:1058B000C0006000200000000000000000000000A8
:1058C00000000000C000C000D806F807E001300367
:1058D0003807000000000000000000000000000089
:1058E00000000000000000000000000000000000B8
:1058F0000000000080018001800180018001FC3FE8
:10590000FC3F8001800180018001800100000000D7
:105910000000000000000000000000000000000087
:105920000000000000000000000000000000000077
:105930000000000000000000000080018001000164
:1059400000018000000000000000000000000000D6
:105950000000000000000000000000000000000047
:10596000E007E00700000000000000000000000069
:105970000000000000000000000000000000000027
:105980000000000000000000000000000000000017
:1059900000000000000000000000C000C000000087
:1059A00000000000000000000000000C000C0006D9
:1059B000000600060003000300038003800180014D
:1059C0008001C000C000C000600060000000000056
:1059D00000000000000000000000E003F007380EA7
:1059E000180C0C180C180C180C180C180C180C1897
:1059F0000C180C18180C380EF007E003000000001B
:105A00000000000000000000000000018001C00153
:105A1000F0019801880180018001800180018001EE
:105A20008001800180018001800180010000000070
:105A300000000000000000000000E003F80F180C58
:105A40000C180C1800180018000C00060003800148
:105A5000C000600030001800FC1FFC1F00000000A8
:105A600000000000000000000000E001F807180E30
:105A70000C0C0C0C000C0006C003C007000C001836
:105A800000180C180C18180CF807E00300000000B0
:105A900000000000000000000000000C000E000FDD
:105AA000000F800DC00C600C600C300C180C0C0C3E
:105AB000FC3FFC3F000C000C000C000C0000000040
:105AC00000000000000000000000F80FF80F1800B0
:105AD00018000C00EC03FC071C0E001C001800183A
